{
	"data": {
		"bytecode": {
			"linkReferences": {},
			"object": "60806040526000600a60006101000a81548160ff021916908360ff1602179055506000600a60016101000a81548160ff021916908360ff1602179055503480156200004957600080fd5b506040518060400160405280600e81526020017fc6b56f64696163682050726573730000000000000000000000000000000000008152506040518060400160405280600281526020017fc6b50000000000000000000000000000000000000000000000000000000000008152508160029081620000c7919062000ddd565b508060039081620000d9919062000ddd565b50620000ea6200026860201b60201c565b6000819055505050620001247f9f2df0fed2c77648de5860a4cc508cd0818c85b8b8a1ab4ceeef8d981c8956a6336200026d60201b60201c565b620001567f8e6595ef9afb2a8f70320f393f567bb7a0e6c4ed483caee30f90cc5fcd6659b4336200026d60201b60201c565b6200016b6000801b336200026d60201b60201c565b6200019d7fb19546dff01e856fb3f010c267a7b1c60363cf8a4664e21cc89c26224620214e336200026d60201b60201c565b620002196040518060400160405280600581526020017f41726965730000000000000000000000000000000000000000000000000000008152506040518060400160405280601f81526020017f4d617263682032312c2032303232202d20417072696c2031392c2032303232008152506200035f60201b60201c565b506200023663605a80ff65048c273950006200050760201b60201c565b50620002616040518060600160405280602c815260200162005aa4602c9139620005e460201b60201c565b506200121f565b600090565b6200027f8282620006b160201b60201c565b6200035b5760016008600084815260200190815260200160002060000160008373ffffffffffffffffffffffffffffffffffffffff1673ffffffffffffffffffffffffffffffffffffffff16815260200190815260200160002060006101000a81548160ff021916908315150217905550620003006200071c60201b60201c565b73ffffffffffffffffffffffffffffffffffffffff168173ffffffffffffffffffffffffffffffffffffffff16837f2f8788117e7eff1d82e926ec794901d17c78024a50270940304540a733656f0d60405160405180910390a45b5050565b60007fb19546dff01e856fb3f010c267a7b1c60363cf8a4664e21cc89c26224620214e62000393816200072460201b60201c565b6200039d62000af8565b60018160a0019060000b908160000b8152505083816020018190525084816000018190525080600b6000600a60009054906101000a900460ff1660ff1661ffff168152602001908152602001600020600082015181600001908162000403919062000ddd565b5060208201518160010190816200041b919062000ddd565b506040820151816002015560608201518160030190816200043d919062000ddd565b506080820151816004015560a08201518160050160006101000a81548160ff021916908360000b60ff16021790555060c08201518160050160016101000a8154816fffffffffffffffffffffffffffffffff02191690836fffffffffffffffffffffffffffffffff16021790555060e08201518160060160006101000a8154816fffffffffffffffffffffffffffffffff02191690836fffffffffffffffffffffffffffffffff160217905550905050620004fd6200074860201b60201c565b9250505092915050565b60007f9f2df0fed2c77648de5860a4cc508cd0818c85b8b8a1ab4ceeef8d981c8956a66200053b816200072460201b60201c565b6000600b6000600a60009054906101000a900460ff1660ff1661ffff1681526020019081526020016000209050848160020181905550600c600a8562000582919062000ef3565b18816004018190555060018160050160009054906101000a900460000b60000b03620005ca5760028160050160006101000a81548160ff021916908360000b60ff1602179055505b620005da6200074860201b60201c565b9250505092915050565b60007f8e6595ef9afb2a8f70320f393f567bb7a0e6c4ed483caee30f90cc5fcd6659b462000618816200072460201b60201c565b6000600b6000600a60009054906101000a900460ff1660ff1661ffff16815260200190815260200160002090508381600301908162000658919062000ddd565b5060028160050160009054906101000a900460000b60000b03620006985760038160050160006101000a81548160ff021916908360000b60ff1602179055505b620006a86200074860201b60201c565b92505050919050565b60006008600084815260200190815260200160002060000160008373ffffffffffffffffffffffffffffffffffffffff1673ffffffffffffffffffffffffffffffffffffffff16815260200190815260200160002060009054906101000a900460ff16905092915050565b600033905090565b6200074581620007396200071c60201b60201c565b620007bc60201b60201c565b50565b60007fb19546dff01e856fb3f010c267a7b1c60363cf8a4664e21cc89c26224620214e6200077c816200072460201b60201c565b600b6000600a60009054906101000a900460ff1660ff1661ffff16815260200190815260200160002060050160009054906101000a900460000b91505090565b620007ce8282620006b160201b60201c565b6200086457620007e9816200086860201b62001d381760201c565b620008048360001c60206200089d60201b62001d651760201c565b604051602001620008179291906200104c565b6040516020818303038152906040526040517f08c379a00000000000000000000000000000000000000000000000000000000081526004016200085b9190620010f1565b60405180910390fd5b5050565b6060620008968273ffffffffffffffffffffffffffffffffffffffff16601460ff166200089d60201b60201c565b9050919050565b606060006002836002620008b2919062000ef3565b620008be919062001115565b67ffffffffffffffff811115620008da57620008d962000b6e565b5b6040519080825280601f01601f1916602001820160405280156200090d5781602001600182028036833780820191505090505b5090507f30000000000000000000000000000000000000000000000000000000000000008160008151811062000948576200094762001150565b5b60200101907effffffffffffffffffffffffffffffffffffffffffffffffffffffffffffff1916908160001a9053507f780000000000000000000000000000000000000000000000000000000000000081600181518110620009af57620009ae62001150565b5b60200101907effffffffffffffffffffffffffffffffffffffffffffffffffffffffffffff1916908160001a90535060006001846002620009f1919062000ef3565b620009fd919062001115565b90505b600181111562000aa7577f3031323334353637383961626364656600000000000000000000000000000000600f86166010811062000a435762000a4262001150565b5b1a60f81b82828151811062000a5d5762000a5c62001150565b5b60200101907effffffffffffffffffffffffffffffffffffffffffffffffffffffffffffff1916908160001a905350600485901c94508062000a9f906200117f565b905062000a00565b506000841462000aee576040517f08c379a000000000000000000000000000000000000000000000000000000000815260040162000ae590620011fd565b60405180910390fd5b8091505092915050565b60405180610100016040528060608152602001606081526020016000815260200160608152602001600081526020016000800b815260200160006fffffffffffffffffffffffffffffffff16815260200160006fffffffffffffffffffffffffffffffff1681525090565b600081519050919050565b7f4e487b7100000000000000000000000000000000000000000000000000000000600052604160045260246000fd5b7f4e487b7100000000000000000000000000000000000000000000000000000000600052602260045260246000fd5b6000600282049050600182168062000be557607f821691505b60208210810362000bfb5762000bfa62000b9d565b5b50919050565b60008190508160005260206000209050919050565b60006020601f8301049050919050565b600082821b905092915050565b60006008830262000c657fffffffffffffffffffffffffffffffffffffffffffffffffffffffffffffffff8262000c26565b62000c71868362000c26565b95508019841693508086168417925050509392505050565b6000819050919050565b6000819050919050565b600062000cbe62000cb862000cb28462000c89565b62000c93565b62000c89565b9050919050565b6000819050919050565b62000cda8362000c9d565b62000cf262000ce98262000cc5565b84845462000c33565b825550505050565b600090565b62000d0962000cfa565b62000d1681848462000ccf565b505050565b5b8181101562000d3e5762000d3260008262000cff565b60018101905062000d1c565b5050565b601f82111562000d8d5762000d578162000c01565b62000d628462000c16565b8101602085101562000d72578190505b62000d8a62000d818562000c16565b83018262000d1b565b50505b505050565b600082821c905092915050565b600062000db26000198460080262000d92565b1980831691505092915050565b600062000dcd838362000d9f565b9150826002028217905092915050565b62000de88262000b63565b67ffffffffffffffff81111562000e045762000e0362000b6e565b5b62000e10825462000bcc565b62000e1d82828562000d42565b600060209050601f83116001811462000e55576000841562000e40578287015190505b62000e4c858262000dbf565b86555062000ebc565b601f19841662000e658662000c01565b60005b8281101562000e8f5784890151825560018201915060208501945060208101905062000e68565b8683101562000eaf578489015162000eab601f89168262000d9f565b8355505b6001600288020188555050505b505050505050565b7f4e487b7100000000000000000000000000000000000000000000000000000000600052601160045260246000fd5b600062000f008262000c89565b915062000f0d8362000c89565b925082820262000f1d8162000c89565b9150828204841483151762000f375762000f3662000ec4565b5b5092915050565b600081905092915050565b7f416363657373436f6e74726f6c3a206163636f756e7420000000000000000000600082015250565b600062000f8160178362000f3e565b915062000f8e8262000f49565b601782019050919050565b60005b8381101562000fb957808201518184015260208101905062000f9c565b60008484015250505050565b600062000fd28262000b63565b62000fde818562000f3e565b935062000ff081856020860162000f99565b80840191505092915050565b7f206973206d697373696e6720726f6c6520000000000000000000000000000000600082015250565b60006200103460118362000f3e565b9150620010418262000ffc565b601182019050919050565b6000620010598262000f72565b915062001067828562000fc5565b9150620010748262001025565b915062001082828462000fc5565b91508190509392505050565b600082825260208201905092915050565b6000601f19601f8301169050919050565b6000620010bd8262000b63565b620010c981856200108e565b9350620010db81856020860162000f99565b620010e6816200109f565b840191505092915050565b600060208201905081810360008301526200110d8184620010b0565b905092915050565b6000620011228262000c89565b91506200112f8362000c89565b92508282019050808211156200114a576200114962000ec4565b5b92915050565b7f4e487b7100000000000000000000000000000000000000000000000000000000600052603260045260246000fd5b60006200118c8262000c89565b915060008203620011a257620011a162000ec4565b5b600182039050919050565b7f537472696e67733a20686578206c656e67746820696e73756666696369656e74600082015250565b6000620011e56020836200108e565b9150620011f282620011ad565b602082019050919050565b600060208201905081810360008301526200121881620011d6565b9050919050565b614875806200122f6000396000f3fe6080604052600436106102725760003560e01c806374bdda151161014f578063a93cd768116100c1578063c87b56dd1161007a578063c87b56dd1461090e578063d53913931461094b578063d547741f14610976578063e58378bb1461099f578063e742aade146109ca578063e985e9c5146109e657610272565b8063a93cd7681461083b578063b88d4fde14610857578063b9fdbb4a14610873578063bb7dcc4e1461087d578063bc76903514610894578063c23dc68f146108d157610272565b806396dfcbea1161011357806396dfcbea1461074c57806399a2557a14610777578063a217fddf146107b4578063a22cb465146107df578063a515a10014610808578063a7a7dd731461081f57610272565b806374bdda151461066257806377097fc81461067e5780638462151c146106a757806391d14854146106e457806395d89b411461072157610272565b80632f2ff15d116101e857806342966c68116101ac57806342966c681461053d578063561e8eff1461056657806359927bbe146105825780635bbb2177146105ab5780636352211e146105e857806370a082311461062557610272565b80632f2ff15d1461047d57806331d41c69146104a657806336568abe146104cf5780634082857c146104f857806342842e0e1461052157610272565b806313338a501161023a57806313338a501461036357806318160ddd1461037f5780631b7b5893146103aa57806323b872dd146103e7578063248a9ca3146104035780632bf1fbe81461044057610272565b806301ffc9a71461027757806306fdde03146102b4578063081812fc146102df578063095ea7b31461031c5780630ab5f32a14610338575b600080fd5b34801561028357600080fd5b5061029e60048036038101906102999190612fe0565b610a23565b6040516102ab9190613028565b60405180910390f35b3480156102c057600080fd5b506102c9610ab5565b6040516102d691906130d3565b60405180910390f35b3480156102eb57600080fd5b506103066004803603810190610301919061312b565b610b47565b6040516103139190613199565b60405180910390f35b610336600480360381019061033191906131e0565b610ba5565b005b34801561034457600080fd5b5061034d610bb5565b60405161035a9190613239565b60405180910390f35b61037d6004803603810190610378919061328e565b610bd9565b005b34801561038b57600080fd5b50610394610bdc565b6040516103a191906132ca565b60405180910390f35b3480156103b657600080fd5b506103d160048036038101906103cc919061341a565b610bf3565b6040516103de919061347f565b60405180910390f35b61040160048036038101906103fc919061349a565b610cad565b005b34801561040f57600080fd5b5061042a60048036038101906104259190613519565b610f6e565b6040516104379190613239565b60405180910390f35b34801561044c57600080fd5b5061046760048036038101906104629190613546565b610f8e565b604051610474919061347f565b60405180910390f35b34801561048957600080fd5b506104a4600480360381019061049f91906135be565b61111e565b005b3480156104b257600080fd5b506104cd60048036038101906104c891906135fe565b61113f565b005b3480156104db57600080fd5b506104f660048036038101906104f191906135be565b6111bd565b005b34801561050457600080fd5b5061051f600480360381019061051a919061328e565b611240565b005b61053b6004803603810190610536919061349a565b611243565b005b34801561054957600080fd5b50610564600480360381019061055f919061312b565b611263565b005b610580600480360381019061057b919061365a565b611271565b005b34801561058e57600080fd5b506105a960048036038101906105a4919061369a565b611275565b005b3480156105b757600080fd5b506105d260048036038101906105cd9190613769565b6112b9565b6040516105df9190613919565b60405180910390f35b3480156105f457600080fd5b5061060f600480360381019061060a919061312b565b611319565b60405161061c9190613199565b60405180910390f35b34801561063157600080fd5b5061064c6004803603810190610647919061393b565b61132b565b60405161065991906132ca565b60405180910390f35b61067c6004803603810190610677919061312b565b6113c2565b005b34801561068a57600080fd5b506106a560048036038101906106a091906135fe565b6113c5565b005b3480156106b357600080fd5b506106ce60048036038101906106c9919061393b565b611408565b6040516106db9190613a26565b60405180910390f35b3480156106f057600080fd5b5061070b600480360381019061070691906135be565b611499565b6040516107189190613028565b60405180910390f35b34801561072d57600080fd5b50610736611504565b60405161074391906130d3565b60405180910390f35b34801561075857600080fd5b50610761611596565b60405161076e919061347f565b60405180910390f35b34801561078357600080fd5b5061079e60048036038101906107999190613a48565b611602565b6040516107ab9190613a26565b60405180910390f35b3480156107c057600080fd5b506107c961171a565b6040516107d69190613239565b60405180910390f35b3480156107eb57600080fd5b5061080660048036038101906108019190613ac7565b611721565b005b34801561081457600080fd5b5061081d61182c565b005b6108396004803603810190610834919061393b565b6119ab565b005b61085560048036038101906108509190613b40565b6119ae565b005b610871600480360381019061086c9190613c21565b6119bb565b005b61087b611a0d565b005b34801561088957600080fd5b50610892611a0f565b005b3480156108a057600080fd5b506108bb60048036038101906108b69190613ca4565b611a11565b6040516108c8919061347f565b60405180910390f35b3480156108dd57600080fd5b506108f860048036038101906108f3919061312b565b611adb565b6040516109059190613d39565b60405180910390f35b34801561091a57600080fd5b506109356004803603810190610930919061312b565b611b27565b60405161094291906130d3565b60405180910390f35b34801561095757600080fd5b50610960611bc8565b60405161096d9190613239565b60405180910390f35b34801561098257600080fd5b5061099d600480360381019061099891906135be565b611bec565b005b3480156109ab57600080fd5b506109b4611c0d565b6040516109c19190613239565b60405180910390f35b6109e460048036038101906109df9190613e17565b611c31565b005b3480156109f257600080fd5b50610a0d6004803603810190610a089190613e60565b611ca4565b604051610a1a9190613028565b60405180910390f35b60006301ffc9a760e01b827bffffffffffffffffffffffffffffffffffffffffffffffffffffffff19161480610a7e57506380ac58cd60e01b827bffffffffffffffffffffffffffffffffffffffffffffffffffffffff1916145b80610aae5750635b5e139f60e01b827bffffffffffffffffffffffffffffffffffffffffffffffffffffffff1916145b9050919050565b606060028054610ac490613ecf565b80601f0160208091040260200160405190810160405280929190818152602001828054610af090613ecf565b8015610b3d5780601f10610b1257610100808354040283529160200191610b3d565b820191906000526020600020905b815481529060010190602001808311610b2057829003601f168201915b5050505050905090565b6000610b5282611fa1565b610b6757610b6663cf4700e460e01b612000565b5b6006600083815260200190815260200160002060000160009054906101000a900473ffffffffffffffffffffffffffffffffffffffff169050919050565b610bb18282600161200a565b5050565b7f8e6595ef9afb2a8f70320f393f567bb7a0e6c4ed483caee30f90cc5fcd6659b481565b50565b6000610be6612139565b6001546000540303905090565b60007f8e6595ef9afb2a8f70320f393f567bb7a0e6c4ed483caee30f90cc5fcd6659b4610c1f8161213e565b6000600b6000600a60009054906101000a900460ff1660ff1661ffff168152602001908152602001600020905083816003019081610c5d91906140ac565b5060028160050160009054906101000a900460000b60000b03610c9c5760038160050160006101000a81548160ff021916908360000b60ff1602179055505b610ca4611596565b92505050919050565b6000610cb882612152565b905073ffffffffffffffffffffffffffffffffffffffff8473ffffffffffffffffffffffffffffffffffffffff161693508373ffffffffffffffffffffffffffffffffffffffff168173ffffffffffffffffffffffffffffffffffffffff1614610d2d57610d2c63a114810060e01b612000565b5b600080610d3984612208565b91509150610d4f8187610d4a61222f565b612237565b610d7a57610d6486610d5f61222f565b611ca4565b610d7957610d786359c896be60e01b612000565b5b5b610d87868686600161227b565b8015610d9257600082555b600560008773ffffffffffffffffffffffffffffffffffffffff1673ffffffffffffffffffffffffffffffffffffffff168152602001908152602001600020600081546001900391905081905550600560008673ffffffffffffffffffffffffffffffffffffffff1673ffffffffffffffffffffffffffffffffffffffff1681526020019081526020016000206000815460010191905081905550610e6085610e3c888887612281565b7c0200000000000000000000000000000000000000000000000000000000176122a9565b600460008681526020019081526020016000208190555060007c0200000000000000000000000000000000000000000000000000000000841603610ee65760006001850190506000600460008381526020019081526020016000205403610ee4576000548114610ee3578360046000838152602001908152602001600020819055505b5b505b600073ffffffffffffffffffffffffffffffffffffffff8673ffffffffffffffffffffffffffffffffffffffff161690508481887fddf252ad1be2c89b69c2b068fc378daa952ba7f163c4a11628f55a4df523b3ef600080a460008103610f5857610f5763ea553b3460e01b612000565b5b610f6587878760016122d4565b50505050505050565b600060086000838152602001908152602001600020600101549050919050565b60007fb19546dff01e856fb3f010c267a7b1c60363cf8a4664e21cc89c26224620214e610fba8161213e565b610fc2612eba565b60018160a0019060000b908160000b8152505083816020018190525084816000018190525080600b6000600a60009054906101000a900460ff1660ff1661ffff168152602001908152602001600020600082015181600001908161102691906140ac565b50602082015181600101908161103c91906140ac565b5060408201518160020155606082015181600301908161105c91906140ac565b506080820151816004015560a08201518160050160006101000a81548160ff021916908360000b60ff16021790555060c08201518160050160016101000a8154816fffffffffffffffffffffffffffffffff02191690836fffffffffffffffffffffffffffffffff16021790555060e08201518160060160006101000a8154816fffffffffffffffffffffffffffffffff02191690836fffffffffffffffffffffffffffffffff160217905550905050611114611596565b9250505092915050565b61112782610f6e565b6111308161213e565b61113a83836122da565b505050565b7f8e6595ef9afb2a8f70320f393f567bb7a0e6c4ed483caee30f90cc5fcd6659b46111698161213e565b600060096000858152602001908152602001600020600101805461118c90613ecf565b9050146111b857816009600085815260200190815260200160002060010190816111b691906140ac565b505b505050565b6111c56123bb565b73ffffffffffffffffffffffffffffffffffffffff168173ffffffffffffffffffffffffffffffffffffffff1614611232576040517f08c379a0000000000000000000000000000000000000000000000000000000008152600401611229906141f0565b60405180910390fd5b61123c82826123c3565b5050565b50565b61125e838383604051806020016040528060008152506119bb565b505050565b61126e8160016124a5565b50565b5050565b7f9f2df0fed2c77648de5860a4cc508cd0818c85b8b8a1ab4ceeef8d981c8956a661129f8161213e565b6112a984836126d6565b6112b3838561274b565b50505050565b606080600084849050905060405191508082528060051b90508060208301016040525b6000811461130e57600060208203915081860135905060006112fd82611adb565b9050808360208601015250506112dc565b819250505092915050565b600061132482612152565b9050919050565b60008073ffffffffffffffffffffffffffffffffffffffff168273ffffffffffffffffffffffffffffffffffffffff160361137157611370638f4eb60460e01b612000565b5b67ffffffffffffffff600560008473ffffffffffffffffffffffffffffffffffffffff1673ffffffffffffffffffffffffffffffffffffffff16815260200190815260200160002054169050919050565b50565b7f9f2df0fed2c77648de5860a4cc508cd0818c85b8b8a1ab4ceeef8d981c8956a66113ef8161213e565b6113f983836126d6565b611403338461274b565b505050565b606060006114158361132b565b9050606060405190506001820160051b8101604052818152600080600061143a612139565b90505b84821461148c57600061144f82612769565b905060408101516114805780511561146657805193505b87841860601b61147f57600183019250818360051b8601525b5b6001820191505061143d565b5082945050505050919050565b60006008600084815260200190815260200160002060000160008373ffffffffffffffffffffffffffffffffffffffff1673ffffffffffffffffffffffffffffffffffffffff16815260200190815260200160002060009054906101000a900460ff16905092915050565b60606003805461151390613ecf565b80601f016020809104026020016040519081016040528092919081815260200182805461153f90613ecf565b801561158c5780601f106115615761010080835404028352916020019161158c565b820191906000526020600020905b81548152906001019060200180831161156f57829003601f168201915b5050505050905090565b60007fb19546dff01e856fb3f010c267a7b1c60363cf8a4664e21cc89c26224620214e6115c28161213e565b600b6000600a60009054906101000a900460ff1660ff1661ffff16815260200190815260200160002060050160009054906101000a900460000b91505090565b606081831061161c5761161b6332c1995a60e01b612000565b5b611624612139565b83101561163657611633612139565b92505b6000611640612794565b905080831061164d578092505b6060600061165a8761132b565b90506000858710905080820291506000821461170c57818787031161167f5786860391505b60405192506001820160051b8301604052600061169b88611adb565b9050600081604001516116b057816000015190505b60005b6116bc8a612769565b925060408301516116ed578251156116d357825191505b8a821860601b6116ec57600181019050898160051b8701525b5b60018a019950888a148061170057508481145b156116b3578086525050505b829450505050509392505050565b6000801b81565b806007600061172e61222f565b73ffffffffffffffffffffffffffffffffffffffff1673ffffffffffffffffffffffffffffffffffffffff16815260200190815260200160002060008473ffffffffffffffffffffffffffffffffffffffff1673ffffffffffffffffffffffffffffffffffffffff16815260200190815260200160002060006101000a81548160ff0219169083151502179055508173ffffffffffffffffffffffffffffffffffffffff166117db61222f565b73ffffffffffffffffffffffffffffffffffffffff167f17307eab39ab6107e8899845ad3d59bd9653f200f220920489ca2b5937696c31836040516118209190613028565b60405180910390a35050565b7f9f2df0fed2c77648de5860a4cc508cd0818c85b8b8a1ab4ceeef8d981c8956a66118568161213e565b6000600b6000600a60009054906101000a900460ff1660ff1661ffff168152602001908152602001600020905060028160050160009054906101000a900460000b60000b136118da576040517f08c379a00000000000000000000000000000000000000000000000000000000081526004016118d190614282565b60405180910390fd5b60038160050160009054906101000a900460000b60000b14611931576040517f08c379a000000000000000000000000000000000000000000000000000000000815260040161192890614314565b60405180910390fd5b60048160050160006101000a81548160ff021916908360000b60ff1602179055506001600b60006001600a60009054906101000a900460ff166119749190614363565b60ff1661ffff16815260200190815260200160002060050160006101000a81548160ff021916908360000b60ff1602179055505050565b50565b6119b661279d565b505050565b6119c6848484610cad565b60008373ffffffffffffffffffffffffffffffffffffffff163b14611a07576119f1848484846128d5565b611a0657611a0563d1a57ed660e01b612000565b5b5b50505050565b565b565b60007f9f2df0fed2c77648de5860a4cc508cd0818c85b8b8a1ab4ceeef8d981c8956a6611a3d8161213e565b6000600b6000600a60009054906101000a900460ff1660ff1661ffff1681526020019081526020016000209050848160020181905550600c600a85611a829190614398565b18816004018190555060018160050160009054906101000a900460000b60000b03611ac95760028160050160006101000a81548160ff021916908360000b60ff1602179055505b611ad1611596565b9250505092915050565b611ae3612f25565b611aeb612139565b8210611b2257611af9612794565b821015611b2157611b0982612769565b90508060400151611b2057611b1d82612a04565b90505b5b5b919050565b6060611b3282611fa1565b611b68576040517fa14c4b5000000000000000000000000000000000000000000000000000000000815260040160405180910390fd5b6000611b7383612a24565b5103611b8e5760405180602001604052806000815250611bc1565b611b9782612a24565b611ba083612b2e565b604051602001611bb1929190614462565b6040516020818303038152906040525b9050919050565b7f9f2df0fed2c77648de5860a4cc508cd0818c85b8b8a1ab4ceeef8d981c8956a681565b611bf582610f6e565b611bfe8161213e565b611c0883836123c3565b505050565b7fb19546dff01e856fb3f010c267a7b1c60363cf8a4664e21cc89c26224620214e81565b6000611c3b61279d565b9050600782600081518110611c5357611c52614491565b5b60200260200101515050600c82600081518110611c7357611c72614491565b5b6020026020010151505060005b82518160ff161015611c9f578080611c97906144c0565b915050611c80565b505050565b6000600760008473ffffffffffffffffffffffffffffffffffffffff1673ffffffffffffffffffffffffffffffffffffffff16815260200190815260200160002060008373ffffffffffffffffffffffffffffffffffffffff1673ffffffffffffffffffffffffffffffffffffffff16815260200190815260200160002060009054906101000a900460ff16905092915050565b6060611d5e8273ffffffffffffffffffffffffffffffffffffffff16601460ff16611d65565b9050919050565b606060006002836002611d789190614398565b611d8291906144e9565b67ffffffffffffffff811115611d9b57611d9a6132ef565b5b6040519080825280601f01601f191660200182016040528015611dcd5781602001600182028036833780820191505090505b5090507f300000000000000000000000000000000000000000000000000000000000000081600081518110611e0557611e04614491565b5b60200101907effffffffffffffffffffffffffffffffffffffffffffffffffffffffffffff1916908160001a9053507f780000000000000000000000000000000000000000000000000000000000000081600181518110611e6957611e68614491565b5b60200101907effffffffffffffffffffffffffffffffffffffffffffffffffffffffffffff1916908160001a90535060006001846002611ea99190614398565b611eb391906144e9565b90505b6001811115611f53577f3031323334353637383961626364656600000000000000000000000000000000600f861660108110611ef557611ef4614491565b5b1a60f81b828281518110611f0c57611f0b614491565b5b60200101907effffffffffffffffffffffffffffffffffffffffffffffffffffffffffffff1916908160001a905350600485901c945080611f4c9061451d565b9050611eb6565b5060008414611f97576040517f08c379a0000000000000000000000000000000000000000000000000000000008152600401611f8e90614592565b60405180910390fd5b8091505092915050565b600081611fac612139565b11158015611fbb575060005482105b8015611ff9575060007c0100000000000000000000000000000000000000000000000000000000600460008581526020019081526020016000205416145b9050919050565b8060005260046000fd5b600061201583611319565b905081801561205757508073ffffffffffffffffffffffffffffffffffffffff1661203e61222f565b73ffffffffffffffffffffffffffffffffffffffff1614155b156120835761206d8161206861222f565b611ca4565b6120825761208163cfb3b94260e01b612000565b5b5b836006600085815260200190815260200160002060000160006101000a81548173ffffffffffffffffffffffffffffffffffffffff021916908373ffffffffffffffffffffffffffffffffffffffff160217905550828473ffffffffffffffffffffffffffffffffffffffff168273ffffffffffffffffffffffffffffffffffffffff167f8c5be1e5ebec7d5bd14f71427d1e84f3dd0314c0f7b2291e5b200ac8c7c3b92560405160405180910390a450505050565b600090565b61214f8161214a6123bb565b612b7e565b50565b60008161215d612139565b116121f2576004600083815260200190815260200160002054905060007c01000000000000000000000000000000000000000000000000000000008216036121f157600081036121ec5760005482106121c1576121c063df2d9b4260e01b612000565b5b5b600460008360019003935083815260200190815260200160002054905060008103612203576121c2565b612203565b5b61220263df2d9b4260e01b612000565b5b919050565b60008060006006600085815260200190815260200160002090508092508254915050915091565b600033905090565b600073ffffffffffffffffffffffffffffffffffffffff8316925073ffffffffffffffffffffffffffffffffffffffff821691508382148383141790509392505050565b50505050565b60008060e883901c905060e8612298868684612c03565b62ffffff16901b9150509392505050565b600073ffffffffffffffffffffffffffffffffffffffff83169250814260a01b178317905092915050565b50505050565b6122e48282611499565b6123b75760016008600084815260200190815260200160002060000160008373ffffffffffffffffffffffffffffffffffffffff1673ffffffffffffffffffffffffffffffffffffffff16815260200190815260200160002060006101000a81548160ff02191690831515021790555061235c6123bb565b73ffffffffffffffffffffffffffffffffffffffff168173ffffffffffffffffffffffffffffffffffffffff16837f2f8788117e7eff1d82e926ec794901d17c78024a50270940304540a733656f0d60405160405180910390a45b5050565b600033905090565b6123cd8282611499565b156124a15760006008600084815260200190815260200160002060000160008373ffffffffffffffffffffffffffffffffffffffff1673ffffffffffffffffffffffffffffffffffffffff16815260200190815260200160002060006101000a81548160ff0219169083151502179055506124466123bb565b73ffffffffffffffffffffffffffffffffffffffff168173ffffffffffffffffffffffffffffffffffffffff16837ff6391f5c32d9c69d2a47ea670b442974b53935d1edc7fd64eb21e047a839171b60405160405180910390a45b5050565b60006124b083612152565b905060008190506000806124c386612208565b91509150841561250b576124df81846124da61222f565b612237565b61250a576124f4836124ef61222f565b611ca4565b612509576125086359c896be60e01b612000565b5b5b5b61251983600088600161227b565b801561252457600082555b600160806001901b03600560008573ffffffffffffffffffffffffffffffffffffffff1673ffffffffffffffffffffffffffffffffffffffff168152602001908152602001600020600082825401925050819055506125cc8361258985600088612281565b7c02000000000000000000000000000000000000000000000000000000007c010000000000000000000000000000000000000000000000000000000017176122a9565b600460008881526020019081526020016000208190555060007c0200000000000000000000000000000000000000000000000000000000851603612652576000600187019050600060046000838152602001908152602001600020540361265057600054811461264f578460046000838152602001908152602001600020819055505b5b505b85600073ffffffffffffffffffffffffffffffffffffffff168473ffffffffffffffffffffffffffffffffffffffff167fddf252ad1be2c89b69c2b068fc378daa952ba7f163c4a11628f55a4df523b3ef60405160405180910390a46126bc8360008860016122d4565b600160008154809291906001019190505550505050505050565b600082116126e357600080fd5b6040518060400160405280836126f7612794565b61270191906144e9565b81526020018281525060096000612716612794565b815260200190815260200160002060008201518160000155602082015181600101908161274391906140ac565b509050505050565b612765828260405180602001604052806000815250612c0c565b5050565b612771612f25565b61278d6004600084815260200190815260200160002054612c91565b9050919050565b60008054905090565b60006007600b6000600a60019054906101000a900460ff1660ff1661ffff16815260200190815260200160002060050160009054906101000a900460000b60000b1461281e576040517f08c379a0000000000000000000000000000000000000000000000000000000008152600401612815906145fe565b60405180910390fd5b611324600b6000600a60019054906101000a900460ff1660ff1661ffff16815260200190815260200160002060050160019054906101000a90046fffffffffffffffffffffffffffffffff166fffffffffffffffffffffffffffffffff1611156128bd576040517f08c379a00000000000000000000000000000000000000000000000000000000081526004016128b49061466a565b60405180910390fd5b600a60019054906101000a900460ff1660ff16905090565b60008373ffffffffffffffffffffffffffffffffffffffff1663150b7a026128fb61222f565b8786866040518563ffffffff1660e01b815260040161291d94939291906146df565b6020604051808303816000875af192505050801561295957506040513d601f19601f820116820180604052508101906129569190614740565b60015b6129b1573d8060008114612989576040519150601f19603f3d011682016040523d82523d6000602084013e61298e565b606091505b5060008151036129a9576129a863d1a57ed660e01b612000565b5b805181602001fd5b63150b7a0260e01b7bffffffffffffffffffffffffffffffffffffffffffffffffffffffff1916817bffffffffffffffffffffffffffffffffffffffffffffffffffffffff191614915050949350505050565b612a0c612f25565b612a1d612a1883612152565b612c91565b9050919050565b606060005b612a31612794565b811015612b2757828111158015612a5d5750600960008281526020019081526020016000206000015483105b15612b0957600960008281526020019081526020016000206001018054612a8390613ecf565b80601f0160208091040260200160405190810160405280929190818152602001828054612aaf90613ecf565b8015612afc5780601f10612ad157610100808354040283529160200191612afc565b820191906000526020600020905b815481529060010190602001808311612adf57829003601f168201915b5050505050915050612b29565b60096000828152602001908152602001600020600001549050612a29565b505b919050565b606060a060405101806040526020810391506000825281835b600115612b6957600184039350600a81066030018453600a8104905080612b47575b50828103602084039350808452505050919050565b612b888282611499565b612bff57612b9581611d38565b612ba38360001c6020611d65565b604051602001612bb4929190614805565b6040516020818303038152906040526040517f08c379a0000000000000000000000000000000000000000000000000000000008152600401612bf691906130d3565b60405180910390fd5b5050565b60009392505050565b612c168383612d47565b60008373ffffffffffffffffffffffffffffffffffffffff163b14612c8c57600080549050600083820390505b612c5660008683806001019450866128d5565b612c6b57612c6a63d1a57ed660e01b612000565b5b818110612c43578160005414612c8957612c88600060e01b612000565b5b50505b505050565b612c99612f25565b81816000019073ffffffffffffffffffffffffffffffffffffffff16908173ffffffffffffffffffffffffffffffffffffffff168152505060a082901c816020019067ffffffffffffffff16908167ffffffffffffffff168152505060007c01000000000000000000000000000000000000000000000000000000008316141581604001901515908115158152505060e882901c816060019062ffffff16908162ffffff1681525050919050565b60008054905060008203612d6657612d6563b562e8dd60e01b612000565b5b612d73600084838561227b565b612d9383612d846000866000612281565b612d8d85612eaa565b176122a9565b6004600083815260200190815260200160002081905550600160406001901b178202600560008573ffffffffffffffffffffffffffffffffffffffff1673ffffffffffffffffffffffffffffffffffffffff16815260200190815260200160002060008282540192505081905550600073ffffffffffffffffffffffffffffffffffffffff8473ffffffffffffffffffffffffffffffffffffffff1616905060008103612e4b57612e4a632e07630060e01b612000565b5b6000838301905060008390505b808360007fddf252ad1be2c89b69c2b068fc378daa952ba7f163c4a11628f55a4df523b3ef600080a4818160010191508103612e585781600081905550505050612ea560008483856122d4565b505050565b60006001821460e11b9050919050565b60405180610100016040528060608152602001606081526020016000815260200160608152602001600081526020016000800b815260200160006fffffffffffffffffffffffffffffffff16815260200160006fffffffffffffffffffffffffffffffff1681525090565b6040518060800160405280600073ffffffffffffffffffffffffffffffffffffffff168152602001600067ffffffffffffffff168152602001600015158152602001600062ffffff1681525090565b6000604051905090565b600080fd5b600080fd5b60007fffffffff0000000000000000000000000000000000000000000000000000000082169050919050565b612fbd81612f88565b8114612fc857600080fd5b50565b600081359050612fda81612fb4565b92915050565b600060208284031215612ff657612ff5612f7e565b5b600061300484828501612fcb565b91505092915050565b60008115159050919050565b6130228161300d565b82525050565b600060208201905061303d6000830184613019565b92915050565b600081519050919050565b600082825260208201905092915050565b60005b8381101561307d578082015181840152602081019050613062565b60008484015250505050565b6000601f19601f8301169050919050565b60006130a582613043565b6130af818561304e565b93506130bf81856020860161305f565b6130c881613089565b840191505092915050565b600060208201905081810360008301526130ed818461309a565b905092915050565b6000819050919050565b613108816130f5565b811461311357600080fd5b50565b600081359050613125816130ff565b92915050565b60006020828403121561314157613140612f7e565b5b600061314f84828501613116565b91505092915050565b600073ffffffffffffffffffffffffffffffffffffffff82169050919050565b600061318382613158565b9050919050565b61319381613178565b82525050565b60006020820190506131ae600083018461318a565b92915050565b6131bd81613178565b81146131c857600080fd5b50565b6000813590506131da816131b4565b92915050565b600080604083850312156131f7576131f6612f7e565b5b6000613205858286016131cb565b925050602061321685828601613116565b9150509250929050565b6000819050919050565b61323381613220565b82525050565b600060208201905061324e600083018461322a565b92915050565b600061ffff82169050919050565b61326b81613254565b811461327657600080fd5b50565b60008135905061328881613262565b92915050565b6000602082840312156132a4576132a3612f7e565b5b60006132b284828501613279565b91505092915050565b6132c4816130f5565b82525050565b60006020820190506132df60008301846132bb565b92915050565b600080fd5b600080fd5b7f4e487b7100000000000000000000000000000000000000000000000000000000600052604160045260246000fd5b61332782613089565b810181811067ffffffffffffffff82111715613346576133456132ef565b5b80604052505050565b6000613359612f74565b9050613365828261331e565b919050565b600067ffffffffffffffff821115613385576133846132ef565b5b61338e82613089565b9050602081019050919050565b82818337600083830152505050565b60006133bd6133b88461336a565b61334f565b9050828152602081018484840111156133d9576133d86132ea565b5b6133e484828561339b565b509392505050565b600082601f830112613401576134006132e5565b5b81356134118482602086016133aa565b91505092915050565b6000602082840312156134305761342f612f7e565b5b600082013567ffffffffffffffff81111561344e5761344d612f83565b5b61345a848285016133ec565b91505092915050565b60008160000b9050919050565b61347981613463565b82525050565b60006020820190506134946000830184613470565b92915050565b6000806000606084860312156134b3576134b2612f7e565b5b60006134c1868287016131cb565b93505060206134d2868287016131cb565b92505060406134e386828701613116565b9150509250925092565b6134f681613220565b811461350157600080fd5b50565b600081359050613513816134ed565b92915050565b60006020828403121561352f5761352e612f7e565b5b600061353d84828501613504565b91505092915050565b6000806040838503121561355d5761355c612f7e565b5b600083013567ffffffffffffffff81111561357b5761357a612f83565b5b613587858286016133ec565b925050602083013567ffffffffffffffff8111156135a8576135a7612f83565b5b6135b4858286016133ec565b9150509250929050565b600080604083850312156135d5576135d4612f7e565b5b60006135e385828601613504565b92505060206135f4858286016131cb565b9150509250929050565b6000806040838503121561361557613614612f7e565b5b600061362385828601613116565b925050602083013567ffffffffffffffff81111561364457613643612f83565b5b613650858286016133ec565b9150509250929050565b6000806040838503121561367157613670612f7e565b5b600061367f858286016131cb565b925050602061369085828601613279565b9150509250929050565b6000806000606084860312156136b3576136b2612f7e565b5b60006136c186828701613116565b93505060206136d2868287016131cb565b925050604084013567ffffffffffffffff8111156136f3576136f2612f83565b5b6136ff868287016133ec565b9150509250925092565b600080fd5b600080fd5b60008083601f840112613729576137286132e5565b5b8235905067ffffffffffffffff81111561374657613745613709565b5b6020830191508360208202830111156137625761376161370e565b5b9250929050565b600080602083850312156137805761377f612f7e565b5b600083013567ffffffffffffffff81111561379e5761379d612f83565b5b6137aa85828601613713565b92509250509250929050565b600081519050919050565b600082825260208201905092915050565b6000819050602082019050919050565b6137eb81613178565b82525050565b600067ffffffffffffffff82169050919050565b61380e816137f1565b82525050565b61381d8161300d565b82525050565b600062ffffff82169050919050565b61383b81613823565b82525050565b60808201600082015161385760008501826137e2565b50602082015161386a6020850182613805565b50604082015161387d6040850182613814565b5060608201516138906060850182613832565b50505050565b60006138a28383613841565b60808301905092915050565b6000602082019050919050565b60006138c6826137b6565b6138d081856137c1565b93506138db836137d2565b8060005b8381101561390c5781516138f38882613896565b97506138fe836138ae565b9250506001810190506138df565b5085935050505092915050565b6000602082019050818103600083015261393381846138bb565b905092915050565b60006020828403121561395157613950612f7e565b5b600061395f848285016131cb565b91505092915050565b600081519050919050565b600082825260208201905092915050565b6000819050602082019050919050565b61399d816130f5565b82525050565b60006139af8383613994565b60208301905092915050565b6000602082019050919050565b60006139d382613968565b6139dd8185613973565b93506139e883613984565b8060005b83811015613a19578151613a0088826139a3565b9750613a0b836139bb565b9250506001810190506139ec565b5085935050505092915050565b60006020820190508181036000830152613a4081846139c8565b905092915050565b600080600060608486031215613a6157613a60612f7e565b5b6000613a6f868287016131cb565b9350506020613a8086828701613116565b9250506040613a9186828701613116565b9150509250925092565b613aa48161300d565b8114613aaf57600080fd5b50565b600081359050613ac181613a9b565b92915050565b60008060408385031215613ade57613add612f7e565b5b6000613aec858286016131cb565b9250506020613afd85828601613ab2565b9150509250929050565b600060ff82169050919050565b613b1d81613b07565b8114613b2857600080fd5b50565b600081359050613b3a81613b14565b92915050565b60008060408385031215613b5757613b56612f7e565b5b6000613b6585828601613b2b565b9250506020613b7685828601613279565b9150509250929050565b600067ffffffffffffffff821115613b9b57613b9a6132ef565b5b613ba482613089565b9050602081019050919050565b6000613bc4613bbf84613b80565b61334f565b905082815260208101848484011115613be057613bdf6132ea565b5b613beb84828561339b565b509392505050565b600082601f830112613c0857613c076132e5565b5b8135613c18848260208601613bb1565b91505092915050565b60008060008060808587031215613c3b57613c3a612f7e565b5b6000613c49878288016131cb565b9450506020613c5a878288016131cb565b9350506040613c6b87828801613116565b925050606085013567ffffffffffffffff811115613c8c57613c8b612f83565b5b613c9887828801613bf3565b91505092959194509250565b60008060408385031215613cbb57613cba612f7e565b5b6000613cc985828601613116565b9250506020613cda85828601613116565b9150509250929050565b608082016000820151613cfa60008501826137e2565b506020820151613d0d6020850182613805565b506040820151613d206040850182613814565b506060820151613d336060850182613832565b50505050565b6000608082019050613d4e6000830184613ce4565b92915050565b600067ffffffffffffffff821115613d6f57613d6e6132ef565b5b602082029050602081019050919050565b6000613d93613d8e84613d54565b61334f565b90508083825260208201905060208402830185811115613db657613db561370e565b5b835b81811015613ddf5780613dcb8882613b2b565b845260208401935050602081019050613db8565b5050509392505050565b600082601f830112613dfe57613dfd6132e5565b5b8135613e0e848260208601613d80565b91505092915050565b600060208284031215613e2d57613e2c612f7e565b5b600082013567ffffffffffffffff811115613e4b57613e4a612f83565b5b613e5784828501613de9565b91505092915050565b60008060408385031215613e7757613e76612f7e565b5b6000613e85858286016131cb565b9250506020613e96858286016131cb565b9150509250929050565b7f4e487b7100000000000000000000000000000000000000000000000000000000600052602260045260246000fd5b60006002820490506001821680613ee757607f821691505b602082108103613efa57613ef9613ea0565b5b50919050565b60008190508160005260206000209050919050565b60006020601f8301049050919050565b600082821b905092915050565b600060088302613f627fffffffffffffffffffffffffffffffffffffffffffffffffffffffffffffffff82613f25565b613f6c8683613f25565b95508019841693508086168417925050509392505050565b6000819050919050565b6000613fa9613fa4613f9f846130f5565b613f84565b6130f5565b9050919050565b6000819050919050565b613fc383613f8e565b613fd7613fcf82613fb0565b848454613f32565b825550505050565b600090565b613fec613fdf565b613ff7818484613fba565b505050565b5b8181101561401b57614010600082613fe4565b600181019050613ffd565b5050565b601f8211156140605761403181613f00565b61403a84613f15565b81016020851015614049578190505b61405d61405585613f15565b830182613ffc565b50505b505050565b600082821c905092915050565b600061408360001984600802614065565b1980831691505092915050565b600061409c8383614072565b9150826002028217905092915050565b6140b582613043565b67ffffffffffffffff8111156140ce576140cd6132ef565b5b6140d88254613ecf565b6140e382828561401f565b600060209050601f8311600181146141165760008415614104578287015190505b61410e8582614090565b865550614176565b601f19841661412486613f00565b60005b8281101561414c57848901518255600182019150602085019450602081019050614127565b868310156141695784890151614165601f891682614072565b8355505b6001600288020188555050505b505050505050565b7f416363657373436f6e74726f6c3a2063616e206f6e6c792072656e6f756e636560008201527f20726f6c657320666f722073656c660000000000000000000000000000000000602082015250565b60006141da602f8361304e565b91506141e58261417e565b604082019050919050565b60006020820190508181036000830152614209816141cd565b9050919050565b7f5a6f646961636853616c653a204e6578742053616c6520436f6e646974696f6e60008201527f73206e6f74207365740000000000000000000000000000000000000000000000602082015250565b600061426c60298361304e565b915061427782614210565b604082019050919050565b6000602082019050818103600083015261429b8161425f565b9050919050565b7f5a6f646961636853616c653a204e6578742053616c6520555249206e6f74207360008201527f6574000000000000000000000000000000000000000000000000000000000000602082015250565b60006142fe60228361304e565b9150614309826142a2565b604082019050919050565b6000602082019050818103600083015261432d816142f1565b9050919050565b7f4e487b7100000000000000000000000000000000000000000000000000000000600052601160045260246000fd5b600061436e82613b07565b915061437983613b07565b9250828201905060ff81111561439257614391614334565b5b92915050565b60006143a3826130f5565b91506143ae836130f5565b92508282026143bc816130f5565b915082820484148315176143d3576143d2614334565b5b5092915050565b600081905092915050565b60006143f082613043565b6143fa81856143da565b935061440a81856020860161305f565b80840191505092915050565b7f2f00000000000000000000000000000000000000000000000000000000000000600082015250565b600061444c6001836143da565b915061445782614416565b600182019050919050565b600061446e82856143e5565b91506144798261443f565b915061448582846143e5565b91508190509392505050565b7f4e487b7100000000000000000000000000000000000000000000000000000000600052603260045260246000fd5b60006144cb82613b07565b915060ff82036144de576144dd614334565b5b600182019050919050565b60006144f4826130f5565b91506144ff836130f5565b925082820190508082111561451757614516614334565b5b92915050565b6000614528826130f5565b91506000820361453b5761453a614334565b5b600182039050919050565b7f537472696e67733a20686578206c656e67746820696e73756666696369656e74600082015250565b600061457c60208361304e565b915061458782614546565b602082019050919050565b600060208201905081810360008301526145ab8161456f565b9050919050565b7f53616c65206e6f7420696e206566666563740000000000000000000000000000600082015250565b60006145e860128361304e565b91506145f3826145b2565b602082019050919050565b60006020820190508181036000830152614617816145db565b9050919050565b7f534f4c44204f5554000000000000000000000000000000000000000000000000600082015250565b600061465460088361304e565b915061465f8261461e565b602082019050919050565b6000602082019050818103600083015261468381614647565b9050919050565b600081519050919050565b600082825260208201905092915050565b60006146b18261468a565b6146bb8185614695565b93506146cb81856020860161305f565b6146d481613089565b840191505092915050565b60006080820190506146f4600083018761318a565b614701602083018661318a565b61470e60408301856132bb565b818103606083015261472081846146a6565b905095945050505050565b60008151905061473a81612fb4565b92915050565b60006020828403121561475657614755612f7e565b5b60006147648482850161472b565b91505092915050565b7f416363657373436f6e74726f6c3a206163636f756e7420000000000000000000600082015250565b60006147a36017836143da565b91506147ae8261476d565b601782019050919050565b7f206973206d697373696e6720726f6c6520000000000000000000000000000000600082015250565b60006147ef6011836143da565b91506147fa826147b9565b601182019050919050565b600061481082614796565b915061481c82856143e5565b9150614827826147e2565b915061483382846143e5565b9150819050939250505056fea26469706673582212205e74c45731d210d3cde718e7c835486c728d06a997baed956b89340230581f1464736f6c6343000811003368747470733a2f2f6769746875622e636f6d2f5a6f64696163682d50726573732f6e66742d67616c6c657279",
			"opcodes": "PUSH1 0x80 PUSH1 0x40 MSTORE PUSH1 0x0 PUSH1 0xA PUSH1 0x0 PUSH2 0x100 EXP DUP2 SLOAD DUP2 PUSH1 0xFF MUL NOT AND SWAP1 DUP4 PUSH1 0xFF AND MUL OR SWAP1 SSTORE POP PUSH1 0x0 PUSH1 0xA PUSH1 0x1 PUSH2 0x100 EXP DUP2 SLOAD DUP2 PUSH1 0xFF MUL NOT AND SWAP1 DUP4 PUSH1 0xFF AND MUL OR SWAP1 SSTORE POP CALLVALUE DUP1 ISZERO PUSH3 0x49 JUMPI PUSH1 0x0 DUP1 REVERT JUMPDEST POP PUSH1 0x40 MLOAD DUP1 PUSH1 0x40 ADD PUSH1 0x40 MSTORE DUP1 PUSH1 0xE DUP2 MSTORE PUSH1 0x20 ADD PUSH32 0xC6B56F6469616368205072657373000000000000000000000000000000000000 DUP2 MSTORE POP PUSH1 0x40 MLOAD DUP1 PUSH1 0x40 ADD PUSH1 0x40 MSTORE DUP1 PUSH1 0x2 DUP2 MSTORE PUSH1 0x20 ADD PUSH32 0xC6B5000000000000000000000000000000000000000000000000000000000000 DUP2 MSTORE POP DUP2 PUSH1 0x2 SWAP1 DUP2 PUSH3 0xC7 SWAP2 SWAP1 PUSH3 0xDDD JUMP JUMPDEST POP DUP1 PUSH1 0x3 SWAP1 DUP2 PUSH3 0xD9 SWAP2 SWAP1 PUSH3 0xDDD JUMP JUMPDEST POP PUSH3 0xEA PUSH3 0x268 PUSH1 0x20 SHL PUSH1 0x20 SHR JUMP JUMPDEST PUSH1 0x0 DUP2 SWAP1 SSTORE POP POP POP PUSH3 0x124 PUSH32 0x9F2DF0FED2C77648DE5860A4CC508CD0818C85B8B8A1AB4CEEEF8D981C8956A6 CALLER PUSH3 0x26D PUSH1 0x20 SHL PUSH1 0x20 SHR JUMP JUMPDEST PUSH3 0x156 PUSH32 0x8E6595EF9AFB2A8F70320F393F567BB7A0E6C4ED483CAEE30F90CC5FCD6659B4 CALLER PUSH3 0x26D PUSH1 0x20 SHL PUSH1 0x20 SHR JUMP JUMPDEST PUSH3 0x16B PUSH1 0x0 DUP1 SHL CALLER PUSH3 0x26D PUSH1 0x20 SHL PUSH1 0x20 SHR JUMP JUMPDEST PUSH3 0x19D PUSH32 0xB19546DFF01E856FB3F010C267A7B1C60363CF8A4664E21CC89C26224620214E CALLER PUSH3 0x26D PUSH1 0x20 SHL PUSH1 0x20 SHR JUMP JUMPDEST PUSH3 0x219 PUSH1 0x40 MLOAD DUP1 PUSH1 0x40 ADD PUSH1 0x40 MSTORE DUP1 PUSH1 0x5 DUP2 MSTORE PUSH1 0x20 ADD PUSH32 0x4172696573000000000000000000000000000000000000000000000000000000 DUP2 MSTORE POP PUSH1 0x40 MLOAD DUP1 PUSH1 0x40 ADD PUSH1 0x40 MSTORE DUP1 PUSH1 0x1F DUP2 MSTORE PUSH1 0x20 ADD PUSH32 0x4D617263682032312C2032303232202D20417072696C2031392C203230323200 DUP2 MSTORE POP PUSH3 0x35F PUSH1 0x20 SHL PUSH1 0x20 SHR JUMP JUMPDEST POP PUSH3 0x236 PUSH4 0x605A80FF PUSH6 0x48C27395000 PUSH3 0x507 PUSH1 0x20 SHL PUSH1 0x20 SHR JUMP JUMPDEST POP PUSH3 0x261 PUSH1 0x40 MLOAD DUP1 PUSH1 0x60 ADD PUSH1 0x40 MSTORE DUP1 PUSH1 0x2C DUP2 MSTORE PUSH1 0x20 ADD PUSH3 0x5AA4 PUSH1 0x2C SWAP2 CODECOPY PUSH3 0x5E4 PUSH1 0x20 SHL PUSH1 0x20 SHR JUMP JUMPDEST POP PUSH3 0x121F JUMP JUMPDEST PUSH1 0x0 SWAP1 JUMP JUMPDEST PUSH3 0x27F DUP3 DUP3 PUSH3 0x6B1 PUSH1 0x20 SHL PUSH1 0x20 SHR JUMP JUMPDEST PUSH3 0x35B JUMPI PUSH1 0x1 PUSH1 0x8 PUSH1 0x0 DUP5 DUP2 MSTORE PUSH1 0x20 ADD SWAP1 DUP2 MSTORE PUSH1 0x20 ADD PUSH1 0x0 KECCAK256 PUSH1 0x0 ADD PUSH1 0x0 DUP4 PUSH20 0xFFFFFFFFFFFFFFFFFFFFFFFFFFFFFFFFFFFFFFFF AND PUSH20 0xFFFFFFFFFFFFFFFFFFFFFFFFFFFFFFFFFFFFFFFF AND DUP2 MSTORE PUSH1 0x20 ADD SWAP1 DUP2 MSTORE PUSH1 0x20 ADD PUSH1 0x0 KECCAK256 PUSH1 0x0 PUSH2 0x100 EXP DUP2 SLOAD DUP2 PUSH1 0xFF MUL NOT AND SWAP1 DUP4 ISZERO ISZERO MUL OR SWAP1 SSTORE POP PUSH3 0x300 PUSH3 0x71C PUSH1 0x20 SHL PUSH1 0x20 SHR JUMP JUMPDEST PUSH20 0xFFFFFFFFFFFFFFFFFFFFFFFFFFFFFFFFFFFFFFFF AND DUP2 PUSH20 0xFFFFFFFFFFFFFFFFFFFFFFFFFFFFFFFFFFFFFFFF AND DUP4 PUSH32 0x2F8788117E7EFF1D82E926EC794901D17C78024A50270940304540A733656F0D PUSH1 0x40 MLOAD PUSH1 0x40 MLOAD DUP1 SWAP2 SUB SWAP1 LOG4 JUMPDEST POP POP JUMP JUMPDEST PUSH1 0x0 PUSH32 0xB19546DFF01E856FB3F010C267A7B1C60363CF8A4664E21CC89C26224620214E PUSH3 0x393 DUP2 PUSH3 0x724 PUSH1 0x20 SHL PUSH1 0x20 SHR JUMP JUMPDEST PUSH3 0x39D PUSH3 0xAF8 JUMP JUMPDEST PUSH1 0x1 DUP2 PUSH1 0xA0 ADD SWAP1 PUSH1 0x0 SIGNEXTEND SWAP1 DUP2 PUSH1 0x0 SIGNEXTEND DUP2 MSTORE POP POP DUP4 DUP2 PUSH1 0x20 ADD DUP2 SWAP1 MSTORE POP DUP5 DUP2 PUSH1 0x0 ADD DUP2 SWAP1 MSTORE POP DUP1 PUSH1 0xB PUSH1 0x0 PUSH1 0xA PUSH1 0x0 SWAP1 SLOAD SWAP1 PUSH2 0x100 EXP SWAP1 DIV PUSH1 0xFF AND PUSH1 0xFF AND PUSH2 0xFFFF AND DUP2 MSTORE PUSH1 0x20 ADD SWAP1 DUP2 MSTORE PUSH1 0x20 ADD PUSH1 0x0 KECCAK256 PUSH1 0x0 DUP3 ADD MLOAD DUP2 PUSH1 0x0 ADD SWAP1 DUP2 PUSH3 0x403 SWAP2 SWAP1 PUSH3 0xDDD JUMP JUMPDEST POP PUSH1 0x20 DUP3 ADD MLOAD DUP2 PUSH1 0x1 ADD SWAP1 DUP2 PUSH3 0x41B SWAP2 SWAP1 PUSH3 0xDDD JUMP JUMPDEST POP PUSH1 0x40 DUP3 ADD MLOAD DUP2 PUSH1 0x2 ADD SSTORE PUSH1 0x60 DUP3 ADD MLOAD DUP2 PUSH1 0x3 ADD SWAP1 DUP2 PUSH3 0x43D SWAP2 SWAP1 PUSH3 0xDDD JUMP JUMPDEST POP PUSH1 0x80 DUP3 ADD MLOAD DUP2 PUSH1 0x4 ADD SSTORE PUSH1 0xA0 DUP3 ADD MLOAD DUP2 PUSH1 0x5 ADD PUSH1 0x0 PUSH2 0x100 EXP DUP2 SLOAD DUP2 PUSH1 0xFF MUL NOT AND SWAP1 DUP4 PUSH1 0x0 SIGNEXTEND PUSH1 0xFF AND MUL OR SWAP1 SSTORE POP PUSH1 0xC0 DUP3 ADD MLOAD DUP2 PUSH1 0x5 ADD PUSH1 0x1 PUSH2 0x100 EXP DUP2 SLOAD DUP2 PUSH16 0xFFFFFFFFFFFFFFFFFFFFFFFFFFFFFFFF MUL NOT AND SWAP1 DUP4 PUSH16 0xFFFFFFFFFFFFFFFFFFFFFFFFFFFFFFFF AND MUL OR SWAP1 SSTORE POP PUSH1 0xE0 DUP3 ADD MLOAD DUP2 PUSH1 0x6 ADD PUSH1 0x0 PUSH2 0x100 EXP DUP2 SLOAD DUP2 PUSH16 0xFFFFFFFFFFFFFFFFFFFFFFFFFFFFFFFF MUL NOT AND SWAP1 DUP4 PUSH16 0xFFFFFFFFFFFFFFFFFFFFFFFFFFFFFFFF AND MUL OR SWAP1 SSTORE POP SWAP1 POP POP PUSH3 0x4FD PUSH3 0x748 PUSH1 0x20 SHL PUSH1 0x20 SHR JUMP JUMPDEST SWAP3 POP POP POP SWAP3 SWAP2 POP POP JUMP JUMPDEST PUSH1 0x0 PUSH32 0x9F2DF0FED2C77648DE5860A4CC508CD0818C85B8B8A1AB4CEEEF8D981C8956A6 PUSH3 0x53B DUP2 PUSH3 0x724 PUSH1 0x20 SHL PUSH1 0x20 SHR JUMP JUMPDEST PUSH1 0x0 PUSH1 0xB PUSH1 0x0 PUSH1 0xA PUSH1 0x0 SWAP1 SLOAD SWAP1 PUSH2 0x100 EXP SWAP1 DIV PUSH1 0xFF AND PUSH1 0xFF AND PUSH2 0xFFFF AND DUP2 MSTORE PUSH1 0x20 ADD SWAP1 DUP2 MSTORE PUSH1 0x20 ADD PUSH1 0x0 KECCAK256 SWAP1 POP DUP5 DUP2 PUSH1 0x2 ADD DUP2 SWAP1 SSTORE POP PUSH1 0xC PUSH1 0xA DUP6 PUSH3 0x582 SWAP2 SWAP1 PUSH3 0xEF3 JUMP JUMPDEST XOR DUP2 PUSH1 0x4 ADD DUP2 SWAP1 SSTORE POP PUSH1 0x1 DUP2 PUSH1 0x5 ADD PUSH1 0x0 SWAP1 SLOAD SWAP1 PUSH2 0x100 EXP SWAP1 DIV PUSH1 0x0 SIGNEXTEND PUSH1 0x0 SIGNEXTEND SUB PUSH3 0x5CA JUMPI PUSH1 0x2 DUP2 PUSH1 0x5 ADD PUSH1 0x0 PUSH2 0x100 EXP DUP2 SLOAD DUP2 PUSH1 0xFF MUL NOT AND SWAP1 DUP4 PUSH1 0x0 SIGNEXTEND PUSH1 0xFF AND MUL OR SWAP1 SSTORE POP JUMPDEST PUSH3 0x5DA PUSH3 0x748 PUSH1 0x20 SHL PUSH1 0x20 SHR JUMP JUMPDEST SWAP3 POP POP POP SWAP3 SWAP2 POP POP JUMP JUMPDEST PUSH1 0x0 PUSH32 0x8E6595EF9AFB2A8F70320F393F567BB7A0E6C4ED483CAEE30F90CC5FCD6659B4 PUSH3 0x618 DUP2 PUSH3 0x724 PUSH1 0x20 SHL PUSH1 0x20 SHR JUMP JUMPDEST PUSH1 0x0 PUSH1 0xB PUSH1 0x0 PUSH1 0xA PUSH1 0x0 SWAP1 SLOAD SWAP1 PUSH2 0x100 EXP SWAP1 DIV PUSH1 0xFF AND PUSH1 0xFF AND PUSH2 0xFFFF AND DUP2 MSTORE PUSH1 0x20 ADD SWAP1 DUP2 MSTORE PUSH1 0x20 ADD PUSH1 0x0 KECCAK256 SWAP1 POP DUP4 DUP2 PUSH1 0x3 ADD SWAP1 DUP2 PUSH3 0x658 SWAP2 SWAP1 PUSH3 0xDDD JUMP JUMPDEST POP PUSH1 0x2 DUP2 PUSH1 0x5 ADD PUSH1 0x0 SWAP1 SLOAD SWAP1 PUSH2 0x100 EXP SWAP1 DIV PUSH1 0x0 SIGNEXTEND PUSH1 0x0 SIGNEXTEND SUB PUSH3 0x698 JUMPI PUSH1 0x3 DUP2 PUSH1 0x5 ADD PUSH1 0x0 PUSH2 0x100 EXP DUP2 SLOAD DUP2 PUSH1 0xFF MUL NOT AND SWAP1 DUP4 PUSH1 0x0 SIGNEXTEND PUSH1 0xFF AND MUL OR SWAP1 SSTORE POP JUMPDEST PUSH3 0x6A8 PUSH3 0x748 PUSH1 0x20 SHL PUSH1 0x20 SHR JUMP JUMPDEST SWAP3 POP POP POP SWAP2 SWAP1 POP JUMP JUMPDEST PUSH1 0x0 PUSH1 0x8 PUSH1 0x0 DUP5 DUP2 MSTORE PUSH1 0x20 ADD SWAP1 DUP2 MSTORE PUSH1 0x20 ADD PUSH1 0x0 KECCAK256 PUSH1 0x0 ADD PUSH1 0x0 DUP4 PUSH20 0xFFFFFFFFFFFFFFFFFFFFFFFFFFFFFFFFFFFFFFFF AND PUSH20 0xFFFFFFFFFFFFFFFFFFFFFFFFFFFFFFFFFFFFFFFF AND DUP2 MSTORE PUSH1 0x20 ADD SWAP1 DUP2 MSTORE PUSH1 0x20 ADD PUSH1 0x0 KECCAK256 PUSH1 0x0 SWAP1 SLOAD SWAP1 PUSH2 0x100 EXP SWAP1 DIV PUSH1 0xFF AND SWAP1 POP SWAP3 SWAP2 POP POP JUMP JUMPDEST PUSH1 0x0 CALLER SWAP1 POP SWAP1 JUMP JUMPDEST PUSH3 0x745 DUP2 PUSH3 0x739 PUSH3 0x71C PUSH1 0x20 SHL PUSH1 0x20 SHR JUMP JUMPDEST PUSH3 0x7BC PUSH1 0x20 SHL PUSH1 0x20 SHR JUMP JUMPDEST POP JUMP JUMPDEST PUSH1 0x0 PUSH32 0xB19546DFF01E856FB3F010C267A7B1C60363CF8A4664E21CC89C26224620214E PUSH3 0x77C DUP2 PUSH3 0x724 PUSH1 0x20 SHL PUSH1 0x20 SHR JUMP JUMPDEST PUSH1 0xB PUSH1 0x0 PUSH1 0xA PUSH1 0x0 SWAP1 SLOAD SWAP1 PUSH2 0x100 EXP SWAP1 DIV PUSH1 0xFF AND PUSH1 0xFF AND PUSH2 0xFFFF AND DUP2 MSTORE PUSH1 0x20 ADD SWAP1 DUP2 MSTORE PUSH1 0x20 ADD PUSH1 0x0 KECCAK256 PUSH1 0x5 ADD PUSH1 0x0 SWAP1 SLOAD SWAP1 PUSH2 0x100 EXP SWAP1 DIV PUSH1 0x0 SIGNEXTEND SWAP2 POP POP SWAP1 JUMP JUMPDEST PUSH3 0x7CE DUP3 DUP3 PUSH3 0x6B1 PUSH1 0x20 SHL PUSH1 0x20 SHR JUMP JUMPDEST PUSH3 0x864 JUMPI PUSH3 0x7E9 DUP2 PUSH3 0x868 PUSH1 0x20 SHL PUSH3 0x1D38 OR PUSH1 0x20 SHR JUMP JUMPDEST PUSH3 0x804 DUP4 PUSH1 0x0 SHR PUSH1 0x20 PUSH3 0x89D PUSH1 0x20 SHL PUSH3 0x1D65 OR PUSH1 0x20 SHR JUMP JUMPDEST PUSH1 0x40 MLOAD PUSH1 0x20 ADD PUSH3 0x817 SWAP3 SWAP2 SWAP1 PUSH3 0x104C JUMP JUMPDEST PUSH1 0x40 MLOAD PUSH1 0x20 DUP2 DUP4 SUB SUB DUP2 MSTORE SWAP1 PUSH1 0x40 MSTORE PUSH1 0x40 MLOAD PUSH32 0x8C379A000000000000000000000000000000000000000000000000000000000 DUP2 MSTORE PUSH1 0x4 ADD PUSH3 0x85B SWAP2 SWAP1 PUSH3 0x10F1 JUMP JUMPDEST PUSH1 0x40 MLOAD DUP1 SWAP2 SUB SWAP1 REVERT JUMPDEST POP POP JUMP JUMPDEST PUSH1 0x60 PUSH3 0x896 DUP3 PUSH20 0xFFFFFFFFFFFFFFFFFFFFFFFFFFFFFFFFFFFFFFFF AND PUSH1 0x14 PUSH1 0xFF AND PUSH3 0x89D PUSH1 0x20 SHL PUSH1 0x20 SHR JUMP JUMPDEST SWAP1 POP SWAP2 SWAP1 POP JUMP JUMPDEST PUSH1 0x60 PUSH1 0x0 PUSH1 0x2 DUP4 PUSH1 0x2 PUSH3 0x8B2 SWAP2 SWAP1 PUSH3 0xEF3 JUMP JUMPDEST PUSH3 0x8BE SWAP2 SWAP1 PUSH3 0x1115 JUMP JUMPDEST PUSH8 0xFFFFFFFFFFFFFFFF DUP2 GT ISZERO PUSH3 0x8DA JUMPI PUSH3 0x8D9 PUSH3 0xB6E JUMP JUMPDEST JUMPDEST PUSH1 0x40 MLOAD SWAP1 DUP1 DUP3 MSTORE DUP1 PUSH1 0x1F ADD PUSH1 0x1F NOT AND PUSH1 0x20 ADD DUP3 ADD PUSH1 0x40 MSTORE DUP1 ISZERO PUSH3 0x90D JUMPI DUP2 PUSH1 0x20 ADD PUSH1 0x1 DUP3 MUL DUP1 CALLDATASIZE DUP4 CALLDATACOPY DUP1 DUP3 ADD SWAP2 POP POP SWAP1 POP JUMPDEST POP SWAP1 POP PUSH32 0x3000000000000000000000000000000000000000000000000000000000000000 DUP2 PUSH1 0x0 DUP2 MLOAD DUP2 LT PUSH3 0x948 JUMPI PUSH3 0x947 PUSH3 0x1150 JUMP JUMPDEST JUMPDEST PUSH1 0x20 ADD ADD SWAP1 PUSH31 0xFFFFFFFFFFFFFFFFFFFFFFFFFFFFFFFFFFFFFFFFFFFFFFFFFFFFFFFFFFFFFF NOT AND SWAP1 DUP2 PUSH1 0x0 BYTE SWAP1 MSTORE8 POP PUSH32 0x7800000000000000000000000000000000000000000000000000000000000000 DUP2 PUSH1 0x1 DUP2 MLOAD DUP2 LT PUSH3 0x9AF JUMPI PUSH3 0x9AE PUSH3 0x1150 JUMP JUMPDEST JUMPDEST PUSH1 0x20 ADD ADD SWAP1 PUSH31 0xFFFFFFFFFFFFFFFFFFFFFFFFFFFFFFFFFFFFFFFFFFFFFFFFFFFFFFFFFFFFFF NOT AND SWAP1 DUP2 PUSH1 0x0 BYTE SWAP1 MSTORE8 POP PUSH1 0x0 PUSH1 0x1 DUP5 PUSH1 0x2 PUSH3 0x9F1 SWAP2 SWAP1 PUSH3 0xEF3 JUMP JUMPDEST PUSH3 0x9FD SWAP2 SWAP1 PUSH3 0x1115 JUMP JUMPDEST SWAP1 POP JUMPDEST PUSH1 0x1 DUP2 GT ISZERO PUSH3 0xAA7 JUMPI PUSH32 0x3031323334353637383961626364656600000000000000000000000000000000 PUSH1 0xF DUP7 AND PUSH1 0x10 DUP2 LT PUSH3 0xA43 JUMPI PUSH3 0xA42 PUSH3 0x1150 JUMP JUMPDEST JUMPDEST BYTE PUSH1 0xF8 SHL DUP3 DUP3 DUP2 MLOAD DUP2 LT PUSH3 0xA5D JUMPI PUSH3 0xA5C PUSH3 0x1150 JUMP JUMPDEST JUMPDEST PUSH1 0x20 ADD ADD SWAP1 PUSH31 0xFFFFFFFFFFFFFFFFFFFFFFFFFFFFFFFFFFFFFFFFFFFFFFFFFFFFFFFFFFFFFF NOT AND SWAP1 DUP2 PUSH1 0x0 BYTE SWAP1 MSTORE8 POP PUSH1 0x4 DUP6 SWAP1 SHR SWAP5 POP DUP1 PUSH3 0xA9F SWAP1 PUSH3 0x117F JUMP JUMPDEST SWAP1 POP PUSH3 0xA00 JUMP JUMPDEST POP PUSH1 0x0 DUP5 EQ PUSH3 0xAEE JUMPI PUSH1 0x40 MLOAD PUSH32 0x8C379A000000000000000000000000000000000000000000000000000000000 DUP2 MSTORE PUSH1 0x4 ADD PUSH3 0xAE5 SWAP1 PUSH3 0x11FD JUMP JUMPDEST PUSH1 0x40 MLOAD DUP1 SWAP2 SUB SWAP1 REVERT JUMPDEST DUP1 SWAP2 POP POP SWAP3 SWAP2 POP POP JUMP JUMPDEST PUSH1 0x40 MLOAD DUP1 PUSH2 0x100 ADD PUSH1 0x40 MSTORE DUP1 PUSH1 0x60 DUP2 MSTORE PUSH1 0x20 ADD PUSH1 0x60 DUP2 MSTORE PUSH1 0x20 ADD PUSH1 0x0 DUP2 MSTORE PUSH1 0x20 ADD PUSH1 0x60 DUP2 MSTORE PUSH1 0x20 ADD PUSH1 0x0 DUP2 MSTORE PUSH1 0x20 ADD PUSH1 0x0 DUP1 SIGNEXTEND DUP2 MSTORE PUSH1 0x20 ADD PUSH1 0x0 PUSH16 0xFFFFFFFFFFFFFFFFFFFFFFFFFFFFFFFF AND DUP2 MSTORE PUSH1 0x20 ADD PUSH1 0x0 PUSH16 0xFFFFFFFFFFFFFFFFFFFFFFFFFFFFFFFF AND DUP2 MSTORE POP SWAP1 JUMP JUMPDEST PUSH1 0x0 DUP2 MLOAD SWAP1 POP SWAP2 SWAP1 POP JUMP JUMPDEST PUSH32 0x4E487B7100000000000000000000000000000000000000000000000000000000 PUSH1 0x0 MSTORE PUSH1 0x41 PUSH1 0x4 MSTORE PUSH1 0x24 PUSH1 0x0 REVERT JUMPDEST PUSH32 0x4E487B7100000000000000000000000000000000000000000000000000000000 PUSH1 0x0 MSTORE PUSH1 0x22 PUSH1 0x4 MSTORE PUSH1 0x24 PUSH1 0x0 REVERT JUMPDEST PUSH1 0x0 PUSH1 0x2 DUP3 DIV SWAP1 POP PUSH1 0x1 DUP3 AND DUP1 PUSH3 0xBE5 JUMPI PUSH1 0x7F DUP3 AND SWAP2 POP JUMPDEST PUSH1 0x20 DUP3 LT DUP2 SUB PUSH3 0xBFB JUMPI PUSH3 0xBFA PUSH3 0xB9D JUMP JUMPDEST JUMPDEST POP SWAP2 SWAP1 POP JUMP JUMPDEST PUSH1 0x0 DUP2 SWAP1 POP DUP2 PUSH1 0x0 MSTORE PUSH1 0x20 PUSH1 0x0 KECCAK256 SWAP1 POP SWAP2 SWAP1 POP JUMP JUMPDEST PUSH1 0x0 PUSH1 0x20 PUSH1 0x1F DUP4 ADD DIV SWAP1 POP SWAP2 SWAP1 POP JUMP JUMPDEST PUSH1 0x0 DUP3 DUP3 SHL SWAP1 POP SWAP3 SWAP2 POP POP JUMP JUMPDEST PUSH1 0x0 PUSH1 0x8 DUP4 MUL PUSH3 0xC65 PUSH32 0xFFFFFFFFFFFFFFFFFFFFFFFFFFFFFFFFFFFFFFFFFFFFFFFFFFFFFFFFFFFFFFFF DUP3 PUSH3 0xC26 JUMP JUMPDEST PUSH3 0xC71 DUP7 DUP4 PUSH3 0xC26 JUMP JUMPDEST SWAP6 POP DUP1 NOT DUP5 AND SWAP4 POP DUP1 DUP7 AND DUP5 OR SWAP3 POP POP POP SWAP4 SWAP3 POP POP POP JUMP JUMPDEST PUSH1 0x0 DUP2 SWAP1 POP SWAP2 SWAP1 POP JUMP JUMPDEST PUSH1 0x0 DUP2 SWAP1 POP SWAP2 SWAP1 POP JUMP JUMPDEST PUSH1 0x0 PUSH3 0xCBE PUSH3 0xCB8 PUSH3 0xCB2 DUP5 PUSH3 0xC89 JUMP JUMPDEST PUSH3 0xC93 JUMP JUMPDEST PUSH3 0xC89 JUMP JUMPDEST SWAP1 POP SWAP2 SWAP1 POP JUMP JUMPDEST PUSH1 0x0 DUP2 SWAP1 POP SWAP2 SWAP1 POP JUMP JUMPDEST PUSH3 0xCDA DUP4 PUSH3 0xC9D JUMP JUMPDEST PUSH3 0xCF2 PUSH3 0xCE9 DUP3 PUSH3 0xCC5 JUMP JUMPDEST DUP5 DUP5 SLOAD PUSH3 0xC33 JUMP JUMPDEST DUP3 SSTORE POP POP POP POP JUMP JUMPDEST PUSH1 0x0 SWAP1 JUMP JUMPDEST PUSH3 0xD09 PUSH3 0xCFA JUMP JUMPDEST PUSH3 0xD16 DUP2 DUP5 DUP5 PUSH3 0xCCF JUMP JUMPDEST POP POP POP JUMP JUMPDEST JUMPDEST DUP2 DUP2 LT ISZERO PUSH3 0xD3E JUMPI PUSH3 0xD32 PUSH1 0x0 DUP3 PUSH3 0xCFF JUMP JUMPDEST PUSH1 0x1 DUP2 ADD SWAP1 POP PUSH3 0xD1C JUMP JUMPDEST POP POP JUMP JUMPDEST PUSH1 0x1F DUP3 GT ISZERO PUSH3 0xD8D JUMPI PUSH3 0xD57 DUP2 PUSH3 0xC01 JUMP JUMPDEST PUSH3 0xD62 DUP5 PUSH3 0xC16 JUMP JUMPDEST DUP2 ADD PUSH1 0x20 DUP6 LT ISZERO PUSH3 0xD72 JUMPI DUP2 SWAP1 POP JUMPDEST PUSH3 0xD8A PUSH3 0xD81 DUP6 PUSH3 0xC16 JUMP JUMPDEST DUP4 ADD DUP3 PUSH3 0xD1B JUMP JUMPDEST POP POP JUMPDEST POP POP POP JUMP JUMPDEST PUSH1 0x0 DUP3 DUP3 SHR SWAP1 POP SWAP3 SWAP2 POP POP JUMP JUMPDEST PUSH1 0x0 PUSH3 0xDB2 PUSH1 0x0 NOT DUP5 PUSH1 0x8 MUL PUSH3 0xD92 JUMP JUMPDEST NOT DUP1 DUP4 AND SWAP2 POP POP SWAP3 SWAP2 POP POP JUMP JUMPDEST PUSH1 0x0 PUSH3 0xDCD DUP4 DUP4 PUSH3 0xD9F JUMP JUMPDEST SWAP2 POP DUP3 PUSH1 0x2 MUL DUP3 OR SWAP1 POP SWAP3 SWAP2 POP POP JUMP JUMPDEST PUSH3 0xDE8 DUP3 PUSH3 0xB63 JUMP JUMPDEST PUSH8 0xFFFFFFFFFFFFFFFF DUP2 GT ISZERO PUSH3 0xE04 JUMPI PUSH3 0xE03 PUSH3 0xB6E JUMP JUMPDEST JUMPDEST PUSH3 0xE10 DUP3 SLOAD PUSH3 0xBCC JUMP JUMPDEST PUSH3 0xE1D DUP3 DUP3 DUP6 PUSH3 0xD42 JUMP JUMPDEST PUSH1 0x0 PUSH1 0x20 SWAP1 POP PUSH1 0x1F DUP4 GT PUSH1 0x1 DUP2 EQ PUSH3 0xE55 JUMPI PUSH1 0x0 DUP5 ISZERO PUSH3 0xE40 JUMPI DUP3 DUP8 ADD MLOAD SWAP1 POP JUMPDEST PUSH3 0xE4C DUP6 DUP3 PUSH3 0xDBF JUMP JUMPDEST DUP7 SSTORE POP PUSH3 0xEBC JUMP JUMPDEST PUSH1 0x1F NOT DUP5 AND PUSH3 0xE65 DUP7 PUSH3 0xC01 JUMP JUMPDEST PUSH1 0x0 JUMPDEST DUP3 DUP2 LT ISZERO PUSH3 0xE8F JUMPI DUP5 DUP10 ADD MLOAD DUP3 SSTORE PUSH1 0x1 DUP3 ADD SWAP2 POP PUSH1 0x20 DUP6 ADD SWAP5 POP PUSH1 0x20 DUP2 ADD SWAP1 POP PUSH3 0xE68 JUMP JUMPDEST DUP7 DUP4 LT ISZERO PUSH3 0xEAF JUMPI DUP5 DUP10 ADD MLOAD PUSH3 0xEAB PUSH1 0x1F DUP10 AND DUP3 PUSH3 0xD9F JUMP JUMPDEST DUP4 SSTORE POP JUMPDEST PUSH1 0x1 PUSH1 0x2 DUP9 MUL ADD DUP9 SSTORE POP POP POP JUMPDEST POP POP POP POP POP POP JUMP JUMPDEST PUSH32 0x4E487B7100000000000000000000000000000000000000000000000000000000 PUSH1 0x0 MSTORE PUSH1 0x11 PUSH1 0x4 MSTORE PUSH1 0x24 PUSH1 0x0 REVERT JUMPDEST PUSH1 0x0 PUSH3 0xF00 DUP3 PUSH3 0xC89 JUMP JUMPDEST SWAP2 POP PUSH3 0xF0D DUP4 PUSH3 0xC89 JUMP JUMPDEST SWAP3 POP DUP3 DUP3 MUL PUSH3 0xF1D DUP2 PUSH3 0xC89 JUMP JUMPDEST SWAP2 POP DUP3 DUP3 DIV DUP5 EQ DUP4 ISZERO OR PUSH3 0xF37 JUMPI PUSH3 0xF36 PUSH3 0xEC4 JUMP JUMPDEST JUMPDEST POP SWAP3 SWAP2 POP POP JUMP JUMPDEST PUSH1 0x0 DUP2 SWAP1 POP SWAP3 SWAP2 POP POP JUMP JUMPDEST PUSH32 0x416363657373436F6E74726F6C3A206163636F756E7420000000000000000000 PUSH1 0x0 DUP3 ADD MSTORE POP JUMP JUMPDEST PUSH1 0x0 PUSH3 0xF81 PUSH1 0x17 DUP4 PUSH3 0xF3E JUMP JUMPDEST SWAP2 POP PUSH3 0xF8E DUP3 PUSH3 0xF49 JUMP JUMPDEST PUSH1 0x17 DUP3 ADD SWAP1 POP SWAP2 SWAP1 POP JUMP JUMPDEST PUSH1 0x0 JUMPDEST DUP4 DUP2 LT ISZERO PUSH3 0xFB9 JUMPI DUP1 DUP3 ADD MLOAD DUP2 DUP5 ADD MSTORE PUSH1 0x20 DUP2 ADD SWAP1 POP PUSH3 0xF9C JUMP JUMPDEST PUSH1 0x0 DUP5 DUP5 ADD MSTORE POP POP POP POP JUMP JUMPDEST PUSH1 0x0 PUSH3 0xFD2 DUP3 PUSH3 0xB63 JUMP JUMPDEST PUSH3 0xFDE DUP2 DUP6 PUSH3 0xF3E JUMP JUMPDEST SWAP4 POP PUSH3 0xFF0 DUP2 DUP6 PUSH1 0x20 DUP7 ADD PUSH3 0xF99 JUMP JUMPDEST DUP1 DUP5 ADD SWAP2 POP POP SWAP3 SWAP2 POP POP JUMP JUMPDEST PUSH32 0x206973206D697373696E6720726F6C6520000000000000000000000000000000 PUSH1 0x0 DUP3 ADD MSTORE POP JUMP JUMPDEST PUSH1 0x0 PUSH3 0x1034 PUSH1 0x11 DUP4 PUSH3 0xF3E JUMP JUMPDEST SWAP2 POP PUSH3 0x1041 DUP3 PUSH3 0xFFC JUMP JUMPDEST PUSH1 0x11 DUP3 ADD SWAP1 POP SWAP2 SWAP1 POP JUMP JUMPDEST PUSH1 0x0 PUSH3 0x1059 DUP3 PUSH3 0xF72 JUMP JUMPDEST SWAP2 POP PUSH3 0x1067 DUP3 DUP6 PUSH3 0xFC5 JUMP JUMPDEST SWAP2 POP PUSH3 0x1074 DUP3 PUSH3 0x1025 JUMP JUMPDEST SWAP2 POP PUSH3 0x1082 DUP3 DUP5 PUSH3 0xFC5 JUMP JUMPDEST SWAP2 POP DUP2 SWAP1 POP SWAP4 SWAP3 POP POP POP JUMP JUMPDEST PUSH1 0x0 DUP3 DUP3 MSTORE PUSH1 0x20 DUP3 ADD SWAP1 POP SWAP3 SWAP2 POP POP JUMP JUMPDEST PUSH1 0x0 PUSH1 0x1F NOT PUSH1 0x1F DUP4 ADD AND SWAP1 POP SWAP2 SWAP1 POP JUMP JUMPDEST PUSH1 0x0 PUSH3 0x10BD DUP3 PUSH3 0xB63 JUMP JUMPDEST PUSH3 0x10C9 DUP2 DUP6 PUSH3 0x108E JUMP JUMPDEST SWAP4 POP PUSH3 0x10DB DUP2 DUP6 PUSH1 0x20 DUP7 ADD PUSH3 0xF99 JUMP JUMPDEST PUSH3 0x10E6 DUP2 PUSH3 0x109F JUMP JUMPDEST DUP5 ADD SWAP2 POP POP SWAP3 SWAP2 POP POP JUMP JUMPDEST PUSH1 0x0 PUSH1 0x20 DUP3 ADD SWAP1 POP DUP2 DUP2 SUB PUSH1 0x0 DUP4 ADD MSTORE PUSH3 0x110D DUP2 DUP5 PUSH3 0x10B0 JUMP JUMPDEST SWAP1 POP SWAP3 SWAP2 POP POP JUMP JUMPDEST PUSH1 0x0 PUSH3 0x1122 DUP3 PUSH3 0xC89 JUMP JUMPDEST SWAP2 POP PUSH3 0x112F DUP4 PUSH3 0xC89 JUMP JUMPDEST SWAP3 POP DUP3 DUP3 ADD SWAP1 POP DUP1 DUP3 GT ISZERO PUSH3 0x114A JUMPI PUSH3 0x1149 PUSH3 0xEC4 JUMP JUMPDEST JUMPDEST SWAP3 SWAP2 POP POP JUMP JUMPDEST PUSH32 0x4E487B7100000000000000000000000000000000000000000000000000000000 PUSH1 0x0 MSTORE PUSH1 0x32 PUSH1 0x4 MSTORE PUSH1 0x24 PUSH1 0x0 REVERT JUMPDEST PUSH1 0x0 PUSH3 0x118C DUP3 PUSH3 0xC89 JUMP JUMPDEST SWAP2 POP PUSH1 0x0 DUP3 SUB PUSH3 0x11A2 JUMPI PUSH3 0x11A1 PUSH3 0xEC4 JUMP JUMPDEST JUMPDEST PUSH1 0x1 DUP3 SUB SWAP1 POP SWAP2 SWAP1 POP JUMP JUMPDEST PUSH32 0x537472696E67733A20686578206C656E67746820696E73756666696369656E74 PUSH1 0x0 DUP3 ADD MSTORE POP JUMP JUMPDEST PUSH1 0x0 PUSH3 0x11E5 PUSH1 0x20 DUP4 PUSH3 0x108E JUMP JUMPDEST SWAP2 POP PUSH3 0x11F2 DUP3 PUSH3 0x11AD JUMP JUMPDEST PUSH1 0x20 DUP3 ADD SWAP1 POP SWAP2 SWAP1 POP JUMP JUMPDEST PUSH1 0x0 PUSH1 0x20 DUP3 ADD SWAP1 POP DUP2 DUP2 SUB PUSH1 0x0 DUP4 ADD MSTORE PUSH3 0x1218 DUP2 PUSH3 0x11D6 JUMP JUMPDEST SWAP1 POP SWAP2 SWAP1 POP JUMP JUMPDEST PUSH2 0x4875 DUP1 PUSH3 0x122F PUSH1 0x0 CODECOPY PUSH1 0x0 RETURN INVALID PUSH1 0x80 PUSH1 0x40 MSTORE PUSH1 0x4 CALLDATASIZE LT PUSH2 0x272 JUMPI PUSH1 0x0 CALLDATALOAD PUSH1 0xE0 SHR DUP1 PUSH4 0x74BDDA15 GT PUSH2 0x14F JUMPI DUP1 PUSH4 0xA93CD768 GT PUSH2 0xC1 JUMPI DUP1 PUSH4 0xC87B56DD GT PUSH2 0x7A JUMPI DUP1 PUSH4 0xC87B56DD EQ PUSH2 0x90E JUMPI DUP1 PUSH4 0xD5391393 EQ PUSH2 0x94B JUMPI DUP1 PUSH4 0xD547741F EQ PUSH2 0x976 JUMPI DUP1 PUSH4 0xE58378BB EQ PUSH2 0x99F JUMPI DUP1 PUSH4 0xE742AADE EQ PUSH2 0x9CA JUMPI DUP1 PUSH4 0xE985E9C5 EQ PUSH2 0x9E6 JUMPI PUSH2 0x272 JUMP JUMPDEST DUP1 PUSH4 0xA93CD768 EQ PUSH2 0x83B JUMPI DUP1 PUSH4 0xB88D4FDE EQ PUSH2 0x857 JUMPI DUP1 PUSH4 0xB9FDBB4A EQ PUSH2 0x873 JUMPI DUP1 PUSH4 0xBB7DCC4E EQ PUSH2 0x87D JUMPI DUP1 PUSH4 0xBC769035 EQ PUSH2 0x894 JUMPI DUP1 PUSH4 0xC23DC68F EQ PUSH2 0x8D1 JUMPI PUSH2 0x272 JUMP JUMPDEST DUP1 PUSH4 0x96DFCBEA GT PUSH2 0x113 JUMPI DUP1 PUSH4 0x96DFCBEA EQ PUSH2 0x74C JUMPI DUP1 PUSH4 0x99A2557A EQ PUSH2 0x777 JUMPI DUP1 PUSH4 0xA217FDDF EQ PUSH2 0x7B4 JUMPI DUP1 PUSH4 0xA22CB465 EQ PUSH2 0x7DF JUMPI DUP1 PUSH4 0xA515A100 EQ PUSH2 0x808 JUMPI DUP1 PUSH4 0xA7A7DD73 EQ PUSH2 0x81F JUMPI PUSH2 0x272 JUMP JUMPDEST DUP1 PUSH4 0x74BDDA15 EQ PUSH2 0x662 JUMPI DUP1 PUSH4 0x77097FC8 EQ PUSH2 0x67E JUMPI DUP1 PUSH4 0x8462151C EQ PUSH2 0x6A7 JUMPI DUP1 PUSH4 0x91D14854 EQ PUSH2 0x6E4 JUMPI DUP1 PUSH4 0x95D89B41 EQ PUSH2 0x721 JUMPI PUSH2 0x272 JUMP JUMPDEST DUP1 PUSH4 0x2F2FF15D GT PUSH2 0x1E8 JUMPI DUP1 PUSH4 0x42966C68 GT PUSH2 0x1AC JUMPI DUP1 PUSH4 0x42966C68 EQ PUSH2 0x53D JUMPI DUP1 PUSH4 0x561E8EFF EQ PUSH2 0x566 JUMPI DUP1 PUSH4 0x59927BBE EQ PUSH2 0x582 JUMPI DUP1 PUSH4 0x5BBB2177 EQ PUSH2 0x5AB JUMPI DUP1 PUSH4 0x6352211E EQ PUSH2 0x5E8 JUMPI DUP1 PUSH4 0x70A08231 EQ PUSH2 0x625 JUMPI PUSH2 0x272 JUMP JUMPDEST DUP1 PUSH4 0x2F2FF15D EQ PUSH2 0x47D JUMPI DUP1 PUSH4 0x31D41C69 EQ PUSH2 0x4A6 JUMPI DUP1 PUSH4 0x36568ABE EQ PUSH2 0x4CF JUMPI DUP1 PUSH4 0x4082857C EQ PUSH2 0x4F8 JUMPI DUP1 PUSH4 0x42842E0E EQ PUSH2 0x521 JUMPI PUSH2 0x272 JUMP JUMPDEST DUP1 PUSH4 0x13338A50 GT PUSH2 0x23A JUMPI DUP1 PUSH4 0x13338A50 EQ PUSH2 0x363 JUMPI DUP1 PUSH4 0x18160DDD EQ PUSH2 0x37F JUMPI DUP1 PUSH4 0x1B7B5893 EQ PUSH2 0x3AA JUMPI DUP1 PUSH4 0x23B872DD EQ PUSH2 0x3E7 JUMPI DUP1 PUSH4 0x248A9CA3 EQ PUSH2 0x403 JUMPI DUP1 PUSH4 0x2BF1FBE8 EQ PUSH2 0x440 JUMPI PUSH2 0x272 JUMP JUMPDEST DUP1 PUSH4 0x1FFC9A7 EQ PUSH2 0x277 JUMPI DUP1 PUSH4 0x6FDDE03 EQ PUSH2 0x2B4 JUMPI DUP1 PUSH4 0x81812FC EQ PUSH2 0x2DF JUMPI DUP1 PUSH4 0x95EA7B3 EQ PUSH2 0x31C JUMPI DUP1 PUSH4 0xAB5F32A EQ PUSH2 0x338 JUMPI JUMPDEST PUSH1 0x0 DUP1 REVERT JUMPDEST CALLVALUE DUP1 ISZERO PUSH2 0x283 JUMPI PUSH1 0x0 DUP1 REVERT JUMPDEST POP PUSH2 0x29E PUSH1 0x4 DUP1 CALLDATASIZE SUB DUP2 ADD SWAP1 PUSH2 0x299 SWAP2 SWAP1 PUSH2 0x2FE0 JUMP JUMPDEST PUSH2 0xA23 JUMP JUMPDEST PUSH1 0x40 MLOAD PUSH2 0x2AB SWAP2 SWAP1 PUSH2 0x3028 JUMP JUMPDEST PUSH1 0x40 MLOAD DUP1 SWAP2 SUB SWAP1 RETURN JUMPDEST CALLVALUE DUP1 ISZERO PUSH2 0x2C0 JUMPI PUSH1 0x0 DUP1 REVERT JUMPDEST POP PUSH2 0x2C9 PUSH2 0xAB5 JUMP JUMPDEST PUSH1 0x40 MLOAD PUSH2 0x2D6 SWAP2 SWAP1 PUSH2 0x30D3 JUMP JUMPDEST PUSH1 0x40 MLOAD DUP1 SWAP2 SUB SWAP1 RETURN JUMPDEST CALLVALUE DUP1 ISZERO PUSH2 0x2EB JUMPI PUSH1 0x0 DUP1 REVERT JUMPDEST POP PUSH2 0x306 PUSH1 0x4 DUP1 CALLDATASIZE SUB DUP2 ADD SWAP1 PUSH2 0x301 SWAP2 SWAP1 PUSH2 0x312B JUMP JUMPDEST PUSH2 0xB47 JUMP JUMPDEST PUSH1 0x40 MLOAD PUSH2 0x313 SWAP2 SWAP1 PUSH2 0x3199 JUMP JUMPDEST PUSH1 0x40 MLOAD DUP1 SWAP2 SUB SWAP1 RETURN JUMPDEST PUSH2 0x336 PUSH1 0x4 DUP1 CALLDATASIZE SUB DUP2 ADD SWAP1 PUSH2 0x331 SWAP2 SWAP1 PUSH2 0x31E0 JUMP JUMPDEST PUSH2 0xBA5 JUMP JUMPDEST STOP JUMPDEST CALLVALUE DUP1 ISZERO PUSH2 0x344 JUMPI PUSH1 0x0 DUP1 REVERT JUMPDEST POP PUSH2 0x34D PUSH2 0xBB5 JUMP JUMPDEST PUSH1 0x40 MLOAD PUSH2 0x35A SWAP2 SWAP1 PUSH2 0x3239 JUMP JUMPDEST PUSH1 0x40 MLOAD DUP1 SWAP2 SUB SWAP1 RETURN JUMPDEST PUSH2 0x37D PUSH1 0x4 DUP1 CALLDATASIZE SUB DUP2 ADD SWAP1 PUSH2 0x378 SWAP2 SWAP1 PUSH2 0x328E JUMP JUMPDEST PUSH2 0xBD9 JUMP JUMPDEST STOP JUMPDEST CALLVALUE DUP1 ISZERO PUSH2 0x38B JUMPI PUSH1 0x0 DUP1 REVERT JUMPDEST POP PUSH2 0x394 PUSH2 0xBDC JUMP JUMPDEST PUSH1 0x40 MLOAD PUSH2 0x3A1 SWAP2 SWAP1 PUSH2 0x32CA JUMP JUMPDEST PUSH1 0x40 MLOAD DUP1 SWAP2 SUB SWAP1 RETURN JUMPDEST CALLVALUE DUP1 ISZERO PUSH2 0x3B6 JUMPI PUSH1 0x0 DUP1 REVERT JUMPDEST POP PUSH2 0x3D1 PUSH1 0x4 DUP1 CALLDATASIZE SUB DUP2 ADD SWAP1 PUSH2 0x3CC SWAP2 SWAP1 PUSH2 0x341A JUMP JUMPDEST PUSH2 0xBF3 JUMP JUMPDEST PUSH1 0x40 MLOAD PUSH2 0x3DE SWAP2 SWAP1 PUSH2 0x347F JUMP JUMPDEST PUSH1 0x40 MLOAD DUP1 SWAP2 SUB SWAP1 RETURN JUMPDEST PUSH2 0x401 PUSH1 0x4 DUP1 CALLDATASIZE SUB DUP2 ADD SWAP1 PUSH2 0x3FC SWAP2 SWAP1 PUSH2 0x349A JUMP JUMPDEST PUSH2 0xCAD JUMP JUMPDEST STOP JUMPDEST CALLVALUE DUP1 ISZERO PUSH2 0x40F JUMPI PUSH1 0x0 DUP1 REVERT JUMPDEST POP PUSH2 0x42A PUSH1 0x4 DUP1 CALLDATASIZE SUB DUP2 ADD SWAP1 PUSH2 0x425 SWAP2 SWAP1 PUSH2 0x3519 JUMP JUMPDEST PUSH2 0xF6E JUMP JUMPDEST PUSH1 0x40 MLOAD PUSH2 0x437 SWAP2 SWAP1 PUSH2 0x3239 JUMP JUMPDEST PUSH1 0x40 MLOAD DUP1 SWAP2 SUB SWAP1 RETURN JUMPDEST CALLVALUE DUP1 ISZERO PUSH2 0x44C JUMPI PUSH1 0x0 DUP1 REVERT JUMPDEST POP PUSH2 0x467 PUSH1 0x4 DUP1 CALLDATASIZE SUB DUP2 ADD SWAP1 PUSH2 0x462 SWAP2 SWAP1 PUSH2 0x3546 JUMP JUMPDEST PUSH2 0xF8E JUMP JUMPDEST PUSH1 0x40 MLOAD PUSH2 0x474 SWAP2 SWAP1 PUSH2 0x347F JUMP JUMPDEST PUSH1 0x40 MLOAD DUP1 SWAP2 SUB SWAP1 RETURN JUMPDEST CALLVALUE DUP1 ISZERO PUSH2 0x489 JUMPI PUSH1 0x0 DUP1 REVERT JUMPDEST POP PUSH2 0x4A4 PUSH1 0x4 DUP1 CALLDATASIZE SUB DUP2 ADD SWAP1 PUSH2 0x49F SWAP2 SWAP1 PUSH2 0x35BE JUMP JUMPDEST PUSH2 0x111E JUMP JUMPDEST STOP JUMPDEST CALLVALUE DUP1 ISZERO PUSH2 0x4B2 JUMPI PUSH1 0x0 DUP1 REVERT JUMPDEST POP PUSH2 0x4CD PUSH1 0x4 DUP1 CALLDATASIZE SUB DUP2 ADD SWAP1 PUSH2 0x4C8 SWAP2 SWAP1 PUSH2 0x35FE JUMP JUMPDEST PUSH2 0x113F JUMP JUMPDEST STOP JUMPDEST CALLVALUE DUP1 ISZERO PUSH2 0x4DB JUMPI PUSH1 0x0 DUP1 REVERT JUMPDEST POP PUSH2 0x4F6 PUSH1 0x4 DUP1 CALLDATASIZE SUB DUP2 ADD SWAP1 PUSH2 0x4F1 SWAP2 SWAP1 PUSH2 0x35BE JUMP JUMPDEST PUSH2 0x11BD JUMP JUMPDEST STOP JUMPDEST CALLVALUE DUP1 ISZERO PUSH2 0x504 JUMPI PUSH1 0x0 DUP1 REVERT JUMPDEST POP PUSH2 0x51F PUSH1 0x4 DUP1 CALLDATASIZE SUB DUP2 ADD SWAP1 PUSH2 0x51A SWAP2 SWAP1 PUSH2 0x328E JUMP JUMPDEST PUSH2 0x1240 JUMP JUMPDEST STOP JUMPDEST PUSH2 0x53B PUSH1 0x4 DUP1 CALLDATASIZE SUB DUP2 ADD SWAP1 PUSH2 0x536 SWAP2 SWAP1 PUSH2 0x349A JUMP JUMPDEST PUSH2 0x1243 JUMP JUMPDEST STOP JUMPDEST CALLVALUE DUP1 ISZERO PUSH2 0x549 JUMPI PUSH1 0x0 DUP1 REVERT JUMPDEST POP PUSH2 0x564 PUSH1 0x4 DUP1 CALLDATASIZE SUB DUP2 ADD SWAP1 PUSH2 0x55F SWAP2 SWAP1 PUSH2 0x312B JUMP JUMPDEST PUSH2 0x1263 JUMP JUMPDEST STOP JUMPDEST PUSH2 0x580 PUSH1 0x4 DUP1 CALLDATASIZE SUB DUP2 ADD SWAP1 PUSH2 0x57B SWAP2 SWAP1 PUSH2 0x365A JUMP JUMPDEST PUSH2 0x1271 JUMP JUMPDEST STOP JUMPDEST CALLVALUE DUP1 ISZERO PUSH2 0x58E JUMPI PUSH1 0x0 DUP1 REVERT JUMPDEST POP PUSH2 0x5A9 PUSH1 0x4 DUP1 CALLDATASIZE SUB DUP2 ADD SWAP1 PUSH2 0x5A4 SWAP2 SWAP1 PUSH2 0x369A JUMP JUMPDEST PUSH2 0x1275 JUMP JUMPDEST STOP JUMPDEST CALLVALUE DUP1 ISZERO PUSH2 0x5B7 JUMPI PUSH1 0x0 DUP1 REVERT JUMPDEST POP PUSH2 0x5D2 PUSH1 0x4 DUP1 CALLDATASIZE SUB DUP2 ADD SWAP1 PUSH2 0x5CD SWAP2 SWAP1 PUSH2 0x3769 JUMP JUMPDEST PUSH2 0x12B9 JUMP JUMPDEST PUSH1 0x40 MLOAD PUSH2 0x5DF SWAP2 SWAP1 PUSH2 0x3919 JUMP JUMPDEST PUSH1 0x40 MLOAD DUP1 SWAP2 SUB SWAP1 RETURN JUMPDEST CALLVALUE DUP1 ISZERO PUSH2 0x5F4 JUMPI PUSH1 0x0 DUP1 REVERT JUMPDEST POP PUSH2 0x60F PUSH1 0x4 DUP1 CALLDATASIZE SUB DUP2 ADD SWAP1 PUSH2 0x60A SWAP2 SWAP1 PUSH2 0x312B JUMP JUMPDEST PUSH2 0x1319 JUMP JUMPDEST PUSH1 0x40 MLOAD PUSH2 0x61C SWAP2 SWAP1 PUSH2 0x3199 JUMP JUMPDEST PUSH1 0x40 MLOAD DUP1 SWAP2 SUB SWAP1 RETURN JUMPDEST CALLVALUE DUP1 ISZERO PUSH2 0x631 JUMPI PUSH1 0x0 DUP1 REVERT JUMPDEST POP PUSH2 0x64C PUSH1 0x4 DUP1 CALLDATASIZE SUB DUP2 ADD SWAP1 PUSH2 0x647 SWAP2 SWAP1 PUSH2 0x393B JUMP JUMPDEST PUSH2 0x132B JUMP JUMPDEST PUSH1 0x40 MLOAD PUSH2 0x659 SWAP2 SWAP1 PUSH2 0x32CA JUMP JUMPDEST PUSH1 0x40 MLOAD DUP1 SWAP2 SUB SWAP1 RETURN JUMPDEST PUSH2 0x67C PUSH1 0x4 DUP1 CALLDATASIZE SUB DUP2 ADD SWAP1 PUSH2 0x677 SWAP2 SWAP1 PUSH2 0x312B JUMP JUMPDEST PUSH2 0x13C2 JUMP JUMPDEST STOP JUMPDEST CALLVALUE DUP1 ISZERO PUSH2 0x68A JUMPI PUSH1 0x0 DUP1 REVERT JUMPDEST POP PUSH2 0x6A5 PUSH1 0x4 DUP1 CALLDATASIZE SUB DUP2 ADD SWAP1 PUSH2 0x6A0 SWAP2 SWAP1 PUSH2 0x35FE JUMP JUMPDEST PUSH2 0x13C5 JUMP JUMPDEST STOP JUMPDEST CALLVALUE DUP1 ISZERO PUSH2 0x6B3 JUMPI PUSH1 0x0 DUP1 REVERT JUMPDEST POP PUSH2 0x6CE PUSH1 0x4 DUP1 CALLDATASIZE SUB DUP2 ADD SWAP1 PUSH2 0x6C9 SWAP2 SWAP1 PUSH2 0x393B JUMP JUMPDEST PUSH2 0x1408 JUMP JUMPDEST PUSH1 0x40 MLOAD PUSH2 0x6DB SWAP2 SWAP1 PUSH2 0x3A26 JUMP JUMPDEST PUSH1 0x40 MLOAD DUP1 SWAP2 SUB SWAP1 RETURN JUMPDEST CALLVALUE DUP1 ISZERO PUSH2 0x6F0 JUMPI PUSH1 0x0 DUP1 REVERT JUMPDEST POP PUSH2 0x70B PUSH1 0x4 DUP1 CALLDATASIZE SUB DUP2 ADD SWAP1 PUSH2 0x706 SWAP2 SWAP1 PUSH2 0x35BE JUMP JUMPDEST PUSH2 0x1499 JUMP JUMPDEST PUSH1 0x40 MLOAD PUSH2 0x718 SWAP2 SWAP1 PUSH2 0x3028 JUMP JUMPDEST PUSH1 0x40 MLOAD DUP1 SWAP2 SUB SWAP1 RETURN JUMPDEST CALLVALUE DUP1 ISZERO PUSH2 0x72D JUMPI PUSH1 0x0 DUP1 REVERT JUMPDEST POP PUSH2 0x736 PUSH2 0x1504 JUMP JUMPDEST PUSH1 0x40 MLOAD PUSH2 0x743 SWAP2 SWAP1 PUSH2 0x30D3 JUMP JUMPDEST PUSH1 0x40 MLOAD DUP1 SWAP2 SUB SWAP1 RETURN JUMPDEST CALLVALUE DUP1 ISZERO PUSH2 0x758 JUMPI PUSH1 0x0 DUP1 REVERT JUMPDEST POP PUSH2 0x761 PUSH2 0x1596 JUMP JUMPDEST PUSH1 0x40 MLOAD PUSH2 0x76E SWAP2 SWAP1 PUSH2 0x347F JUMP JUMPDEST PUSH1 0x40 MLOAD DUP1 SWAP2 SUB SWAP1 RETURN JUMPDEST CALLVALUE DUP1 ISZERO PUSH2 0x783 JUMPI PUSH1 0x0 DUP1 REVERT JUMPDEST POP PUSH2 0x79E PUSH1 0x4 DUP1 CALLDATASIZE SUB DUP2 ADD SWAP1 PUSH2 0x799 SWAP2 SWAP1 PUSH2 0x3A48 JUMP JUMPDEST PUSH2 0x1602 JUMP JUMPDEST PUSH1 0x40 MLOAD PUSH2 0x7AB SWAP2 SWAP1 PUSH2 0x3A26 JUMP JUMPDEST PUSH1 0x40 MLOAD DUP1 SWAP2 SUB SWAP1 RETURN JUMPDEST CALLVALUE DUP1 ISZERO PUSH2 0x7C0 JUMPI PUSH1 0x0 DUP1 REVERT JUMPDEST POP PUSH2 0x7C9 PUSH2 0x171A JUMP JUMPDEST PUSH1 0x40 MLOAD PUSH2 0x7D6 SWAP2 SWAP1 PUSH2 0x3239 JUMP JUMPDEST PUSH1 0x40 MLOAD DUP1 SWAP2 SUB SWAP1 RETURN JUMPDEST CALLVALUE DUP1 ISZERO PUSH2 0x7EB JUMPI PUSH1 0x0 DUP1 REVERT JUMPDEST POP PUSH2 0x806 PUSH1 0x4 DUP1 CALLDATASIZE SUB DUP2 ADD SWAP1 PUSH2 0x801 SWAP2 SWAP1 PUSH2 0x3AC7 JUMP JUMPDEST PUSH2 0x1721 JUMP JUMPDEST STOP JUMPDEST CALLVALUE DUP1 ISZERO PUSH2 0x814 JUMPI PUSH1 0x0 DUP1 REVERT JUMPDEST POP PUSH2 0x81D PUSH2 0x182C JUMP JUMPDEST STOP JUMPDEST PUSH2 0x839 PUSH1 0x4 DUP1 CALLDATASIZE SUB DUP2 ADD SWAP1 PUSH2 0x834 SWAP2 SWAP1 PUSH2 0x393B JUMP JUMPDEST PUSH2 0x19AB JUMP JUMPDEST STOP JUMPDEST PUSH2 0x855 PUSH1 0x4 DUP1 CALLDATASIZE SUB DUP2 ADD SWAP1 PUSH2 0x850 SWAP2 SWAP1 PUSH2 0x3B40 JUMP JUMPDEST PUSH2 0x19AE JUMP JUMPDEST STOP JUMPDEST PUSH2 0x871 PUSH1 0x4 DUP1 CALLDATASIZE SUB DUP2 ADD SWAP1 PUSH2 0x86C SWAP2 SWAP1 PUSH2 0x3C21 JUMP JUMPDEST PUSH2 0x19BB JUMP JUMPDEST STOP JUMPDEST PUSH2 0x87B PUSH2 0x1A0D JUMP JUMPDEST STOP JUMPDEST CALLVALUE DUP1 ISZERO PUSH2 0x889 JUMPI PUSH1 0x0 DUP1 REVERT JUMPDEST POP PUSH2 0x892 PUSH2 0x1A0F JUMP JUMPDEST STOP JUMPDEST CALLVALUE DUP1 ISZERO PUSH2 0x8A0 JUMPI PUSH1 0x0 DUP1 REVERT JUMPDEST POP PUSH2 0x8BB PUSH1 0x4 DUP1 CALLDATASIZE SUB DUP2 ADD SWAP1 PUSH2 0x8B6 SWAP2 SWAP1 PUSH2 0x3CA4 JUMP JUMPDEST PUSH2 0x1A11 JUMP JUMPDEST PUSH1 0x40 MLOAD PUSH2 0x8C8 SWAP2 SWAP1 PUSH2 0x347F JUMP JUMPDEST PUSH1 0x40 MLOAD DUP1 SWAP2 SUB SWAP1 RETURN JUMPDEST CALLVALUE DUP1 ISZERO PUSH2 0x8DD JUMPI PUSH1 0x0 DUP1 REVERT JUMPDEST POP PUSH2 0x8F8 PUSH1 0x4 DUP1 CALLDATASIZE SUB DUP2 ADD SWAP1 PUSH2 0x8F3 SWAP2 SWAP1 PUSH2 0x312B JUMP JUMPDEST PUSH2 0x1ADB JUMP JUMPDEST PUSH1 0x40 MLOAD PUSH2 0x905 SWAP2 SWAP1 PUSH2 0x3D39 JUMP JUMPDEST PUSH1 0x40 MLOAD DUP1 SWAP2 SUB SWAP1 RETURN JUMPDEST CALLVALUE DUP1 ISZERO PUSH2 0x91A JUMPI PUSH1 0x0 DUP1 REVERT JUMPDEST POP PUSH2 0x935 PUSH1 0x4 DUP1 CALLDATASIZE SUB DUP2 ADD SWAP1 PUSH2 0x930 SWAP2 SWAP1 PUSH2 0x312B JUMP JUMPDEST PUSH2 0x1B27 JUMP JUMPDEST PUSH1 0x40 MLOAD PUSH2 0x942 SWAP2 SWAP1 PUSH2 0x30D3 JUMP JUMPDEST PUSH1 0x40 MLOAD DUP1 SWAP2 SUB SWAP1 RETURN JUMPDEST CALLVALUE DUP1 ISZERO PUSH2 0x957 JUMPI PUSH1 0x0 DUP1 REVERT JUMPDEST POP PUSH2 0x960 PUSH2 0x1BC8 JUMP JUMPDEST PUSH1 0x40 MLOAD PUSH2 0x96D SWAP2 SWAP1 PUSH2 0x3239 JUMP JUMPDEST PUSH1 0x40 MLOAD DUP1 SWAP2 SUB SWAP1 RETURN JUMPDEST CALLVALUE DUP1 ISZERO PUSH2 0x982 JUMPI PUSH1 0x0 DUP1 REVERT JUMPDEST POP PUSH2 0x99D PUSH1 0x4 DUP1 CALLDATASIZE SUB DUP2 ADD SWAP1 PUSH2 0x998 SWAP2 SWAP1 PUSH2 0x35BE JUMP JUMPDEST PUSH2 0x1BEC JUMP JUMPDEST STOP JUMPDEST CALLVALUE DUP1 ISZERO PUSH2 0x9AB JUMPI PUSH1 0x0 DUP1 REVERT JUMPDEST POP PUSH2 0x9B4 PUSH2 0x1C0D JUMP JUMPDEST PUSH1 0x40 MLOAD PUSH2 0x9C1 SWAP2 SWAP1 PUSH2 0x3239 JUMP JUMPDEST PUSH1 0x40 MLOAD DUP1 SWAP2 SUB SWAP1 RETURN JUMPDEST PUSH2 0x9E4 PUSH1 0x4 DUP1 CALLDATASIZE SUB DUP2 ADD SWAP1 PUSH2 0x9DF SWAP2 SWAP1 PUSH2 0x3E17 JUMP JUMPDEST PUSH2 0x1C31 JUMP JUMPDEST STOP JUMPDEST CALLVALUE DUP1 ISZERO PUSH2 0x9F2 JUMPI PUSH1 0x0 DUP1 REVERT JUMPDEST POP PUSH2 0xA0D PUSH1 0x4 DUP1 CALLDATASIZE SUB DUP2 ADD SWAP1 PUSH2 0xA08 SWAP2 SWAP1 PUSH2 0x3E60 JUMP JUMPDEST PUSH2 0x1CA4 JUMP JUMPDEST PUSH1 0x40 MLOAD PUSH2 0xA1A SWAP2 SWAP1 PUSH2 0x3028 JUMP JUMPDEST PUSH1 0x40 MLOAD DUP1 SWAP2 SUB SWAP1 RETURN JUMPDEST PUSH1 0x0 PUSH4 0x1FFC9A7 PUSH1 0xE0 SHL DUP3 PUSH28 0xFFFFFFFFFFFFFFFFFFFFFFFFFFFFFFFFFFFFFFFFFFFFFFFFFFFFFFFF NOT AND EQ DUP1 PUSH2 0xA7E JUMPI POP PUSH4 0x80AC58CD PUSH1 0xE0 SHL DUP3 PUSH28 0xFFFFFFFFFFFFFFFFFFFFFFFFFFFFFFFFFFFFFFFFFFFFFFFFFFFFFFFF NOT AND EQ JUMPDEST DUP1 PUSH2 0xAAE JUMPI POP PUSH4 0x5B5E139F PUSH1 0xE0 SHL DUP3 PUSH28 0xFFFFFFFFFFFFFFFFFFFFFFFFFFFFFFFFFFFFFFFFFFFFFFFFFFFFFFFF NOT AND EQ JUMPDEST SWAP1 POP SWAP2 SWAP1 POP JUMP JUMPDEST PUSH1 0x60 PUSH1 0x2 DUP1 SLOAD PUSH2 0xAC4 SWAP1 PUSH2 0x3ECF JUMP JUMPDEST DUP1 PUSH1 0x1F ADD PUSH1 0x20 DUP1 SWAP2 DIV MUL PUSH1 0x20 ADD PUSH1 0x40 MLOAD SWAP1 DUP2 ADD PUSH1 0x40 MSTORE DUP1 SWAP3 SWAP2 SWAP1 DUP2 DUP2 MSTORE PUSH1 0x20 ADD DUP3 DUP1 SLOAD PUSH2 0xAF0 SWAP1 PUSH2 0x3ECF JUMP JUMPDEST DUP1 ISZERO PUSH2 0xB3D JUMPI DUP1 PUSH1 0x1F LT PUSH2 0xB12 JUMPI PUSH2 0x100 DUP1 DUP4 SLOAD DIV MUL DUP4 MSTORE SWAP2 PUSH1 0x20 ADD SWAP2 PUSH2 0xB3D JUMP JUMPDEST DUP3 ADD SWAP2 SWAP1 PUSH1 0x0 MSTORE PUSH1 0x20 PUSH1 0x0 KECCAK256 SWAP1 JUMPDEST DUP2 SLOAD DUP2 MSTORE SWAP1 PUSH1 0x1 ADD SWAP1 PUSH1 0x20 ADD DUP1 DUP4 GT PUSH2 0xB20 JUMPI DUP3 SWAP1 SUB PUSH1 0x1F AND DUP3 ADD SWAP2 JUMPDEST POP POP POP POP POP SWAP1 POP SWAP1 JUMP JUMPDEST PUSH1 0x0 PUSH2 0xB52 DUP3 PUSH2 0x1FA1 JUMP JUMPDEST PUSH2 0xB67 JUMPI PUSH2 0xB66 PUSH4 0xCF4700E4 PUSH1 0xE0 SHL PUSH2 0x2000 JUMP JUMPDEST JUMPDEST PUSH1 0x6 PUSH1 0x0 DUP4 DUP2 MSTORE PUSH1 0x20 ADD SWAP1 DUP2 MSTORE PUSH1 0x20 ADD PUSH1 0x0 KECCAK256 PUSH1 0x0 ADD PUSH1 0x0 SWAP1 SLOAD SWAP1 PUSH2 0x100 EXP SWAP1 DIV PUSH20 0xFFFFFFFFFFFFFFFFFFFFFFFFFFFFFFFFFFFFFFFF AND SWAP1 POP SWAP2 SWAP1 POP JUMP JUMPDEST PUSH2 0xBB1 DUP3 DUP3 PUSH1 0x1 PUSH2 0x200A JUMP JUMPDEST POP POP JUMP JUMPDEST PUSH32 0x8E6595EF9AFB2A8F70320F393F567BB7A0E6C4ED483CAEE30F90CC5FCD6659B4 DUP2 JUMP JUMPDEST POP JUMP JUMPDEST PUSH1 0x0 PUSH2 0xBE6 PUSH2 0x2139 JUMP JUMPDEST PUSH1 0x1 SLOAD PUSH1 0x0 SLOAD SUB SUB SWAP1 POP SWAP1 JUMP JUMPDEST PUSH1 0x0 PUSH32 0x8E6595EF9AFB2A8F70320F393F567BB7A0E6C4ED483CAEE30F90CC5FCD6659B4 PUSH2 0xC1F DUP2 PUSH2 0x213E JUMP JUMPDEST PUSH1 0x0 PUSH1 0xB PUSH1 0x0 PUSH1 0xA PUSH1 0x0 SWAP1 SLOAD SWAP1 PUSH2 0x100 EXP SWAP1 DIV PUSH1 0xFF AND PUSH1 0xFF AND PUSH2 0xFFFF AND DUP2 MSTORE PUSH1 0x20 ADD SWAP1 DUP2 MSTORE PUSH1 0x20 ADD PUSH1 0x0 KECCAK256 SWAP1 POP DUP4 DUP2 PUSH1 0x3 ADD SWAP1 DUP2 PUSH2 0xC5D SWAP2 SWAP1 PUSH2 0x40AC JUMP JUMPDEST POP PUSH1 0x2 DUP2 PUSH1 0x5 ADD PUSH1 0x0 SWAP1 SLOAD SWAP1 PUSH2 0x100 EXP SWAP1 DIV PUSH1 0x0 SIGNEXTEND PUSH1 0x0 SIGNEXTEND SUB PUSH2 0xC9C JUMPI PUSH1 0x3 DUP2 PUSH1 0x5 ADD PUSH1 0x0 PUSH2 0x100 EXP DUP2 SLOAD DUP2 PUSH1 0xFF MUL NOT AND SWAP1 DUP4 PUSH1 0x0 SIGNEXTEND PUSH1 0xFF AND MUL OR SWAP1 SSTORE POP JUMPDEST PUSH2 0xCA4 PUSH2 0x1596 JUMP JUMPDEST SWAP3 POP POP POP SWAP2 SWAP1 POP JUMP JUMPDEST PUSH1 0x0 PUSH2 0xCB8 DUP3 PUSH2 0x2152 JUMP JUMPDEST SWAP1 POP PUSH20 0xFFFFFFFFFFFFFFFFFFFFFFFFFFFFFFFFFFFFFFFF DUP5 PUSH20 0xFFFFFFFFFFFFFFFFFFFFFFFFFFFFFFFFFFFFFFFF AND AND SWAP4 POP DUP4 PUSH20 0xFFFFFFFFFFFFFFFFFFFFFFFFFFFFFFFFFFFFFFFF AND DUP2 PUSH20 0xFFFFFFFFFFFFFFFFFFFFFFFFFFFFFFFFFFFFFFFF AND EQ PUSH2 0xD2D JUMPI PUSH2 0xD2C PUSH4 0xA1148100 PUSH1 0xE0 SHL PUSH2 0x2000 JUMP JUMPDEST JUMPDEST PUSH1 0x0 DUP1 PUSH2 0xD39 DUP5 PUSH2 0x2208 JUMP JUMPDEST SWAP2 POP SWAP2 POP PUSH2 0xD4F DUP2 DUP8 PUSH2 0xD4A PUSH2 0x222F JUMP JUMPDEST PUSH2 0x2237 JUMP JUMPDEST PUSH2 0xD7A JUMPI PUSH2 0xD64 DUP7 PUSH2 0xD5F PUSH2 0x222F JUMP JUMPDEST PUSH2 0x1CA4 JUMP JUMPDEST PUSH2 0xD79 JUMPI PUSH2 0xD78 PUSH4 0x59C896BE PUSH1 0xE0 SHL PUSH2 0x2000 JUMP JUMPDEST JUMPDEST JUMPDEST PUSH2 0xD87 DUP7 DUP7 DUP7 PUSH1 0x1 PUSH2 0x227B JUMP JUMPDEST DUP1 ISZERO PUSH2 0xD92 JUMPI PUSH1 0x0 DUP3 SSTORE JUMPDEST PUSH1 0x5 PUSH1 0x0 DUP8 PUSH20 0xFFFFFFFFFFFFFFFFFFFFFFFFFFFFFFFFFFFFFFFF AND PUSH20 0xFFFFFFFFFFFFFFFFFFFFFFFFFFFFFFFFFFFFFFFF AND DUP2 MSTORE PUSH1 0x20 ADD SWAP1 DUP2 MSTORE PUSH1 0x20 ADD PUSH1 0x0 KECCAK256 PUSH1 0x0 DUP2 SLOAD PUSH1 0x1 SWAP1 SUB SWAP2 SWAP1 POP DUP2 SWAP1 SSTORE POP PUSH1 0x5 PUSH1 0x0 DUP7 PUSH20 0xFFFFFFFFFFFFFFFFFFFFFFFFFFFFFFFFFFFFFFFF AND PUSH20 0xFFFFFFFFFFFFFFFFFFFFFFFFFFFFFFFFFFFFFFFF AND DUP2 MSTORE PUSH1 0x20 ADD SWAP1 DUP2 MSTORE PUSH1 0x20 ADD PUSH1 0x0 KECCAK256 PUSH1 0x0 DUP2 SLOAD PUSH1 0x1 ADD SWAP2 SWAP1 POP DUP2 SWAP1 SSTORE POP PUSH2 0xE60 DUP6 PUSH2 0xE3C DUP9 DUP9 DUP8 PUSH2 0x2281 JUMP JUMPDEST PUSH29 0x200000000000000000000000000000000000000000000000000000000 OR PUSH2 0x22A9 JUMP JUMPDEST PUSH1 0x4 PUSH1 0x0 DUP7 DUP2 MSTORE PUSH1 0x20 ADD SWAP1 DUP2 MSTORE PUSH1 0x20 ADD PUSH1 0x0 KECCAK256 DUP2 SWAP1 SSTORE POP PUSH1 0x0 PUSH29 0x200000000000000000000000000000000000000000000000000000000 DUP5 AND SUB PUSH2 0xEE6 JUMPI PUSH1 0x0 PUSH1 0x1 DUP6 ADD SWAP1 POP PUSH1 0x0 PUSH1 0x4 PUSH1 0x0 DUP4 DUP2 MSTORE PUSH1 0x20 ADD SWAP1 DUP2 MSTORE PUSH1 0x20 ADD PUSH1 0x0 KECCAK256 SLOAD SUB PUSH2 0xEE4 JUMPI PUSH1 0x0 SLOAD DUP2 EQ PUSH2 0xEE3 JUMPI DUP4 PUSH1 0x4 PUSH1 0x0 DUP4 DUP2 MSTORE PUSH1 0x20 ADD SWAP1 DUP2 MSTORE PUSH1 0x20 ADD PUSH1 0x0 KECCAK256 DUP2 SWAP1 SSTORE POP JUMPDEST JUMPDEST POP JUMPDEST PUSH1 0x0 PUSH20 0xFFFFFFFFFFFFFFFFFFFFFFFFFFFFFFFFFFFFFFFF DUP7 PUSH20 0xFFFFFFFFFFFFFFFFFFFFFFFFFFFFFFFFFFFFFFFF AND AND SWAP1 POP DUP5 DUP2 DUP9 PUSH32 0xDDF252AD1BE2C89B69C2B068FC378DAA952BA7F163C4A11628F55A4DF523B3EF PUSH1 0x0 DUP1 LOG4 PUSH1 0x0 DUP2 SUB PUSH2 0xF58 JUMPI PUSH2 0xF57 PUSH4 0xEA553B34 PUSH1 0xE0 SHL PUSH2 0x2000 JUMP JUMPDEST JUMPDEST PUSH2 0xF65 DUP8 DUP8 DUP8 PUSH1 0x1 PUSH2 0x22D4 JUMP JUMPDEST POP POP POP POP POP POP POP JUMP JUMPDEST PUSH1 0x0 PUSH1 0x8 PUSH1 0x0 DUP4 DUP2 MSTORE PUSH1 0x20 ADD SWAP1 DUP2 MSTORE PUSH1 0x20 ADD PUSH1 0x0 KECCAK256 PUSH1 0x1 ADD SLOAD SWAP1 POP SWAP2 SWAP1 POP JUMP JUMPDEST PUSH1 0x0 PUSH32 0xB19546DFF01E856FB3F010C267A7B1C60363CF8A4664E21CC89C26224620214E PUSH2 0xFBA DUP2 PUSH2 0x213E JUMP JUMPDEST PUSH2 0xFC2 PUSH2 0x2EBA JUMP JUMPDEST PUSH1 0x1 DUP2 PUSH1 0xA0 ADD SWAP1 PUSH1 0x0 SIGNEXTEND SWAP1 DUP2 PUSH1 0x0 SIGNEXTEND DUP2 MSTORE POP POP DUP4 DUP2 PUSH1 0x20 ADD DUP2 SWAP1 MSTORE POP DUP5 DUP2 PUSH1 0x0 ADD DUP2 SWAP1 MSTORE POP DUP1 PUSH1 0xB PUSH1 0x0 PUSH1 0xA PUSH1 0x0 SWAP1 SLOAD SWAP1 PUSH2 0x100 EXP SWAP1 DIV PUSH1 0xFF AND PUSH1 0xFF AND PUSH2 0xFFFF AND DUP2 MSTORE PUSH1 0x20 ADD SWAP1 DUP2 MSTORE PUSH1 0x20 ADD PUSH1 0x0 KECCAK256 PUSH1 0x0 DUP3 ADD MLOAD DUP2 PUSH1 0x0 ADD SWAP1 DUP2 PUSH2 0x1026 SWAP2 SWAP1 PUSH2 0x40AC JUMP JUMPDEST POP PUSH1 0x20 DUP3 ADD MLOAD DUP2 PUSH1 0x1 ADD SWAP1 DUP2 PUSH2 0x103C SWAP2 SWAP1 PUSH2 0x40AC JUMP JUMPDEST POP PUSH1 0x40 DUP3 ADD MLOAD DUP2 PUSH1 0x2 ADD SSTORE PUSH1 0x60 DUP3 ADD MLOAD DUP2 PUSH1 0x3 ADD SWAP1 DUP2 PUSH2 0x105C SWAP2 SWAP1 PUSH2 0x40AC JUMP JUMPDEST POP PUSH1 0x80 DUP3 ADD MLOAD DUP2 PUSH1 0x4 ADD SSTORE PUSH1 0xA0 DUP3 ADD MLOAD DUP2 PUSH1 0x5 ADD PUSH1 0x0 PUSH2 0x100 EXP DUP2 SLOAD DUP2 PUSH1 0xFF MUL NOT AND SWAP1 DUP4 PUSH1 0x0 SIGNEXTEND PUSH1 0xFF AND MUL OR SWAP1 SSTORE POP PUSH1 0xC0 DUP3 ADD MLOAD DUP2 PUSH1 0x5 ADD PUSH1 0x1 PUSH2 0x100 EXP DUP2 SLOAD DUP2 PUSH16 0xFFFFFFFFFFFFFFFFFFFFFFFFFFFFFFFF MUL NOT AND SWAP1 DUP4 PUSH16 0xFFFFFFFFFFFFFFFFFFFFFFFFFFFFFFFF AND MUL OR SWAP1 SSTORE POP PUSH1 0xE0 DUP3 ADD MLOAD DUP2 PUSH1 0x6 ADD PUSH1 0x0 PUSH2 0x100 EXP DUP2 SLOAD DUP2 PUSH16 0xFFFFFFFFFFFFFFFFFFFFFFFFFFFFFFFF MUL NOT AND SWAP1 DUP4 PUSH16 0xFFFFFFFFFFFFFFFFFFFFFFFFFFFFFFFF AND MUL OR SWAP1 SSTORE POP SWAP1 POP POP PUSH2 0x1114 PUSH2 0x1596 JUMP JUMPDEST SWAP3 POP POP POP SWAP3 SWAP2 POP POP JUMP JUMPDEST PUSH2 0x1127 DUP3 PUSH2 0xF6E JUMP JUMPDEST PUSH2 0x1130 DUP2 PUSH2 0x213E JUMP JUMPDEST PUSH2 0x113A DUP4 DUP4 PUSH2 0x22DA JUMP JUMPDEST POP POP POP JUMP JUMPDEST PUSH32 0x8E6595EF9AFB2A8F70320F393F567BB7A0E6C4ED483CAEE30F90CC5FCD6659B4 PUSH2 0x1169 DUP2 PUSH2 0x213E JUMP JUMPDEST PUSH1 0x0 PUSH1 0x9 PUSH1 0x0 DUP6 DUP2 MSTORE PUSH1 0x20 ADD SWAP1 DUP2 MSTORE PUSH1 0x20 ADD PUSH1 0x0 KECCAK256 PUSH1 0x1 ADD DUP1 SLOAD PUSH2 0x118C SWAP1 PUSH2 0x3ECF JUMP JUMPDEST SWAP1 POP EQ PUSH2 0x11B8 JUMPI DUP2 PUSH1 0x9 PUSH1 0x0 DUP6 DUP2 MSTORE PUSH1 0x20 ADD SWAP1 DUP2 MSTORE PUSH1 0x20 ADD PUSH1 0x0 KECCAK256 PUSH1 0x1 ADD SWAP1 DUP2 PUSH2 0x11B6 SWAP2 SWAP1 PUSH2 0x40AC JUMP JUMPDEST POP JUMPDEST POP POP POP JUMP JUMPDEST PUSH2 0x11C5 PUSH2 0x23BB JUMP JUMPDEST PUSH20 0xFFFFFFFFFFFFFFFFFFFFFFFFFFFFFFFFFFFFFFFF AND DUP2 PUSH20 0xFFFFFFFFFFFFFFFFFFFFFFFFFFFFFFFFFFFFFFFF AND EQ PUSH2 0x1232 JUMPI PUSH1 0x40 MLOAD PUSH32 0x8C379A000000000000000000000000000000000000000000000000000000000 DUP2 MSTORE PUSH1 0x4 ADD PUSH2 0x1229 SWAP1 PUSH2 0x41F0 JUMP JUMPDEST PUSH1 0x40 MLOAD DUP1 SWAP2 SUB SWAP1 REVERT JUMPDEST PUSH2 0x123C DUP3 DUP3 PUSH2 0x23C3 JUMP JUMPDEST POP POP JUMP JUMPDEST POP JUMP JUMPDEST PUSH2 0x125E DUP4 DUP4 DUP4 PUSH1 0x40 MLOAD DUP1 PUSH1 0x20 ADD PUSH1 0x40 MSTORE DUP1 PUSH1 0x0 DUP2 MSTORE POP PUSH2 0x19BB JUMP JUMPDEST POP POP POP JUMP JUMPDEST PUSH2 0x126E DUP2 PUSH1 0x1 PUSH2 0x24A5 JUMP JUMPDEST POP JUMP JUMPDEST POP POP JUMP JUMPDEST PUSH32 0x9F2DF0FED2C77648DE5860A4CC508CD0818C85B8B8A1AB4CEEEF8D981C8956A6 PUSH2 0x129F DUP2 PUSH2 0x213E JUMP JUMPDEST PUSH2 0x12A9 DUP5 DUP4 PUSH2 0x26D6 JUMP JUMPDEST PUSH2 0x12B3 DUP4 DUP6 PUSH2 0x274B JUMP JUMPDEST POP POP POP POP JUMP JUMPDEST PUSH1 0x60 DUP1 PUSH1 0x0 DUP5 DUP5 SWAP1 POP SWAP1 POP PUSH1 0x40 MLOAD SWAP2 POP DUP1 DUP3 MSTORE DUP1 PUSH1 0x5 SHL SWAP1 POP DUP1 PUSH1 0x20 DUP4 ADD ADD PUSH1 0x40 MSTORE JUMPDEST PUSH1 0x0 DUP2 EQ PUSH2 0x130E JUMPI PUSH1 0x0 PUSH1 0x20 DUP3 SUB SWAP2 POP DUP2 DUP7 ADD CALLDATALOAD SWAP1 POP PUSH1 0x0 PUSH2 0x12FD DUP3 PUSH2 0x1ADB JUMP JUMPDEST SWAP1 POP DUP1 DUP4 PUSH1 0x20 DUP7 ADD ADD MSTORE POP POP PUSH2 0x12DC JUMP JUMPDEST DUP2 SWAP3 POP POP POP SWAP3 SWAP2 POP POP JUMP JUMPDEST PUSH1 0x0 PUSH2 0x1324 DUP3 PUSH2 0x2152 JUMP JUMPDEST SWAP1 POP SWAP2 SWAP1 POP JUMP JUMPDEST PUSH1 0x0 DUP1 PUSH20 0xFFFFFFFFFFFFFFFFFFFFFFFFFFFFFFFFFFFFFFFF AND DUP3 PUSH20 0xFFFFFFFFFFFFFFFFFFFFFFFFFFFFFFFFFFFFFFFF AND SUB PUSH2 0x1371 JUMPI PUSH2 0x1370 PUSH4 0x8F4EB604 PUSH1 0xE0 SHL PUSH2 0x2000 JUMP JUMPDEST JUMPDEST PUSH8 0xFFFFFFFFFFFFFFFF PUSH1 0x5 PUSH1 0x0 DUP5 PUSH20 0xFFFFFFFFFFFFFFFFFFFFFFFFFFFFFFFFFFFFFFFF AND PUSH20 0xFFFFFFFFFFFFFFFFFFFFFFFFFFFFFFFFFFFFFFFF AND DUP2 MSTORE PUSH1 0x20 ADD SWAP1 DUP2 MSTORE PUSH1 0x20 ADD PUSH1 0x0 KECCAK256 SLOAD AND SWAP1 POP SWAP2 SWAP1 POP JUMP JUMPDEST POP JUMP JUMPDEST PUSH32 0x9F2DF0FED2C77648DE5860A4CC508CD0818C85B8B8A1AB4CEEEF8D981C8956A6 PUSH2 0x13EF DUP2 PUSH2 0x213E JUMP JUMPDEST PUSH2 0x13F9 DUP4 DUP4 PUSH2 0x26D6 JUMP JUMPDEST PUSH2 0x1403 CALLER DUP5 PUSH2 0x274B JUMP JUMPDEST POP POP POP JUMP JUMPDEST PUSH1 0x60 PUSH1 0x0 PUSH2 0x1415 DUP4 PUSH2 0x132B JUMP JUMPDEST SWAP1 POP PUSH1 0x60 PUSH1 0x40 MLOAD SWAP1 POP PUSH1 0x1 DUP3 ADD PUSH1 0x5 SHL DUP2 ADD PUSH1 0x40 MSTORE DUP2 DUP2 MSTORE PUSH1 0x0 DUP1 PUSH1 0x0 PUSH2 0x143A PUSH2 0x2139 JUMP JUMPDEST SWAP1 POP JUMPDEST DUP5 DUP3 EQ PUSH2 0x148C JUMPI PUSH1 0x0 PUSH2 0x144F DUP3 PUSH2 0x2769 JUMP JUMPDEST SWAP1 POP PUSH1 0x40 DUP2 ADD MLOAD PUSH2 0x1480 JUMPI DUP1 MLOAD ISZERO PUSH2 0x1466 JUMPI DUP1 MLOAD SWAP4 POP JUMPDEST DUP8 DUP5 XOR PUSH1 0x60 SHL PUSH2 0x147F JUMPI PUSH1 0x1 DUP4 ADD SWAP3 POP DUP2 DUP4 PUSH1 0x5 SHL DUP7 ADD MSTORE JUMPDEST JUMPDEST PUSH1 0x1 DUP3 ADD SWAP2 POP POP PUSH2 0x143D JUMP JUMPDEST POP DUP3 SWAP5 POP POP POP POP POP SWAP2 SWAP1 POP JUMP JUMPDEST PUSH1 0x0 PUSH1 0x8 PUSH1 0x0 DUP5 DUP2 MSTORE PUSH1 0x20 ADD SWAP1 DUP2 MSTORE PUSH1 0x20 ADD PUSH1 0x0 KECCAK256 PUSH1 0x0 ADD PUSH1 0x0 DUP4 PUSH20 0xFFFFFFFFFFFFFFFFFFFFFFFFFFFFFFFFFFFFFFFF AND PUSH20 0xFFFFFFFFFFFFFFFFFFFFFFFFFFFFFFFFFFFFFFFF AND DUP2 MSTORE PUSH1 0x20 ADD SWAP1 DUP2 MSTORE PUSH1 0x20 ADD PUSH1 0x0 KECCAK256 PUSH1 0x0 SWAP1 SLOAD SWAP1 PUSH2 0x100 EXP SWAP1 DIV PUSH1 0xFF AND SWAP1 POP SWAP3 SWAP2 POP POP JUMP JUMPDEST PUSH1 0x60 PUSH1 0x3 DUP1 SLOAD PUSH2 0x1513 SWAP1 PUSH2 0x3ECF JUMP JUMPDEST DUP1 PUSH1 0x1F ADD PUSH1 0x20 DUP1 SWAP2 DIV MUL PUSH1 0x20 ADD PUSH1 0x40 MLOAD SWAP1 DUP2 ADD PUSH1 0x40 MSTORE DUP1 SWAP3 SWAP2 SWAP1 DUP2 DUP2 MSTORE PUSH1 0x20 ADD DUP3 DUP1 SLOAD PUSH2 0x153F SWAP1 PUSH2 0x3ECF JUMP JUMPDEST DUP1 ISZERO PUSH2 0x158C JUMPI DUP1 PUSH1 0x1F LT PUSH2 0x1561 JUMPI PUSH2 0x100 DUP1 DUP4 SLOAD DIV MUL DUP4 MSTORE SWAP2 PUSH1 0x20 ADD SWAP2 PUSH2 0x158C JUMP JUMPDEST DUP3 ADD SWAP2 SWAP1 PUSH1 0x0 MSTORE PUSH1 0x20 PUSH1 0x0 KECCAK256 SWAP1 JUMPDEST DUP2 SLOAD DUP2 MSTORE SWAP1 PUSH1 0x1 ADD SWAP1 PUSH1 0x20 ADD DUP1 DUP4 GT PUSH2 0x156F JUMPI DUP3 SWAP1 SUB PUSH1 0x1F AND DUP3 ADD SWAP2 JUMPDEST POP POP POP POP POP SWAP1 POP SWAP1 JUMP JUMPDEST PUSH1 0x0 PUSH32 0xB19546DFF01E856FB3F010C267A7B1C60363CF8A4664E21CC89C26224620214E PUSH2 0x15C2 DUP2 PUSH2 0x213E JUMP JUMPDEST PUSH1 0xB PUSH1 0x0 PUSH1 0xA PUSH1 0x0 SWAP1 SLOAD SWAP1 PUSH2 0x100 EXP SWAP1 DIV PUSH1 0xFF AND PUSH1 0xFF AND PUSH2 0xFFFF AND DUP2 MSTORE PUSH1 0x20 ADD SWAP1 DUP2 MSTORE PUSH1 0x20 ADD PUSH1 0x0 KECCAK256 PUSH1 0x5 ADD PUSH1 0x0 SWAP1 SLOAD SWAP1 PUSH2 0x100 EXP SWAP1 DIV PUSH1 0x0 SIGNEXTEND SWAP2 POP POP SWAP1 JUMP JUMPDEST PUSH1 0x60 DUP2 DUP4 LT PUSH2 0x161C JUMPI PUSH2 0x161B PUSH4 0x32C1995A PUSH1 0xE0 SHL PUSH2 0x2000 JUMP JUMPDEST JUMPDEST PUSH2 0x1624 PUSH2 0x2139 JUMP JUMPDEST DUP4 LT ISZERO PUSH2 0x1636 JUMPI PUSH2 0x1633 PUSH2 0x2139 JUMP JUMPDEST SWAP3 POP JUMPDEST PUSH1 0x0 PUSH2 0x1640 PUSH2 0x2794 JUMP JUMPDEST SWAP1 POP DUP1 DUP4 LT PUSH2 0x164D JUMPI DUP1 SWAP3 POP JUMPDEST PUSH1 0x60 PUSH1 0x0 PUSH2 0x165A DUP8 PUSH2 0x132B JUMP JUMPDEST SWAP1 POP PUSH1 0x0 DUP6 DUP8 LT SWAP1 POP DUP1 DUP3 MUL SWAP2 POP PUSH1 0x0 DUP3 EQ PUSH2 0x170C JUMPI DUP2 DUP8 DUP8 SUB GT PUSH2 0x167F JUMPI DUP7 DUP7 SUB SWAP2 POP JUMPDEST PUSH1 0x40 MLOAD SWAP3 POP PUSH1 0x1 DUP3 ADD PUSH1 0x5 SHL DUP4 ADD PUSH1 0x40 MSTORE PUSH1 0x0 PUSH2 0x169B DUP9 PUSH2 0x1ADB JUMP JUMPDEST SWAP1 POP PUSH1 0x0 DUP2 PUSH1 0x40 ADD MLOAD PUSH2 0x16B0 JUMPI DUP2 PUSH1 0x0 ADD MLOAD SWAP1 POP JUMPDEST PUSH1 0x0 JUMPDEST PUSH2 0x16BC DUP11 PUSH2 0x2769 JUMP JUMPDEST SWAP3 POP PUSH1 0x40 DUP4 ADD MLOAD PUSH2 0x16ED JUMPI DUP3 MLOAD ISZERO PUSH2 0x16D3 JUMPI DUP3 MLOAD SWAP2 POP JUMPDEST DUP11 DUP3 XOR PUSH1 0x60 SHL PUSH2 0x16EC JUMPI PUSH1 0x1 DUP2 ADD SWAP1 POP DUP10 DUP2 PUSH1 0x5 SHL DUP8 ADD MSTORE JUMPDEST JUMPDEST PUSH1 0x1 DUP11 ADD SWAP10 POP DUP9 DUP11 EQ DUP1 PUSH2 0x1700 JUMPI POP DUP5 DUP2 EQ JUMPDEST ISZERO PUSH2 0x16B3 JUMPI DUP1 DUP7 MSTORE POP POP POP JUMPDEST DUP3 SWAP5 POP POP POP POP POP SWAP4 SWAP3 POP POP POP JUMP JUMPDEST PUSH1 0x0 DUP1 SHL DUP2 JUMP JUMPDEST DUP1 PUSH1 0x7 PUSH1 0x0 PUSH2 0x172E PUSH2 0x222F JUMP JUMPDEST PUSH20 0xFFFFFFFFFFFFFFFFFFFFFFFFFFFFFFFFFFFFFFFF AND PUSH20 0xFFFFFFFFFFFFFFFFFFFFFFFFFFFFFFFFFFFFFFFF AND DUP2 MSTORE PUSH1 0x20 ADD SWAP1 DUP2 MSTORE PUSH1 0x20 ADD PUSH1 0x0 KECCAK256 PUSH1 0x0 DUP5 PUSH20 0xFFFFFFFFFFFFFFFFFFFFFFFFFFFFFFFFFFFFFFFF AND PUSH20 0xFFFFFFFFFFFFFFFFFFFFFFFFFFFFFFFFFFFFFFFF AND DUP2 MSTORE PUSH1 0x20 ADD SWAP1 DUP2 MSTORE PUSH1 0x20 ADD PUSH1 0x0 KECCAK256 PUSH1 0x0 PUSH2 0x100 EXP DUP2 SLOAD DUP2 PUSH1 0xFF MUL NOT AND SWAP1 DUP4 ISZERO ISZERO MUL OR SWAP1 SSTORE POP DUP2 PUSH20 0xFFFFFFFFFFFFFFFFFFFFFFFFFFFFFFFFFFFFFFFF AND PUSH2 0x17DB PUSH2 0x222F JUMP JUMPDEST PUSH20 0xFFFFFFFFFFFFFFFFFFFFFFFFFFFFFFFFFFFFFFFF AND PUSH32 0x17307EAB39AB6107E8899845AD3D59BD9653F200F220920489CA2B5937696C31 DUP4 PUSH1 0x40 MLOAD PUSH2 0x1820 SWAP2 SWAP1 PUSH2 0x3028 JUMP JUMPDEST PUSH1 0x40 MLOAD DUP1 SWAP2 SUB SWAP1 LOG3 POP POP JUMP JUMPDEST PUSH32 0x9F2DF0FED2C77648DE5860A4CC508CD0818C85B8B8A1AB4CEEEF8D981C8956A6 PUSH2 0x1856 DUP2 PUSH2 0x213E JUMP JUMPDEST PUSH1 0x0 PUSH1 0xB PUSH1 0x0 PUSH1 0xA PUSH1 0x0 SWAP1 SLOAD SWAP1 PUSH2 0x100 EXP SWAP1 DIV PUSH1 0xFF AND PUSH1 0xFF AND PUSH2 0xFFFF AND DUP2 MSTORE PUSH1 0x20 ADD SWAP1 DUP2 MSTORE PUSH1 0x20 ADD PUSH1 0x0 KECCAK256 SWAP1 POP PUSH1 0x2 DUP2 PUSH1 0x5 ADD PUSH1 0x0 SWAP1 SLOAD SWAP1 PUSH2 0x100 EXP SWAP1 DIV PUSH1 0x0 SIGNEXTEND PUSH1 0x0 SIGNEXTEND SGT PUSH2 0x18DA JUMPI PUSH1 0x40 MLOAD PUSH32 0x8C379A000000000000000000000000000000000000000000000000000000000 DUP2 MSTORE PUSH1 0x4 ADD PUSH2 0x18D1 SWAP1 PUSH2 0x4282 JUMP JUMPDEST PUSH1 0x40 MLOAD DUP1 SWAP2 SUB SWAP1 REVERT JUMPDEST PUSH1 0x3 DUP2 PUSH1 0x5 ADD PUSH1 0x0 SWAP1 SLOAD SWAP1 PUSH2 0x100 EXP SWAP1 DIV PUSH1 0x0 SIGNEXTEND PUSH1 0x0 SIGNEXTEND EQ PUSH2 0x1931 JUMPI PUSH1 0x40 MLOAD PUSH32 0x8C379A000000000000000000000000000000000000000000000000000000000 DUP2 MSTORE PUSH1 0x4 ADD PUSH2 0x1928 SWAP1 PUSH2 0x4314 JUMP JUMPDEST PUSH1 0x40 MLOAD DUP1 SWAP2 SUB SWAP1 REVERT JUMPDEST PUSH1 0x4 DUP2 PUSH1 0x5 ADD PUSH1 0x0 PUSH2 0x100 EXP DUP2 SLOAD DUP2 PUSH1 0xFF MUL NOT AND SWAP1 DUP4 PUSH1 0x0 SIGNEXTEND PUSH1 0xFF AND MUL OR SWAP1 SSTORE POP PUSH1 0x1 PUSH1 0xB PUSH1 0x0 PUSH1 0x1 PUSH1 0xA PUSH1 0x0 SWAP1 SLOAD SWAP1 PUSH2 0x100 EXP SWAP1 DIV PUSH1 0xFF AND PUSH2 0x1974 SWAP2 SWAP1 PUSH2 0x4363 JUMP JUMPDEST PUSH1 0xFF AND PUSH2 0xFFFF AND DUP2 MSTORE PUSH1 0x20 ADD SWAP1 DUP2 MSTORE PUSH1 0x20 ADD PUSH1 0x0 KECCAK256 PUSH1 0x5 ADD PUSH1 0x0 PUSH2 0x100 EXP DUP2 SLOAD DUP2 PUSH1 0xFF MUL NOT AND SWAP1 DUP4 PUSH1 0x0 SIGNEXTEND PUSH1 0xFF AND MUL OR SWAP1 SSTORE POP POP POP JUMP JUMPDEST POP JUMP JUMPDEST PUSH2 0x19B6 PUSH2 0x279D JUMP JUMPDEST POP POP POP JUMP JUMPDEST PUSH2 0x19C6 DUP5 DUP5 DUP5 PUSH2 0xCAD JUMP JUMPDEST PUSH1 0x0 DUP4 PUSH20 0xFFFFFFFFFFFFFFFFFFFFFFFFFFFFFFFFFFFFFFFF AND EXTCODESIZE EQ PUSH2 0x1A07 JUMPI PUSH2 0x19F1 DUP5 DUP5 DUP5 DUP5 PUSH2 0x28D5 JUMP JUMPDEST PUSH2 0x1A06 JUMPI PUSH2 0x1A05 PUSH4 0xD1A57ED6 PUSH1 0xE0 SHL PUSH2 0x2000 JUMP JUMPDEST JUMPDEST JUMPDEST POP POP POP POP JUMP JUMPDEST JUMP JUMPDEST JUMP JUMPDEST PUSH1 0x0 PUSH32 0x9F2DF0FED2C77648DE5860A4CC508CD0818C85B8B8A1AB4CEEEF8D981C8956A6 PUSH2 0x1A3D DUP2 PUSH2 0x213E JUMP JUMPDEST PUSH1 0x0 PUSH1 0xB PUSH1 0x0 PUSH1 0xA PUSH1 0x0 SWAP1 SLOAD SWAP1 PUSH2 0x100 EXP SWAP1 DIV PUSH1 0xFF AND PUSH1 0xFF AND PUSH2 0xFFFF AND DUP2 MSTORE PUSH1 0x20 ADD SWAP1 DUP2 MSTORE PUSH1 0x20 ADD PUSH1 0x0 KECCAK256 SWAP1 POP DUP5 DUP2 PUSH1 0x2 ADD DUP2 SWAP1 SSTORE POP PUSH1 0xC PUSH1 0xA DUP6 PUSH2 0x1A82 SWAP2 SWAP1 PUSH2 0x4398 JUMP JUMPDEST XOR DUP2 PUSH1 0x4 ADD DUP2 SWAP1 SSTORE POP PUSH1 0x1 DUP2 PUSH1 0x5 ADD PUSH1 0x0 SWAP1 SLOAD SWAP1 PUSH2 0x100 EXP SWAP1 DIV PUSH1 0x0 SIGNEXTEND PUSH1 0x0 SIGNEXTEND SUB PUSH2 0x1AC9 JUMPI PUSH1 0x2 DUP2 PUSH1 0x5 ADD PUSH1 0x0 PUSH2 0x100 EXP DUP2 SLOAD DUP2 PUSH1 0xFF MUL NOT AND SWAP1 DUP4 PUSH1 0x0 SIGNEXTEND PUSH1 0xFF AND MUL OR SWAP1 SSTORE POP JUMPDEST PUSH2 0x1AD1 PUSH2 0x1596 JUMP JUMPDEST SWAP3 POP POP POP SWAP3 SWAP2 POP POP JUMP JUMPDEST PUSH2 0x1AE3 PUSH2 0x2F25 JUMP JUMPDEST PUSH2 0x1AEB PUSH2 0x2139 JUMP JUMPDEST DUP3 LT PUSH2 0x1B22 JUMPI PUSH2 0x1AF9 PUSH2 0x2794 JUMP JUMPDEST DUP3 LT ISZERO PUSH2 0x1B21 JUMPI PUSH2 0x1B09 DUP3 PUSH2 0x2769 JUMP JUMPDEST SWAP1 POP DUP1 PUSH1 0x40 ADD MLOAD PUSH2 0x1B20 JUMPI PUSH2 0x1B1D DUP3 PUSH2 0x2A04 JUMP JUMPDEST SWAP1 POP JUMPDEST JUMPDEST JUMPDEST SWAP2 SWAP1 POP JUMP JUMPDEST PUSH1 0x60 PUSH2 0x1B32 DUP3 PUSH2 0x1FA1 JUMP JUMPDEST PUSH2 0x1B68 JUMPI PUSH1 0x40 MLOAD PUSH32 0xA14C4B5000000000000000000000000000000000000000000000000000000000 DUP2 MSTORE PUSH1 0x4 ADD PUSH1 0x40 MLOAD DUP1 SWAP2 SUB SWAP1 REVERT JUMPDEST PUSH1 0x0 PUSH2 0x1B73 DUP4 PUSH2 0x2A24 JUMP JUMPDEST MLOAD SUB PUSH2 0x1B8E JUMPI PUSH1 0x40 MLOAD DUP1 PUSH1 0x20 ADD PUSH1 0x40 MSTORE DUP1 PUSH1 0x0 DUP2 MSTORE POP PUSH2 0x1BC1 JUMP JUMPDEST PUSH2 0x1B97 DUP3 PUSH2 0x2A24 JUMP JUMPDEST PUSH2 0x1BA0 DUP4 PUSH2 0x2B2E JUMP JUMPDEST PUSH1 0x40 MLOAD PUSH1 0x20 ADD PUSH2 0x1BB1 SWAP3 SWAP2 SWAP1 PUSH2 0x4462 JUMP JUMPDEST PUSH1 0x40 MLOAD PUSH1 0x20 DUP2 DUP4 SUB SUB DUP2 MSTORE SWAP1 PUSH1 0x40 MSTORE JUMPDEST SWAP1 POP SWAP2 SWAP1 POP JUMP JUMPDEST PUSH32 0x9F2DF0FED2C77648DE5860A4CC508CD0818C85B8B8A1AB4CEEEF8D981C8956A6 DUP2 JUMP JUMPDEST PUSH2 0x1BF5 DUP3 PUSH2 0xF6E JUMP JUMPDEST PUSH2 0x1BFE DUP2 PUSH2 0x213E JUMP JUMPDEST PUSH2 0x1C08 DUP4 DUP4 PUSH2 0x23C3 JUMP JUMPDEST POP POP POP JUMP JUMPDEST PUSH32 0xB19546DFF01E856FB3F010C267A7B1C60363CF8A4664E21CC89C26224620214E DUP2 JUMP JUMPDEST PUSH1 0x0 PUSH2 0x1C3B PUSH2 0x279D JUMP JUMPDEST SWAP1 POP PUSH1 0x7 DUP3 PUSH1 0x0 DUP2 MLOAD DUP2 LT PUSH2 0x1C53 JUMPI PUSH2 0x1C52 PUSH2 0x4491 JUMP JUMPDEST JUMPDEST PUSH1 0x20 MUL PUSH1 0x20 ADD ADD MLOAD POP POP PUSH1 0xC DUP3 PUSH1 0x0 DUP2 MLOAD DUP2 LT PUSH2 0x1C73 JUMPI PUSH2 0x1C72 PUSH2 0x4491 JUMP JUMPDEST JUMPDEST PUSH1 0x20 MUL PUSH1 0x20 ADD ADD MLOAD POP POP PUSH1 0x0 JUMPDEST DUP3 MLOAD DUP2 PUSH1 0xFF AND LT ISZERO PUSH2 0x1C9F JUMPI DUP1 DUP1 PUSH2 0x1C97 SWAP1 PUSH2 0x44C0 JUMP JUMPDEST SWAP2 POP POP PUSH2 0x1C80 JUMP JUMPDEST POP POP POP JUMP JUMPDEST PUSH1 0x0 PUSH1 0x7 PUSH1 0x0 DUP5 PUSH20 0xFFFFFFFFFFFFFFFFFFFFFFFFFFFFFFFFFFFFFFFF AND PUSH20 0xFFFFFFFFFFFFFFFFFFFFFFFFFFFFFFFFFFFFFFFF AND DUP2 MSTORE PUSH1 0x20 ADD SWAP1 DUP2 MSTORE PUSH1 0x20 ADD PUSH1 0x0 KECCAK256 PUSH1 0x0 DUP4 PUSH20 0xFFFFFFFFFFFFFFFFFFFFFFFFFFFFFFFFFFFFFFFF AND PUSH20 0xFFFFFFFFFFFFFFFFFFFFFFFFFFFFFFFFFFFFFFFF AND DUP2 MSTORE PUSH1 0x20 ADD SWAP1 DUP2 MSTORE PUSH1 0x20 ADD PUSH1 0x0 KECCAK256 PUSH1 0x0 SWAP1 SLOAD SWAP1 PUSH2 0x100 EXP SWAP1 DIV PUSH1 0xFF AND SWAP1 POP SWAP3 SWAP2 POP POP JUMP JUMPDEST PUSH1 0x60 PUSH2 0x1D5E DUP3 PUSH20 0xFFFFFFFFFFFFFFFFFFFFFFFFFFFFFFFFFFFFFFFF AND PUSH1 0x14 PUSH1 0xFF AND PUSH2 0x1D65 JUMP JUMPDEST SWAP1 POP SWAP2 SWAP1 POP JUMP JUMPDEST PUSH1 0x60 PUSH1 0x0 PUSH1 0x2 DUP4 PUSH1 0x2 PUSH2 0x1D78 SWAP2 SWAP1 PUSH2 0x4398 JUMP JUMPDEST PUSH2 0x1D82 SWAP2 SWAP1 PUSH2 0x44E9 JUMP JUMPDEST PUSH8 0xFFFFFFFFFFFFFFFF DUP2 GT ISZERO PUSH2 0x1D9B JUMPI PUSH2 0x1D9A PUSH2 0x32EF JUMP JUMPDEST JUMPDEST PUSH1 0x40 MLOAD SWAP1 DUP1 DUP3 MSTORE DUP1 PUSH1 0x1F ADD PUSH1 0x1F NOT AND PUSH1 0x20 ADD DUP3 ADD PUSH1 0x40 MSTORE DUP1 ISZERO PUSH2 0x1DCD JUMPI DUP2 PUSH1 0x20 ADD PUSH1 0x1 DUP3 MUL DUP1 CALLDATASIZE DUP4 CALLDATACOPY DUP1 DUP3 ADD SWAP2 POP POP SWAP1 POP JUMPDEST POP SWAP1 POP PUSH32 0x3000000000000000000000000000000000000000000000000000000000000000 DUP2 PUSH1 0x0 DUP2 MLOAD DUP2 LT PUSH2 0x1E05 JUMPI PUSH2 0x1E04 PUSH2 0x4491 JUMP JUMPDEST JUMPDEST PUSH1 0x20 ADD ADD SWAP1 PUSH31 0xFFFFFFFFFFFFFFFFFFFFFFFFFFFFFFFFFFFFFFFFFFFFFFFFFFFFFFFFFFFFFF NOT AND SWAP1 DUP2 PUSH1 0x0 BYTE SWAP1 MSTORE8 POP PUSH32 0x7800000000000000000000000000000000000000000000000000000000000000 DUP2 PUSH1 0x1 DUP2 MLOAD DUP2 LT PUSH2 0x1E69 JUMPI PUSH2 0x1E68 PUSH2 0x4491 JUMP JUMPDEST JUMPDEST PUSH1 0x20 ADD ADD SWAP1 PUSH31 0xFFFFFFFFFFFFFFFFFFFFFFFFFFFFFFFFFFFFFFFFFFFFFFFFFFFFFFFFFFFFFF NOT AND SWAP1 DUP2 PUSH1 0x0 BYTE SWAP1 MSTORE8 POP PUSH1 0x0 PUSH1 0x1 DUP5 PUSH1 0x2 PUSH2 0x1EA9 SWAP2 SWAP1 PUSH2 0x4398 JUMP JUMPDEST PUSH2 0x1EB3 SWAP2 SWAP1 PUSH2 0x44E9 JUMP JUMPDEST SWAP1 POP JUMPDEST PUSH1 0x1 DUP2 GT ISZERO PUSH2 0x1F53 JUMPI PUSH32 0x3031323334353637383961626364656600000000000000000000000000000000 PUSH1 0xF DUP7 AND PUSH1 0x10 DUP2 LT PUSH2 0x1EF5 JUMPI PUSH2 0x1EF4 PUSH2 0x4491 JUMP JUMPDEST JUMPDEST BYTE PUSH1 0xF8 SHL DUP3 DUP3 DUP2 MLOAD DUP2 LT PUSH2 0x1F0C JUMPI PUSH2 0x1F0B PUSH2 0x4491 JUMP JUMPDEST JUMPDEST PUSH1 0x20 ADD ADD SWAP1 PUSH31 0xFFFFFFFFFFFFFFFFFFFFFFFFFFFFFFFFFFFFFFFFFFFFFFFFFFFFFFFFFFFFFF NOT AND SWAP1 DUP2 PUSH1 0x0 BYTE SWAP1 MSTORE8 POP PUSH1 0x4 DUP6 SWAP1 SHR SWAP5 POP DUP1 PUSH2 0x1F4C SWAP1 PUSH2 0x451D JUMP JUMPDEST SWAP1 POP PUSH2 0x1EB6 JUMP JUMPDEST POP PUSH1 0x0 DUP5 EQ PUSH2 0x1F97 JUMPI PUSH1 0x40 MLOAD PUSH32 0x8C379A000000000000000000000000000000000000000000000000000000000 DUP2 MSTORE PUSH1 0x4 ADD PUSH2 0x1F8E SWAP1 PUSH2 0x4592 JUMP JUMPDEST PUSH1 0x40 MLOAD DUP1 SWAP2 SUB SWAP1 REVERT JUMPDEST DUP1 SWAP2 POP POP SWAP3 SWAP2 POP POP JUMP JUMPDEST PUSH1 0x0 DUP2 PUSH2 0x1FAC PUSH2 0x2139 JUMP JUMPDEST GT ISZERO DUP1 ISZERO PUSH2 0x1FBB JUMPI POP PUSH1 0x0 SLOAD DUP3 LT JUMPDEST DUP1 ISZERO PUSH2 0x1FF9 JUMPI POP PUSH1 0x0 PUSH29 0x100000000000000000000000000000000000000000000000000000000 PUSH1 0x4 PUSH1 0x0 DUP6 DUP2 MSTORE PUSH1 0x20 ADD SWAP1 DUP2 MSTORE PUSH1 0x20 ADD PUSH1 0x0 KECCAK256 SLOAD AND EQ JUMPDEST SWAP1 POP SWAP2 SWAP1 POP JUMP JUMPDEST DUP1 PUSH1 0x0 MSTORE PUSH1 0x4 PUSH1 0x0 REVERT JUMPDEST PUSH1 0x0 PUSH2 0x2015 DUP4 PUSH2 0x1319 JUMP JUMPDEST SWAP1 POP DUP2 DUP1 ISZERO PUSH2 0x2057 JUMPI POP DUP1 PUSH20 0xFFFFFFFFFFFFFFFFFFFFFFFFFFFFFFFFFFFFFFFF AND PUSH2 0x203E PUSH2 0x222F JUMP JUMPDEST PUSH20 0xFFFFFFFFFFFFFFFFFFFFFFFFFFFFFFFFFFFFFFFF AND EQ ISZERO JUMPDEST ISZERO PUSH2 0x2083 JUMPI PUSH2 0x206D DUP2 PUSH2 0x2068 PUSH2 0x222F JUMP JUMPDEST PUSH2 0x1CA4 JUMP JUMPDEST PUSH2 0x2082 JUMPI PUSH2 0x2081 PUSH4 0xCFB3B942 PUSH1 0xE0 SHL PUSH2 0x2000 JUMP JUMPDEST JUMPDEST JUMPDEST DUP4 PUSH1 0x6 PUSH1 0x0 DUP6 DUP2 MSTORE PUSH1 0x20 ADD SWAP1 DUP2 MSTORE PUSH1 0x20 ADD PUSH1 0x0 KECCAK256 PUSH1 0x0 ADD PUSH1 0x0 PUSH2 0x100 EXP DUP2 SLOAD DUP2 PUSH20 0xFFFFFFFFFFFFFFFFFFFFFFFFFFFFFFFFFFFFFFFF MUL NOT AND SWAP1 DUP4 PUSH20 0xFFFFFFFFFFFFFFFFFFFFFFFFFFFFFFFFFFFFFFFF AND MUL OR SWAP1 SSTORE POP DUP3 DUP5 PUSH20 0xFFFFFFFFFFFFFFFFFFFFFFFFFFFFFFFFFFFFFFFF AND DUP3 PUSH20 0xFFFFFFFFFFFFFFFFFFFFFFFFFFFFFFFFFFFFFFFF AND PUSH32 0x8C5BE1E5EBEC7D5BD14F71427D1E84F3DD0314C0F7B2291E5B200AC8C7C3B925 PUSH1 0x40 MLOAD PUSH1 0x40 MLOAD DUP1 SWAP2 SUB SWAP1 LOG4 POP POP POP POP JUMP JUMPDEST PUSH1 0x0 SWAP1 JUMP JUMPDEST PUSH2 0x214F DUP2 PUSH2 0x214A PUSH2 0x23BB JUMP JUMPDEST PUSH2 0x2B7E JUMP JUMPDEST POP JUMP JUMPDEST PUSH1 0x0 DUP2 PUSH2 0x215D PUSH2 0x2139 JUMP JUMPDEST GT PUSH2 0x21F2 JUMPI PUSH1 0x4 PUSH1 0x0 DUP4 DUP2 MSTORE PUSH1 0x20 ADD SWAP1 DUP2 MSTORE PUSH1 0x20 ADD PUSH1 0x0 KECCAK256 SLOAD SWAP1 POP PUSH1 0x0 PUSH29 0x100000000000000000000000000000000000000000000000000000000 DUP3 AND SUB PUSH2 0x21F1 JUMPI PUSH1 0x0 DUP2 SUB PUSH2 0x21EC JUMPI PUSH1 0x0 SLOAD DUP3 LT PUSH2 0x21C1 JUMPI PUSH2 0x21C0 PUSH4 0xDF2D9B42 PUSH1 0xE0 SHL PUSH2 0x2000 JUMP JUMPDEST JUMPDEST JUMPDEST PUSH1 0x4 PUSH1 0x0 DUP4 PUSH1 0x1 SWAP1 SUB SWAP4 POP DUP4 DUP2 MSTORE PUSH1 0x20 ADD SWAP1 DUP2 MSTORE PUSH1 0x20 ADD PUSH1 0x0 KECCAK256 SLOAD SWAP1 POP PUSH1 0x0 DUP2 SUB PUSH2 0x2203 JUMPI PUSH2 0x21C2 JUMP JUMPDEST PUSH2 0x2203 JUMP JUMPDEST JUMPDEST PUSH2 0x2202 PUSH4 0xDF2D9B42 PUSH1 0xE0 SHL PUSH2 0x2000 JUMP JUMPDEST JUMPDEST SWAP2 SWAP1 POP JUMP JUMPDEST PUSH1 0x0 DUP1 PUSH1 0x0 PUSH1 0x6 PUSH1 0x0 DUP6 DUP2 MSTORE PUSH1 0x20 ADD SWAP1 DUP2 MSTORE PUSH1 0x20 ADD PUSH1 0x0 KECCAK256 SWAP1 POP DUP1 SWAP3 POP DUP3 SLOAD SWAP2 POP POP SWAP2 POP SWAP2 JUMP JUMPDEST PUSH1 0x0 CALLER SWAP1 POP SWAP1 JUMP JUMPDEST PUSH1 0x0 PUSH20 0xFFFFFFFFFFFFFFFFFFFFFFFFFFFFFFFFFFFFFFFF DUP4 AND SWAP3 POP PUSH20 0xFFFFFFFFFFFFFFFFFFFFFFFFFFFFFFFFFFFFFFFF DUP3 AND SWAP2 POP DUP4 DUP3 EQ DUP4 DUP4 EQ OR SWAP1 POP SWAP4 SWAP3 POP POP POP JUMP JUMPDEST POP POP POP POP JUMP JUMPDEST PUSH1 0x0 DUP1 PUSH1 0xE8 DUP4 SWAP1 SHR SWAP1 POP PUSH1 0xE8 PUSH2 0x2298 DUP7 DUP7 DUP5 PUSH2 0x2C03 JUMP JUMPDEST PUSH3 0xFFFFFF AND SWAP1 SHL SWAP2 POP POP SWAP4 SWAP3 POP POP POP JUMP JUMPDEST PUSH1 0x0 PUSH20 0xFFFFFFFFFFFFFFFFFFFFFFFFFFFFFFFFFFFFFFFF DUP4 AND SWAP3 POP DUP2 TIMESTAMP PUSH1 0xA0 SHL OR DUP4 OR SWAP1 POP SWAP3 SWAP2 POP POP JUMP JUMPDEST POP POP POP POP JUMP JUMPDEST PUSH2 0x22E4 DUP3 DUP3 PUSH2 0x1499 JUMP JUMPDEST PUSH2 0x23B7 JUMPI PUSH1 0x1 PUSH1 0x8 PUSH1 0x0 DUP5 DUP2 MSTORE PUSH1 0x20 ADD SWAP1 DUP2 MSTORE PUSH1 0x20 ADD PUSH1 0x0 KECCAK256 PUSH1 0x0 ADD PUSH1 0x0 DUP4 PUSH20 0xFFFFFFFFFFFFFFFFFFFFFFFFFFFFFFFFFFFFFFFF AND PUSH20 0xFFFFFFFFFFFFFFFFFFFFFFFFFFFFFFFFFFFFFFFF AND DUP2 MSTORE PUSH1 0x20 ADD SWAP1 DUP2 MSTORE PUSH1 0x20 ADD PUSH1 0x0 KECCAK256 PUSH1 0x0 PUSH2 0x100 EXP DUP2 SLOAD DUP2 PUSH1 0xFF MUL NOT AND SWAP1 DUP4 ISZERO ISZERO MUL OR SWAP1 SSTORE POP PUSH2 0x235C PUSH2 0x23BB JUMP JUMPDEST PUSH20 0xFFFFFFFFFFFFFFFFFFFFFFFFFFFFFFFFFFFFFFFF AND DUP2 PUSH20 0xFFFFFFFFFFFFFFFFFFFFFFFFFFFFFFFFFFFFFFFF AND DUP4 PUSH32 0x2F8788117E7EFF1D82E926EC794901D17C78024A50270940304540A733656F0D PUSH1 0x40 MLOAD PUSH1 0x40 MLOAD DUP1 SWAP2 SUB SWAP1 LOG4 JUMPDEST POP POP JUMP JUMPDEST PUSH1 0x0 CALLER SWAP1 POP SWAP1 JUMP JUMPDEST PUSH2 0x23CD DUP3 DUP3 PUSH2 0x1499 JUMP JUMPDEST ISZERO PUSH2 0x24A1 JUMPI PUSH1 0x0 PUSH1 0x8 PUSH1 0x0 DUP5 DUP2 MSTORE PUSH1 0x20 ADD SWAP1 DUP2 MSTORE PUSH1 0x20 ADD PUSH1 0x0 KECCAK256 PUSH1 0x0 ADD PUSH1 0x0 DUP4 PUSH20 0xFFFFFFFFFFFFFFFFFFFFFFFFFFFFFFFFFFFFFFFF AND PUSH20 0xFFFFFFFFFFFFFFFFFFFFFFFFFFFFFFFFFFFFFFFF AND DUP2 MSTORE PUSH1 0x20 ADD SWAP1 DUP2 MSTORE PUSH1 0x20 ADD PUSH1 0x0 KECCAK256 PUSH1 0x0 PUSH2 0x100 EXP DUP2 SLOAD DUP2 PUSH1 0xFF MUL NOT AND SWAP1 DUP4 ISZERO ISZERO MUL OR SWAP1 SSTORE POP PUSH2 0x2446 PUSH2 0x23BB JUMP JUMPDEST PUSH20 0xFFFFFFFFFFFFFFFFFFFFFFFFFFFFFFFFFFFFFFFF AND DUP2 PUSH20 0xFFFFFFFFFFFFFFFFFFFFFFFFFFFFFFFFFFFFFFFF AND DUP4 PUSH32 0xF6391F5C32D9C69D2A47EA670B442974B53935D1EDC7FD64EB21E047A839171B PUSH1 0x40 MLOAD PUSH1 0x40 MLOAD DUP1 SWAP2 SUB SWAP1 LOG4 JUMPDEST POP POP JUMP JUMPDEST PUSH1 0x0 PUSH2 0x24B0 DUP4 PUSH2 0x2152 JUMP JUMPDEST SWAP1 POP PUSH1 0x0 DUP2 SWAP1 POP PUSH1 0x0 DUP1 PUSH2 0x24C3 DUP7 PUSH2 0x2208 JUMP JUMPDEST SWAP2 POP SWAP2 POP DUP5 ISZERO PUSH2 0x250B JUMPI PUSH2 0x24DF DUP2 DUP5 PUSH2 0x24DA PUSH2 0x222F JUMP JUMPDEST PUSH2 0x2237 JUMP JUMPDEST PUSH2 0x250A JUMPI PUSH2 0x24F4 DUP4 PUSH2 0x24EF PUSH2 0x222F JUMP JUMPDEST PUSH2 0x1CA4 JUMP JUMPDEST PUSH2 0x2509 JUMPI PUSH2 0x2508 PUSH4 0x59C896BE PUSH1 0xE0 SHL PUSH2 0x2000 JUMP JUMPDEST JUMPDEST JUMPDEST JUMPDEST PUSH2 0x2519 DUP4 PUSH1 0x0 DUP9 PUSH1 0x1 PUSH2 0x227B JUMP JUMPDEST DUP1 ISZERO PUSH2 0x2524 JUMPI PUSH1 0x0 DUP3 SSTORE JUMPDEST PUSH1 0x1 PUSH1 0x80 PUSH1 0x1 SWAP1 SHL SUB PUSH1 0x5 PUSH1 0x0 DUP6 PUSH20 0xFFFFFFFFFFFFFFFFFFFFFFFFFFFFFFFFFFFFFFFF AND PUSH20 0xFFFFFFFFFFFFFFFFFFFFFFFFFFFFFFFFFFFFFFFF AND DUP2 MSTORE PUSH1 0x20 ADD SWAP1 DUP2 MSTORE PUSH1 0x20 ADD PUSH1 0x0 KECCAK256 PUSH1 0x0 DUP3 DUP3 SLOAD ADD SWAP3 POP POP DUP2 SWAP1 SSTORE POP PUSH2 0x25CC DUP4 PUSH2 0x2589 DUP6 PUSH1 0x0 DUP9 PUSH2 0x2281 JUMP JUMPDEST PUSH29 0x200000000000000000000000000000000000000000000000000000000 PUSH29 0x100000000000000000000000000000000000000000000000000000000 OR OR PUSH2 0x22A9 JUMP JUMPDEST PUSH1 0x4 PUSH1 0x0 DUP9 DUP2 MSTORE PUSH1 0x20 ADD SWAP1 DUP2 MSTORE PUSH1 0x20 ADD PUSH1 0x0 KECCAK256 DUP2 SWAP1 SSTORE POP PUSH1 0x0 PUSH29 0x200000000000000000000000000000000000000000000000000000000 DUP6 AND SUB PUSH2 0x2652 JUMPI PUSH1 0x0 PUSH1 0x1 DUP8 ADD SWAP1 POP PUSH1 0x0 PUSH1 0x4 PUSH1 0x0 DUP4 DUP2 MSTORE PUSH1 0x20 ADD SWAP1 DUP2 MSTORE PUSH1 0x20 ADD PUSH1 0x0 KECCAK256 SLOAD SUB PUSH2 0x2650 JUMPI PUSH1 0x0 SLOAD DUP2 EQ PUSH2 0x264F JUMPI DUP5 PUSH1 0x4 PUSH1 0x0 DUP4 DUP2 MSTORE PUSH1 0x20 ADD SWAP1 DUP2 MSTORE PUSH1 0x20 ADD PUSH1 0x0 KECCAK256 DUP2 SWAP1 SSTORE POP JUMPDEST JUMPDEST POP JUMPDEST DUP6 PUSH1 0x0 PUSH20 0xFFFFFFFFFFFFFFFFFFFFFFFFFFFFFFFFFFFFFFFF AND DUP5 PUSH20 0xFFFFFFFFFFFFFFFFFFFFFFFFFFFFFFFFFFFFFFFF AND PUSH32 0xDDF252AD1BE2C89B69C2B068FC378DAA952BA7F163C4A11628F55A4DF523B3EF PUSH1 0x40 MLOAD PUSH1 0x40 MLOAD DUP1 SWAP2 SUB SWAP1 LOG4 PUSH2 0x26BC DUP4 PUSH1 0x0 DUP9 PUSH1 0x1 PUSH2 0x22D4 JUMP JUMPDEST PUSH1 0x1 PUSH1 0x0 DUP2 SLOAD DUP1 SWAP3 SWAP2 SWAP1 PUSH1 0x1 ADD SWAP2 SWAP1 POP SSTORE POP POP POP POP POP POP POP JUMP JUMPDEST PUSH1 0x0 DUP3 GT PUSH2 0x26E3 JUMPI PUSH1 0x0 DUP1 REVERT JUMPDEST PUSH1 0x40 MLOAD DUP1 PUSH1 0x40 ADD PUSH1 0x40 MSTORE DUP1 DUP4 PUSH2 0x26F7 PUSH2 0x2794 JUMP JUMPDEST PUSH2 0x2701 SWAP2 SWAP1 PUSH2 0x44E9 JUMP JUMPDEST DUP2 MSTORE PUSH1 0x20 ADD DUP3 DUP2 MSTORE POP PUSH1 0x9 PUSH1 0x0 PUSH2 0x2716 PUSH2 0x2794 JUMP JUMPDEST DUP2 MSTORE PUSH1 0x20 ADD SWAP1 DUP2 MSTORE PUSH1 0x20 ADD PUSH1 0x0 KECCAK256 PUSH1 0x0 DUP3 ADD MLOAD DUP2 PUSH1 0x0 ADD SSTORE PUSH1 0x20 DUP3 ADD MLOAD DUP2 PUSH1 0x1 ADD SWAP1 DUP2 PUSH2 0x2743 SWAP2 SWAP1 PUSH2 0x40AC JUMP JUMPDEST POP SWAP1 POP POP POP POP JUMP JUMPDEST PUSH2 0x2765 DUP3 DUP3 PUSH1 0x40 MLOAD DUP1 PUSH1 0x20 ADD PUSH1 0x40 MSTORE DUP1 PUSH1 0x0 DUP2 MSTORE POP PUSH2 0x2C0C JUMP JUMPDEST POP POP JUMP JUMPDEST PUSH2 0x2771 PUSH2 0x2F25 JUMP JUMPDEST PUSH2 0x278D PUSH1 0x4 PUSH1 0x0 DUP5 DUP2 MSTORE PUSH1 0x20 ADD SWAP1 DUP2 MSTORE PUSH1 0x20 ADD PUSH1 0x0 KECCAK256 SLOAD PUSH2 0x2C91 JUMP JUMPDEST SWAP1 POP SWAP2 SWAP1 POP JUMP JUMPDEST PUSH1 0x0 DUP1 SLOAD SWAP1 POP SWAP1 JUMP JUMPDEST PUSH1 0x0 PUSH1 0x7 PUSH1 0xB PUSH1 0x0 PUSH1 0xA PUSH1 0x1 SWAP1 SLOAD SWAP1 PUSH2 0x100 EXP SWAP1 DIV PUSH1 0xFF AND PUSH1 0xFF AND PUSH2 0xFFFF AND DUP2 MSTORE PUSH1 0x20 ADD SWAP1 DUP2 MSTORE PUSH1 0x20 ADD PUSH1 0x0 KECCAK256 PUSH1 0x5 ADD PUSH1 0x0 SWAP1 SLOAD SWAP1 PUSH2 0x100 EXP SWAP1 DIV PUSH1 0x0 SIGNEXTEND PUSH1 0x0 SIGNEXTEND EQ PUSH2 0x281E JUMPI PUSH1 0x40 MLOAD PUSH32 0x8C379A000000000000000000000000000000000000000000000000000000000 DUP2 MSTORE PUSH1 0x4 ADD PUSH2 0x2815 SWAP1 PUSH2 0x45FE JUMP JUMPDEST PUSH1 0x40 MLOAD DUP1 SWAP2 SUB SWAP1 REVERT JUMPDEST PUSH2 0x1324 PUSH1 0xB PUSH1 0x0 PUSH1 0xA PUSH1 0x1 SWAP1 SLOAD SWAP1 PUSH2 0x100 EXP SWAP1 DIV PUSH1 0xFF AND PUSH1 0xFF AND PUSH2 0xFFFF AND DUP2 MSTORE PUSH1 0x20 ADD SWAP1 DUP2 MSTORE PUSH1 0x20 ADD PUSH1 0x0 KECCAK256 PUSH1 0x5 ADD PUSH1 0x1 SWAP1 SLOAD SWAP1 PUSH2 0x100 EXP SWAP1 DIV PUSH16 0xFFFFFFFFFFFFFFFFFFFFFFFFFFFFFFFF AND PUSH16 0xFFFFFFFFFFFFFFFFFFFFFFFFFFFFFFFF AND GT ISZERO PUSH2 0x28BD JUMPI PUSH1 0x40 MLOAD PUSH32 0x8C379A000000000000000000000000000000000000000000000000000000000 DUP2 MSTORE PUSH1 0x4 ADD PUSH2 0x28B4 SWAP1 PUSH2 0x466A JUMP JUMPDEST PUSH1 0x40 MLOAD DUP1 SWAP2 SUB SWAP1 REVERT JUMPDEST PUSH1 0xA PUSH1 0x1 SWAP1 SLOAD SWAP1 PUSH2 0x100 EXP SWAP1 DIV PUSH1 0xFF AND PUSH1 0xFF AND SWAP1 POP SWAP1 JUMP JUMPDEST PUSH1 0x0 DUP4 PUSH20 0xFFFFFFFFFFFFFFFFFFFFFFFFFFFFFFFFFFFFFFFF AND PUSH4 0x150B7A02 PUSH2 0x28FB PUSH2 0x222F JUMP JUMPDEST DUP8 DUP7 DUP7 PUSH1 0x40 MLOAD DUP6 PUSH4 0xFFFFFFFF AND PUSH1 0xE0 SHL DUP2 MSTORE PUSH1 0x4 ADD PUSH2 0x291D SWAP5 SWAP4 SWAP3 SWAP2 SWAP1 PUSH2 0x46DF JUMP JUMPDEST PUSH1 0x20 PUSH1 0x40 MLOAD DUP1 DUP4 SUB DUP2 PUSH1 0x0 DUP8 GAS CALL SWAP3 POP POP POP DUP1 ISZERO PUSH2 0x2959 JUMPI POP PUSH1 0x40 MLOAD RETURNDATASIZE PUSH1 0x1F NOT PUSH1 0x1F DUP3 ADD AND DUP3 ADD DUP1 PUSH1 0x40 MSTORE POP DUP2 ADD SWAP1 PUSH2 0x2956 SWAP2 SWAP1 PUSH2 0x4740 JUMP JUMPDEST PUSH1 0x1 JUMPDEST PUSH2 0x29B1 JUMPI RETURNDATASIZE DUP1 PUSH1 0x0 DUP2 EQ PUSH2 0x2989 JUMPI PUSH1 0x40 MLOAD SWAP2 POP PUSH1 0x1F NOT PUSH1 0x3F RETURNDATASIZE ADD AND DUP3 ADD PUSH1 0x40 MSTORE RETURNDATASIZE DUP3 MSTORE RETURNDATASIZE PUSH1 0x0 PUSH1 0x20 DUP5 ADD RETURNDATACOPY PUSH2 0x298E JUMP JUMPDEST PUSH1 0x60 SWAP2 POP JUMPDEST POP PUSH1 0x0 DUP2 MLOAD SUB PUSH2 0x29A9 JUMPI PUSH2 0x29A8 PUSH4 0xD1A57ED6 PUSH1 0xE0 SHL PUSH2 0x2000 JUMP JUMPDEST JUMPDEST DUP1 MLOAD DUP2 PUSH1 0x20 ADD REVERT JUMPDEST PUSH4 0x150B7A02 PUSH1 0xE0 SHL PUSH28 0xFFFFFFFFFFFFFFFFFFFFFFFFFFFFFFFFFFFFFFFFFFFFFFFFFFFFFFFF NOT AND DUP2 PUSH28 0xFFFFFFFFFFFFFFFFFFFFFFFFFFFFFFFFFFFFFFFFFFFFFFFFFFFFFFFF NOT AND EQ SWAP2 POP POP SWAP5 SWAP4 POP POP POP POP JUMP JUMPDEST PUSH2 0x2A0C PUSH2 0x2F25 JUMP JUMPDEST PUSH2 0x2A1D PUSH2 0x2A18 DUP4 PUSH2 0x2152 JUMP JUMPDEST PUSH2 0x2C91 JUMP JUMPDEST SWAP1 POP SWAP2 SWAP1 POP JUMP JUMPDEST PUSH1 0x60 PUSH1 0x0 JUMPDEST PUSH2 0x2A31 PUSH2 0x2794 JUMP JUMPDEST DUP2 LT ISZERO PUSH2 0x2B27 JUMPI DUP3 DUP2 GT ISZERO DUP1 ISZERO PUSH2 0x2A5D JUMPI POP PUSH1 0x9 PUSH1 0x0 DUP3 DUP2 MSTORE PUSH1 0x20 ADD SWAP1 DUP2 MSTORE PUSH1 0x20 ADD PUSH1 0x0 KECCAK256 PUSH1 0x0 ADD SLOAD DUP4 LT JUMPDEST ISZERO PUSH2 0x2B09 JUMPI PUSH1 0x9 PUSH1 0x0 DUP3 DUP2 MSTORE PUSH1 0x20 ADD SWAP1 DUP2 MSTORE PUSH1 0x20 ADD PUSH1 0x0 KECCAK256 PUSH1 0x1 ADD DUP1 SLOAD PUSH2 0x2A83 SWAP1 PUSH2 0x3ECF JUMP JUMPDEST DUP1 PUSH1 0x1F ADD PUSH1 0x20 DUP1 SWAP2 DIV MUL PUSH1 0x20 ADD PUSH1 0x40 MLOAD SWAP1 DUP2 ADD PUSH1 0x40 MSTORE DUP1 SWAP3 SWAP2 SWAP1 DUP2 DUP2 MSTORE PUSH1 0x20 ADD DUP3 DUP1 SLOAD PUSH2 0x2AAF SWAP1 PUSH2 0x3ECF JUMP JUMPDEST DUP1 ISZERO PUSH2 0x2AFC JUMPI DUP1 PUSH1 0x1F LT PUSH2 0x2AD1 JUMPI PUSH2 0x100 DUP1 DUP4 SLOAD DIV MUL DUP4 MSTORE SWAP2 PUSH1 0x20 ADD SWAP2 PUSH2 0x2AFC JUMP JUMPDEST DUP3 ADD SWAP2 SWAP1 PUSH1 0x0 MSTORE PUSH1 0x20 PUSH1 0x0 KECCAK256 SWAP1 JUMPDEST DUP2 SLOAD DUP2 MSTORE SWAP1 PUSH1 0x1 ADD SWAP1 PUSH1 0x20 ADD DUP1 DUP4 GT PUSH2 0x2ADF JUMPI DUP3 SWAP1 SUB PUSH1 0x1F AND DUP3 ADD SWAP2 JUMPDEST POP POP POP POP POP SWAP2 POP POP PUSH2 0x2B29 JUMP JUMPDEST PUSH1 0x9 PUSH1 0x0 DUP3 DUP2 MSTORE PUSH1 0x20 ADD SWAP1 DUP2 MSTORE PUSH1 0x20 ADD PUSH1 0x0 KECCAK256 PUSH1 0x0 ADD SLOAD SWAP1 POP PUSH2 0x2A29 JUMP JUMPDEST POP JUMPDEST SWAP2 SWAP1 POP JUMP JUMPDEST PUSH1 0x60 PUSH1 0xA0 PUSH1 0x40 MLOAD ADD DUP1 PUSH1 0x40 MSTORE PUSH1 0x20 DUP2 SUB SWAP2 POP PUSH1 0x0 DUP3 MSTORE DUP2 DUP4 JUMPDEST PUSH1 0x1 ISZERO PUSH2 0x2B69 JUMPI PUSH1 0x1 DUP5 SUB SWAP4 POP PUSH1 0xA DUP2 MOD PUSH1 0x30 ADD DUP5 MSTORE8 PUSH1 0xA DUP2 DIV SWAP1 POP DUP1 PUSH2 0x2B47 JUMPI JUMPDEST POP DUP3 DUP2 SUB PUSH1 0x20 DUP5 SUB SWAP4 POP DUP1 DUP5 MSTORE POP POP POP SWAP2 SWAP1 POP JUMP JUMPDEST PUSH2 0x2B88 DUP3 DUP3 PUSH2 0x1499 JUMP JUMPDEST PUSH2 0x2BFF JUMPI PUSH2 0x2B95 DUP2 PUSH2 0x1D38 JUMP JUMPDEST PUSH2 0x2BA3 DUP4 PUSH1 0x0 SHR PUSH1 0x20 PUSH2 0x1D65 JUMP JUMPDEST PUSH1 0x40 MLOAD PUSH1 0x20 ADD PUSH2 0x2BB4 SWAP3 SWAP2 SWAP1 PUSH2 0x4805 JUMP JUMPDEST PUSH1 0x40 MLOAD PUSH1 0x20 DUP2 DUP4 SUB SUB DUP2 MSTORE SWAP1 PUSH1 0x40 MSTORE PUSH1 0x40 MLOAD PUSH32 0x8C379A000000000000000000000000000000000000000000000000000000000 DUP2 MSTORE PUSH1 0x4 ADD PUSH2 0x2BF6 SWAP2 SWAP1 PUSH2 0x30D3 JUMP JUMPDEST PUSH1 0x40 MLOAD DUP1 SWAP2 SUB SWAP1 REVERT JUMPDEST POP POP JUMP JUMPDEST PUSH1 0x0 SWAP4 SWAP3 POP POP POP JUMP JUMPDEST PUSH2 0x2C16 DUP4 DUP4 PUSH2 0x2D47 JUMP JUMPDEST PUSH1 0x0 DUP4 PUSH20 0xFFFFFFFFFFFFFFFFFFFFFFFFFFFFFFFFFFFFFFFF AND EXTCODESIZE EQ PUSH2 0x2C8C JUMPI PUSH1 0x0 DUP1 SLOAD SWAP1 POP PUSH1 0x0 DUP4 DUP3 SUB SWAP1 POP JUMPDEST PUSH2 0x2C56 PUSH1 0x0 DUP7 DUP4 DUP1 PUSH1 0x1 ADD SWAP5 POP DUP7 PUSH2 0x28D5 JUMP JUMPDEST PUSH2 0x2C6B JUMPI PUSH2 0x2C6A PUSH4 0xD1A57ED6 PUSH1 0xE0 SHL PUSH2 0x2000 JUMP JUMPDEST JUMPDEST DUP2 DUP2 LT PUSH2 0x2C43 JUMPI DUP2 PUSH1 0x0 SLOAD EQ PUSH2 0x2C89 JUMPI PUSH2 0x2C88 PUSH1 0x0 PUSH1 0xE0 SHL PUSH2 0x2000 JUMP JUMPDEST JUMPDEST POP POP JUMPDEST POP POP POP JUMP JUMPDEST PUSH2 0x2C99 PUSH2 0x2F25 JUMP JUMPDEST DUP2 DUP2 PUSH1 0x0 ADD SWAP1 PUSH20 0xFFFFFFFFFFFFFFFFFFFFFFFFFFFFFFFFFFFFFFFF AND SWAP1 DUP2 PUSH20 0xFFFFFFFFFFFFFFFFFFFFFFFFFFFFFFFFFFFFFFFF AND DUP2 MSTORE POP POP PUSH1 0xA0 DUP3 SWAP1 SHR DUP2 PUSH1 0x20 ADD SWAP1 PUSH8 0xFFFFFFFFFFFFFFFF AND SWAP1 DUP2 PUSH8 0xFFFFFFFFFFFFFFFF AND DUP2 MSTORE POP POP PUSH1 0x0 PUSH29 0x100000000000000000000000000000000000000000000000000000000 DUP4 AND EQ ISZERO DUP2 PUSH1 0x40 ADD SWAP1 ISZERO ISZERO SWAP1 DUP2 ISZERO ISZERO DUP2 MSTORE POP POP PUSH1 0xE8 DUP3 SWAP1 SHR DUP2 PUSH1 0x60 ADD SWAP1 PUSH3 0xFFFFFF AND SWAP1 DUP2 PUSH3 0xFFFFFF AND DUP2 MSTORE POP POP SWAP2 SWAP1 POP JUMP JUMPDEST PUSH1 0x0 DUP1 SLOAD SWAP1 POP PUSH1 0x0 DUP3 SUB PUSH2 0x2D66 JUMPI PUSH2 0x2D65 PUSH4 0xB562E8DD PUSH1 0xE0 SHL PUSH2 0x2000 JUMP JUMPDEST JUMPDEST PUSH2 0x2D73 PUSH1 0x0 DUP5 DUP4 DUP6 PUSH2 0x227B JUMP JUMPDEST PUSH2 0x2D93 DUP4 PUSH2 0x2D84 PUSH1 0x0 DUP7 PUSH1 0x0 PUSH2 0x2281 JUMP JUMPDEST PUSH2 0x2D8D DUP6 PUSH2 0x2EAA JUMP JUMPDEST OR PUSH2 0x22A9 JUMP JUMPDEST PUSH1 0x4 PUSH1 0x0 DUP4 DUP2 MSTORE PUSH1 0x20 ADD SWAP1 DUP2 MSTORE PUSH1 0x20 ADD PUSH1 0x0 KECCAK256 DUP2 SWAP1 SSTORE POP PUSH1 0x1 PUSH1 0x40 PUSH1 0x1 SWAP1 SHL OR DUP3 MUL PUSH1 0x5 PUSH1 0x0 DUP6 PUSH20 0xFFFFFFFFFFFFFFFFFFFFFFFFFFFFFFFFFFFFFFFF AND PUSH20 0xFFFFFFFFFFFFFFFFFFFFFFFFFFFFFFFFFFFFFFFF AND DUP2 MSTORE PUSH1 0x20 ADD SWAP1 DUP2 MSTORE PUSH1 0x20 ADD PUSH1 0x0 KECCAK256 PUSH1 0x0 DUP3 DUP3 SLOAD ADD SWAP3 POP POP DUP2 SWAP1 SSTORE POP PUSH1 0x0 PUSH20 0xFFFFFFFFFFFFFFFFFFFFFFFFFFFFFFFFFFFFFFFF DUP5 PUSH20 0xFFFFFFFFFFFFFFFFFFFFFFFFFFFFFFFFFFFFFFFF AND AND SWAP1 POP PUSH1 0x0 DUP2 SUB PUSH2 0x2E4B JUMPI PUSH2 0x2E4A PUSH4 0x2E076300 PUSH1 0xE0 SHL PUSH2 0x2000 JUMP JUMPDEST JUMPDEST PUSH1 0x0 DUP4 DUP4 ADD SWAP1 POP PUSH1 0x0 DUP4 SWAP1 POP JUMPDEST DUP1 DUP4 PUSH1 0x0 PUSH32 0xDDF252AD1BE2C89B69C2B068FC378DAA952BA7F163C4A11628F55A4DF523B3EF PUSH1 0x0 DUP1 LOG4 DUP2 DUP2 PUSH1 0x1 ADD SWAP2 POP DUP2 SUB PUSH2 0x2E58 JUMPI DUP2 PUSH1 0x0 DUP2 SWAP1 SSTORE POP POP POP POP PUSH2 0x2EA5 PUSH1 0x0 DUP5 DUP4 DUP6 PUSH2 0x22D4 JUMP JUMPDEST POP POP POP JUMP JUMPDEST PUSH1 0x0 PUSH1 0x1 DUP3 EQ PUSH1 0xE1 SHL SWAP1 POP SWAP2 SWAP1 POP JUMP JUMPDEST PUSH1 0x40 MLOAD DUP1 PUSH2 0x100 ADD PUSH1 0x40 MSTORE DUP1 PUSH1 0x60 DUP2 MSTORE PUSH1 0x20 ADD PUSH1 0x60 DUP2 MSTORE PUSH1 0x20 ADD PUSH1 0x0 DUP2 MSTORE PUSH1 0x20 ADD PUSH1 0x60 DUP2 MSTORE PUSH1 0x20 ADD PUSH1 0x0 DUP2 MSTORE PUSH1 0x20 ADD PUSH1 0x0 DUP1 SIGNEXTEND DUP2 MSTORE PUSH1 0x20 ADD PUSH1 0x0 PUSH16 0xFFFFFFFFFFFFFFFFFFFFFFFFFFFFFFFF AND DUP2 MSTORE PUSH1 0x20 ADD PUSH1 0x0 PUSH16 0xFFFFFFFFFFFFFFFFFFFFFFFFFFFFFFFF AND DUP2 MSTORE POP SWAP1 JUMP JUMPDEST PUSH1 0x40 MLOAD DUP1 PUSH1 0x80 ADD PUSH1 0x40 MSTORE DUP1 PUSH1 0x0 PUSH20 0xFFFFFFFFFFFFFFFFFFFFFFFFFFFFFFFFFFFFFFFF AND DUP2 MSTORE PUSH1 0x20 ADD PUSH1 0x0 PUSH8 0xFFFFFFFFFFFFFFFF AND DUP2 MSTORE PUSH1 0x20 ADD PUSH1 0x0 ISZERO ISZERO DUP2 MSTORE PUSH1 0x20 ADD PUSH1 0x0 PUSH3 0xFFFFFF AND DUP2 MSTORE POP SWAP1 JUMP JUMPDEST PUSH1 0x0 PUSH1 0x40 MLOAD SWAP1 POP SWAP1 JUMP JUMPDEST PUSH1 0x0 DUP1 REVERT JUMPDEST PUSH1 0x0 DUP1 REVERT JUMPDEST PUSH1 0x0 PUSH32 0xFFFFFFFF00000000000000000000000000000000000000000000000000000000 DUP3 AND SWAP1 POP SWAP2 SWAP1 POP JUMP JUMPDEST PUSH2 0x2FBD DUP2 PUSH2 0x2F88 JUMP JUMPDEST DUP2 EQ PUSH2 0x2FC8 JUMPI PUSH1 0x0 DUP1 REVERT JUMPDEST POP JUMP JUMPDEST PUSH1 0x0 DUP2 CALLDATALOAD SWAP1 POP PUSH2 0x2FDA DUP2 PUSH2 0x2FB4 JUMP JUMPDEST SWAP3 SWAP2 POP POP JUMP JUMPDEST PUSH1 0x0 PUSH1 0x20 DUP3 DUP5 SUB SLT ISZERO PUSH2 0x2FF6 JUMPI PUSH2 0x2FF5 PUSH2 0x2F7E JUMP JUMPDEST JUMPDEST PUSH1 0x0 PUSH2 0x3004 DUP5 DUP3 DUP6 ADD PUSH2 0x2FCB JUMP JUMPDEST SWAP2 POP POP SWAP3 SWAP2 POP POP JUMP JUMPDEST PUSH1 0x0 DUP2 ISZERO ISZERO SWAP1 POP SWAP2 SWAP1 POP JUMP JUMPDEST PUSH2 0x3022 DUP2 PUSH2 0x300D JUMP JUMPDEST DUP3 MSTORE POP POP JUMP JUMPDEST PUSH1 0x0 PUSH1 0x20 DUP3 ADD SWAP1 POP PUSH2 0x303D PUSH1 0x0 DUP4 ADD DUP5 PUSH2 0x3019 JUMP JUMPDEST SWAP3 SWAP2 POP POP JUMP JUMPDEST PUSH1 0x0 DUP2 MLOAD SWAP1 POP SWAP2 SWAP1 POP JUMP JUMPDEST PUSH1 0x0 DUP3 DUP3 MSTORE PUSH1 0x20 DUP3 ADD SWAP1 POP SWAP3 SWAP2 POP POP JUMP JUMPDEST PUSH1 0x0 JUMPDEST DUP4 DUP2 LT ISZERO PUSH2 0x307D JUMPI DUP1 DUP3 ADD MLOAD DUP2 DUP5 ADD MSTORE PUSH1 0x20 DUP2 ADD SWAP1 POP PUSH2 0x3062 JUMP JUMPDEST PUSH1 0x0 DUP5 DUP5 ADD MSTORE POP POP POP POP JUMP JUMPDEST PUSH1 0x0 PUSH1 0x1F NOT PUSH1 0x1F DUP4 ADD AND SWAP1 POP SWAP2 SWAP1 POP JUMP JUMPDEST PUSH1 0x0 PUSH2 0x30A5 DUP3 PUSH2 0x3043 JUMP JUMPDEST PUSH2 0x30AF DUP2 DUP6 PUSH2 0x304E JUMP JUMPDEST SWAP4 POP PUSH2 0x30BF DUP2 DUP6 PUSH1 0x20 DUP7 ADD PUSH2 0x305F JUMP JUMPDEST PUSH2 0x30C8 DUP2 PUSH2 0x3089 JUMP JUMPDEST DUP5 ADD SWAP2 POP POP SWAP3 SWAP2 POP POP JUMP JUMPDEST PUSH1 0x0 PUSH1 0x20 DUP3 ADD SWAP1 POP DUP2 DUP2 SUB PUSH1 0x0 DUP4 ADD MSTORE PUSH2 0x30ED DUP2 DUP5 PUSH2 0x309A JUMP JUMPDEST SWAP1 POP SWAP3 SWAP2 POP POP JUMP JUMPDEST PUSH1 0x0 DUP2 SWAP1 POP SWAP2 SWAP1 POP JUMP JUMPDEST PUSH2 0x3108 DUP2 PUSH2 0x30F5 JUMP JUMPDEST DUP2 EQ PUSH2 0x3113 JUMPI PUSH1 0x0 DUP1 REVERT JUMPDEST POP JUMP JUMPDEST PUSH1 0x0 DUP2 CALLDATALOAD SWAP1 POP PUSH2 0x3125 DUP2 PUSH2 0x30FF JUMP JUMPDEST SWAP3 SWAP2 POP POP JUMP JUMPDEST PUSH1 0x0 PUSH1 0x20 DUP3 DUP5 SUB SLT ISZERO PUSH2 0x3141 JUMPI PUSH2 0x3140 PUSH2 0x2F7E JUMP JUMPDEST JUMPDEST PUSH1 0x0 PUSH2 0x314F DUP5 DUP3 DUP6 ADD PUSH2 0x3116 JUMP JUMPDEST SWAP2 POP POP SWAP3 SWAP2 POP POP JUMP JUMPDEST PUSH1 0x0 PUSH20 0xFFFFFFFFFFFFFFFFFFFFFFFFFFFFFFFFFFFFFFFF DUP3 AND SWAP1 POP SWAP2 SWAP1 POP JUMP JUMPDEST PUSH1 0x0 PUSH2 0x3183 DUP3 PUSH2 0x3158 JUMP JUMPDEST SWAP1 POP SWAP2 SWAP1 POP JUMP JUMPDEST PUSH2 0x3193 DUP2 PUSH2 0x3178 JUMP JUMPDEST DUP3 MSTORE POP POP JUMP JUMPDEST PUSH1 0x0 PUSH1 0x20 DUP3 ADD SWAP1 POP PUSH2 0x31AE PUSH1 0x0 DUP4 ADD DUP5 PUSH2 0x318A JUMP JUMPDEST SWAP3 SWAP2 POP POP JUMP JUMPDEST PUSH2 0x31BD DUP2 PUSH2 0x3178 JUMP JUMPDEST DUP2 EQ PUSH2 0x31C8 JUMPI PUSH1 0x0 DUP1 REVERT JUMPDEST POP JUMP JUMPDEST PUSH1 0x0 DUP2 CALLDATALOAD SWAP1 POP PUSH2 0x31DA DUP2 PUSH2 0x31B4 JUMP JUMPDEST SWAP3 SWAP2 POP POP JUMP JUMPDEST PUSH1 0x0 DUP1 PUSH1 0x40 DUP4 DUP6 SUB SLT ISZERO PUSH2 0x31F7 JUMPI PUSH2 0x31F6 PUSH2 0x2F7E JUMP JUMPDEST JUMPDEST PUSH1 0x0 PUSH2 0x3205 DUP6 DUP3 DUP7 ADD PUSH2 0x31CB JUMP JUMPDEST SWAP3 POP POP PUSH1 0x20 PUSH2 0x3216 DUP6 DUP3 DUP7 ADD PUSH2 0x3116 JUMP JUMPDEST SWAP2 POP POP SWAP3 POP SWAP3 SWAP1 POP JUMP JUMPDEST PUSH1 0x0 DUP2 SWAP1 POP SWAP2 SWAP1 POP JUMP JUMPDEST PUSH2 0x3233 DUP2 PUSH2 0x3220 JUMP JUMPDEST DUP3 MSTORE POP POP JUMP JUMPDEST PUSH1 0x0 PUSH1 0x20 DUP3 ADD SWAP1 POP PUSH2 0x324E PUSH1 0x0 DUP4 ADD DUP5 PUSH2 0x322A JUMP JUMPDEST SWAP3 SWAP2 POP POP JUMP JUMPDEST PUSH1 0x0 PUSH2 0xFFFF DUP3 AND SWAP1 POP SWAP2 SWAP1 POP JUMP JUMPDEST PUSH2 0x326B DUP2 PUSH2 0x3254 JUMP JUMPDEST DUP2 EQ PUSH2 0x3276 JUMPI PUSH1 0x0 DUP1 REVERT JUMPDEST POP JUMP JUMPDEST PUSH1 0x0 DUP2 CALLDATALOAD SWAP1 POP PUSH2 0x3288 DUP2 PUSH2 0x3262 JUMP JUMPDEST SWAP3 SWAP2 POP POP JUMP JUMPDEST PUSH1 0x0 PUSH1 0x20 DUP3 DUP5 SUB SLT ISZERO PUSH2 0x32A4 JUMPI PUSH2 0x32A3 PUSH2 0x2F7E JUMP JUMPDEST JUMPDEST PUSH1 0x0 PUSH2 0x32B2 DUP5 DUP3 DUP6 ADD PUSH2 0x3279 JUMP JUMPDEST SWAP2 POP POP SWAP3 SWAP2 POP POP JUMP JUMPDEST PUSH2 0x32C4 DUP2 PUSH2 0x30F5 JUMP JUMPDEST DUP3 MSTORE POP POP JUMP JUMPDEST PUSH1 0x0 PUSH1 0x20 DUP3 ADD SWAP1 POP PUSH2 0x32DF PUSH1 0x0 DUP4 ADD DUP5 PUSH2 0x32BB JUMP JUMPDEST SWAP3 SWAP2 POP POP JUMP JUMPDEST PUSH1 0x0 DUP1 REVERT JUMPDEST PUSH1 0x0 DUP1 REVERT JUMPDEST PUSH32 0x4E487B7100000000000000000000000000000000000000000000000000000000 PUSH1 0x0 MSTORE PUSH1 0x41 PUSH1 0x4 MSTORE PUSH1 0x24 PUSH1 0x0 REVERT JUMPDEST PUSH2 0x3327 DUP3 PUSH2 0x3089 JUMP JUMPDEST DUP2 ADD DUP2 DUP2 LT PUSH8 0xFFFFFFFFFFFFFFFF DUP3 GT OR ISZERO PUSH2 0x3346 JUMPI PUSH2 0x3345 PUSH2 0x32EF JUMP JUMPDEST JUMPDEST DUP1 PUSH1 0x40 MSTORE POP POP POP JUMP JUMPDEST PUSH1 0x0 PUSH2 0x3359 PUSH2 0x2F74 JUMP JUMPDEST SWAP1 POP PUSH2 0x3365 DUP3 DUP3 PUSH2 0x331E JUMP JUMPDEST SWAP2 SWAP1 POP JUMP JUMPDEST PUSH1 0x0 PUSH8 0xFFFFFFFFFFFFFFFF DUP3 GT ISZERO PUSH2 0x3385 JUMPI PUSH2 0x3384 PUSH2 0x32EF JUMP JUMPDEST JUMPDEST PUSH2 0x338E DUP3 PUSH2 0x3089 JUMP JUMPDEST SWAP1 POP PUSH1 0x20 DUP2 ADD SWAP1 POP SWAP2 SWAP1 POP JUMP JUMPDEST DUP3 DUP2 DUP4 CALLDATACOPY PUSH1 0x0 DUP4 DUP4 ADD MSTORE POP POP POP JUMP JUMPDEST PUSH1 0x0 PUSH2 0x33BD PUSH2 0x33B8 DUP5 PUSH2 0x336A JUMP JUMPDEST PUSH2 0x334F JUMP JUMPDEST SWAP1 POP DUP3 DUP2 MSTORE PUSH1 0x20 DUP2 ADD DUP5 DUP5 DUP5 ADD GT ISZERO PUSH2 0x33D9 JUMPI PUSH2 0x33D8 PUSH2 0x32EA JUMP JUMPDEST JUMPDEST PUSH2 0x33E4 DUP5 DUP3 DUP6 PUSH2 0x339B JUMP JUMPDEST POP SWAP4 SWAP3 POP POP POP JUMP JUMPDEST PUSH1 0x0 DUP3 PUSH1 0x1F DUP4 ADD SLT PUSH2 0x3401 JUMPI PUSH2 0x3400 PUSH2 0x32E5 JUMP JUMPDEST JUMPDEST DUP2 CALLDATALOAD PUSH2 0x3411 DUP5 DUP3 PUSH1 0x20 DUP7 ADD PUSH2 0x33AA JUMP JUMPDEST SWAP2 POP POP SWAP3 SWAP2 POP POP JUMP JUMPDEST PUSH1 0x0 PUSH1 0x20 DUP3 DUP5 SUB SLT ISZERO PUSH2 0x3430 JUMPI PUSH2 0x342F PUSH2 0x2F7E JUMP JUMPDEST JUMPDEST PUSH1 0x0 DUP3 ADD CALLDATALOAD PUSH8 0xFFFFFFFFFFFFFFFF DUP2 GT ISZERO PUSH2 0x344E JUMPI PUSH2 0x344D PUSH2 0x2F83 JUMP JUMPDEST JUMPDEST PUSH2 0x345A DUP5 DUP3 DUP6 ADD PUSH2 0x33EC JUMP JUMPDEST SWAP2 POP POP SWAP3 SWAP2 POP POP JUMP JUMPDEST PUSH1 0x0 DUP2 PUSH1 0x0 SIGNEXTEND SWAP1 POP SWAP2 SWAP1 POP JUMP JUMPDEST PUSH2 0x3479 DUP2 PUSH2 0x3463 JUMP JUMPDEST DUP3 MSTORE POP POP JUMP JUMPDEST PUSH1 0x0 PUSH1 0x20 DUP3 ADD SWAP1 POP PUSH2 0x3494 PUSH1 0x0 DUP4 ADD DUP5 PUSH2 0x3470 JUMP JUMPDEST SWAP3 SWAP2 POP POP JUMP JUMPDEST PUSH1 0x0 DUP1 PUSH1 0x0 PUSH1 0x60 DUP5 DUP7 SUB SLT ISZERO PUSH2 0x34B3 JUMPI PUSH2 0x34B2 PUSH2 0x2F7E JUMP JUMPDEST JUMPDEST PUSH1 0x0 PUSH2 0x34C1 DUP7 DUP3 DUP8 ADD PUSH2 0x31CB JUMP JUMPDEST SWAP4 POP POP PUSH1 0x20 PUSH2 0x34D2 DUP7 DUP3 DUP8 ADD PUSH2 0x31CB JUMP JUMPDEST SWAP3 POP POP PUSH1 0x40 PUSH2 0x34E3 DUP7 DUP3 DUP8 ADD PUSH2 0x3116 JUMP JUMPDEST SWAP2 POP POP SWAP3 POP SWAP3 POP SWAP3 JUMP JUMPDEST PUSH2 0x34F6 DUP2 PUSH2 0x3220 JUMP JUMPDEST DUP2 EQ PUSH2 0x3501 JUMPI PUSH1 0x0 DUP1 REVERT JUMPDEST POP JUMP JUMPDEST PUSH1 0x0 DUP2 CALLDATALOAD SWAP1 POP PUSH2 0x3513 DUP2 PUSH2 0x34ED JUMP JUMPDEST SWAP3 SWAP2 POP POP JUMP JUMPDEST PUSH1 0x0 PUSH1 0x20 DUP3 DUP5 SUB SLT ISZERO PUSH2 0x352F JUMPI PUSH2 0x352E PUSH2 0x2F7E JUMP JUMPDEST JUMPDEST PUSH1 0x0 PUSH2 0x353D DUP5 DUP3 DUP6 ADD PUSH2 0x3504 JUMP JUMPDEST SWAP2 POP POP SWAP3 SWAP2 POP POP JUMP JUMPDEST PUSH1 0x0 DUP1 PUSH1 0x40 DUP4 DUP6 SUB SLT ISZERO PUSH2 0x355D JUMPI PUSH2 0x355C PUSH2 0x2F7E JUMP JUMPDEST JUMPDEST PUSH1 0x0 DUP4 ADD CALLDATALOAD PUSH8 0xFFFFFFFFFFFFFFFF DUP2 GT ISZERO PUSH2 0x357B JUMPI PUSH2 0x357A PUSH2 0x2F83 JUMP JUMPDEST JUMPDEST PUSH2 0x3587 DUP6 DUP3 DUP7 ADD PUSH2 0x33EC JUMP JUMPDEST SWAP3 POP POP PUSH1 0x20 DUP4 ADD CALLDATALOAD PUSH8 0xFFFFFFFFFFFFFFFF DUP2 GT ISZERO PUSH2 0x35A8 JUMPI PUSH2 0x35A7 PUSH2 0x2F83 JUMP JUMPDEST JUMPDEST PUSH2 0x35B4 DUP6 DUP3 DUP7 ADD PUSH2 0x33EC JUMP JUMPDEST SWAP2 POP POP SWAP3 POP SWAP3 SWAP1 POP JUMP JUMPDEST PUSH1 0x0 DUP1 PUSH1 0x40 DUP4 DUP6 SUB SLT ISZERO PUSH2 0x35D5 JUMPI PUSH2 0x35D4 PUSH2 0x2F7E JUMP JUMPDEST JUMPDEST PUSH1 0x0 PUSH2 0x35E3 DUP6 DUP3 DUP7 ADD PUSH2 0x3504 JUMP JUMPDEST SWAP3 POP POP PUSH1 0x20 PUSH2 0x35F4 DUP6 DUP3 DUP7 ADD PUSH2 0x31CB JUMP JUMPDEST SWAP2 POP POP SWAP3 POP SWAP3 SWAP1 POP JUMP JUMPDEST PUSH1 0x0 DUP1 PUSH1 0x40 DUP4 DUP6 SUB SLT ISZERO PUSH2 0x3615 JUMPI PUSH2 0x3614 PUSH2 0x2F7E JUMP JUMPDEST JUMPDEST PUSH1 0x0 PUSH2 0x3623 DUP6 DUP3 DUP7 ADD PUSH2 0x3116 JUMP JUMPDEST SWAP3 POP POP PUSH1 0x20 DUP4 ADD CALLDATALOAD PUSH8 0xFFFFFFFFFFFFFFFF DUP2 GT ISZERO PUSH2 0x3644 JUMPI PUSH2 0x3643 PUSH2 0x2F83 JUMP JUMPDEST JUMPDEST PUSH2 0x3650 DUP6 DUP3 DUP7 ADD PUSH2 0x33EC JUMP JUMPDEST SWAP2 POP POP SWAP3 POP SWAP3 SWAP1 POP JUMP JUMPDEST PUSH1 0x0 DUP1 PUSH1 0x40 DUP4 DUP6 SUB SLT ISZERO PUSH2 0x3671 JUMPI PUSH2 0x3670 PUSH2 0x2F7E JUMP JUMPDEST JUMPDEST PUSH1 0x0 PUSH2 0x367F DUP6 DUP3 DUP7 ADD PUSH2 0x31CB JUMP JUMPDEST SWAP3 POP POP PUSH1 0x20 PUSH2 0x3690 DUP6 DUP3 DUP7 ADD PUSH2 0x3279 JUMP JUMPDEST SWAP2 POP POP SWAP3 POP SWAP3 SWAP1 POP JUMP JUMPDEST PUSH1 0x0 DUP1 PUSH1 0x0 PUSH1 0x60 DUP5 DUP7 SUB SLT ISZERO PUSH2 0x36B3 JUMPI PUSH2 0x36B2 PUSH2 0x2F7E JUMP JUMPDEST JUMPDEST PUSH1 0x0 PUSH2 0x36C1 DUP7 DUP3 DUP8 ADD PUSH2 0x3116 JUMP JUMPDEST SWAP4 POP POP PUSH1 0x20 PUSH2 0x36D2 DUP7 DUP3 DUP8 ADD PUSH2 0x31CB JUMP JUMPDEST SWAP3 POP POP PUSH1 0x40 DUP5 ADD CALLDATALOAD PUSH8 0xFFFFFFFFFFFFFFFF DUP2 GT ISZERO PUSH2 0x36F3 JUMPI PUSH2 0x36F2 PUSH2 0x2F83 JUMP JUMPDEST JUMPDEST PUSH2 0x36FF DUP7 DUP3 DUP8 ADD PUSH2 0x33EC JUMP JUMPDEST SWAP2 POP POP SWAP3 POP SWAP3 POP SWAP3 JUMP JUMPDEST PUSH1 0x0 DUP1 REVERT JUMPDEST PUSH1 0x0 DUP1 REVERT JUMPDEST PUSH1 0x0 DUP1 DUP4 PUSH1 0x1F DUP5 ADD SLT PUSH2 0x3729 JUMPI PUSH2 0x3728 PUSH2 0x32E5 JUMP JUMPDEST JUMPDEST DUP3 CALLDATALOAD SWAP1 POP PUSH8 0xFFFFFFFFFFFFFFFF DUP2 GT ISZERO PUSH2 0x3746 JUMPI PUSH2 0x3745 PUSH2 0x3709 JUMP JUMPDEST JUMPDEST PUSH1 0x20 DUP4 ADD SWAP2 POP DUP4 PUSH1 0x20 DUP3 MUL DUP4 ADD GT ISZERO PUSH2 0x3762 JUMPI PUSH2 0x3761 PUSH2 0x370E JUMP JUMPDEST JUMPDEST SWAP3 POP SWAP3 SWAP1 POP JUMP JUMPDEST PUSH1 0x0 DUP1 PUSH1 0x20 DUP4 DUP6 SUB SLT ISZERO PUSH2 0x3780 JUMPI PUSH2 0x377F PUSH2 0x2F7E JUMP JUMPDEST JUMPDEST PUSH1 0x0 DUP4 ADD CALLDATALOAD PUSH8 0xFFFFFFFFFFFFFFFF DUP2 GT ISZERO PUSH2 0x379E JUMPI PUSH2 0x379D PUSH2 0x2F83 JUMP JUMPDEST JUMPDEST PUSH2 0x37AA DUP6 DUP3 DUP7 ADD PUSH2 0x3713 JUMP JUMPDEST SWAP3 POP SWAP3 POP POP SWAP3 POP SWAP3 SWAP1 POP JUMP JUMPDEST PUSH1 0x0 DUP2 MLOAD SWAP1 POP SWAP2 SWAP1 POP JUMP JUMPDEST PUSH1 0x0 DUP3 DUP3 MSTORE PUSH1 0x20 DUP3 ADD SWAP1 POP SWAP3 SWAP2 POP POP JUMP JUMPDEST PUSH1 0x0 DUP2 SWAP1 POP PUSH1 0x20 DUP3 ADD SWAP1 POP SWAP2 SWAP1 POP JUMP JUMPDEST PUSH2 0x37EB DUP2 PUSH2 0x3178 JUMP JUMPDEST DUP3 MSTORE POP POP JUMP JUMPDEST PUSH1 0x0 PUSH8 0xFFFFFFFFFFFFFFFF DUP3 AND SWAP1 POP SWAP2 SWAP1 POP JUMP JUMPDEST PUSH2 0x380E DUP2 PUSH2 0x37F1 JUMP JUMPDEST DUP3 MSTORE POP POP JUMP JUMPDEST PUSH2 0x381D DUP2 PUSH2 0x300D JUMP JUMPDEST DUP3 MSTORE POP POP JUMP JUMPDEST PUSH1 0x0 PUSH3 0xFFFFFF DUP3 AND SWAP1 POP SWAP2 SWAP1 POP JUMP JUMPDEST PUSH2 0x383B DUP2 PUSH2 0x3823 JUMP JUMPDEST DUP3 MSTORE POP POP JUMP JUMPDEST PUSH1 0x80 DUP3 ADD PUSH1 0x0 DUP3 ADD MLOAD PUSH2 0x3857 PUSH1 0x0 DUP6 ADD DUP3 PUSH2 0x37E2 JUMP JUMPDEST POP PUSH1 0x20 DUP3 ADD MLOAD PUSH2 0x386A PUSH1 0x20 DUP6 ADD DUP3 PUSH2 0x3805 JUMP JUMPDEST POP PUSH1 0x40 DUP3 ADD MLOAD PUSH2 0x387D PUSH1 0x40 DUP6 ADD DUP3 PUSH2 0x3814 JUMP JUMPDEST POP PUSH1 0x60 DUP3 ADD MLOAD PUSH2 0x3890 PUSH1 0x60 DUP6 ADD DUP3 PUSH2 0x3832 JUMP JUMPDEST POP POP POP POP JUMP JUMPDEST PUSH1 0x0 PUSH2 0x38A2 DUP4 DUP4 PUSH2 0x3841 JUMP JUMPDEST PUSH1 0x80 DUP4 ADD SWAP1 POP SWAP3 SWAP2 POP POP JUMP JUMPDEST PUSH1 0x0 PUSH1 0x20 DUP3 ADD SWAP1 POP SWAP2 SWAP1 POP JUMP JUMPDEST PUSH1 0x0 PUSH2 0x38C6 DUP3 PUSH2 0x37B6 JUMP JUMPDEST PUSH2 0x38D0 DUP2 DUP6 PUSH2 0x37C1 JUMP JUMPDEST SWAP4 POP PUSH2 0x38DB DUP4 PUSH2 0x37D2 JUMP JUMPDEST DUP1 PUSH1 0x0 JUMPDEST DUP4 DUP2 LT ISZERO PUSH2 0x390C JUMPI DUP2 MLOAD PUSH2 0x38F3 DUP9 DUP3 PUSH2 0x3896 JUMP JUMPDEST SWAP8 POP PUSH2 0x38FE DUP4 PUSH2 0x38AE JUMP JUMPDEST SWAP3 POP POP PUSH1 0x1 DUP2 ADD SWAP1 POP PUSH2 0x38DF JUMP JUMPDEST POP DUP6 SWAP4 POP POP POP POP SWAP3 SWAP2 POP POP JUMP JUMPDEST PUSH1 0x0 PUSH1 0x20 DUP3 ADD SWAP1 POP DUP2 DUP2 SUB PUSH1 0x0 DUP4 ADD MSTORE PUSH2 0x3933 DUP2 DUP5 PUSH2 0x38BB JUMP JUMPDEST SWAP1 POP SWAP3 SWAP2 POP POP JUMP JUMPDEST PUSH1 0x0 PUSH1 0x20 DUP3 DUP5 SUB SLT ISZERO PUSH2 0x3951 JUMPI PUSH2 0x3950 PUSH2 0x2F7E JUMP JUMPDEST JUMPDEST PUSH1 0x0 PUSH2 0x395F DUP5 DUP3 DUP6 ADD PUSH2 0x31CB JUMP JUMPDEST SWAP2 POP POP SWAP3 SWAP2 POP POP JUMP JUMPDEST PUSH1 0x0 DUP2 MLOAD SWAP1 POP SWAP2 SWAP1 POP JUMP JUMPDEST PUSH1 0x0 DUP3 DUP3 MSTORE PUSH1 0x20 DUP3 ADD SWAP1 POP SWAP3 SWAP2 POP POP JUMP JUMPDEST PUSH1 0x0 DUP2 SWAP1 POP PUSH1 0x20 DUP3 ADD SWAP1 POP SWAP2 SWAP1 POP JUMP JUMPDEST PUSH2 0x399D DUP2 PUSH2 0x30F5 JUMP JUMPDEST DUP3 MSTORE POP POP JUMP JUMPDEST PUSH1 0x0 PUSH2 0x39AF DUP4 DUP4 PUSH2 0x3994 JUMP JUMPDEST PUSH1 0x20 DUP4 ADD SWAP1 POP SWAP3 SWAP2 POP POP JUMP JUMPDEST PUSH1 0x0 PUSH1 0x20 DUP3 ADD SWAP1 POP SWAP2 SWAP1 POP JUMP JUMPDEST PUSH1 0x0 PUSH2 0x39D3 DUP3 PUSH2 0x3968 JUMP JUMPDEST PUSH2 0x39DD DUP2 DUP6 PUSH2 0x3973 JUMP JUMPDEST SWAP4 POP PUSH2 0x39E8 DUP4 PUSH2 0x3984 JUMP JUMPDEST DUP1 PUSH1 0x0 JUMPDEST DUP4 DUP2 LT ISZERO PUSH2 0x3A19 JUMPI DUP2 MLOAD PUSH2 0x3A00 DUP9 DUP3 PUSH2 0x39A3 JUMP JUMPDEST SWAP8 POP PUSH2 0x3A0B DUP4 PUSH2 0x39BB JUMP JUMPDEST SWAP3 POP POP PUSH1 0x1 DUP2 ADD SWAP1 POP PUSH2 0x39EC JUMP JUMPDEST POP DUP6 SWAP4 POP POP POP POP SWAP3 SWAP2 POP POP JUMP JUMPDEST PUSH1 0x0 PUSH1 0x20 DUP3 ADD SWAP1 POP DUP2 DUP2 SUB PUSH1 0x0 DUP4 ADD MSTORE PUSH2 0x3A40 DUP2 DUP5 PUSH2 0x39C8 JUMP JUMPDEST SWAP1 POP SWAP3 SWAP2 POP POP JUMP JUMPDEST PUSH1 0x0 DUP1 PUSH1 0x0 PUSH1 0x60 DUP5 DUP7 SUB SLT ISZERO PUSH2 0x3A61 JUMPI PUSH2 0x3A60 PUSH2 0x2F7E JUMP JUMPDEST JUMPDEST PUSH1 0x0 PUSH2 0x3A6F DUP7 DUP3 DUP8 ADD PUSH2 0x31CB JUMP JUMPDEST SWAP4 POP POP PUSH1 0x20 PUSH2 0x3A80 DUP7 DUP3 DUP8 ADD PUSH2 0x3116 JUMP JUMPDEST SWAP3 POP POP PUSH1 0x40 PUSH2 0x3A91 DUP7 DUP3 DUP8 ADD PUSH2 0x3116 JUMP JUMPDEST SWAP2 POP POP SWAP3 POP SWAP3 POP SWAP3 JUMP JUMPDEST PUSH2 0x3AA4 DUP2 PUSH2 0x300D JUMP JUMPDEST DUP2 EQ PUSH2 0x3AAF JUMPI PUSH1 0x0 DUP1 REVERT JUMPDEST POP JUMP JUMPDEST PUSH1 0x0 DUP2 CALLDATALOAD SWAP1 POP PUSH2 0x3AC1 DUP2 PUSH2 0x3A9B JUMP JUMPDEST SWAP3 SWAP2 POP POP JUMP JUMPDEST PUSH1 0x0 DUP1 PUSH1 0x40 DUP4 DUP6 SUB SLT ISZERO PUSH2 0x3ADE JUMPI PUSH2 0x3ADD PUSH2 0x2F7E JUMP JUMPDEST JUMPDEST PUSH1 0x0 PUSH2 0x3AEC DUP6 DUP3 DUP7 ADD PUSH2 0x31CB JUMP JUMPDEST SWAP3 POP POP PUSH1 0x20 PUSH2 0x3AFD DUP6 DUP3 DUP7 ADD PUSH2 0x3AB2 JUMP JUMPDEST SWAP2 POP POP SWAP3 POP SWAP3 SWAP1 POP JUMP JUMPDEST PUSH1 0x0 PUSH1 0xFF DUP3 AND SWAP1 POP SWAP2 SWAP1 POP JUMP JUMPDEST PUSH2 0x3B1D DUP2 PUSH2 0x3B07 JUMP JUMPDEST DUP2 EQ PUSH2 0x3B28 JUMPI PUSH1 0x0 DUP1 REVERT JUMPDEST POP JUMP JUMPDEST PUSH1 0x0 DUP2 CALLDATALOAD SWAP1 POP PUSH2 0x3B3A DUP2 PUSH2 0x3B14 JUMP JUMPDEST SWAP3 SWAP2 POP POP JUMP JUMPDEST PUSH1 0x0 DUP1 PUSH1 0x40 DUP4 DUP6 SUB SLT ISZERO PUSH2 0x3B57 JUMPI PUSH2 0x3B56 PUSH2 0x2F7E JUMP JUMPDEST JUMPDEST PUSH1 0x0 PUSH2 0x3B65 DUP6 DUP3 DUP7 ADD PUSH2 0x3B2B JUMP JUMPDEST SWAP3 POP POP PUSH1 0x20 PUSH2 0x3B76 DUP6 DUP3 DUP7 ADD PUSH2 0x3279 JUMP JUMPDEST SWAP2 POP POP SWAP3 POP SWAP3 SWAP1 POP JUMP JUMPDEST PUSH1 0x0 PUSH8 0xFFFFFFFFFFFFFFFF DUP3 GT ISZERO PUSH2 0x3B9B JUMPI PUSH2 0x3B9A PUSH2 0x32EF JUMP JUMPDEST JUMPDEST PUSH2 0x3BA4 DUP3 PUSH2 0x3089 JUMP JUMPDEST SWAP1 POP PUSH1 0x20 DUP2 ADD SWAP1 POP SWAP2 SWAP1 POP JUMP JUMPDEST PUSH1 0x0 PUSH2 0x3BC4 PUSH2 0x3BBF DUP5 PUSH2 0x3B80 JUMP JUMPDEST PUSH2 0x334F JUMP JUMPDEST SWAP1 POP DUP3 DUP2 MSTORE PUSH1 0x20 DUP2 ADD DUP5 DUP5 DUP5 ADD GT ISZERO PUSH2 0x3BE0 JUMPI PUSH2 0x3BDF PUSH2 0x32EA JUMP JUMPDEST JUMPDEST PUSH2 0x3BEB DUP5 DUP3 DUP6 PUSH2 0x339B JUMP JUMPDEST POP SWAP4 SWAP3 POP POP POP JUMP JUMPDEST PUSH1 0x0 DUP3 PUSH1 0x1F DUP4 ADD SLT PUSH2 0x3C08 JUMPI PUSH2 0x3C07 PUSH2 0x32E5 JUMP JUMPDEST JUMPDEST DUP2 CALLDATALOAD PUSH2 0x3C18 DUP5 DUP3 PUSH1 0x20 DUP7 ADD PUSH2 0x3BB1 JUMP JUMPDEST SWAP2 POP POP SWAP3 SWAP2 POP POP JUMP JUMPDEST PUSH1 0x0 DUP1 PUSH1 0x0 DUP1 PUSH1 0x80 DUP6 DUP8 SUB SLT ISZERO PUSH2 0x3C3B JUMPI PUSH2 0x3C3A PUSH2 0x2F7E JUMP JUMPDEST JUMPDEST PUSH1 0x0 PUSH2 0x3C49 DUP8 DUP3 DUP9 ADD PUSH2 0x31CB JUMP JUMPDEST SWAP5 POP POP PUSH1 0x20 PUSH2 0x3C5A DUP8 DUP3 DUP9 ADD PUSH2 0x31CB JUMP JUMPDEST SWAP4 POP POP PUSH1 0x40 PUSH2 0x3C6B DUP8 DUP3 DUP9 ADD PUSH2 0x3116 JUMP JUMPDEST SWAP3 POP POP PUSH1 0x60 DUP6 ADD CALLDATALOAD PUSH8 0xFFFFFFFFFFFFFFFF DUP2 GT ISZERO PUSH2 0x3C8C JUMPI PUSH2 0x3C8B PUSH2 0x2F83 JUMP JUMPDEST JUMPDEST PUSH2 0x3C98 DUP8 DUP3 DUP9 ADD PUSH2 0x3BF3 JUMP JUMPDEST SWAP2 POP POP SWAP3 SWAP6 SWAP2 SWAP5 POP SWAP3 POP JUMP JUMPDEST PUSH1 0x0 DUP1 PUSH1 0x40 DUP4 DUP6 SUB SLT ISZERO PUSH2 0x3CBB JUMPI PUSH2 0x3CBA PUSH2 0x2F7E JUMP JUMPDEST JUMPDEST PUSH1 0x0 PUSH2 0x3CC9 DUP6 DUP3 DUP7 ADD PUSH2 0x3116 JUMP JUMPDEST SWAP3 POP POP PUSH1 0x20 PUSH2 0x3CDA DUP6 DUP3 DUP7 ADD PUSH2 0x3116 JUMP JUMPDEST SWAP2 POP POP SWAP3 POP SWAP3 SWAP1 POP JUMP JUMPDEST PUSH1 0x80 DUP3 ADD PUSH1 0x0 DUP3 ADD MLOAD PUSH2 0x3CFA PUSH1 0x0 DUP6 ADD DUP3 PUSH2 0x37E2 JUMP JUMPDEST POP PUSH1 0x20 DUP3 ADD MLOAD PUSH2 0x3D0D PUSH1 0x20 DUP6 ADD DUP3 PUSH2 0x3805 JUMP JUMPDEST POP PUSH1 0x40 DUP3 ADD MLOAD PUSH2 0x3D20 PUSH1 0x40 DUP6 ADD DUP3 PUSH2 0x3814 JUMP JUMPDEST POP PUSH1 0x60 DUP3 ADD MLOAD PUSH2 0x3D33 PUSH1 0x60 DUP6 ADD DUP3 PUSH2 0x3832 JUMP JUMPDEST POP POP POP POP JUMP JUMPDEST PUSH1 0x0 PUSH1 0x80 DUP3 ADD SWAP1 POP PUSH2 0x3D4E PUSH1 0x0 DUP4 ADD DUP5 PUSH2 0x3CE4 JUMP JUMPDEST SWAP3 SWAP2 POP POP JUMP JUMPDEST PUSH1 0x0 PUSH8 0xFFFFFFFFFFFFFFFF DUP3 GT ISZERO PUSH2 0x3D6F JUMPI PUSH2 0x3D6E PUSH2 0x32EF JUMP JUMPDEST JUMPDEST PUSH1 0x20 DUP3 MUL SWAP1 POP PUSH1 0x20 DUP2 ADD SWAP1 POP SWAP2 SWAP1 POP JUMP JUMPDEST PUSH1 0x0 PUSH2 0x3D93 PUSH2 0x3D8E DUP5 PUSH2 0x3D54 JUMP JUMPDEST PUSH2 0x334F JUMP JUMPDEST SWAP1 POP DUP1 DUP4 DUP3 MSTORE PUSH1 0x20 DUP3 ADD SWAP1 POP PUSH1 0x20 DUP5 MUL DUP4 ADD DUP6 DUP2 GT ISZERO PUSH2 0x3DB6 JUMPI PUSH2 0x3DB5 PUSH2 0x370E JUMP JUMPDEST JUMPDEST DUP4 JUMPDEST DUP2 DUP2 LT ISZERO PUSH2 0x3DDF JUMPI DUP1 PUSH2 0x3DCB DUP9 DUP3 PUSH2 0x3B2B JUMP JUMPDEST DUP5 MSTORE PUSH1 0x20 DUP5 ADD SWAP4 POP POP PUSH1 0x20 DUP2 ADD SWAP1 POP PUSH2 0x3DB8 JUMP JUMPDEST POP POP POP SWAP4 SWAP3 POP POP POP JUMP JUMPDEST PUSH1 0x0 DUP3 PUSH1 0x1F DUP4 ADD SLT PUSH2 0x3DFE JUMPI PUSH2 0x3DFD PUSH2 0x32E5 JUMP JUMPDEST JUMPDEST DUP2 CALLDATALOAD PUSH2 0x3E0E DUP5 DUP3 PUSH1 0x20 DUP7 ADD PUSH2 0x3D80 JUMP JUMPDEST SWAP2 POP POP SWAP3 SWAP2 POP POP JUMP JUMPDEST PUSH1 0x0 PUSH1 0x20 DUP3 DUP5 SUB SLT ISZERO PUSH2 0x3E2D JUMPI PUSH2 0x3E2C PUSH2 0x2F7E JUMP JUMPDEST JUMPDEST PUSH1 0x0 DUP3 ADD CALLDATALOAD PUSH8 0xFFFFFFFFFFFFFFFF DUP2 GT ISZERO PUSH2 0x3E4B JUMPI PUSH2 0x3E4A PUSH2 0x2F83 JUMP JUMPDEST JUMPDEST PUSH2 0x3E57 DUP5 DUP3 DUP6 ADD PUSH2 0x3DE9 JUMP JUMPDEST SWAP2 POP POP SWAP3 SWAP2 POP POP JUMP JUMPDEST PUSH1 0x0 DUP1 PUSH1 0x40 DUP4 DUP6 SUB SLT ISZERO PUSH2 0x3E77 JUMPI PUSH2 0x3E76 PUSH2 0x2F7E JUMP JUMPDEST JUMPDEST PUSH1 0x0 PUSH2 0x3E85 DUP6 DUP3 DUP7 ADD PUSH2 0x31CB JUMP JUMPDEST SWAP3 POP POP PUSH1 0x20 PUSH2 0x3E96 DUP6 DUP3 DUP7 ADD PUSH2 0x31CB JUMP JUMPDEST SWAP2 POP POP SWAP3 POP SWAP3 SWAP1 POP JUMP JUMPDEST PUSH32 0x4E487B7100000000000000000000000000000000000000000000000000000000 PUSH1 0x0 MSTORE PUSH1 0x22 PUSH1 0x4 MSTORE PUSH1 0x24 PUSH1 0x0 REVERT JUMPDEST PUSH1 0x0 PUSH1 0x2 DUP3 DIV SWAP1 POP PUSH1 0x1 DUP3 AND DUP1 PUSH2 0x3EE7 JUMPI PUSH1 0x7F DUP3 AND SWAP2 POP JUMPDEST PUSH1 0x20 DUP3 LT DUP2 SUB PUSH2 0x3EFA JUMPI PUSH2 0x3EF9 PUSH2 0x3EA0 JUMP JUMPDEST JUMPDEST POP SWAP2 SWAP1 POP JUMP JUMPDEST PUSH1 0x0 DUP2 SWAP1 POP DUP2 PUSH1 0x0 MSTORE PUSH1 0x20 PUSH1 0x0 KECCAK256 SWAP1 POP SWAP2 SWAP1 POP JUMP JUMPDEST PUSH1 0x0 PUSH1 0x20 PUSH1 0x1F DUP4 ADD DIV SWAP1 POP SWAP2 SWAP1 POP JUMP JUMPDEST PUSH1 0x0 DUP3 DUP3 SHL SWAP1 POP SWAP3 SWAP2 POP POP JUMP JUMPDEST PUSH1 0x0 PUSH1 0x8 DUP4 MUL PUSH2 0x3F62 PUSH32 0xFFFFFFFFFFFFFFFFFFFFFFFFFFFFFFFFFFFFFFFFFFFFFFFFFFFFFFFFFFFFFFFF DUP3 PUSH2 0x3F25 JUMP JUMPDEST PUSH2 0x3F6C DUP7 DUP4 PUSH2 0x3F25 JUMP JUMPDEST SWAP6 POP DUP1 NOT DUP5 AND SWAP4 POP DUP1 DUP7 AND DUP5 OR SWAP3 POP POP POP SWAP4 SWAP3 POP POP POP JUMP JUMPDEST PUSH1 0x0 DUP2 SWAP1 POP SWAP2 SWAP1 POP JUMP JUMPDEST PUSH1 0x0 PUSH2 0x3FA9 PUSH2 0x3FA4 PUSH2 0x3F9F DUP5 PUSH2 0x30F5 JUMP JUMPDEST PUSH2 0x3F84 JUMP JUMPDEST PUSH2 0x30F5 JUMP JUMPDEST SWAP1 POP SWAP2 SWAP1 POP JUMP JUMPDEST PUSH1 0x0 DUP2 SWAP1 POP SWAP2 SWAP1 POP JUMP JUMPDEST PUSH2 0x3FC3 DUP4 PUSH2 0x3F8E JUMP JUMPDEST PUSH2 0x3FD7 PUSH2 0x3FCF DUP3 PUSH2 0x3FB0 JUMP JUMPDEST DUP5 DUP5 SLOAD PUSH2 0x3F32 JUMP JUMPDEST DUP3 SSTORE POP POP POP POP JUMP JUMPDEST PUSH1 0x0 SWAP1 JUMP JUMPDEST PUSH2 0x3FEC PUSH2 0x3FDF JUMP JUMPDEST PUSH2 0x3FF7 DUP2 DUP5 DUP5 PUSH2 0x3FBA JUMP JUMPDEST POP POP POP JUMP JUMPDEST JUMPDEST DUP2 DUP2 LT ISZERO PUSH2 0x401B JUMPI PUSH2 0x4010 PUSH1 0x0 DUP3 PUSH2 0x3FE4 JUMP JUMPDEST PUSH1 0x1 DUP2 ADD SWAP1 POP PUSH2 0x3FFD JUMP JUMPDEST POP POP JUMP JUMPDEST PUSH1 0x1F DUP3 GT ISZERO PUSH2 0x4060 JUMPI PUSH2 0x4031 DUP2 PUSH2 0x3F00 JUMP JUMPDEST PUSH2 0x403A DUP5 PUSH2 0x3F15 JUMP JUMPDEST DUP2 ADD PUSH1 0x20 DUP6 LT ISZERO PUSH2 0x4049 JUMPI DUP2 SWAP1 POP JUMPDEST PUSH2 0x405D PUSH2 0x4055 DUP6 PUSH2 0x3F15 JUMP JUMPDEST DUP4 ADD DUP3 PUSH2 0x3FFC JUMP JUMPDEST POP POP JUMPDEST POP POP POP JUMP JUMPDEST PUSH1 0x0 DUP3 DUP3 SHR SWAP1 POP SWAP3 SWAP2 POP POP JUMP JUMPDEST PUSH1 0x0 PUSH2 0x4083 PUSH1 0x0 NOT DUP5 PUSH1 0x8 MUL PUSH2 0x4065 JUMP JUMPDEST NOT DUP1 DUP4 AND SWAP2 POP POP SWAP3 SWAP2 POP POP JUMP JUMPDEST PUSH1 0x0 PUSH2 0x409C DUP4 DUP4 PUSH2 0x4072 JUMP JUMPDEST SWAP2 POP DUP3 PUSH1 0x2 MUL DUP3 OR SWAP1 POP SWAP3 SWAP2 POP POP JUMP JUMPDEST PUSH2 0x40B5 DUP3 PUSH2 0x3043 JUMP JUMPDEST PUSH8 0xFFFFFFFFFFFFFFFF DUP2 GT ISZERO PUSH2 0x40CE JUMPI PUSH2 0x40CD PUSH2 0x32EF JUMP JUMPDEST JUMPDEST PUSH2 0x40D8 DUP3 SLOAD PUSH2 0x3ECF JUMP JUMPDEST PUSH2 0x40E3 DUP3 DUP3 DUP6 PUSH2 0x401F JUMP JUMPDEST PUSH1 0x0 PUSH1 0x20 SWAP1 POP PUSH1 0x1F DUP4 GT PUSH1 0x1 DUP2 EQ PUSH2 0x4116 JUMPI PUSH1 0x0 DUP5 ISZERO PUSH2 0x4104 JUMPI DUP3 DUP8 ADD MLOAD SWAP1 POP JUMPDEST PUSH2 0x410E DUP6 DUP3 PUSH2 0x4090 JUMP JUMPDEST DUP7 SSTORE POP PUSH2 0x4176 JUMP JUMPDEST PUSH1 0x1F NOT DUP5 AND PUSH2 0x4124 DUP7 PUSH2 0x3F00 JUMP JUMPDEST PUSH1 0x0 JUMPDEST DUP3 DUP2 LT ISZERO PUSH2 0x414C JUMPI DUP5 DUP10 ADD MLOAD DUP3 SSTORE PUSH1 0x1 DUP3 ADD SWAP2 POP PUSH1 0x20 DUP6 ADD SWAP5 POP PUSH1 0x20 DUP2 ADD SWAP1 POP PUSH2 0x4127 JUMP JUMPDEST DUP7 DUP4 LT ISZERO PUSH2 0x4169 JUMPI DUP5 DUP10 ADD MLOAD PUSH2 0x4165 PUSH1 0x1F DUP10 AND DUP3 PUSH2 0x4072 JUMP JUMPDEST DUP4 SSTORE POP JUMPDEST PUSH1 0x1 PUSH1 0x2 DUP9 MUL ADD DUP9 SSTORE POP POP POP JUMPDEST POP POP POP POP POP POP JUMP JUMPDEST PUSH32 0x416363657373436F6E74726F6C3A2063616E206F6E6C792072656E6F756E6365 PUSH1 0x0 DUP3 ADD MSTORE PUSH32 0x20726F6C657320666F722073656C660000000000000000000000000000000000 PUSH1 0x20 DUP3 ADD MSTORE POP JUMP JUMPDEST PUSH1 0x0 PUSH2 0x41DA PUSH1 0x2F DUP4 PUSH2 0x304E JUMP JUMPDEST SWAP2 POP PUSH2 0x41E5 DUP3 PUSH2 0x417E JUMP JUMPDEST PUSH1 0x40 DUP3 ADD SWAP1 POP SWAP2 SWAP1 POP JUMP JUMPDEST PUSH1 0x0 PUSH1 0x20 DUP3 ADD SWAP1 POP DUP2 DUP2 SUB PUSH1 0x0 DUP4 ADD MSTORE PUSH2 0x4209 DUP2 PUSH2 0x41CD JUMP JUMPDEST SWAP1 POP SWAP2 SWAP1 POP JUMP JUMPDEST PUSH32 0x5A6F646961636853616C653A204E6578742053616C6520436F6E646974696F6E PUSH1 0x0 DUP3 ADD MSTORE PUSH32 0x73206E6F74207365740000000000000000000000000000000000000000000000 PUSH1 0x20 DUP3 ADD MSTORE POP JUMP JUMPDEST PUSH1 0x0 PUSH2 0x426C PUSH1 0x29 DUP4 PUSH2 0x304E JUMP JUMPDEST SWAP2 POP PUSH2 0x4277 DUP3 PUSH2 0x4210 JUMP JUMPDEST PUSH1 0x40 DUP3 ADD SWAP1 POP SWAP2 SWAP1 POP JUMP JUMPDEST PUSH1 0x0 PUSH1 0x20 DUP3 ADD SWAP1 POP DUP2 DUP2 SUB PUSH1 0x0 DUP4 ADD MSTORE PUSH2 0x429B DUP2 PUSH2 0x425F JUMP JUMPDEST SWAP1 POP SWAP2 SWAP1 POP JUMP JUMPDEST PUSH32 0x5A6F646961636853616C653A204E6578742053616C6520555249206E6F742073 PUSH1 0x0 DUP3 ADD MSTORE PUSH32 0x6574000000000000000000000000000000000000000000000000000000000000 PUSH1 0x20 DUP3 ADD MSTORE POP JUMP JUMPDEST PUSH1 0x0 PUSH2 0x42FE PUSH1 0x22 DUP4 PUSH2 0x304E JUMP JUMPDEST SWAP2 POP PUSH2 0x4309 DUP3 PUSH2 0x42A2 JUMP JUMPDEST PUSH1 0x40 DUP3 ADD SWAP1 POP SWAP2 SWAP1 POP JUMP JUMPDEST PUSH1 0x0 PUSH1 0x20 DUP3 ADD SWAP1 POP DUP2 DUP2 SUB PUSH1 0x0 DUP4 ADD MSTORE PUSH2 0x432D DUP2 PUSH2 0x42F1 JUMP JUMPDEST SWAP1 POP SWAP2 SWAP1 POP JUMP JUMPDEST PUSH32 0x4E487B7100000000000000000000000000000000000000000000000000000000 PUSH1 0x0 MSTORE PUSH1 0x11 PUSH1 0x4 MSTORE PUSH1 0x24 PUSH1 0x0 REVERT JUMPDEST PUSH1 0x0 PUSH2 0x436E DUP3 PUSH2 0x3B07 JUMP JUMPDEST SWAP2 POP PUSH2 0x4379 DUP4 PUSH2 0x3B07 JUMP JUMPDEST SWAP3 POP DUP3 DUP3 ADD SWAP1 POP PUSH1 0xFF DUP2 GT ISZERO PUSH2 0x4392 JUMPI PUSH2 0x4391 PUSH2 0x4334 JUMP JUMPDEST JUMPDEST SWAP3 SWAP2 POP POP JUMP JUMPDEST PUSH1 0x0 PUSH2 0x43A3 DUP3 PUSH2 0x30F5 JUMP JUMPDEST SWAP2 POP PUSH2 0x43AE DUP4 PUSH2 0x30F5 JUMP JUMPDEST SWAP3 POP DUP3 DUP3 MUL PUSH2 0x43BC DUP2 PUSH2 0x30F5 JUMP JUMPDEST SWAP2 POP DUP3 DUP3 DIV DUP5 EQ DUP4 ISZERO OR PUSH2 0x43D3 JUMPI PUSH2 0x43D2 PUSH2 0x4334 JUMP JUMPDEST JUMPDEST POP SWAP3 SWAP2 POP POP JUMP JUMPDEST PUSH1 0x0 DUP2 SWAP1 POP SWAP3 SWAP2 POP POP JUMP JUMPDEST PUSH1 0x0 PUSH2 0x43F0 DUP3 PUSH2 0x3043 JUMP JUMPDEST PUSH2 0x43FA DUP2 DUP6 PUSH2 0x43DA JUMP JUMPDEST SWAP4 POP PUSH2 0x440A DUP2 DUP6 PUSH1 0x20 DUP7 ADD PUSH2 0x305F JUMP JUMPDEST DUP1 DUP5 ADD SWAP2 POP POP SWAP3 SWAP2 POP POP JUMP JUMPDEST PUSH32 0x2F00000000000000000000000000000000000000000000000000000000000000 PUSH1 0x0 DUP3 ADD MSTORE POP JUMP JUMPDEST PUSH1 0x0 PUSH2 0x444C PUSH1 0x1 DUP4 PUSH2 0x43DA JUMP JUMPDEST SWAP2 POP PUSH2 0x4457 DUP3 PUSH2 0x4416 JUMP JUMPDEST PUSH1 0x1 DUP3 ADD SWAP1 POP SWAP2 SWAP1 POP JUMP JUMPDEST PUSH1 0x0 PUSH2 0x446E DUP3 DUP6 PUSH2 0x43E5 JUMP JUMPDEST SWAP2 POP PUSH2 0x4479 DUP3 PUSH2 0x443F JUMP JUMPDEST SWAP2 POP PUSH2 0x4485 DUP3 DUP5 PUSH2 0x43E5 JUMP JUMPDEST SWAP2 POP DUP2 SWAP1 POP SWAP4 SWAP3 POP POP POP JUMP JUMPDEST PUSH32 0x4E487B7100000000000000000000000000000000000000000000000000000000 PUSH1 0x0 MSTORE PUSH1 0x32 PUSH1 0x4 MSTORE PUSH1 0x24 PUSH1 0x0 REVERT JUMPDEST PUSH1 0x0 PUSH2 0x44CB DUP3 PUSH2 0x3B07 JUMP JUMPDEST SWAP2 POP PUSH1 0xFF DUP3 SUB PUSH2 0x44DE JUMPI PUSH2 0x44DD PUSH2 0x4334 JUMP JUMPDEST JUMPDEST PUSH1 0x1 DUP3 ADD SWAP1 POP SWAP2 SWAP1 POP JUMP JUMPDEST PUSH1 0x0 PUSH2 0x44F4 DUP3 PUSH2 0x30F5 JUMP JUMPDEST SWAP2 POP PUSH2 0x44FF DUP4 PUSH2 0x30F5 JUMP JUMPDEST SWAP3 POP DUP3 DUP3 ADD SWAP1 POP DUP1 DUP3 GT ISZERO PUSH2 0x4517 JUMPI PUSH2 0x4516 PUSH2 0x4334 JUMP JUMPDEST JUMPDEST SWAP3 SWAP2 POP POP JUMP JUMPDEST PUSH1 0x0 PUSH2 0x4528 DUP3 PUSH2 0x30F5 JUMP JUMPDEST SWAP2 POP PUSH1 0x0 DUP3 SUB PUSH2 0x453B JUMPI PUSH2 0x453A PUSH2 0x4334 JUMP JUMPDEST JUMPDEST PUSH1 0x1 DUP3 SUB SWAP1 POP SWAP2 SWAP1 POP JUMP JUMPDEST PUSH32 0x537472696E67733A20686578206C656E67746820696E73756666696369656E74 PUSH1 0x0 DUP3 ADD MSTORE POP JUMP JUMPDEST PUSH1 0x0 PUSH2 0x457C PUSH1 0x20 DUP4 PUSH2 0x304E JUMP JUMPDEST SWAP2 POP PUSH2 0x4587 DUP3 PUSH2 0x4546 JUMP JUMPDEST PUSH1 0x20 DUP3 ADD SWAP1 POP SWAP2 SWAP1 POP JUMP JUMPDEST PUSH1 0x0 PUSH1 0x20 DUP3 ADD SWAP1 POP DUP2 DUP2 SUB PUSH1 0x0 DUP4 ADD MSTORE PUSH2 0x45AB DUP2 PUSH2 0x456F JUMP JUMPDEST SWAP1 POP SWAP2 SWAP1 POP JUMP JUMPDEST PUSH32 0x53616C65206E6F7420696E206566666563740000000000000000000000000000 PUSH1 0x0 DUP3 ADD MSTORE POP JUMP JUMPDEST PUSH1 0x0 PUSH2 0x45E8 PUSH1 0x12 DUP4 PUSH2 0x304E JUMP JUMPDEST SWAP2 POP PUSH2 0x45F3 DUP3 PUSH2 0x45B2 JUMP JUMPDEST PUSH1 0x20 DUP3 ADD SWAP1 POP SWAP2 SWAP1 POP JUMP JUMPDEST PUSH1 0x0 PUSH1 0x20 DUP3 ADD SWAP1 POP DUP2 DUP2 SUB PUSH1 0x0 DUP4 ADD MSTORE PUSH2 0x4617 DUP2 PUSH2 0x45DB JUMP JUMPDEST SWAP1 POP SWAP2 SWAP1 POP JUMP JUMPDEST PUSH32 0x534F4C44204F5554000000000000000000000000000000000000000000000000 PUSH1 0x0 DUP3 ADD MSTORE POP JUMP JUMPDEST PUSH1 0x0 PUSH2 0x4654 PUSH1 0x8 DUP4 PUSH2 0x304E JUMP JUMPDEST SWAP2 POP PUSH2 0x465F DUP3 PUSH2 0x461E JUMP JUMPDEST PUSH1 0x20 DUP3 ADD SWAP1 POP SWAP2 SWAP1 POP JUMP JUMPDEST PUSH1 0x0 PUSH1 0x20 DUP3 ADD SWAP1 POP DUP2 DUP2 SUB PUSH1 0x0 DUP4 ADD MSTORE PUSH2 0x4683 DUP2 PUSH2 0x4647 JUMP JUMPDEST SWAP1 POP SWAP2 SWAP1 POP JUMP JUMPDEST PUSH1 0x0 DUP2 MLOAD SWAP1 POP SWAP2 SWAP1 POP JUMP JUMPDEST PUSH1 0x0 DUP3 DUP3 MSTORE PUSH1 0x20 DUP3 ADD SWAP1 POP SWAP3 SWAP2 POP POP JUMP JUMPDEST PUSH1 0x0 PUSH2 0x46B1 DUP3 PUSH2 0x468A JUMP JUMPDEST PUSH2 0x46BB DUP2 DUP6 PUSH2 0x4695 JUMP JUMPDEST SWAP4 POP PUSH2 0x46CB DUP2 DUP6 PUSH1 0x20 DUP7 ADD PUSH2 0x305F JUMP JUMPDEST PUSH2 0x46D4 DUP2 PUSH2 0x3089 JUMP JUMPDEST DUP5 ADD SWAP2 POP POP SWAP3 SWAP2 POP POP JUMP JUMPDEST PUSH1 0x0 PUSH1 0x80 DUP3 ADD SWAP1 POP PUSH2 0x46F4 PUSH1 0x0 DUP4 ADD DUP8 PUSH2 0x318A JUMP JUMPDEST PUSH2 0x4701 PUSH1 0x20 DUP4 ADD DUP7 PUSH2 0x318A JUMP JUMPDEST PUSH2 0x470E PUSH1 0x40 DUP4 ADD DUP6 PUSH2 0x32BB JUMP JUMPDEST DUP2 DUP2 SUB PUSH1 0x60 DUP4 ADD MSTORE PUSH2 0x4720 DUP2 DUP5 PUSH2 0x46A6 JUMP JUMPDEST SWAP1 POP SWAP6 SWAP5 POP POP POP POP POP JUMP JUMPDEST PUSH1 0x0 DUP2 MLOAD SWAP1 POP PUSH2 0x473A DUP2 PUSH2 0x2FB4 JUMP JUMPDEST SWAP3 SWAP2 POP POP JUMP JUMPDEST PUSH1 0x0 PUSH1 0x20 DUP3 DUP5 SUB SLT ISZERO PUSH2 0x4756 JUMPI PUSH2 0x4755 PUSH2 0x2F7E JUMP JUMPDEST JUMPDEST PUSH1 0x0 PUSH2 0x4764 DUP5 DUP3 DUP6 ADD PUSH2 0x472B JUMP JUMPDEST SWAP2 POP POP SWAP3 SWAP2 POP POP JUMP JUMPDEST PUSH32 0x416363657373436F6E74726F6C3A206163636F756E7420000000000000000000 PUSH1 0x0 DUP3 ADD MSTORE POP JUMP JUMPDEST PUSH1 0x0 PUSH2 0x47A3 PUSH1 0x17 DUP4 PUSH2 0x43DA JUMP JUMPDEST SWAP2 POP PUSH2 0x47AE DUP3 PUSH2 0x476D JUMP JUMPDEST PUSH1 0x17 DUP3 ADD SWAP1 POP SWAP2 SWAP1 POP JUMP JUMPDEST PUSH32 0x206973206D697373696E6720726F6C6520000000000000000000000000000000 PUSH1 0x0 DUP3 ADD MSTORE POP JUMP JUMPDEST PUSH1 0x0 PUSH2 0x47EF PUSH1 0x11 DUP4 PUSH2 0x43DA JUMP JUMPDEST SWAP2 POP PUSH2 0x47FA DUP3 PUSH2 0x47B9 JUMP JUMPDEST PUSH1 0x11 DUP3 ADD SWAP1 POP SWAP2 SWAP1 POP JUMP JUMPDEST PUSH1 0x0 PUSH2 0x4810 DUP3 PUSH2 0x4796 JUMP JUMPDEST SWAP2 POP PUSH2 0x481C DUP3 DUP6 PUSH2 0x43E5 JUMP JUMPDEST SWAP2 POP PUSH2 0x4827 DUP3 PUSH2 0x47E2 JUMP JUMPDEST SWAP2 POP PUSH2 0x4833 DUP3 DUP5 PUSH2 0x43E5 JUMP JUMPDEST SWAP2 POP DUP2 SWAP1 POP SWAP4 SWAP3 POP POP POP JUMP INVALID LOG2 PUSH5 0x6970667358 0x22 SLT KECCAK256 0x5E PUSH21 0xC45731D210D3CDE718E7C835486C728D06A997BAED SWAP6 PUSH12 0x89340230581F1464736F6C63 NUMBER STOP ADDMOD GT STOP CALLER PUSH9 0x747470733A2F2F6769 PUSH21 0x6875622E636F6D2F5A6F64696163682D5072657373 0x2F PUSH15 0x66742D67616C6C6572790000000000 "
		},
		"gasEstimates": {
			"creation": {
				"codeDepositCost": "3709800",
				"executionCost": "infinite",
				"totalCost": "infinite"
			},
			"external": {
				"DEFAULT_ADMIN_ROLE()": "424",
				"MINTER_ROLE()": "395",
				"OWNER_ROLE()": "439",
				"URI_ROLE()": "464",
				"approve(address,uint256)": "infinite",
				"balanceOf(address)": "3037",
				"burn(uint256)": "infinite",
				"checkState()": "infinite",
				"combineMonthly(uint16)": "524",
				"createNextSale(string,string)": "infinite",
				"explicitOwnershipOf(uint256)": "infinite",
				"explicitOwnershipsOf(uint256[])": "infinite",
				"getApproved(uint256)": "7404",
				"getRoleAdmin(bytes32)": "infinite",
				"giftConstellation(address)": "586",
				"giftConstellation(address,uint16)": "677",
				"grantRole(bytes32,address)": "infinite",
				"hasRole(bytes32,address)": "3252",
				"isApprovedForAll(address,address)": "infinite",
				"lockInNextSaleState()": "infinite",
				"mint(uint256,string)": "infinite",
				"mintConstellation()": "209",
				"mintConstellation(uint16)": "434",
				"mintTo(uint256,address,string)": "infinite",
				"name()": "infinite",
				"ownerOf(uint256)": "infinite",
				"purchaseMonthly(uint8,uint16)": "11795",
				"purchaseMonthly(uint8[])": "infinite",
				"renounceRole(bytes32,address)": "infinite",
				"retrieveBid()": "255",
				"revokeRole(bytes32,address)": "infinite",
				"safeTransferFrom(address,address,uint256)": "infinite",
				"safeTransferFrom(address,address,uint256,bytes)": "infinite",
				"setApprovalForAll(address,bool)": "infinite",
				"setSaleConditions(uint256,uint256)": "infinite",
				"setSaleURI(string)": "infinite",
				"submitBid(uint256)": "428",
				"supportsInterface(bytes4)": "768",
				"symbol()": "infinite",
				"tokenURI(uint256)": "infinite",
				"tokensOfOwner(address)": "infinite",
				"tokensOfOwnerIn(address,uint256,uint256)": "infinite",
				"totalSupply()": "4644",
				"transferFrom(address,address,uint256)": "infinite",
				"updateURI(uint256,string)": "infinite"
			},
			"internal": {
				"_beforePurchase()": "infinite"
			}
		},
		"methodIdentifiers": {
			"DEFAULT_ADMIN_ROLE()": "a217fddf",
			"MINTER_ROLE()": "d5391393",
			"OWNER_ROLE()": "e58378bb",
			"URI_ROLE()": "0ab5f32a",
			"approve(address,uint256)": "095ea7b3",
			"balanceOf(address)": "70a08231",
			"burn(uint256)": "42966c68",
			"checkState()": "96dfcbea",
			"combineMonthly(uint16)": "4082857c",
			"createNextSale(string,string)": "2bf1fbe8",
			"explicitOwnershipOf(uint256)": "c23dc68f",
			"explicitOwnershipsOf(uint256[])": "5bbb2177",
			"getApproved(uint256)": "081812fc",
			"getRoleAdmin(bytes32)": "248a9ca3",
			"giftConstellation(address)": "a7a7dd73",
			"giftConstellation(address,uint16)": "561e8eff",
			"grantRole(bytes32,address)": "2f2ff15d",
			"hasRole(bytes32,address)": "91d14854",
			"isApprovedForAll(address,address)": "e985e9c5",
			"lockInNextSaleState()": "a515a100",
			"mint(uint256,string)": "77097fc8",
			"mintConstellation()": "b9fdbb4a",
			"mintConstellation(uint16)": "13338a50",
			"mintTo(uint256,address,string)": "59927bbe",
			"name()": "06fdde03",
			"ownerOf(uint256)": "6352211e",
			"purchaseMonthly(uint8,uint16)": "a93cd768",
			"purchaseMonthly(uint8[])": "e742aade",
			"renounceRole(bytes32,address)": "36568abe",
			"retrieveBid()": "bb7dcc4e",
			"revokeRole(bytes32,address)": "d547741f",
			"safeTransferFrom(address,address,uint256)": "42842e0e",
			"safeTransferFrom(address,address,uint256,bytes)": "b88d4fde",
			"setApprovalForAll(address,bool)": "a22cb465",
			"setSaleConditions(uint256,uint256)": "bc769035",
			"setSaleURI(string)": "1b7b5893",
			"submitBid(uint256)": "74bdda15",
			"supportsInterface(bytes4)": "01ffc9a7",
			"symbol()": "95d89b41",
			"tokenURI(uint256)": "c87b56dd",
			"tokensOfOwner(address)": "8462151c",
			"tokensOfOwnerIn(address,uint256,uint256)": "99a2557a",
			"totalSupply()": "18160ddd",
			"transferFrom(address,address,uint256)": "23b872dd",
			"updateURI(uint256,string)": "31d41c69"
		}
	},
	"abi": [
		{
			"inputs": [],
			"stateMutability": "nonpayable",
			"type": "constructor"
		},
		{
			"inputs": [],
			"name": "ApprovalCallerNotOwnerNorApproved",
			"type": "error"
		},
		{
			"inputs": [],
			"name": "ApprovalQueryForNonexistentToken",
			"type": "error"
		},
		{
			"inputs": [],
			"name": "BalanceQueryForZeroAddress",
			"type": "error"
		},
		{
			"inputs": [],
			"name": "InvalidQueryRange",
			"type": "error"
		},
		{
			"inputs": [],
			"name": "MintERC2309QuantityExceedsLimit",
			"type": "error"
		},
		{
			"inputs": [],
			"name": "MintToZeroAddress",
			"type": "error"
		},
		{
			"inputs": [],
			"name": "MintZeroQuantity",
			"type": "error"
		},
		{
			"inputs": [],
			"name": "OwnerQueryForNonexistentToken",
			"type": "error"
		},
		{
			"inputs": [],
			"name": "OwnershipNotInitializedForExtraData",
			"type": "error"
		},
		{
			"inputs": [],
			"name": "TransferCallerNotOwnerNorApproved",
			"type": "error"
		},
		{
			"inputs": [],
			"name": "TransferFromIncorrectOwner",
			"type": "error"
		},
		{
			"inputs": [],
			"name": "TransferToNonERC721ReceiverImplementer",
			"type": "error"
		},
		{
			"inputs": [],
			"name": "TransferToZeroAddress",
			"type": "error"
		},
		{
			"inputs": [],
			"name": "URIQueryForNonexistentToken",
			"type": "error"
		},
		{
			"anonymous": false,
			"inputs": [
				{
					"indexed": true,
					"internalType": "address",
					"name": "owner",
					"type": "address"
				},
				{
					"indexed": true,
					"internalType": "address",
					"name": "approved",
					"type": "address"
				},
				{
					"indexed": true,
					"internalType": "uint256",
					"name": "tokenId",
					"type": "uint256"
				}
			],
			"name": "Approval",
			"type": "event"
		},
		{
			"anonymous": false,
			"inputs": [
				{
					"indexed": true,
					"internalType": "address",
					"name": "owner",
					"type": "address"
				},
				{
					"indexed": true,
					"internalType": "address",
					"name": "operator",
					"type": "address"
				},
				{
					"indexed": false,
					"internalType": "bool",
					"name": "approved",
					"type": "bool"
				}
			],
			"name": "ApprovalForAll",
			"type": "event"
		},
		{
			"anonymous": false,
			"inputs": [
				{
					"indexed": true,
					"internalType": "uint256",
					"name": "fromTokenId",
					"type": "uint256"
				},
				{
					"indexed": false,
					"internalType": "uint256",
					"name": "toTokenId",
					"type": "uint256"
				},
				{
					"indexed": true,
					"internalType": "address",
					"name": "from",
					"type": "address"
				},
				{
					"indexed": true,
					"internalType": "address",
					"name": "to",
					"type": "address"
				}
			],
			"name": "ConsecutiveTransfer",
			"type": "event"
		},
		{
			"anonymous": false,
			"inputs": [
				{
					"indexed": true,
					"internalType": "bytes32",
					"name": "role",
					"type": "bytes32"
				},
				{
					"indexed": true,
					"internalType": "bytes32",
					"name": "previousAdminRole",
					"type": "bytes32"
				},
				{
					"indexed": true,
					"internalType": "bytes32",
					"name": "newAdminRole",
					"type": "bytes32"
				}
			],
			"name": "RoleAdminChanged",
			"type": "event"
		},
		{
			"anonymous": false,
			"inputs": [
				{
					"indexed": true,
					"internalType": "bytes32",
					"name": "role",
					"type": "bytes32"
				},
				{
					"indexed": true,
					"internalType": "address",
					"name": "account",
					"type": "address"
				},
				{
					"indexed": true,
					"internalType": "address",
					"name": "sender",
					"type": "address"
				}
			],
			"name": "RoleGranted",
			"type": "event"
		},
		{
			"anonymous": false,
			"inputs": [
				{
					"indexed": true,
					"internalType": "bytes32",
					"name": "role",
					"type": "bytes32"
				},
				{
					"indexed": true,
					"internalType": "address",
					"name": "account",
					"type": "address"
				},
				{
					"indexed": true,
					"internalType": "address",
					"name": "sender",
					"type": "address"
				}
			],
			"name": "RoleRevoked",
			"type": "event"
		},
		{
			"anonymous": false,
			"inputs": [
				{
					"indexed": true,
					"internalType": "address",
					"name": "from",
					"type": "address"
				},
				{
					"indexed": true,
					"internalType": "address",
					"name": "to",
					"type": "address"
				},
				{
					"indexed": true,
					"internalType": "uint256",
					"name": "tokenId",
					"type": "uint256"
				}
			],
			"name": "Transfer",
			"type": "event"
		},
		{
			"inputs": [],
			"name": "DEFAULT_ADMIN_ROLE",
			"outputs": [
				{
					"internalType": "bytes32",
					"name": "",
					"type": "bytes32"
				}
			],
			"stateMutability": "view",
			"type": "function"
		},
		{
			"inputs": [],
			"name": "MINTER_ROLE",
			"outputs": [
				{
					"internalType": "bytes32",
					"name": "",
					"type": "bytes32"
				}
			],
			"stateMutability": "view",
			"type": "function"
		},
		{
			"inputs": [],
			"name": "OWNER_ROLE",
			"outputs": [
				{
					"internalType": "bytes32",
					"name": "",
					"type": "bytes32"
				}
			],
			"stateMutability": "view",
			"type": "function"
		},
		{
			"inputs": [],
			"name": "URI_ROLE",
			"outputs": [
				{
					"internalType": "bytes32",
					"name": "",
					"type": "bytes32"
				}
			],
			"stateMutability": "view",
			"type": "function"
		},
		{
			"inputs": [
				{
					"internalType": "address",
					"name": "to",
					"type": "address"
				},
				{
					"internalType": "uint256",
					"name": "tokenId",
					"type": "uint256"
				}
			],
			"name": "approve",
			"outputs": [],
			"stateMutability": "payable",
			"type": "function"
		},
		{
			"inputs": [
				{
					"internalType": "address",
					"name": "owner",
					"type": "address"
				}
			],
			"name": "balanceOf",
			"outputs": [
				{
					"internalType": "uint256",
					"name": "",
					"type": "uint256"
				}
			],
			"stateMutability": "view",
			"type": "function"
		},
		{
			"inputs": [
				{
					"internalType": "uint256",
					"name": "tokenId",
					"type": "uint256"
				}
			],
			"name": "burn",
			"outputs": [],
			"stateMutability": "nonpayable",
			"type": "function"
		},
		{
			"inputs": [],
			"name": "checkState",
			"outputs": [
				{
					"internalType": "int8",
					"name": "",
					"type": "int8"
				}
			],
			"stateMutability": "view",
			"type": "function"
		},
		{
			"inputs": [
				{
					"internalType": "uint16",
					"name": "_monthNumber",
					"type": "uint16"
				}
			],
			"name": "combineMonthly",
			"outputs": [],
			"stateMutability": "nonpayable",
			"type": "function"
		},
		{
			"inputs": [
				{
					"internalType": "string",
					"name": "_sign",
					"type": "string"
				},
				{
					"internalType": "string",
					"name": "_calendar",
					"type": "string"
				}
			],
			"name": "createNextSale",
			"outputs": [
				{
					"internalType": "int8",
					"name": "",
					"type": "int8"
				}
			],
			"stateMutability": "nonpayable",
			"type": "function"
		},
		{
			"inputs": [
				{
					"internalType": "uint256",
					"name": "tokenId",
					"type": "uint256"
				}
			],
			"name": "explicitOwnershipOf",
			"outputs": [
				{
					"components": [
						{
							"internalType": "address",
							"name": "addr",
							"type": "address"
						},
						{
							"internalType": "uint64",
							"name": "startTimestamp",
							"type": "uint64"
						},
						{
							"internalType": "bool",
							"name": "burned",
							"type": "bool"
						},
						{
							"internalType": "uint24",
							"name": "extraData",
							"type": "uint24"
						}
					],
					"internalType": "struct IERC721A.TokenOwnership",
					"name": "ownership",
					"type": "tuple"
				}
			],
			"stateMutability": "view",
			"type": "function"
		},
		{
			"inputs": [
				{
					"internalType": "uint256[]",
					"name": "tokenIds",
					"type": "uint256[]"
				}
			],
			"name": "explicitOwnershipsOf",
			"outputs": [
				{
					"components": [
						{
							"internalType": "address",
							"name": "addr",
							"type": "address"
						},
						{
							"internalType": "uint64",
							"name": "startTimestamp",
							"type": "uint64"
						},
						{
							"internalType": "bool",
							"name": "burned",
							"type": "bool"
						},
						{
							"internalType": "uint24",
							"name": "extraData",
							"type": "uint24"
						}
					],
					"internalType": "struct IERC721A.TokenOwnership[]",
					"name": "",
					"type": "tuple[]"
				}
			],
			"stateMutability": "view",
			"type": "function"
		},
		{
			"inputs": [
				{
					"internalType": "uint256",
					"name": "tokenId",
					"type": "uint256"
				}
			],
			"name": "getApproved",
			"outputs": [
				{
					"internalType": "address",
					"name": "",
					"type": "address"
				}
			],
			"stateMutability": "view",
			"type": "function"
		},
		{
			"inputs": [
				{
					"internalType": "bytes32",
					"name": "role",
					"type": "bytes32"
				}
			],
			"name": "getRoleAdmin",
			"outputs": [
				{
					"internalType": "bytes32",
					"name": "",
					"type": "bytes32"
				}
			],
			"stateMutability": "view",
			"type": "function"
		},
		{
			"inputs": [
				{
					"internalType": "address",
					"name": "_to",
					"type": "address"
				},
				{
					"internalType": "uint16",
					"name": "_quantity",
					"type": "uint16"
				}
			],
			"name": "giftConstellation",
			"outputs": [],
			"stateMutability": "payable",
			"type": "function"
		},
		{
			"inputs": [
				{
					"internalType": "address",
					"name": "_to",
					"type": "address"
				}
			],
			"name": "giftConstellation",
			"outputs": [],
			"stateMutability": "payable",
			"type": "function"
		},
		{
			"inputs": [
				{
					"internalType": "bytes32",
					"name": "role",
					"type": "bytes32"
				},
				{
					"internalType": "address",
					"name": "account",
					"type": "address"
				}
			],
			"name": "grantRole",
			"outputs": [],
			"stateMutability": "nonpayable",
			"type": "function"
		},
		{
			"inputs": [
				{
					"internalType": "bytes32",
					"name": "role",
					"type": "bytes32"
				},
				{
					"internalType": "address",
					"name": "account",
					"type": "address"
				}
			],
			"name": "hasRole",
			"outputs": [
				{
					"internalType": "bool",
					"name": "",
					"type": "bool"
				}
			],
			"stateMutability": "view",
			"type": "function"
		},
		{
			"inputs": [
				{
					"internalType": "address",
					"name": "owner",
					"type": "address"
				},
				{
					"internalType": "address",
					"name": "operator",
					"type": "address"
				}
			],
			"name": "isApprovedForAll",
			"outputs": [
				{
					"internalType": "bool",
					"name": "",
					"type": "bool"
				}
			],
			"stateMutability": "view",
			"type": "function"
		},
		{
			"inputs": [],
			"name": "lockInNextSaleState",
			"outputs": [],
			"stateMutability": "nonpayable",
			"type": "function"
		},
		{
			"inputs": [
				{
					"internalType": "uint256",
					"name": "_quantity",
					"type": "uint256"
				},
				{
					"internalType": "string",
					"name": "_uri",
					"type": "string"
				}
			],
			"name": "mint",
			"outputs": [],
			"stateMutability": "nonpayable",
			"type": "function"
		},
		{
			"inputs": [
				{
					"internalType": "uint16",
					"name": "_quantity",
					"type": "uint16"
				}
			],
			"name": "mintConstellation",
			"outputs": [],
			"stateMutability": "payable",
			"type": "function"
		},
		{
			"inputs": [],
			"name": "mintConstellation",
			"outputs": [],
			"stateMutability": "payable",
			"type": "function"
		},
		{
			"inputs": [
				{
					"internalType": "uint256",
					"name": "_quantity",
					"type": "uint256"
				},
				{
					"internalType": "address",
					"name": "_mintee",
					"type": "address"
				},
				{
					"internalType": "string",
					"name": "_uri",
					"type": "string"
				}
			],
			"name": "mintTo",
			"outputs": [],
			"stateMutability": "nonpayable",
			"type": "function"
		},
		{
			"inputs": [],
			"name": "name",
			"outputs": [
				{
					"internalType": "string",
					"name": "",
					"type": "string"
				}
			],
			"stateMutability": "view",
			"type": "function"
		},
		{
			"inputs": [
				{
					"internalType": "uint256",
					"name": "tokenId",
					"type": "uint256"
				}
			],
			"name": "ownerOf",
			"outputs": [
				{
					"internalType": "address",
					"name": "",
					"type": "address"
				}
			],
			"stateMutability": "view",
			"type": "function"
		},
		{
			"inputs": [
				{
					"internalType": "uint8",
					"name": "_option",
					"type": "uint8"
				},
				{
					"internalType": "uint16",
					"name": "_quantity",
					"type": "uint16"
				}
			],
			"name": "purchaseMonthly",
			"outputs": [],
			"stateMutability": "payable",
			"type": "function"
		},
		{
			"inputs": [
				{
					"internalType": "uint8[]",
					"name": "_option",
					"type": "uint8[]"
				}
			],
			"name": "purchaseMonthly",
			"outputs": [],
			"stateMutability": "payable",
			"type": "function"
		},
		{
			"inputs": [
				{
					"internalType": "bytes32",
					"name": "role",
					"type": "bytes32"
				},
				{
					"internalType": "address",
					"name": "account",
					"type": "address"
				}
			],
			"name": "renounceRole",
			"outputs": [],
			"stateMutability": "nonpayable",
			"type": "function"
		},
		{
			"inputs": [],
			"name": "retrieveBid",
			"outputs": [],
			"stateMutability": "nonpayable",
			"type": "function"
		},
		{
			"inputs": [
				{
					"internalType": "bytes32",
					"name": "role",
					"type": "bytes32"
				},
				{
					"internalType": "address",
					"name": "account",
					"type": "address"
				}
			],
			"name": "revokeRole",
			"outputs": [],
			"stateMutability": "nonpayable",
			"type": "function"
		},
		{
			"inputs": [
				{
					"internalType": "address",
					"name": "from",
					"type": "address"
				},
				{
					"internalType": "address",
					"name": "to",
					"type": "address"
				},
				{
					"internalType": "uint256",
					"name": "tokenId",
					"type": "uint256"
				}
			],
			"name": "safeTransferFrom",
			"outputs": [],
			"stateMutability": "payable",
			"type": "function"
		},
		{
			"inputs": [
				{
					"internalType": "address",
					"name": "from",
					"type": "address"
				},
				{
					"internalType": "address",
					"name": "to",
					"type": "address"
				},
				{
					"internalType": "uint256",
					"name": "tokenId",
					"type": "uint256"
				},
				{
					"internalType": "bytes",
					"name": "_data",
					"type": "bytes"
				}
			],
			"name": "safeTransferFrom",
			"outputs": [],
			"stateMutability": "payable",
			"type": "function"
		},
		{
			"inputs": [
				{
					"internalType": "address",
					"name": "operator",
					"type": "address"
				},
				{
					"internalType": "bool",
					"name": "approved",
					"type": "bool"
				}
			],
			"name": "setApprovalForAll",
			"outputs": [],
			"stateMutability": "nonpayable",
			"type": "function"
		},
		{
			"inputs": [
				{
					"internalType": "uint256",
					"name": "_timestamp",
					"type": "uint256"
				},
				{
					"internalType": "uint256",
					"name": "_price",
					"type": "uint256"
				}
			],
			"name": "setSaleConditions",
			"outputs": [
				{
					"internalType": "int8",
					"name": "",
					"type": "int8"
				}
			],
			"stateMutability": "nonpayable",
			"type": "function"
		},
		{
			"inputs": [
				{
					"internalType": "string",
					"name": "_uri",
					"type": "string"
				}
			],
			"name": "setSaleURI",
			"outputs": [
				{
					"internalType": "int8",
					"name": "",
					"type": "int8"
				}
			],
			"stateMutability": "nonpayable",
			"type": "function"
		},
		{
			"inputs": [
				{
					"internalType": "uint256",
					"name": "_bid",
					"type": "uint256"
				}
			],
			"name": "submitBid",
			"outputs": [],
			"stateMutability": "payable",
			"type": "function"
		},
		{
			"inputs": [
				{
					"internalType": "bytes4",
					"name": "interfaceId",
					"type": "bytes4"
				}
			],
			"name": "supportsInterface",
			"outputs": [
				{
					"internalType": "bool",
					"name": "",
					"type": "bool"
				}
			],
			"stateMutability": "view",
			"type": "function"
		},
		{
			"inputs": [],
			"name": "symbol",
			"outputs": [
				{
					"internalType": "string",
					"name": "",
					"type": "string"
				}
			],
			"stateMutability": "view",
			"type": "function"
		},
		{
			"inputs": [
				{
					"internalType": "uint256",
					"name": "_tokenId",
					"type": "uint256"
				}
			],
			"name": "tokenURI",
			"outputs": [
				{
					"internalType": "string",
					"name": "",
					"type": "string"
				}
			],
			"stateMutability": "view",
			"type": "function"
		},
		{
			"inputs": [
				{
					"internalType": "address",
					"name": "owner",
					"type": "address"
				}
			],
			"name": "tokensOfOwner",
			"outputs": [
				{
					"internalType": "uint256[]",
					"name": "",
					"type": "uint256[]"
				}
			],
			"stateMutability": "view",
			"type": "function"
		},
		{
			"inputs": [
				{
					"internalType": "address",
					"name": "owner",
					"type": "address"
				},
				{
					"internalType": "uint256",
					"name": "start",
					"type": "uint256"
				},
				{
					"internalType": "uint256",
					"name": "stop",
					"type": "uint256"
				}
			],
			"name": "tokensOfOwnerIn",
			"outputs": [
				{
					"internalType": "uint256[]",
					"name": "",
					"type": "uint256[]"
				}
			],
			"stateMutability": "view",
			"type": "function"
		},
		{
			"inputs": [],
			"name": "totalSupply",
			"outputs": [
				{
					"internalType": "uint256",
					"name": "",
					"type": "uint256"
				}
			],
			"stateMutability": "view",
			"type": "function"
		},
		{
			"inputs": [
				{
					"internalType": "address",
					"name": "from",
					"type": "address"
				},
				{
					"internalType": "address",
					"name": "to",
					"type": "address"
				},
				{
					"internalType": "uint256",
					"name": "tokenId",
					"type": "uint256"
				}
			],
			"name": "transferFrom",
			"outputs": [],
			"stateMutability": "payable",
			"type": "function"
		},
		{
			"inputs": [
				{
					"internalType": "uint256",
					"name": "_lowerLimit",
					"type": "uint256"
				},
				{
					"internalType": "string",
					"name": "_newURI",
					"type": "string"
				}
			],
			"name": "updateURI",
			"outputs": [],
			"stateMutability": "nonpayable",
			"type": "function"
		}
	]
}