{
	"data": {
		"bytecode": {
			"linkReferences": {},
			"object": "60806040526000600960006101000a81548160ff021916908360ff1602179055506000600960016101000a81548160ff021916908360ff1602179055503480156200004957600080fd5b506040518060400160405280600e81526020017fc6b56f64696163682050726573730000000000000000000000000000000000008152506040518060400160405280600281526020017fc6b50000000000000000000000000000000000000000000000000000000000008152508160029081620000c7919062000ded565b508060039081620000d9919062000ded565b50620000ea6200026860201b60201c565b6000819055505050620001247f9f2df0fed2c77648de5860a4cc508cd0818c85b8b8a1ab4ceeef8d981c8956a6336200026d60201b60201c565b620001567f8e6595ef9afb2a8f70320f393f567bb7a0e6c4ed483caee30f90cc5fcd6659b4336200026d60201b60201c565b6200016b6000801b336200026d60201b60201c565b6200019d7fb19546dff01e856fb3f010c267a7b1c60363cf8a4664e21cc89c26224620214e336200026d60201b60201c565b620002196040518060400160405280600581526020017f41726965730000000000000000000000000000000000000000000000000000008152506040518060400160405280601f81526020017f4d617263682032312c2032303232202d20417072696c2031392c2032303232008152506200035f60201b60201c565b506200023663605a80ff65048c27395000620004bc60201b60201c565b50620002616040518060600160405280602c81526020016200581d602c9139620005ce60201b60201c565b506200125e565b600090565b6200027f8282620006e160201b60201c565b6200035b5760016008600084815260200190815260200160002060000160008373ffffffffffffffffffffffffffffffffffffffff1673ffffffffffffffffffffffffffffffffffffffff16815260200190815260200160002060006101000a81548160ff021916908315150217905550620003006200074c60201b60201c565b73ffffffffffffffffffffffffffffffffffffffff168173ffffffffffffffffffffffffffffffffffffffff16837f2f8788117e7eff1d82e926ec794901d17c78024a50270940304540a733656f0d60405160405180910390a45b5050565b60007fb19546dff01e856fb3f010c267a7b1c60363cf8a4664e21cc89c26224620214e62000393816200075460201b60201c565b6200039d62000b28565b60008160a001906005811115620003b957620003b862000ed4565b5b90816005811115620003d057620003cf62000ed4565b5b8152505083816020018190525084816000018190525080600a6000600960009054906101000a900460ff1660ff1661ffff168152602001908152602001600020600082015181600001908162000427919062000ded565b5060208201518160010190816200043f919062000ded565b5060408201518160020155606082015181600301908162000461919062000ded565b506080820151816004015560a08201518160050160006101000a81548160ff021916908360058111156200049a576200049962000ed4565b5b0217905550905050620004b26200077860201b60201c565b9250505092915050565b60007f9f2df0fed2c77648de5860a4cc508cd0818c85b8b8a1ab4ceeef8d981c8956a6620004f0816200075460201b60201c565b6000600a6000600960009054906101000a900460ff1660ff1661ffff16815260200190815260200160002090508481600201819055508381600401819055506000600581111562000546576200054562000ed4565b5b8160050160009054906101000a900460ff1660058111156200056d576200056c62000ed4565b5b03620005b457600160058111156200058a576200058962000ed4565b5b8160050160009054906101000a900460ff166005811115620005b157620005b062000ed4565b5b50505b620005c46200077860201b60201c565b9250505092915050565b60007f8e6595ef9afb2a8f70320f393f567bb7a0e6c4ed483caee30f90cc5fcd6659b462000602816200075460201b60201c565b6000600a6000600960009054906101000a900460ff1660ff1661ffff16815260200190815260200160002090508381600301908162000642919062000ded565b50600160058111156200065a576200065962000ed4565b5b8160050160009054906101000a900460ff16600581111562000681576200068062000ed4565b5b03620006c857600260058111156200069e576200069d62000ed4565b5b8160050160009054906101000a900460ff166005811115620006c557620006c462000ed4565b5b50505b620006d86200077860201b60201c565b92505050919050565b60006008600084815260200190815260200160002060000160008373ffffffffffffffffffffffffffffffffffffffff1673ffffffffffffffffffffffffffffffffffffffff16815260200190815260200160002060009054906101000a900460ff16905092915050565b600033905090565b6200077581620007696200074c60201b60201c565b620007ec60201b60201c565b50565b60007fb19546dff01e856fb3f010c267a7b1c60363cf8a4664e21cc89c26224620214e620007ac816200075460201b60201c565b600a6000600960009054906101000a900460ff1660ff1661ffff16815260200190815260200160002060050160009054906101000a900460ff1691505090565b620007fe8282620006e160201b60201c565b620008945762000819816200089860201b62001d2f1760201c565b620008348360001c6020620008cd60201b62001d5c1760201c565b6040516020016200084792919062001011565b6040516020818303038152906040526040517f08c379a00000000000000000000000000000000000000000000000000000000081526004016200088b9190620010b6565b60405180910390fd5b5050565b6060620008c68273ffffffffffffffffffffffffffffffffffffffff16601460ff16620008cd60201b60201c565b9050919050565b606060006002836002620008e2919062001109565b620008ee919062001154565b67ffffffffffffffff8111156200090a576200090962000b7e565b5b6040519080825280601f01601f1916602001820160405280156200093d5781602001600182028036833780820191505090505b5090507f3000000000000000000000000000000000000000000000000000000000000000816000815181106200097857620009776200118f565b5b60200101907effffffffffffffffffffffffffffffffffffffffffffffffffffffffffffff1916908160001a9053507f780000000000000000000000000000000000000000000000000000000000000081600181518110620009df57620009de6200118f565b5b60200101907effffffffffffffffffffffffffffffffffffffffffffffffffffffffffffff1916908160001a9053506000600184600262000a21919062001109565b62000a2d919062001154565b90505b600181111562000ad7577f3031323334353637383961626364656600000000000000000000000000000000600f86166010811062000a735762000a726200118f565b5b1a60f81b82828151811062000a8d5762000a8c6200118f565b5b60200101907effffffffffffffffffffffffffffffffffffffffffffffffffffffffffffff1916908160001a905350600485901c94508062000acf90620011be565b905062000a30565b506000841462000b1e576040517f08c379a000000000000000000000000000000000000000000000000000000000815260040162000b15906200123c565b60405180910390fd5b8091505092915050565b6040518060c0016040528060608152602001606081526020016000815260200160608152602001600081526020016000600581111562000b6d5762000b6c62000ed4565b5b81525090565b600081519050919050565b7f4e487b7100000000000000000000000000000000000000000000000000000000600052604160045260246000fd5b7f4e487b7100000000000000000000000000000000000000000000000000000000600052602260045260246000fd5b6000600282049050600182168062000bf557607f821691505b60208210810362000c0b5762000c0a62000bad565b5b50919050565b60008190508160005260206000209050919050565b60006020601f8301049050919050565b600082821b905092915050565b60006008830262000c757fffffffffffffffffffffffffffffffffffffffffffffffffffffffffffffffff8262000c36565b62000c81868362000c36565b95508019841693508086168417925050509392505050565b6000819050919050565b6000819050919050565b600062000cce62000cc862000cc28462000c99565b62000ca3565b62000c99565b9050919050565b6000819050919050565b62000cea8362000cad565b62000d0262000cf98262000cd5565b84845462000c43565b825550505050565b600090565b62000d1962000d0a565b62000d2681848462000cdf565b505050565b5b8181101562000d4e5762000d4260008262000d0f565b60018101905062000d2c565b5050565b601f82111562000d9d5762000d678162000c11565b62000d728462000c26565b8101602085101562000d82578190505b62000d9a62000d918562000c26565b83018262000d2b565b50505b505050565b600082821c905092915050565b600062000dc26000198460080262000da2565b1980831691505092915050565b600062000ddd838362000daf565b9150826002028217905092915050565b62000df88262000b73565b67ffffffffffffffff81111562000e145762000e1362000b7e565b5b62000e20825462000bdc565b62000e2d82828562000d52565b600060209050601f83116001811462000e65576000841562000e50578287015190505b62000e5c858262000dcf565b86555062000ecc565b601f19841662000e758662000c11565b60005b8281101562000e9f5784890151825560018201915060208501945060208101905062000e78565b8683101562000ebf578489015162000ebb601f89168262000daf565b8355505b6001600288020188555050505b505050505050565b7f4e487b7100000000000000000000000000000000000000000000000000000000600052602160045260246000fd5b600081905092915050565b7f416363657373436f6e74726f6c3a206163636f756e7420000000000000000000600082015250565b600062000f4660178362000f03565b915062000f538262000f0e565b601782019050919050565b60005b8381101562000f7e57808201518184015260208101905062000f61565b60008484015250505050565b600062000f978262000b73565b62000fa3818562000f03565b935062000fb581856020860162000f5e565b80840191505092915050565b7f206973206d697373696e6720726f6c6520000000000000000000000000000000600082015250565b600062000ff960118362000f03565b9150620010068262000fc1565b601182019050919050565b60006200101e8262000f37565b91506200102c828562000f8a565b9150620010398262000fea565b915062001047828462000f8a565b91508190509392505050565b600082825260208201905092915050565b6000601f19601f8301169050919050565b6000620010828262000b73565b6200108e818562001053565b9350620010a081856020860162000f5e565b620010ab8162001064565b840191505092915050565b60006020820190508181036000830152620010d2818462001075565b905092915050565b7f4e487b7100000000000000000000000000000000000000000000000000000000600052601160045260246000fd5b6000620011168262000c99565b9150620011238362000c99565b9250828202620011338162000c99565b915082820484148315176200114d576200114c620010da565b5b5092915050565b6000620011618262000c99565b91506200116e8362000c99565b9250828201905080821115620011895762001188620010da565b5b92915050565b7f4e487b7100000000000000000000000000000000000000000000000000000000600052603260045260246000fd5b6000620011cb8262000c99565b915060008203620011e157620011e0620010da565b5b600182039050919050565b7f537472696e67733a20686578206c656e67746820696e73756666696369656e74600082015250565b60006200122460208362001053565b91506200123182620011ec565b602082019050919050565b60006020820190508181036000830152620012578162001215565b9050919050565b6145af806200126e6000396000f3fe6080604052600436106102885760003560e01c80635bbb21771161015a578063a22cb465116100c1578063c23dc68f1161007a578063c23dc68f14610936578063c87b56dd14610973578063d5391393146109b0578063d547741f146109db578063e58378bb14610a04578063e985e9c514610a2f57610288565b8063a22cb46514610898578063a515a100146108c1578063a7a7dd73146108d8578063a93cd768146108f4578063b88d4fde14610910578063b9fdbb4a1461092c57610288565b80638462151c116101135780638462151c1461077457806391d14854146107b15780639435c887146107ee57806395d89b411461080557806399a2557a14610830578063a217fddf1461086d57610288565b80635bbb21771461064d5780636352211e1461068a57806370a08231146106c757806374bdda151461070457806377097fc8146107205780637f2c2be31461074957610288565b80632e8d04f7116101fe57806342842e0e116101b757806342842e0e1461059057806342966c68146105ac5780634aba5112146105d55780634e51ea25146105ec578063561e8eff1461060857806359927bbe1461062457610288565b80632e8d04f7146104725780632f2ff15d146104af57806331d41c69146104d857806336568abe146105015780633a8f3a571461052a5780634082857c1461056757610288565b806313338a501161025057806313338a501461037957806318160ddd1461039557806323b872dd146103c0578063248a9ca3146103dc57806329ca2372146104195780632bf1fbe81461043557610288565b806301ffc9a71461028d57806306fdde03146102ca578063081812fc146102f5578063095ea7b3146103325780630ab5f32a1461034e575b600080fd5b34801561029957600080fd5b506102b460048036038101906102af9190612e7d565b610a6c565b6040516102c19190612ec5565b60405180910390f35b3480156102d657600080fd5b506102df610afe565b6040516102ec9190612f70565b60405180910390f35b34801561030157600080fd5b5061031c60048036038101906103179190612fc8565b610b90565b6040516103299190613036565b60405180910390f35b61034c6004803603810190610347919061307d565b610bee565b005b34801561035a57600080fd5b50610363610bfe565b60405161037091906130d6565b60405180910390f35b610393600480360381019061038e919061312b565b610c22565b005b3480156103a157600080fd5b506103aa610c25565b6040516103b79190613167565b60405180910390f35b6103da60048036038101906103d59190613182565b610c3c565b005b3480156103e857600080fd5b5061040360048036038101906103fe9190613201565b610efd565b60405161041091906130d6565b60405180910390f35b610433600480360381019061042e9190613363565b610f1d565b005b34801561044157600080fd5b5061045c600480360381019061045791906133ac565b610f28565b604051610469919061349b565b60405180910390f35b34801561047e57600080fd5b5061049960048036038101906104949190613363565b611064565b6040516104a6919061349b565b60405180910390f35b3480156104bb57600080fd5b506104d660048036038101906104d191906134b6565b611158565b005b3480156104e457600080fd5b506104ff60048036038101906104fa91906134f6565b611179565b005b34801561050d57600080fd5b50610528600480360381019061052391906134b6565b6111f7565b005b34801561053657600080fd5b50610551600480360381019061054c9190613552565b61127a565b60405161055e919061349b565b60405180910390f35b34801561057357600080fd5b5061058e6004803603810190610589919061312b565b61136f565b005b6105aa60048036038101906105a59190613182565b611372565b005b3480156105b857600080fd5b506105d360048036038101906105ce9190612fc8565b611392565b005b3480156105e157600080fd5b506105ea6113a0565b005b610606600480360381019061060191906135cb565b6113a2565b005b610622600480360381019061061d91906135f8565b6113ad565b005b34801561063057600080fd5b5061064b60048036038101906106469190613638565b6113b1565b005b34801561065957600080fd5b50610674600480360381019061066f9190613707565b6113f5565b60405161068191906138b7565b60405180910390f35b34801561069657600080fd5b506106b160048036038101906106ac9190612fc8565b611455565b6040516106be9190613036565b60405180910390f35b3480156106d357600080fd5b506106ee60048036038101906106e991906138d9565b611467565b6040516106fb9190613167565b60405180910390f35b61071e60048036038101906107199190612fc8565b6114fe565b005b34801561072c57600080fd5b50610747600480360381019061074291906134f6565b611501565b005b34801561075557600080fd5b5061075e611544565b60405161076b919061349b565b60405180910390f35b34801561078057600080fd5b5061079b600480360381019061079691906138d9565b6115b0565b6040516107a891906139c4565b60405180910390f35b3480156107bd57600080fd5b506107d860048036038101906107d391906134b6565b611641565b6040516107e59190612ec5565b60405180910390f35b3480156107fa57600080fd5b506108036116ac565b005b34801561081157600080fd5b5061081a6116ae565b6040516108279190612f70565b60405180910390f35b34801561083c57600080fd5b50610857600480360381019061085291906139e6565b611740565b60405161086491906139c4565b60405180910390f35b34801561087957600080fd5b50610882611858565b60405161088f91906130d6565b60405180910390f35b3480156108a457600080fd5b506108bf60048036038101906108ba9190613a65565b61185f565b005b3480156108cd57600080fd5b506108d661196a565b005b6108f260048036038101906108ed91906138d9565b611ae2565b005b61090e60048036038101906109099190613aa5565b611ae5565b005b61092a60048036038101906109259190613b86565b611af1565b005b610934611b43565b005b34801561094257600080fd5b5061095d60048036038101906109589190612fc8565b611b45565b60405161096a9190613c5e565b60405180910390f35b34801561097f57600080fd5b5061099a60048036038101906109959190612fc8565b611b91565b6040516109a79190612f70565b60405180910390f35b3480156109bc57600080fd5b506109c5611c32565b6040516109d291906130d6565b60405180910390f35b3480156109e757600080fd5b50610a0260048036038101906109fd91906134b6565b611c56565b005b348015610a1057600080fd5b50610a19611c77565b604051610a2691906130d6565b60405180910390f35b348015610a3b57600080fd5b50610a566004803603810190610a519190613c79565b611c9b565b604051610a639190612ec5565b60405180910390f35b60006301ffc9a760e01b827bffffffffffffffffffffffffffffffffffffffffffffffffffffffff19161480610ac757506380ac58cd60e01b827bffffffffffffffffffffffffffffffffffffffffffffffffffffffff1916145b80610af75750635b5e139f60e01b827bffffffffffffffffffffffffffffffffffffffffffffffffffffffff1916145b9050919050565b606060028054610b0d90613ce8565b80601f0160208091040260200160405190810160405280929190818152602001828054610b3990613ce8565b8015610b865780601f10610b5b57610100808354040283529160200191610b86565b820191906000526020600020905b815481529060010190602001808311610b6957829003601f168201915b5050505050905090565b6000610b9b82611f98565b610bb057610baf63cf4700e460e01b611ff7565b5b6006600083815260200190815260200160002060000160009054906101000a900473ffffffffffffffffffffffffffffffffffffffff169050919050565b610bfa82826001612001565b5050565b7f8e6595ef9afb2a8f70320f393f567bb7a0e6c4ed483caee30f90cc5fcd6659b481565b50565b6000610c2f612130565b6001546000540303905090565b6000610c4782612135565b905073ffffffffffffffffffffffffffffffffffffffff8473ffffffffffffffffffffffffffffffffffffffff161693508373ffffffffffffffffffffffffffffffffffffffff168173ffffffffffffffffffffffffffffffffffffffff1614610cbc57610cbb63a114810060e01b611ff7565b5b600080610cc8846121eb565b91509150610cde8187610cd9612212565b61221a565b610d0957610cf386610cee612212565b611c9b565b610d0857610d076359c896be60e01b611ff7565b5b5b610d16868686600161225e565b8015610d2157600082555b600560008773ffffffffffffffffffffffffffffffffffffffff1673ffffffffffffffffffffffffffffffffffffffff168152602001908152602001600020600081546001900391905081905550600560008673ffffffffffffffffffffffffffffffffffffffff1673ffffffffffffffffffffffffffffffffffffffff1681526020019081526020016000206000815460010191905081905550610def85610dcb888887612264565b7c02000000000000000000000000000000000000000000000000000000001761228c565b600460008681526020019081526020016000208190555060007c0200000000000000000000000000000000000000000000000000000000841603610e755760006001850190506000600460008381526020019081526020016000205403610e73576000548114610e72578360046000838152602001908152602001600020819055505b5b505b600073ffffffffffffffffffffffffffffffffffffffff8673ffffffffffffffffffffffffffffffffffffffff161690508481887fddf252ad1be2c89b69c2b068fc378daa952ba7f163c4a11628f55a4df523b3ef600080a460008103610ee757610ee663ea553b3460e01b611ff7565b5b610ef487878760016122b7565b50505050505050565b600060086000838152602001908152602001600020600101549050919050565b610f256122bd565b50565b60007fb19546dff01e856fb3f010c267a7b1c60363cf8a4664e21cc89c26224620214e610f54816122bf565b610f5c612d7a565b60008160a001906005811115610f7557610f74613424565b5b90816005811115610f8957610f88613424565b5b8152505083816020018190525084816000018190525080600a6000600960009054906101000a900460ff1660ff1661ffff1681526020019081526020016000206000820151816000019081610fde9190613ec5565b506020820151816001019081610ff49190613ec5565b506040820151816002015560608201518160030190816110149190613ec5565b506080820151816004015560a08201518160050160006101000a81548160ff0219169083600581111561104a57611049613424565b5b021790555090505061105a611544565b9250505092915050565b60007f8e6595ef9afb2a8f70320f393f567bb7a0e6c4ed483caee30f90cc5fcd6659b4611090816122bf565b6000600a6000600960009054906101000a900460ff1660ff1661ffff1681526020019081526020016000209050838160030190816110ce9190613ec5565b50600160058111156110e3576110e2613424565b5b8160050160009054906101000a900460ff16600581111561110757611106613424565b5b0361114757600260058111156111205761111f613424565b5b8160050160009054906101000a900460ff16600581111561114457611143613424565b5b50505b61114f611544565b92505050919050565b61116182610efd565b61116a816122bf565b61117483836122d3565b505050565b7f8e6595ef9afb2a8f70320f393f567bb7a0e6c4ed483caee30f90cc5fcd6659b46111a3816122bf565b6000600b600085815260200190815260200160002060010180546111c690613ce8565b9050146111f25781600b600085815260200190815260200160002060010190816111f09190613ec5565b505b505050565b6111ff6123b4565b73ffffffffffffffffffffffffffffffffffffffff168173ffffffffffffffffffffffffffffffffffffffff161461126c576040517f08c379a000000000000000000000000000000000000000000000000000000000815260040161126390614009565b60405180910390fd5b61127682826123bc565b5050565b60007f9f2df0fed2c77648de5860a4cc508cd0818c85b8b8a1ab4ceeef8d981c8956a66112a6816122bf565b6000600a6000600960009054906101000a900460ff1660ff1661ffff1681526020019081526020016000209050848160020181905550838160040181905550600060058111156112f9576112f8613424565b5b8160050160009054906101000a900460ff16600581111561131d5761131c613424565b5b0361135d576001600581111561133657611335613424565b5b8160050160009054906101000a900460ff16600581111561135a57611359613424565b5b50505b611365611544565b9250505092915050565b50565b61138d83838360405180602001604052806000815250611af1565b505050565b61139d81600161249e565b50565b565b6113aa6122bd565b50565b5050565b7f9f2df0fed2c77648de5860a4cc508cd0818c85b8b8a1ab4ceeef8d981c8956a66113db816122bf565b6113e584836126cf565b6113ef8385612744565b50505050565b606080600084849050905060405191508082528060051b90508060208301016040525b6000811461144a576000602082039150818601359050600061143982611b45565b905080836020860101525050611418565b819250505092915050565b600061146082612135565b9050919050565b60008073ffffffffffffffffffffffffffffffffffffffff168273ffffffffffffffffffffffffffffffffffffffff16036114ad576114ac638f4eb60460e01b611ff7565b5b67ffffffffffffffff600560008473ffffffffffffffffffffffffffffffffffffffff1673ffffffffffffffffffffffffffffffffffffffff16815260200190815260200160002054169050919050565b50565b7f9f2df0fed2c77648de5860a4cc508cd0818c85b8b8a1ab4ceeef8d981c8956a661152b816122bf565b61153583836126cf565b61153f3384612744565b505050565b60007fb19546dff01e856fb3f010c267a7b1c60363cf8a4664e21cc89c26224620214e611570816122bf565b600a6000600960009054906101000a900460ff1660ff1661ffff16815260200190815260200160002060050160009054906101000a900460ff1691505090565b606060006115bd83611467565b9050606060405190506001820160051b810160405281815260008060006115e2612130565b90505b8482146116345760006115f782612762565b905060408101516116285780511561160e57805193505b87841860601b61162757600183019250818360051b8601525b5b600182019150506115e5565b5082945050505050919050565b60006008600084815260200190815260200160002060000160008373ffffffffffffffffffffffffffffffffffffffff1673ffffffffffffffffffffffffffffffffffffffff16815260200190815260200160002060009054906101000a900460ff16905092915050565b565b6060600380546116bd90613ce8565b80601f01602080910402602001604051908101604052809291908181526020018280546116e990613ce8565b80156117365780601f1061170b57610100808354040283529160200191611736565b820191906000526020600020905b81548152906001019060200180831161171957829003601f168201915b5050505050905090565b606081831061175a576117596332c1995a60e01b611ff7565b5b611762612130565b83101561177457611771612130565b92505b600061177e61278d565b905080831061178b578092505b6060600061179887611467565b90506000858710905080820291506000821461184a5781878703116117bd5786860391505b60405192506001820160051b830160405260006117d988611b45565b9050600081604001516117ee57816000015190505b60005b6117fa8a612762565b9250604083015161182b5782511561181157825191505b8a821860601b61182a57600181019050898160051b8701525b5b60018a019950888a148061183e57508481145b156117f1578086525050505b829450505050509392505050565b6000801b81565b806007600061186c612212565b73ffffffffffffffffffffffffffffffffffffffff1673ffffffffffffffffffffffffffffffffffffffff16815260200190815260200160002060008473ffffffffffffffffffffffffffffffffffffffff1673ffffffffffffffffffffffffffffffffffffffff16815260200190815260200160002060006101000a81548160ff0219169083151502179055508173ffffffffffffffffffffffffffffffffffffffff16611919612212565b73ffffffffffffffffffffffffffffffffffffffff167f17307eab39ab6107e8899845ad3d59bd9653f200f220920489ca2b5937696c318360405161195e9190612ec5565b60405180910390a35050565b7f9f2df0fed2c77648de5860a4cc508cd0818c85b8b8a1ab4ceeef8d981c8956a6611994816122bf565b6000600a6000600960009054906101000a900460ff1660ff1661ffff1681526020019081526020016000209050600160058111156119d5576119d4613424565b5b8160050160009054906101000a900460ff1660058111156119f9576119f8613424565b5b14611a39576040517f08c379a0000000000000000000000000000000000000000000000000000000008152600401611a309061409b565b60405180910390fd5b60026005811115611a4d57611a4c613424565b5b8160050160009054906101000a900460ff166005811115611a7157611a70613424565b5b14611ab1576040517f08c379a0000000000000000000000000000000000000000000000000000000008152600401611aa89061412d565b60405180910390fd5b60038160050160006101000a81548160ff02191690836005811115611ad957611ad8613424565b5b02179055505050565b50565b611aed6122bd565b5050565b611afc848484610c3c565b60008373ffffffffffffffffffffffffffffffffffffffff163b14611b3d57611b2784848484612796565b611b3c57611b3b63d1a57ed660e01b611ff7565b5b5b50505050565b565b611b4d612dc2565b611b55612130565b8210611b8c57611b6361278d565b821015611b8b57611b7382612762565b90508060400151611b8a57611b87826128c5565b90505b5b5b919050565b6060611b9c82611f98565b611bd2576040517fa14c4b5000000000000000000000000000000000000000000000000000000000815260040160405180910390fd5b6000611bdd836128e5565b5103611bf85760405180602001604052806000815250611c2b565b611c01826128e5565b611c0a836129ee565b604051602001611c1b929190614221565b6040516020818303038152906040525b9050919050565b7f9f2df0fed2c77648de5860a4cc508cd0818c85b8b8a1ab4ceeef8d981c8956a681565b611c5f82610efd565b611c68816122bf565b611c7283836123bc565b505050565b7fb19546dff01e856fb3f010c267a7b1c60363cf8a4664e21cc89c26224620214e81565b6000600760008473ffffffffffffffffffffffffffffffffffffffff1673ffffffffffffffffffffffffffffffffffffffff16815260200190815260200160002060008373ffffffffffffffffffffffffffffffffffffffff1673ffffffffffffffffffffffffffffffffffffffff16815260200190815260200160002060009054906101000a900460ff16905092915050565b6060611d558273ffffffffffffffffffffffffffffffffffffffff16601460ff16611d5c565b9050919050565b606060006002836002611d6f919061428a565b611d7991906142cc565b67ffffffffffffffff811115611d9257611d91613238565b5b6040519080825280601f01601f191660200182016040528015611dc45781602001600182028036833780820191505090505b5090507f300000000000000000000000000000000000000000000000000000000000000081600081518110611dfc57611dfb614300565b5b60200101907effffffffffffffffffffffffffffffffffffffffffffffffffffffffffffff1916908160001a9053507f780000000000000000000000000000000000000000000000000000000000000081600181518110611e6057611e5f614300565b5b60200101907effffffffffffffffffffffffffffffffffffffffffffffffffffffffffffff1916908160001a90535060006001846002611ea0919061428a565b611eaa91906142cc565b90505b6001811115611f4a577f3031323334353637383961626364656600000000000000000000000000000000600f861660108110611eec57611eeb614300565b5b1a60f81b828281518110611f0357611f02614300565b5b60200101907effffffffffffffffffffffffffffffffffffffffffffffffffffffffffffff1916908160001a905350600485901c945080611f439061432f565b9050611ead565b5060008414611f8e576040517f08c379a0000000000000000000000000000000000000000000000000000000008152600401611f85906143a4565b60405180910390fd5b8091505092915050565b600081611fa3612130565b11158015611fb2575060005482105b8015611ff0575060007c0100000000000000000000000000000000000000000000000000000000600460008581526020019081526020016000205416145b9050919050565b8060005260046000fd5b600061200c83611455565b905081801561204e57508073ffffffffffffffffffffffffffffffffffffffff16612035612212565b73ffffffffffffffffffffffffffffffffffffffff1614155b1561207a576120648161205f612212565b611c9b565b6120795761207863cfb3b94260e01b611ff7565b5b5b836006600085815260200190815260200160002060000160006101000a81548173ffffffffffffffffffffffffffffffffffffffff021916908373ffffffffffffffffffffffffffffffffffffffff160217905550828473ffffffffffffffffffffffffffffffffffffffff168273ffffffffffffffffffffffffffffffffffffffff167f8c5be1e5ebec7d5bd14f71427d1e84f3dd0314c0f7b2291e5b200ac8c7c3b92560405160405180910390a450505050565b600090565b600081612140612130565b116121d5576004600083815260200190815260200160002054905060007c01000000000000000000000000000000000000000000000000000000008216036121d457600081036121cf5760005482106121a4576121a363df2d9b4260e01b611ff7565b5b5b6004600083600190039350838152602001908152602001600020549050600081036121e6576121a5565b6121e6565b5b6121e563df2d9b4260e01b611ff7565b5b919050565b60008060006006600085815260200190815260200160002090508092508254915050915091565b600033905090565b600073ffffffffffffffffffffffffffffffffffffffff8316925073ffffffffffffffffffffffffffffffffffffffff821691508382148383141790509392505050565b50505050565b60008060e883901c905060e861227b868684612a3e565b62ffffff16901b9150509392505050565b600073ffffffffffffffffffffffffffffffffffffffff83169250814260a01b178317905092915050565b50505050565b565b6122d0816122cb6123b4565b612a47565b50565b6122dd8282611641565b6123b05760016008600084815260200190815260200160002060000160008373ffffffffffffffffffffffffffffffffffffffff1673ffffffffffffffffffffffffffffffffffffffff16815260200190815260200160002060006101000a81548160ff0219169083151502179055506123556123b4565b73ffffffffffffffffffffffffffffffffffffffff168173ffffffffffffffffffffffffffffffffffffffff16837f2f8788117e7eff1d82e926ec794901d17c78024a50270940304540a733656f0d60405160405180910390a45b5050565b600033905090565b6123c68282611641565b1561249a5760006008600084815260200190815260200160002060000160008373ffffffffffffffffffffffffffffffffffffffff1673ffffffffffffffffffffffffffffffffffffffff16815260200190815260200160002060006101000a81548160ff02191690831515021790555061243f6123b4565b73ffffffffffffffffffffffffffffffffffffffff168173ffffffffffffffffffffffffffffffffffffffff16837ff6391f5c32d9c69d2a47ea670b442974b53935d1edc7fd64eb21e047a839171b60405160405180910390a45b5050565b60006124a983612135565b905060008190506000806124bc866121eb565b915091508415612504576124d881846124d3612212565b61221a565b612503576124ed836124e8612212565b611c9b565b612502576125016359c896be60e01b611ff7565b5b5b5b61251283600088600161225e565b801561251d57600082555b600160806001901b03600560008573ffffffffffffffffffffffffffffffffffffffff1673ffffffffffffffffffffffffffffffffffffffff168152602001908152602001600020600082825401925050819055506125c58361258285600088612264565b7c02000000000000000000000000000000000000000000000000000000007c0100000000000000000000000000000000000000000000000000000000171761228c565b600460008881526020019081526020016000208190555060007c020000000000000000000000000000000000000000000000000000000085160361264b5760006001870190506000600460008381526020019081526020016000205403612649576000548114612648578460046000838152602001908152602001600020819055505b5b505b85600073ffffffffffffffffffffffffffffffffffffffff168473ffffffffffffffffffffffffffffffffffffffff167fddf252ad1be2c89b69c2b068fc378daa952ba7f163c4a11628f55a4df523b3ef60405160405180910390a46126b58360008860016122b7565b600160008154809291906001019190505550505050505050565b600082116126dc57600080fd5b6040518060400160405280836126f061278d565b6126fa91906142cc565b815260200182815250600b600061270f61278d565b815260200190815260200160002060008201518160000155602082015181600101908161273c9190613ec5565b509050505050565b61275e828260405180602001604052806000815250612acc565b5050565b61276a612dc2565b6127866004600084815260200190815260200160002054612b51565b9050919050565b60008054905090565b60008373ffffffffffffffffffffffffffffffffffffffff1663150b7a026127bc612212565b8786866040518563ffffffff1660e01b81526004016127de9493929190614419565b6020604051808303816000875af192505050801561281a57506040513d601f19601f82011682018060405250810190612817919061447a565b60015b612872573d806000811461284a576040519150601f19603f3d011682016040523d82523d6000602084013e61284f565b606091505b50600081510361286a5761286963d1a57ed660e01b611ff7565b5b805181602001fd5b63150b7a0260e01b7bffffffffffffffffffffffffffffffffffffffffffffffffffffffff1916817bffffffffffffffffffffffffffffffffffffffffffffffffffffffff191614915050949350505050565b6128cd612dc2565b6128de6128d983612135565b612b51565b9050919050565b606060005b6128f261278d565b8110156129e757828110801561291d5750600b60008281526020019081526020016000206000015483105b156129c957600b6000828152602001908152602001600020600101805461294390613ce8565b80601f016020809104026020016040519081016040528092919081815260200182805461296f90613ce8565b80156129bc5780601f10612991576101008083540402835291602001916129bc565b820191906000526020600020905b81548152906001019060200180831161299f57829003601f168201915b50505050509150506129e9565b600b60008281526020019081526020016000206000015490506128ea565b505b919050565b606060a060405101806040526020810391506000825281835b600115612a2957600184039350600a81066030018453600a8104905080612a07575b50828103602084039350808452505050919050565b60009392505050565b612a518282611641565b612ac857612a5e81611d2f565b612a6c8360001c6020611d5c565b604051602001612a7d92919061453f565b6040516020818303038152906040526040517f08c379a0000000000000000000000000000000000000000000000000000000008152600401612abf9190612f70565b60405180910390fd5b5050565b612ad68383612c07565b60008373ffffffffffffffffffffffffffffffffffffffff163b14612b4c57600080549050600083820390505b612b166000868380600101945086612796565b612b2b57612b2a63d1a57ed660e01b611ff7565b5b818110612b03578160005414612b4957612b48600060e01b611ff7565b5b50505b505050565b612b59612dc2565b81816000019073ffffffffffffffffffffffffffffffffffffffff16908173ffffffffffffffffffffffffffffffffffffffff168152505060a082901c816020019067ffffffffffffffff16908167ffffffffffffffff168152505060007c01000000000000000000000000000000000000000000000000000000008316141581604001901515908115158152505060e882901c816060019062ffffff16908162ffffff1681525050919050565b60008054905060008203612c2657612c2563b562e8dd60e01b611ff7565b5b612c33600084838561225e565b612c5383612c446000866000612264565b612c4d85612d6a565b1761228c565b6004600083815260200190815260200160002081905550600160406001901b178202600560008573ffffffffffffffffffffffffffffffffffffffff1673ffffffffffffffffffffffffffffffffffffffff16815260200190815260200160002060008282540192505081905550600073ffffffffffffffffffffffffffffffffffffffff8473ffffffffffffffffffffffffffffffffffffffff1616905060008103612d0b57612d0a632e07630060e01b611ff7565b5b6000838301905060008390505b808360007fddf252ad1be2c89b69c2b068fc378daa952ba7f163c4a11628f55a4df523b3ef600080a4818160010191508103612d185781600081905550505050612d6560008483856122b7565b505050565b60006001821460e11b9050919050565b6040518060c00160405280606081526020016060815260200160008152602001606081526020016000815260200160006005811115612dbc57612dbb613424565b5b81525090565b6040518060800160405280600073ffffffffffffffffffffffffffffffffffffffff168152602001600067ffffffffffffffff168152602001600015158152602001600062ffffff1681525090565b6000604051905090565b600080fd5b600080fd5b60007fffffffff0000000000000000000000000000000000000000000000000000000082169050919050565b612e5a81612e25565b8114612e6557600080fd5b50565b600081359050612e7781612e51565b92915050565b600060208284031215612e9357612e92612e1b565b5b6000612ea184828501612e68565b91505092915050565b60008115159050919050565b612ebf81612eaa565b82525050565b6000602082019050612eda6000830184612eb6565b92915050565b600081519050919050565b600082825260208201905092915050565b60005b83811015612f1a578082015181840152602081019050612eff565b60008484015250505050565b6000601f19601f8301169050919050565b6000612f4282612ee0565b612f4c8185612eeb565b9350612f5c818560208601612efc565b612f6581612f26565b840191505092915050565b60006020820190508181036000830152612f8a8184612f37565b905092915050565b6000819050919050565b612fa581612f92565b8114612fb057600080fd5b50565b600081359050612fc281612f9c565b92915050565b600060208284031215612fde57612fdd612e1b565b5b6000612fec84828501612fb3565b91505092915050565b600073ffffffffffffffffffffffffffffffffffffffff82169050919050565b600061302082612ff5565b9050919050565b61303081613015565b82525050565b600060208201905061304b6000830184613027565b92915050565b61305a81613015565b811461306557600080fd5b50565b60008135905061307781613051565b92915050565b6000806040838503121561309457613093612e1b565b5b60006130a285828601613068565b92505060206130b385828601612fb3565b9150509250929050565b6000819050919050565b6130d0816130bd565b82525050565b60006020820190506130eb60008301846130c7565b92915050565b600061ffff82169050919050565b613108816130f1565b811461311357600080fd5b50565b600081359050613125816130ff565b92915050565b60006020828403121561314157613140612e1b565b5b600061314f84828501613116565b91505092915050565b61316181612f92565b82525050565b600060208201905061317c6000830184613158565b92915050565b60008060006060848603121561319b5761319a612e1b565b5b60006131a986828701613068565b93505060206131ba86828701613068565b92505060406131cb86828701612fb3565b9150509250925092565b6131de816130bd565b81146131e957600080fd5b50565b6000813590506131fb816131d5565b92915050565b60006020828403121561321757613216612e1b565b5b6000613225848285016131ec565b91505092915050565b600080fd5b600080fd5b7f4e487b7100000000000000000000000000000000000000000000000000000000600052604160045260246000fd5b61327082612f26565b810181811067ffffffffffffffff8211171561328f5761328e613238565b5b80604052505050565b60006132a2612e11565b90506132ae8282613267565b919050565b600067ffffffffffffffff8211156132ce576132cd613238565b5b6132d782612f26565b9050602081019050919050565b82818337600083830152505050565b6000613306613301846132b3565b613298565b90508281526020810184848401111561332257613321613233565b5b61332d8482856132e4565b509392505050565b600082601f83011261334a5761334961322e565b5b813561335a8482602086016132f3565b91505092915050565b60006020828403121561337957613378612e1b565b5b600082013567ffffffffffffffff81111561339757613396612e20565b5b6133a384828501613335565b91505092915050565b600080604083850312156133c3576133c2612e1b565b5b600083013567ffffffffffffffff8111156133e1576133e0612e20565b5b6133ed85828601613335565b925050602083013567ffffffffffffffff81111561340e5761340d612e20565b5b61341a85828601613335565b9150509250929050565b7f4e487b7100000000000000000000000000000000000000000000000000000000600052602160045260246000fd5b6006811061346457613463613424565b5b50565b600081905061347582613453565b919050565b600061348582613467565b9050919050565b6134958161347a565b82525050565b60006020820190506134b0600083018461348c565b92915050565b600080604083850312156134cd576134cc612e1b565b5b60006134db858286016131ec565b92505060206134ec85828601613068565b9150509250929050565b6000806040838503121561350d5761350c612e1b565b5b600061351b85828601612fb3565b925050602083013567ffffffffffffffff81111561353c5761353b612e20565b5b61354885828601613335565b9150509250929050565b6000806040838503121561356957613568612e1b565b5b600061357785828601612fb3565b925050602061358885828601612fb3565b9150509250929050565b600060ff82169050919050565b6135a881613592565b81146135b357600080fd5b50565b6000813590506135c58161359f565b92915050565b6000602082840312156135e1576135e0612e1b565b5b60006135ef848285016135b6565b91505092915050565b6000806040838503121561360f5761360e612e1b565b5b600061361d85828601613068565b925050602061362e85828601613116565b9150509250929050565b60008060006060848603121561365157613650612e1b565b5b600061365f86828701612fb3565b935050602061367086828701613068565b925050604084013567ffffffffffffffff81111561369157613690612e20565b5b61369d86828701613335565b9150509250925092565b600080fd5b600080fd5b60008083601f8401126136c7576136c661322e565b5b8235905067ffffffffffffffff8111156136e4576136e36136a7565b5b602083019150836020820283011115613700576136ff6136ac565b5b9250929050565b6000806020838503121561371e5761371d612e1b565b5b600083013567ffffffffffffffff81111561373c5761373b612e20565b5b613748858286016136b1565b92509250509250929050565b600081519050919050565b600082825260208201905092915050565b6000819050602082019050919050565b61378981613015565b82525050565b600067ffffffffffffffff82169050919050565b6137ac8161378f565b82525050565b6137bb81612eaa565b82525050565b600062ffffff82169050919050565b6137d9816137c1565b82525050565b6080820160008201516137f56000850182613780565b50602082015161380860208501826137a3565b50604082015161381b60408501826137b2565b50606082015161382e60608501826137d0565b50505050565b600061384083836137df565b60808301905092915050565b6000602082019050919050565b600061386482613754565b61386e818561375f565b935061387983613770565b8060005b838110156138aa5781516138918882613834565b975061389c8361384c565b92505060018101905061387d565b5085935050505092915050565b600060208201905081810360008301526138d18184613859565b905092915050565b6000602082840312156138ef576138ee612e1b565b5b60006138fd84828501613068565b91505092915050565b600081519050919050565b600082825260208201905092915050565b6000819050602082019050919050565b61393b81612f92565b82525050565b600061394d8383613932565b60208301905092915050565b6000602082019050919050565b600061397182613906565b61397b8185613911565b935061398683613922565b8060005b838110156139b757815161399e8882613941565b97506139a983613959565b92505060018101905061398a565b5085935050505092915050565b600060208201905081810360008301526139de8184613966565b905092915050565b6000806000606084860312156139ff576139fe612e1b565b5b6000613a0d86828701613068565b9350506020613a1e86828701612fb3565b9250506040613a2f86828701612fb3565b9150509250925092565b613a4281612eaa565b8114613a4d57600080fd5b50565b600081359050613a5f81613a39565b92915050565b60008060408385031215613a7c57613a7b612e1b565b5b6000613a8a85828601613068565b9250506020613a9b85828601613a50565b9150509250929050565b60008060408385031215613abc57613abb612e1b565b5b6000613aca858286016135b6565b9250506020613adb85828601613116565b9150509250929050565b600067ffffffffffffffff821115613b0057613aff613238565b5b613b0982612f26565b9050602081019050919050565b6000613b29613b2484613ae5565b613298565b905082815260208101848484011115613b4557613b44613233565b5b613b508482856132e4565b509392505050565b600082601f830112613b6d57613b6c61322e565b5b8135613b7d848260208601613b16565b91505092915050565b60008060008060808587031215613ba057613b9f612e1b565b5b6000613bae87828801613068565b9450506020613bbf87828801613068565b9350506040613bd087828801612fb3565b925050606085013567ffffffffffffffff811115613bf157613bf0612e20565b5b613bfd87828801613b58565b91505092959194509250565b608082016000820151613c1f6000850182613780565b506020820151613c3260208501826137a3565b506040820151613c4560408501826137b2565b506060820151613c5860608501826137d0565b50505050565b6000608082019050613c736000830184613c09565b92915050565b60008060408385031215613c9057613c8f612e1b565b5b6000613c9e85828601613068565b9250506020613caf85828601613068565b9150509250929050565b7f4e487b7100000000000000000000000000000000000000000000000000000000600052602260045260246000fd5b60006002820490506001821680613d0057607f821691505b602082108103613d1357613d12613cb9565b5b50919050565b60008190508160005260206000209050919050565b60006020601f8301049050919050565b600082821b905092915050565b600060088302613d7b7fffffffffffffffffffffffffffffffffffffffffffffffffffffffffffffffff82613d3e565b613d858683613d3e565b95508019841693508086168417925050509392505050565b6000819050919050565b6000613dc2613dbd613db884612f92565b613d9d565b612f92565b9050919050565b6000819050919050565b613ddc83613da7565b613df0613de882613dc9565b848454613d4b565b825550505050565b600090565b613e05613df8565b613e10818484613dd3565b505050565b5b81811015613e3457613e29600082613dfd565b600181019050613e16565b5050565b601f821115613e7957613e4a81613d19565b613e5384613d2e565b81016020851015613e62578190505b613e76613e6e85613d2e565b830182613e15565b50505b505050565b600082821c905092915050565b6000613e9c60001984600802613e7e565b1980831691505092915050565b6000613eb58383613e8b565b9150826002028217905092915050565b613ece82612ee0565b67ffffffffffffffff811115613ee757613ee6613238565b5b613ef18254613ce8565b613efc828285613e38565b600060209050601f831160018114613f2f5760008415613f1d578287015190505b613f278582613ea9565b865550613f8f565b601f198416613f3d86613d19565b60005b82811015613f6557848901518255600182019150602085019450602081019050613f40565b86831015613f825784890151613f7e601f891682613e8b565b8355505b6001600288020188555050505b505050505050565b7f416363657373436f6e74726f6c3a2063616e206f6e6c792072656e6f756e636560008201527f20726f6c657320666f722073656c660000000000000000000000000000000000602082015250565b6000613ff3602f83612eeb565b9150613ffe82613f97565b604082019050919050565b6000602082019050818103600083015261402281613fe6565b9050919050565b7f5a6f646961636853616c653a204e6578742053616c6520436f6e646974696f6e60008201527f73206e6f74207365740000000000000000000000000000000000000000000000602082015250565b6000614085602983612eeb565b915061409082614029565b604082019050919050565b600060208201905081810360008301526140b481614078565b9050919050565b7f5a6f646961636853616c653a204e6578742053616c6520555249206e6f74207360008201527f6574000000000000000000000000000000000000000000000000000000000000602082015250565b6000614117602283612eeb565b9150614122826140bb565b604082019050919050565b600060208201905081810360008301526141468161410a565b9050919050565b600081905092915050565b600061416382612ee0565b61416d818561414d565b935061417d818560208601612efc565b80840191505092915050565b7f2f00000000000000000000000000000000000000000000000000000000000000600082015250565b60006141bf60018361414d565b91506141ca82614189565b600182019050919050565b7f2e6a736f6e000000000000000000000000000000000000000000000000000000600082015250565b600061420b60058361414d565b9150614216826141d5565b600582019050919050565b600061422d8285614158565b9150614238826141b2565b91506142448284614158565b915061424f826141fe565b91508190509392505050565b7f4e487b7100000000000000000000000000000000000000000000000000000000600052601160045260246000fd5b600061429582612f92565b91506142a083612f92565b92508282026142ae81612f92565b915082820484148315176142c5576142c461425b565b5b5092915050565b60006142d782612f92565b91506142e283612f92565b92508282019050808211156142fa576142f961425b565b5b92915050565b7f4e487b7100000000000000000000000000000000000000000000000000000000600052603260045260246000fd5b600061433a82612f92565b91506000820361434d5761434c61425b565b5b600182039050919050565b7f537472696e67733a20686578206c656e67746820696e73756666696369656e74600082015250565b600061438e602083612eeb565b915061439982614358565b602082019050919050565b600060208201905081810360008301526143bd81614381565b9050919050565b600081519050919050565b600082825260208201905092915050565b60006143eb826143c4565b6143f581856143cf565b9350614405818560208601612efc565b61440e81612f26565b840191505092915050565b600060808201905061442e6000830187613027565b61443b6020830186613027565b6144486040830185613158565b818103606083015261445a81846143e0565b905095945050505050565b60008151905061447481612e51565b92915050565b6000602082840312156144905761448f612e1b565b5b600061449e84828501614465565b91505092915050565b7f416363657373436f6e74726f6c3a206163636f756e7420000000000000000000600082015250565b60006144dd60178361414d565b91506144e8826144a7565b601782019050919050565b7f206973206d697373696e6720726f6c6520000000000000000000000000000000600082015250565b600061452960118361414d565b9150614534826144f3565b601182019050919050565b600061454a826144d0565b91506145568285614158565b91506145618261451c565b915061456d8284614158565b9150819050939250505056fea2646970667358221220df90088d0394cdcb43d561ed35e748332616f6065a518e799e19706aeaede6f164736f6c6343000811003368747470733a2f2f6769746875622e636f6d2f5a6f64696163682d50726573732f6e66742d67616c6c657279",
			"opcodes": "PUSH1 0x80 PUSH1 0x40 MSTORE PUSH1 0x0 PUSH1 0x9 PUSH1 0x0 PUSH2 0x100 EXP DUP2 SLOAD DUP2 PUSH1 0xFF MUL NOT AND SWAP1 DUP4 PUSH1 0xFF AND MUL OR SWAP1 SSTORE POP PUSH1 0x0 PUSH1 0x9 PUSH1 0x1 PUSH2 0x100 EXP DUP2 SLOAD DUP2 PUSH1 0xFF MUL NOT AND SWAP1 DUP4 PUSH1 0xFF AND MUL OR SWAP1 SSTORE POP CALLVALUE DUP1 ISZERO PUSH3 0x49 JUMPI PUSH1 0x0 DUP1 REVERT JUMPDEST POP PUSH1 0x40 MLOAD DUP1 PUSH1 0x40 ADD PUSH1 0x40 MSTORE DUP1 PUSH1 0xE DUP2 MSTORE PUSH1 0x20 ADD PUSH32 0xC6B56F6469616368205072657373000000000000000000000000000000000000 DUP2 MSTORE POP PUSH1 0x40 MLOAD DUP1 PUSH1 0x40 ADD PUSH1 0x40 MSTORE DUP1 PUSH1 0x2 DUP2 MSTORE PUSH1 0x20 ADD PUSH32 0xC6B5000000000000000000000000000000000000000000000000000000000000 DUP2 MSTORE POP DUP2 PUSH1 0x2 SWAP1 DUP2 PUSH3 0xC7 SWAP2 SWAP1 PUSH3 0xDED JUMP JUMPDEST POP DUP1 PUSH1 0x3 SWAP1 DUP2 PUSH3 0xD9 SWAP2 SWAP1 PUSH3 0xDED JUMP JUMPDEST POP PUSH3 0xEA PUSH3 0x268 PUSH1 0x20 SHL PUSH1 0x20 SHR JUMP JUMPDEST PUSH1 0x0 DUP2 SWAP1 SSTORE POP POP POP PUSH3 0x124 PUSH32 0x9F2DF0FED2C77648DE5860A4CC508CD0818C85B8B8A1AB4CEEEF8D981C8956A6 CALLER PUSH3 0x26D PUSH1 0x20 SHL PUSH1 0x20 SHR JUMP JUMPDEST PUSH3 0x156 PUSH32 0x8E6595EF9AFB2A8F70320F393F567BB7A0E6C4ED483CAEE30F90CC5FCD6659B4 CALLER PUSH3 0x26D PUSH1 0x20 SHL PUSH1 0x20 SHR JUMP JUMPDEST PUSH3 0x16B PUSH1 0x0 DUP1 SHL CALLER PUSH3 0x26D PUSH1 0x20 SHL PUSH1 0x20 SHR JUMP JUMPDEST PUSH3 0x19D PUSH32 0xB19546DFF01E856FB3F010C267A7B1C60363CF8A4664E21CC89C26224620214E CALLER PUSH3 0x26D PUSH1 0x20 SHL PUSH1 0x20 SHR JUMP JUMPDEST PUSH3 0x219 PUSH1 0x40 MLOAD DUP1 PUSH1 0x40 ADD PUSH1 0x40 MSTORE DUP1 PUSH1 0x5 DUP2 MSTORE PUSH1 0x20 ADD PUSH32 0x4172696573000000000000000000000000000000000000000000000000000000 DUP2 MSTORE POP PUSH1 0x40 MLOAD DUP1 PUSH1 0x40 ADD PUSH1 0x40 MSTORE DUP1 PUSH1 0x1F DUP2 MSTORE PUSH1 0x20 ADD PUSH32 0x4D617263682032312C2032303232202D20417072696C2031392C203230323200 DUP2 MSTORE POP PUSH3 0x35F PUSH1 0x20 SHL PUSH1 0x20 SHR JUMP JUMPDEST POP PUSH3 0x236 PUSH4 0x605A80FF PUSH6 0x48C27395000 PUSH3 0x4BC PUSH1 0x20 SHL PUSH1 0x20 SHR JUMP JUMPDEST POP PUSH3 0x261 PUSH1 0x40 MLOAD DUP1 PUSH1 0x60 ADD PUSH1 0x40 MSTORE DUP1 PUSH1 0x2C DUP2 MSTORE PUSH1 0x20 ADD PUSH3 0x581D PUSH1 0x2C SWAP2 CODECOPY PUSH3 0x5CE PUSH1 0x20 SHL PUSH1 0x20 SHR JUMP JUMPDEST POP PUSH3 0x125E JUMP JUMPDEST PUSH1 0x0 SWAP1 JUMP JUMPDEST PUSH3 0x27F DUP3 DUP3 PUSH3 0x6E1 PUSH1 0x20 SHL PUSH1 0x20 SHR JUMP JUMPDEST PUSH3 0x35B JUMPI PUSH1 0x1 PUSH1 0x8 PUSH1 0x0 DUP5 DUP2 MSTORE PUSH1 0x20 ADD SWAP1 DUP2 MSTORE PUSH1 0x20 ADD PUSH1 0x0 KECCAK256 PUSH1 0x0 ADD PUSH1 0x0 DUP4 PUSH20 0xFFFFFFFFFFFFFFFFFFFFFFFFFFFFFFFFFFFFFFFF AND PUSH20 0xFFFFFFFFFFFFFFFFFFFFFFFFFFFFFFFFFFFFFFFF AND DUP2 MSTORE PUSH1 0x20 ADD SWAP1 DUP2 MSTORE PUSH1 0x20 ADD PUSH1 0x0 KECCAK256 PUSH1 0x0 PUSH2 0x100 EXP DUP2 SLOAD DUP2 PUSH1 0xFF MUL NOT AND SWAP1 DUP4 ISZERO ISZERO MUL OR SWAP1 SSTORE POP PUSH3 0x300 PUSH3 0x74C PUSH1 0x20 SHL PUSH1 0x20 SHR JUMP JUMPDEST PUSH20 0xFFFFFFFFFFFFFFFFFFFFFFFFFFFFFFFFFFFFFFFF AND DUP2 PUSH20 0xFFFFFFFFFFFFFFFFFFFFFFFFFFFFFFFFFFFFFFFF AND DUP4 PUSH32 0x2F8788117E7EFF1D82E926EC794901D17C78024A50270940304540A733656F0D PUSH1 0x40 MLOAD PUSH1 0x40 MLOAD DUP1 SWAP2 SUB SWAP1 LOG4 JUMPDEST POP POP JUMP JUMPDEST PUSH1 0x0 PUSH32 0xB19546DFF01E856FB3F010C267A7B1C60363CF8A4664E21CC89C26224620214E PUSH3 0x393 DUP2 PUSH3 0x754 PUSH1 0x20 SHL PUSH1 0x20 SHR JUMP JUMPDEST PUSH3 0x39D PUSH3 0xB28 JUMP JUMPDEST PUSH1 0x0 DUP2 PUSH1 0xA0 ADD SWAP1 PUSH1 0x5 DUP2 GT ISZERO PUSH3 0x3B9 JUMPI PUSH3 0x3B8 PUSH3 0xED4 JUMP JUMPDEST JUMPDEST SWAP1 DUP2 PUSH1 0x5 DUP2 GT ISZERO PUSH3 0x3D0 JUMPI PUSH3 0x3CF PUSH3 0xED4 JUMP JUMPDEST JUMPDEST DUP2 MSTORE POP POP DUP4 DUP2 PUSH1 0x20 ADD DUP2 SWAP1 MSTORE POP DUP5 DUP2 PUSH1 0x0 ADD DUP2 SWAP1 MSTORE POP DUP1 PUSH1 0xA PUSH1 0x0 PUSH1 0x9 PUSH1 0x0 SWAP1 SLOAD SWAP1 PUSH2 0x100 EXP SWAP1 DIV PUSH1 0xFF AND PUSH1 0xFF AND PUSH2 0xFFFF AND DUP2 MSTORE PUSH1 0x20 ADD SWAP1 DUP2 MSTORE PUSH1 0x20 ADD PUSH1 0x0 KECCAK256 PUSH1 0x0 DUP3 ADD MLOAD DUP2 PUSH1 0x0 ADD SWAP1 DUP2 PUSH3 0x427 SWAP2 SWAP1 PUSH3 0xDED JUMP JUMPDEST POP PUSH1 0x20 DUP3 ADD MLOAD DUP2 PUSH1 0x1 ADD SWAP1 DUP2 PUSH3 0x43F SWAP2 SWAP1 PUSH3 0xDED JUMP JUMPDEST POP PUSH1 0x40 DUP3 ADD MLOAD DUP2 PUSH1 0x2 ADD SSTORE PUSH1 0x60 DUP3 ADD MLOAD DUP2 PUSH1 0x3 ADD SWAP1 DUP2 PUSH3 0x461 SWAP2 SWAP1 PUSH3 0xDED JUMP JUMPDEST POP PUSH1 0x80 DUP3 ADD MLOAD DUP2 PUSH1 0x4 ADD SSTORE PUSH1 0xA0 DUP3 ADD MLOAD DUP2 PUSH1 0x5 ADD PUSH1 0x0 PUSH2 0x100 EXP DUP2 SLOAD DUP2 PUSH1 0xFF MUL NOT AND SWAP1 DUP4 PUSH1 0x5 DUP2 GT ISZERO PUSH3 0x49A JUMPI PUSH3 0x499 PUSH3 0xED4 JUMP JUMPDEST JUMPDEST MUL OR SWAP1 SSTORE POP SWAP1 POP POP PUSH3 0x4B2 PUSH3 0x778 PUSH1 0x20 SHL PUSH1 0x20 SHR JUMP JUMPDEST SWAP3 POP POP POP SWAP3 SWAP2 POP POP JUMP JUMPDEST PUSH1 0x0 PUSH32 0x9F2DF0FED2C77648DE5860A4CC508CD0818C85B8B8A1AB4CEEEF8D981C8956A6 PUSH3 0x4F0 DUP2 PUSH3 0x754 PUSH1 0x20 SHL PUSH1 0x20 SHR JUMP JUMPDEST PUSH1 0x0 PUSH1 0xA PUSH1 0x0 PUSH1 0x9 PUSH1 0x0 SWAP1 SLOAD SWAP1 PUSH2 0x100 EXP SWAP1 DIV PUSH1 0xFF AND PUSH1 0xFF AND PUSH2 0xFFFF AND DUP2 MSTORE PUSH1 0x20 ADD SWAP1 DUP2 MSTORE PUSH1 0x20 ADD PUSH1 0x0 KECCAK256 SWAP1 POP DUP5 DUP2 PUSH1 0x2 ADD DUP2 SWAP1 SSTORE POP DUP4 DUP2 PUSH1 0x4 ADD DUP2 SWAP1 SSTORE POP PUSH1 0x0 PUSH1 0x5 DUP2 GT ISZERO PUSH3 0x546 JUMPI PUSH3 0x545 PUSH3 0xED4 JUMP JUMPDEST JUMPDEST DUP2 PUSH1 0x5 ADD PUSH1 0x0 SWAP1 SLOAD SWAP1 PUSH2 0x100 EXP SWAP1 DIV PUSH1 0xFF AND PUSH1 0x5 DUP2 GT ISZERO PUSH3 0x56D JUMPI PUSH3 0x56C PUSH3 0xED4 JUMP JUMPDEST JUMPDEST SUB PUSH3 0x5B4 JUMPI PUSH1 0x1 PUSH1 0x5 DUP2 GT ISZERO PUSH3 0x58A JUMPI PUSH3 0x589 PUSH3 0xED4 JUMP JUMPDEST JUMPDEST DUP2 PUSH1 0x5 ADD PUSH1 0x0 SWAP1 SLOAD SWAP1 PUSH2 0x100 EXP SWAP1 DIV PUSH1 0xFF AND PUSH1 0x5 DUP2 GT ISZERO PUSH3 0x5B1 JUMPI PUSH3 0x5B0 PUSH3 0xED4 JUMP JUMPDEST JUMPDEST POP POP JUMPDEST PUSH3 0x5C4 PUSH3 0x778 PUSH1 0x20 SHL PUSH1 0x20 SHR JUMP JUMPDEST SWAP3 POP POP POP SWAP3 SWAP2 POP POP JUMP JUMPDEST PUSH1 0x0 PUSH32 0x8E6595EF9AFB2A8F70320F393F567BB7A0E6C4ED483CAEE30F90CC5FCD6659B4 PUSH3 0x602 DUP2 PUSH3 0x754 PUSH1 0x20 SHL PUSH1 0x20 SHR JUMP JUMPDEST PUSH1 0x0 PUSH1 0xA PUSH1 0x0 PUSH1 0x9 PUSH1 0x0 SWAP1 SLOAD SWAP1 PUSH2 0x100 EXP SWAP1 DIV PUSH1 0xFF AND PUSH1 0xFF AND PUSH2 0xFFFF AND DUP2 MSTORE PUSH1 0x20 ADD SWAP1 DUP2 MSTORE PUSH1 0x20 ADD PUSH1 0x0 KECCAK256 SWAP1 POP DUP4 DUP2 PUSH1 0x3 ADD SWAP1 DUP2 PUSH3 0x642 SWAP2 SWAP1 PUSH3 0xDED JUMP JUMPDEST POP PUSH1 0x1 PUSH1 0x5 DUP2 GT ISZERO PUSH3 0x65A JUMPI PUSH3 0x659 PUSH3 0xED4 JUMP JUMPDEST JUMPDEST DUP2 PUSH1 0x5 ADD PUSH1 0x0 SWAP1 SLOAD SWAP1 PUSH2 0x100 EXP SWAP1 DIV PUSH1 0xFF AND PUSH1 0x5 DUP2 GT ISZERO PUSH3 0x681 JUMPI PUSH3 0x680 PUSH3 0xED4 JUMP JUMPDEST JUMPDEST SUB PUSH3 0x6C8 JUMPI PUSH1 0x2 PUSH1 0x5 DUP2 GT ISZERO PUSH3 0x69E JUMPI PUSH3 0x69D PUSH3 0xED4 JUMP JUMPDEST JUMPDEST DUP2 PUSH1 0x5 ADD PUSH1 0x0 SWAP1 SLOAD SWAP1 PUSH2 0x100 EXP SWAP1 DIV PUSH1 0xFF AND PUSH1 0x5 DUP2 GT ISZERO PUSH3 0x6C5 JUMPI PUSH3 0x6C4 PUSH3 0xED4 JUMP JUMPDEST JUMPDEST POP POP JUMPDEST PUSH3 0x6D8 PUSH3 0x778 PUSH1 0x20 SHL PUSH1 0x20 SHR JUMP JUMPDEST SWAP3 POP POP POP SWAP2 SWAP1 POP JUMP JUMPDEST PUSH1 0x0 PUSH1 0x8 PUSH1 0x0 DUP5 DUP2 MSTORE PUSH1 0x20 ADD SWAP1 DUP2 MSTORE PUSH1 0x20 ADD PUSH1 0x0 KECCAK256 PUSH1 0x0 ADD PUSH1 0x0 DUP4 PUSH20 0xFFFFFFFFFFFFFFFFFFFFFFFFFFFFFFFFFFFFFFFF AND PUSH20 0xFFFFFFFFFFFFFFFFFFFFFFFFFFFFFFFFFFFFFFFF AND DUP2 MSTORE PUSH1 0x20 ADD SWAP1 DUP2 MSTORE PUSH1 0x20 ADD PUSH1 0x0 KECCAK256 PUSH1 0x0 SWAP1 SLOAD SWAP1 PUSH2 0x100 EXP SWAP1 DIV PUSH1 0xFF AND SWAP1 POP SWAP3 SWAP2 POP POP JUMP JUMPDEST PUSH1 0x0 CALLER SWAP1 POP SWAP1 JUMP JUMPDEST PUSH3 0x775 DUP2 PUSH3 0x769 PUSH3 0x74C PUSH1 0x20 SHL PUSH1 0x20 SHR JUMP JUMPDEST PUSH3 0x7EC PUSH1 0x20 SHL PUSH1 0x20 SHR JUMP JUMPDEST POP JUMP JUMPDEST PUSH1 0x0 PUSH32 0xB19546DFF01E856FB3F010C267A7B1C60363CF8A4664E21CC89C26224620214E PUSH3 0x7AC DUP2 PUSH3 0x754 PUSH1 0x20 SHL PUSH1 0x20 SHR JUMP JUMPDEST PUSH1 0xA PUSH1 0x0 PUSH1 0x9 PUSH1 0x0 SWAP1 SLOAD SWAP1 PUSH2 0x100 EXP SWAP1 DIV PUSH1 0xFF AND PUSH1 0xFF AND PUSH2 0xFFFF AND DUP2 MSTORE PUSH1 0x20 ADD SWAP1 DUP2 MSTORE PUSH1 0x20 ADD PUSH1 0x0 KECCAK256 PUSH1 0x5 ADD PUSH1 0x0 SWAP1 SLOAD SWAP1 PUSH2 0x100 EXP SWAP1 DIV PUSH1 0xFF AND SWAP2 POP POP SWAP1 JUMP JUMPDEST PUSH3 0x7FE DUP3 DUP3 PUSH3 0x6E1 PUSH1 0x20 SHL PUSH1 0x20 SHR JUMP JUMPDEST PUSH3 0x894 JUMPI PUSH3 0x819 DUP2 PUSH3 0x898 PUSH1 0x20 SHL PUSH3 0x1D2F OR PUSH1 0x20 SHR JUMP JUMPDEST PUSH3 0x834 DUP4 PUSH1 0x0 SHR PUSH1 0x20 PUSH3 0x8CD PUSH1 0x20 SHL PUSH3 0x1D5C OR PUSH1 0x20 SHR JUMP JUMPDEST PUSH1 0x40 MLOAD PUSH1 0x20 ADD PUSH3 0x847 SWAP3 SWAP2 SWAP1 PUSH3 0x1011 JUMP JUMPDEST PUSH1 0x40 MLOAD PUSH1 0x20 DUP2 DUP4 SUB SUB DUP2 MSTORE SWAP1 PUSH1 0x40 MSTORE PUSH1 0x40 MLOAD PUSH32 0x8C379A000000000000000000000000000000000000000000000000000000000 DUP2 MSTORE PUSH1 0x4 ADD PUSH3 0x88B SWAP2 SWAP1 PUSH3 0x10B6 JUMP JUMPDEST PUSH1 0x40 MLOAD DUP1 SWAP2 SUB SWAP1 REVERT JUMPDEST POP POP JUMP JUMPDEST PUSH1 0x60 PUSH3 0x8C6 DUP3 PUSH20 0xFFFFFFFFFFFFFFFFFFFFFFFFFFFFFFFFFFFFFFFF AND PUSH1 0x14 PUSH1 0xFF AND PUSH3 0x8CD PUSH1 0x20 SHL PUSH1 0x20 SHR JUMP JUMPDEST SWAP1 POP SWAP2 SWAP1 POP JUMP JUMPDEST PUSH1 0x60 PUSH1 0x0 PUSH1 0x2 DUP4 PUSH1 0x2 PUSH3 0x8E2 SWAP2 SWAP1 PUSH3 0x1109 JUMP JUMPDEST PUSH3 0x8EE SWAP2 SWAP1 PUSH3 0x1154 JUMP JUMPDEST PUSH8 0xFFFFFFFFFFFFFFFF DUP2 GT ISZERO PUSH3 0x90A JUMPI PUSH3 0x909 PUSH3 0xB7E JUMP JUMPDEST JUMPDEST PUSH1 0x40 MLOAD SWAP1 DUP1 DUP3 MSTORE DUP1 PUSH1 0x1F ADD PUSH1 0x1F NOT AND PUSH1 0x20 ADD DUP3 ADD PUSH1 0x40 MSTORE DUP1 ISZERO PUSH3 0x93D JUMPI DUP2 PUSH1 0x20 ADD PUSH1 0x1 DUP3 MUL DUP1 CALLDATASIZE DUP4 CALLDATACOPY DUP1 DUP3 ADD SWAP2 POP POP SWAP1 POP JUMPDEST POP SWAP1 POP PUSH32 0x3000000000000000000000000000000000000000000000000000000000000000 DUP2 PUSH1 0x0 DUP2 MLOAD DUP2 LT PUSH3 0x978 JUMPI PUSH3 0x977 PUSH3 0x118F JUMP JUMPDEST JUMPDEST PUSH1 0x20 ADD ADD SWAP1 PUSH31 0xFFFFFFFFFFFFFFFFFFFFFFFFFFFFFFFFFFFFFFFFFFFFFFFFFFFFFFFFFFFFFF NOT AND SWAP1 DUP2 PUSH1 0x0 BYTE SWAP1 MSTORE8 POP PUSH32 0x7800000000000000000000000000000000000000000000000000000000000000 DUP2 PUSH1 0x1 DUP2 MLOAD DUP2 LT PUSH3 0x9DF JUMPI PUSH3 0x9DE PUSH3 0x118F JUMP JUMPDEST JUMPDEST PUSH1 0x20 ADD ADD SWAP1 PUSH31 0xFFFFFFFFFFFFFFFFFFFFFFFFFFFFFFFFFFFFFFFFFFFFFFFFFFFFFFFFFFFFFF NOT AND SWAP1 DUP2 PUSH1 0x0 BYTE SWAP1 MSTORE8 POP PUSH1 0x0 PUSH1 0x1 DUP5 PUSH1 0x2 PUSH3 0xA21 SWAP2 SWAP1 PUSH3 0x1109 JUMP JUMPDEST PUSH3 0xA2D SWAP2 SWAP1 PUSH3 0x1154 JUMP JUMPDEST SWAP1 POP JUMPDEST PUSH1 0x1 DUP2 GT ISZERO PUSH3 0xAD7 JUMPI PUSH32 0x3031323334353637383961626364656600000000000000000000000000000000 PUSH1 0xF DUP7 AND PUSH1 0x10 DUP2 LT PUSH3 0xA73 JUMPI PUSH3 0xA72 PUSH3 0x118F JUMP JUMPDEST JUMPDEST BYTE PUSH1 0xF8 SHL DUP3 DUP3 DUP2 MLOAD DUP2 LT PUSH3 0xA8D JUMPI PUSH3 0xA8C PUSH3 0x118F JUMP JUMPDEST JUMPDEST PUSH1 0x20 ADD ADD SWAP1 PUSH31 0xFFFFFFFFFFFFFFFFFFFFFFFFFFFFFFFFFFFFFFFFFFFFFFFFFFFFFFFFFFFFFF NOT AND SWAP1 DUP2 PUSH1 0x0 BYTE SWAP1 MSTORE8 POP PUSH1 0x4 DUP6 SWAP1 SHR SWAP5 POP DUP1 PUSH3 0xACF SWAP1 PUSH3 0x11BE JUMP JUMPDEST SWAP1 POP PUSH3 0xA30 JUMP JUMPDEST POP PUSH1 0x0 DUP5 EQ PUSH3 0xB1E JUMPI PUSH1 0x40 MLOAD PUSH32 0x8C379A000000000000000000000000000000000000000000000000000000000 DUP2 MSTORE PUSH1 0x4 ADD PUSH3 0xB15 SWAP1 PUSH3 0x123C JUMP JUMPDEST PUSH1 0x40 MLOAD DUP1 SWAP2 SUB SWAP1 REVERT JUMPDEST DUP1 SWAP2 POP POP SWAP3 SWAP2 POP POP JUMP JUMPDEST PUSH1 0x40 MLOAD DUP1 PUSH1 0xC0 ADD PUSH1 0x40 MSTORE DUP1 PUSH1 0x60 DUP2 MSTORE PUSH1 0x20 ADD PUSH1 0x60 DUP2 MSTORE PUSH1 0x20 ADD PUSH1 0x0 DUP2 MSTORE PUSH1 0x20 ADD PUSH1 0x60 DUP2 MSTORE PUSH1 0x20 ADD PUSH1 0x0 DUP2 MSTORE PUSH1 0x20 ADD PUSH1 0x0 PUSH1 0x5 DUP2 GT ISZERO PUSH3 0xB6D JUMPI PUSH3 0xB6C PUSH3 0xED4 JUMP JUMPDEST JUMPDEST DUP2 MSTORE POP SWAP1 JUMP JUMPDEST PUSH1 0x0 DUP2 MLOAD SWAP1 POP SWAP2 SWAP1 POP JUMP JUMPDEST PUSH32 0x4E487B7100000000000000000000000000000000000000000000000000000000 PUSH1 0x0 MSTORE PUSH1 0x41 PUSH1 0x4 MSTORE PUSH1 0x24 PUSH1 0x0 REVERT JUMPDEST PUSH32 0x4E487B7100000000000000000000000000000000000000000000000000000000 PUSH1 0x0 MSTORE PUSH1 0x22 PUSH1 0x4 MSTORE PUSH1 0x24 PUSH1 0x0 REVERT JUMPDEST PUSH1 0x0 PUSH1 0x2 DUP3 DIV SWAP1 POP PUSH1 0x1 DUP3 AND DUP1 PUSH3 0xBF5 JUMPI PUSH1 0x7F DUP3 AND SWAP2 POP JUMPDEST PUSH1 0x20 DUP3 LT DUP2 SUB PUSH3 0xC0B JUMPI PUSH3 0xC0A PUSH3 0xBAD JUMP JUMPDEST JUMPDEST POP SWAP2 SWAP1 POP JUMP JUMPDEST PUSH1 0x0 DUP2 SWAP1 POP DUP2 PUSH1 0x0 MSTORE PUSH1 0x20 PUSH1 0x0 KECCAK256 SWAP1 POP SWAP2 SWAP1 POP JUMP JUMPDEST PUSH1 0x0 PUSH1 0x20 PUSH1 0x1F DUP4 ADD DIV SWAP1 POP SWAP2 SWAP1 POP JUMP JUMPDEST PUSH1 0x0 DUP3 DUP3 SHL SWAP1 POP SWAP3 SWAP2 POP POP JUMP JUMPDEST PUSH1 0x0 PUSH1 0x8 DUP4 MUL PUSH3 0xC75 PUSH32 0xFFFFFFFFFFFFFFFFFFFFFFFFFFFFFFFFFFFFFFFFFFFFFFFFFFFFFFFFFFFFFFFF DUP3 PUSH3 0xC36 JUMP JUMPDEST PUSH3 0xC81 DUP7 DUP4 PUSH3 0xC36 JUMP JUMPDEST SWAP6 POP DUP1 NOT DUP5 AND SWAP4 POP DUP1 DUP7 AND DUP5 OR SWAP3 POP POP POP SWAP4 SWAP3 POP POP POP JUMP JUMPDEST PUSH1 0x0 DUP2 SWAP1 POP SWAP2 SWAP1 POP JUMP JUMPDEST PUSH1 0x0 DUP2 SWAP1 POP SWAP2 SWAP1 POP JUMP JUMPDEST PUSH1 0x0 PUSH3 0xCCE PUSH3 0xCC8 PUSH3 0xCC2 DUP5 PUSH3 0xC99 JUMP JUMPDEST PUSH3 0xCA3 JUMP JUMPDEST PUSH3 0xC99 JUMP JUMPDEST SWAP1 POP SWAP2 SWAP1 POP JUMP JUMPDEST PUSH1 0x0 DUP2 SWAP1 POP SWAP2 SWAP1 POP JUMP JUMPDEST PUSH3 0xCEA DUP4 PUSH3 0xCAD JUMP JUMPDEST PUSH3 0xD02 PUSH3 0xCF9 DUP3 PUSH3 0xCD5 JUMP JUMPDEST DUP5 DUP5 SLOAD PUSH3 0xC43 JUMP JUMPDEST DUP3 SSTORE POP POP POP POP JUMP JUMPDEST PUSH1 0x0 SWAP1 JUMP JUMPDEST PUSH3 0xD19 PUSH3 0xD0A JUMP JUMPDEST PUSH3 0xD26 DUP2 DUP5 DUP5 PUSH3 0xCDF JUMP JUMPDEST POP POP POP JUMP JUMPDEST JUMPDEST DUP2 DUP2 LT ISZERO PUSH3 0xD4E JUMPI PUSH3 0xD42 PUSH1 0x0 DUP3 PUSH3 0xD0F JUMP JUMPDEST PUSH1 0x1 DUP2 ADD SWAP1 POP PUSH3 0xD2C JUMP JUMPDEST POP POP JUMP JUMPDEST PUSH1 0x1F DUP3 GT ISZERO PUSH3 0xD9D JUMPI PUSH3 0xD67 DUP2 PUSH3 0xC11 JUMP JUMPDEST PUSH3 0xD72 DUP5 PUSH3 0xC26 JUMP JUMPDEST DUP2 ADD PUSH1 0x20 DUP6 LT ISZERO PUSH3 0xD82 JUMPI DUP2 SWAP1 POP JUMPDEST PUSH3 0xD9A PUSH3 0xD91 DUP6 PUSH3 0xC26 JUMP JUMPDEST DUP4 ADD DUP3 PUSH3 0xD2B JUMP JUMPDEST POP POP JUMPDEST POP POP POP JUMP JUMPDEST PUSH1 0x0 DUP3 DUP3 SHR SWAP1 POP SWAP3 SWAP2 POP POP JUMP JUMPDEST PUSH1 0x0 PUSH3 0xDC2 PUSH1 0x0 NOT DUP5 PUSH1 0x8 MUL PUSH3 0xDA2 JUMP JUMPDEST NOT DUP1 DUP4 AND SWAP2 POP POP SWAP3 SWAP2 POP POP JUMP JUMPDEST PUSH1 0x0 PUSH3 0xDDD DUP4 DUP4 PUSH3 0xDAF JUMP JUMPDEST SWAP2 POP DUP3 PUSH1 0x2 MUL DUP3 OR SWAP1 POP SWAP3 SWAP2 POP POP JUMP JUMPDEST PUSH3 0xDF8 DUP3 PUSH3 0xB73 JUMP JUMPDEST PUSH8 0xFFFFFFFFFFFFFFFF DUP2 GT ISZERO PUSH3 0xE14 JUMPI PUSH3 0xE13 PUSH3 0xB7E JUMP JUMPDEST JUMPDEST PUSH3 0xE20 DUP3 SLOAD PUSH3 0xBDC JUMP JUMPDEST PUSH3 0xE2D DUP3 DUP3 DUP6 PUSH3 0xD52 JUMP JUMPDEST PUSH1 0x0 PUSH1 0x20 SWAP1 POP PUSH1 0x1F DUP4 GT PUSH1 0x1 DUP2 EQ PUSH3 0xE65 JUMPI PUSH1 0x0 DUP5 ISZERO PUSH3 0xE50 JUMPI DUP3 DUP8 ADD MLOAD SWAP1 POP JUMPDEST PUSH3 0xE5C DUP6 DUP3 PUSH3 0xDCF JUMP JUMPDEST DUP7 SSTORE POP PUSH3 0xECC JUMP JUMPDEST PUSH1 0x1F NOT DUP5 AND PUSH3 0xE75 DUP7 PUSH3 0xC11 JUMP JUMPDEST PUSH1 0x0 JUMPDEST DUP3 DUP2 LT ISZERO PUSH3 0xE9F JUMPI DUP5 DUP10 ADD MLOAD DUP3 SSTORE PUSH1 0x1 DUP3 ADD SWAP2 POP PUSH1 0x20 DUP6 ADD SWAP5 POP PUSH1 0x20 DUP2 ADD SWAP1 POP PUSH3 0xE78 JUMP JUMPDEST DUP7 DUP4 LT ISZERO PUSH3 0xEBF JUMPI DUP5 DUP10 ADD MLOAD PUSH3 0xEBB PUSH1 0x1F DUP10 AND DUP3 PUSH3 0xDAF JUMP JUMPDEST DUP4 SSTORE POP JUMPDEST PUSH1 0x1 PUSH1 0x2 DUP9 MUL ADD DUP9 SSTORE POP POP POP JUMPDEST POP POP POP POP POP POP JUMP JUMPDEST PUSH32 0x4E487B7100000000000000000000000000000000000000000000000000000000 PUSH1 0x0 MSTORE PUSH1 0x21 PUSH1 0x4 MSTORE PUSH1 0x24 PUSH1 0x0 REVERT JUMPDEST PUSH1 0x0 DUP2 SWAP1 POP SWAP3 SWAP2 POP POP JUMP JUMPDEST PUSH32 0x416363657373436F6E74726F6C3A206163636F756E7420000000000000000000 PUSH1 0x0 DUP3 ADD MSTORE POP JUMP JUMPDEST PUSH1 0x0 PUSH3 0xF46 PUSH1 0x17 DUP4 PUSH3 0xF03 JUMP JUMPDEST SWAP2 POP PUSH3 0xF53 DUP3 PUSH3 0xF0E JUMP JUMPDEST PUSH1 0x17 DUP3 ADD SWAP1 POP SWAP2 SWAP1 POP JUMP JUMPDEST PUSH1 0x0 JUMPDEST DUP4 DUP2 LT ISZERO PUSH3 0xF7E JUMPI DUP1 DUP3 ADD MLOAD DUP2 DUP5 ADD MSTORE PUSH1 0x20 DUP2 ADD SWAP1 POP PUSH3 0xF61 JUMP JUMPDEST PUSH1 0x0 DUP5 DUP5 ADD MSTORE POP POP POP POP JUMP JUMPDEST PUSH1 0x0 PUSH3 0xF97 DUP3 PUSH3 0xB73 JUMP JUMPDEST PUSH3 0xFA3 DUP2 DUP6 PUSH3 0xF03 JUMP JUMPDEST SWAP4 POP PUSH3 0xFB5 DUP2 DUP6 PUSH1 0x20 DUP7 ADD PUSH3 0xF5E JUMP JUMPDEST DUP1 DUP5 ADD SWAP2 POP POP SWAP3 SWAP2 POP POP JUMP JUMPDEST PUSH32 0x206973206D697373696E6720726F6C6520000000000000000000000000000000 PUSH1 0x0 DUP3 ADD MSTORE POP JUMP JUMPDEST PUSH1 0x0 PUSH3 0xFF9 PUSH1 0x11 DUP4 PUSH3 0xF03 JUMP JUMPDEST SWAP2 POP PUSH3 0x1006 DUP3 PUSH3 0xFC1 JUMP JUMPDEST PUSH1 0x11 DUP3 ADD SWAP1 POP SWAP2 SWAP1 POP JUMP JUMPDEST PUSH1 0x0 PUSH3 0x101E DUP3 PUSH3 0xF37 JUMP JUMPDEST SWAP2 POP PUSH3 0x102C DUP3 DUP6 PUSH3 0xF8A JUMP JUMPDEST SWAP2 POP PUSH3 0x1039 DUP3 PUSH3 0xFEA JUMP JUMPDEST SWAP2 POP PUSH3 0x1047 DUP3 DUP5 PUSH3 0xF8A JUMP JUMPDEST SWAP2 POP DUP2 SWAP1 POP SWAP4 SWAP3 POP POP POP JUMP JUMPDEST PUSH1 0x0 DUP3 DUP3 MSTORE PUSH1 0x20 DUP3 ADD SWAP1 POP SWAP3 SWAP2 POP POP JUMP JUMPDEST PUSH1 0x0 PUSH1 0x1F NOT PUSH1 0x1F DUP4 ADD AND SWAP1 POP SWAP2 SWAP1 POP JUMP JUMPDEST PUSH1 0x0 PUSH3 0x1082 DUP3 PUSH3 0xB73 JUMP JUMPDEST PUSH3 0x108E DUP2 DUP6 PUSH3 0x1053 JUMP JUMPDEST SWAP4 POP PUSH3 0x10A0 DUP2 DUP6 PUSH1 0x20 DUP7 ADD PUSH3 0xF5E JUMP JUMPDEST PUSH3 0x10AB DUP2 PUSH3 0x1064 JUMP JUMPDEST DUP5 ADD SWAP2 POP POP SWAP3 SWAP2 POP POP JUMP JUMPDEST PUSH1 0x0 PUSH1 0x20 DUP3 ADD SWAP1 POP DUP2 DUP2 SUB PUSH1 0x0 DUP4 ADD MSTORE PUSH3 0x10D2 DUP2 DUP5 PUSH3 0x1075 JUMP JUMPDEST SWAP1 POP SWAP3 SWAP2 POP POP JUMP JUMPDEST PUSH32 0x4E487B7100000000000000000000000000000000000000000000000000000000 PUSH1 0x0 MSTORE PUSH1 0x11 PUSH1 0x4 MSTORE PUSH1 0x24 PUSH1 0x0 REVERT JUMPDEST PUSH1 0x0 PUSH3 0x1116 DUP3 PUSH3 0xC99 JUMP JUMPDEST SWAP2 POP PUSH3 0x1123 DUP4 PUSH3 0xC99 JUMP JUMPDEST SWAP3 POP DUP3 DUP3 MUL PUSH3 0x1133 DUP2 PUSH3 0xC99 JUMP JUMPDEST SWAP2 POP DUP3 DUP3 DIV DUP5 EQ DUP4 ISZERO OR PUSH3 0x114D JUMPI PUSH3 0x114C PUSH3 0x10DA JUMP JUMPDEST JUMPDEST POP SWAP3 SWAP2 POP POP JUMP JUMPDEST PUSH1 0x0 PUSH3 0x1161 DUP3 PUSH3 0xC99 JUMP JUMPDEST SWAP2 POP PUSH3 0x116E DUP4 PUSH3 0xC99 JUMP JUMPDEST SWAP3 POP DUP3 DUP3 ADD SWAP1 POP DUP1 DUP3 GT ISZERO PUSH3 0x1189 JUMPI PUSH3 0x1188 PUSH3 0x10DA JUMP JUMPDEST JUMPDEST SWAP3 SWAP2 POP POP JUMP JUMPDEST PUSH32 0x4E487B7100000000000000000000000000000000000000000000000000000000 PUSH1 0x0 MSTORE PUSH1 0x32 PUSH1 0x4 MSTORE PUSH1 0x24 PUSH1 0x0 REVERT JUMPDEST PUSH1 0x0 PUSH3 0x11CB DUP3 PUSH3 0xC99 JUMP JUMPDEST SWAP2 POP PUSH1 0x0 DUP3 SUB PUSH3 0x11E1 JUMPI PUSH3 0x11E0 PUSH3 0x10DA JUMP JUMPDEST JUMPDEST PUSH1 0x1 DUP3 SUB SWAP1 POP SWAP2 SWAP1 POP JUMP JUMPDEST PUSH32 0x537472696E67733A20686578206C656E67746820696E73756666696369656E74 PUSH1 0x0 DUP3 ADD MSTORE POP JUMP JUMPDEST PUSH1 0x0 PUSH3 0x1224 PUSH1 0x20 DUP4 PUSH3 0x1053 JUMP JUMPDEST SWAP2 POP PUSH3 0x1231 DUP3 PUSH3 0x11EC JUMP JUMPDEST PUSH1 0x20 DUP3 ADD SWAP1 POP SWAP2 SWAP1 POP JUMP JUMPDEST PUSH1 0x0 PUSH1 0x20 DUP3 ADD SWAP1 POP DUP2 DUP2 SUB PUSH1 0x0 DUP4 ADD MSTORE PUSH3 0x1257 DUP2 PUSH3 0x1215 JUMP JUMPDEST SWAP1 POP SWAP2 SWAP1 POP JUMP JUMPDEST PUSH2 0x45AF DUP1 PUSH3 0x126E PUSH1 0x0 CODECOPY PUSH1 0x0 RETURN INVALID PUSH1 0x80 PUSH1 0x40 MSTORE PUSH1 0x4 CALLDATASIZE LT PUSH2 0x288 JUMPI PUSH1 0x0 CALLDATALOAD PUSH1 0xE0 SHR DUP1 PUSH4 0x5BBB2177 GT PUSH2 0x15A JUMPI DUP1 PUSH4 0xA22CB465 GT PUSH2 0xC1 JUMPI DUP1 PUSH4 0xC23DC68F GT PUSH2 0x7A JUMPI DUP1 PUSH4 0xC23DC68F EQ PUSH2 0x936 JUMPI DUP1 PUSH4 0xC87B56DD EQ PUSH2 0x973 JUMPI DUP1 PUSH4 0xD5391393 EQ PUSH2 0x9B0 JUMPI DUP1 PUSH4 0xD547741F EQ PUSH2 0x9DB JUMPI DUP1 PUSH4 0xE58378BB EQ PUSH2 0xA04 JUMPI DUP1 PUSH4 0xE985E9C5 EQ PUSH2 0xA2F JUMPI PUSH2 0x288 JUMP JUMPDEST DUP1 PUSH4 0xA22CB465 EQ PUSH2 0x898 JUMPI DUP1 PUSH4 0xA515A100 EQ PUSH2 0x8C1 JUMPI DUP1 PUSH4 0xA7A7DD73 EQ PUSH2 0x8D8 JUMPI DUP1 PUSH4 0xA93CD768 EQ PUSH2 0x8F4 JUMPI DUP1 PUSH4 0xB88D4FDE EQ PUSH2 0x910 JUMPI DUP1 PUSH4 0xB9FDBB4A EQ PUSH2 0x92C JUMPI PUSH2 0x288 JUMP JUMPDEST DUP1 PUSH4 0x8462151C GT PUSH2 0x113 JUMPI DUP1 PUSH4 0x8462151C EQ PUSH2 0x774 JUMPI DUP1 PUSH4 0x91D14854 EQ PUSH2 0x7B1 JUMPI DUP1 PUSH4 0x9435C887 EQ PUSH2 0x7EE JUMPI DUP1 PUSH4 0x95D89B41 EQ PUSH2 0x805 JUMPI DUP1 PUSH4 0x99A2557A EQ PUSH2 0x830 JUMPI DUP1 PUSH4 0xA217FDDF EQ PUSH2 0x86D JUMPI PUSH2 0x288 JUMP JUMPDEST DUP1 PUSH4 0x5BBB2177 EQ PUSH2 0x64D JUMPI DUP1 PUSH4 0x6352211E EQ PUSH2 0x68A JUMPI DUP1 PUSH4 0x70A08231 EQ PUSH2 0x6C7 JUMPI DUP1 PUSH4 0x74BDDA15 EQ PUSH2 0x704 JUMPI DUP1 PUSH4 0x77097FC8 EQ PUSH2 0x720 JUMPI DUP1 PUSH4 0x7F2C2BE3 EQ PUSH2 0x749 JUMPI PUSH2 0x288 JUMP JUMPDEST DUP1 PUSH4 0x2E8D04F7 GT PUSH2 0x1FE JUMPI DUP1 PUSH4 0x42842E0E GT PUSH2 0x1B7 JUMPI DUP1 PUSH4 0x42842E0E EQ PUSH2 0x590 JUMPI DUP1 PUSH4 0x42966C68 EQ PUSH2 0x5AC JUMPI DUP1 PUSH4 0x4ABA5112 EQ PUSH2 0x5D5 JUMPI DUP1 PUSH4 0x4E51EA25 EQ PUSH2 0x5EC JUMPI DUP1 PUSH4 0x561E8EFF EQ PUSH2 0x608 JUMPI DUP1 PUSH4 0x59927BBE EQ PUSH2 0x624 JUMPI PUSH2 0x288 JUMP JUMPDEST DUP1 PUSH4 0x2E8D04F7 EQ PUSH2 0x472 JUMPI DUP1 PUSH4 0x2F2FF15D EQ PUSH2 0x4AF JUMPI DUP1 PUSH4 0x31D41C69 EQ PUSH2 0x4D8 JUMPI DUP1 PUSH4 0x36568ABE EQ PUSH2 0x501 JUMPI DUP1 PUSH4 0x3A8F3A57 EQ PUSH2 0x52A JUMPI DUP1 PUSH4 0x4082857C EQ PUSH2 0x567 JUMPI PUSH2 0x288 JUMP JUMPDEST DUP1 PUSH4 0x13338A50 GT PUSH2 0x250 JUMPI DUP1 PUSH4 0x13338A50 EQ PUSH2 0x379 JUMPI DUP1 PUSH4 0x18160DDD EQ PUSH2 0x395 JUMPI DUP1 PUSH4 0x23B872DD EQ PUSH2 0x3C0 JUMPI DUP1 PUSH4 0x248A9CA3 EQ PUSH2 0x3DC JUMPI DUP1 PUSH4 0x29CA2372 EQ PUSH2 0x419 JUMPI DUP1 PUSH4 0x2BF1FBE8 EQ PUSH2 0x435 JUMPI PUSH2 0x288 JUMP JUMPDEST DUP1 PUSH4 0x1FFC9A7 EQ PUSH2 0x28D JUMPI DUP1 PUSH4 0x6FDDE03 EQ PUSH2 0x2CA JUMPI DUP1 PUSH4 0x81812FC EQ PUSH2 0x2F5 JUMPI DUP1 PUSH4 0x95EA7B3 EQ PUSH2 0x332 JUMPI DUP1 PUSH4 0xAB5F32A EQ PUSH2 0x34E JUMPI JUMPDEST PUSH1 0x0 DUP1 REVERT JUMPDEST CALLVALUE DUP1 ISZERO PUSH2 0x299 JUMPI PUSH1 0x0 DUP1 REVERT JUMPDEST POP PUSH2 0x2B4 PUSH1 0x4 DUP1 CALLDATASIZE SUB DUP2 ADD SWAP1 PUSH2 0x2AF SWAP2 SWAP1 PUSH2 0x2E7D JUMP JUMPDEST PUSH2 0xA6C JUMP JUMPDEST PUSH1 0x40 MLOAD PUSH2 0x2C1 SWAP2 SWAP1 PUSH2 0x2EC5 JUMP JUMPDEST PUSH1 0x40 MLOAD DUP1 SWAP2 SUB SWAP1 RETURN JUMPDEST CALLVALUE DUP1 ISZERO PUSH2 0x2D6 JUMPI PUSH1 0x0 DUP1 REVERT JUMPDEST POP PUSH2 0x2DF PUSH2 0xAFE JUMP JUMPDEST PUSH1 0x40 MLOAD PUSH2 0x2EC SWAP2 SWAP1 PUSH2 0x2F70 JUMP JUMPDEST PUSH1 0x40 MLOAD DUP1 SWAP2 SUB SWAP1 RETURN JUMPDEST CALLVALUE DUP1 ISZERO PUSH2 0x301 JUMPI PUSH1 0x0 DUP1 REVERT JUMPDEST POP PUSH2 0x31C PUSH1 0x4 DUP1 CALLDATASIZE SUB DUP2 ADD SWAP1 PUSH2 0x317 SWAP2 SWAP1 PUSH2 0x2FC8 JUMP JUMPDEST PUSH2 0xB90 JUMP JUMPDEST PUSH1 0x40 MLOAD PUSH2 0x329 SWAP2 SWAP1 PUSH2 0x3036 JUMP JUMPDEST PUSH1 0x40 MLOAD DUP1 SWAP2 SUB SWAP1 RETURN JUMPDEST PUSH2 0x34C PUSH1 0x4 DUP1 CALLDATASIZE SUB DUP2 ADD SWAP1 PUSH2 0x347 SWAP2 SWAP1 PUSH2 0x307D JUMP JUMPDEST PUSH2 0xBEE JUMP JUMPDEST STOP JUMPDEST CALLVALUE DUP1 ISZERO PUSH2 0x35A JUMPI PUSH1 0x0 DUP1 REVERT JUMPDEST POP PUSH2 0x363 PUSH2 0xBFE JUMP JUMPDEST PUSH1 0x40 MLOAD PUSH2 0x370 SWAP2 SWAP1 PUSH2 0x30D6 JUMP JUMPDEST PUSH1 0x40 MLOAD DUP1 SWAP2 SUB SWAP1 RETURN JUMPDEST PUSH2 0x393 PUSH1 0x4 DUP1 CALLDATASIZE SUB DUP2 ADD SWAP1 PUSH2 0x38E SWAP2 SWAP1 PUSH2 0x312B JUMP JUMPDEST PUSH2 0xC22 JUMP JUMPDEST STOP JUMPDEST CALLVALUE DUP1 ISZERO PUSH2 0x3A1 JUMPI PUSH1 0x0 DUP1 REVERT JUMPDEST POP PUSH2 0x3AA PUSH2 0xC25 JUMP JUMPDEST PUSH1 0x40 MLOAD PUSH2 0x3B7 SWAP2 SWAP1 PUSH2 0x3167 JUMP JUMPDEST PUSH1 0x40 MLOAD DUP1 SWAP2 SUB SWAP1 RETURN JUMPDEST PUSH2 0x3DA PUSH1 0x4 DUP1 CALLDATASIZE SUB DUP2 ADD SWAP1 PUSH2 0x3D5 SWAP2 SWAP1 PUSH2 0x3182 JUMP JUMPDEST PUSH2 0xC3C JUMP JUMPDEST STOP JUMPDEST CALLVALUE DUP1 ISZERO PUSH2 0x3E8 JUMPI PUSH1 0x0 DUP1 REVERT JUMPDEST POP PUSH2 0x403 PUSH1 0x4 DUP1 CALLDATASIZE SUB DUP2 ADD SWAP1 PUSH2 0x3FE SWAP2 SWAP1 PUSH2 0x3201 JUMP JUMPDEST PUSH2 0xEFD JUMP JUMPDEST PUSH1 0x40 MLOAD PUSH2 0x410 SWAP2 SWAP1 PUSH2 0x30D6 JUMP JUMPDEST PUSH1 0x40 MLOAD DUP1 SWAP2 SUB SWAP1 RETURN JUMPDEST PUSH2 0x433 PUSH1 0x4 DUP1 CALLDATASIZE SUB DUP2 ADD SWAP1 PUSH2 0x42E SWAP2 SWAP1 PUSH2 0x3363 JUMP JUMPDEST PUSH2 0xF1D JUMP JUMPDEST STOP JUMPDEST CALLVALUE DUP1 ISZERO PUSH2 0x441 JUMPI PUSH1 0x0 DUP1 REVERT JUMPDEST POP PUSH2 0x45C PUSH1 0x4 DUP1 CALLDATASIZE SUB DUP2 ADD SWAP1 PUSH2 0x457 SWAP2 SWAP1 PUSH2 0x33AC JUMP JUMPDEST PUSH2 0xF28 JUMP JUMPDEST PUSH1 0x40 MLOAD PUSH2 0x469 SWAP2 SWAP1 PUSH2 0x349B JUMP JUMPDEST PUSH1 0x40 MLOAD DUP1 SWAP2 SUB SWAP1 RETURN JUMPDEST CALLVALUE DUP1 ISZERO PUSH2 0x47E JUMPI PUSH1 0x0 DUP1 REVERT JUMPDEST POP PUSH2 0x499 PUSH1 0x4 DUP1 CALLDATASIZE SUB DUP2 ADD SWAP1 PUSH2 0x494 SWAP2 SWAP1 PUSH2 0x3363 JUMP JUMPDEST PUSH2 0x1064 JUMP JUMPDEST PUSH1 0x40 MLOAD PUSH2 0x4A6 SWAP2 SWAP1 PUSH2 0x349B JUMP JUMPDEST PUSH1 0x40 MLOAD DUP1 SWAP2 SUB SWAP1 RETURN JUMPDEST CALLVALUE DUP1 ISZERO PUSH2 0x4BB JUMPI PUSH1 0x0 DUP1 REVERT JUMPDEST POP PUSH2 0x4D6 PUSH1 0x4 DUP1 CALLDATASIZE SUB DUP2 ADD SWAP1 PUSH2 0x4D1 SWAP2 SWAP1 PUSH2 0x34B6 JUMP JUMPDEST PUSH2 0x1158 JUMP JUMPDEST STOP JUMPDEST CALLVALUE DUP1 ISZERO PUSH2 0x4E4 JUMPI PUSH1 0x0 DUP1 REVERT JUMPDEST POP PUSH2 0x4FF PUSH1 0x4 DUP1 CALLDATASIZE SUB DUP2 ADD SWAP1 PUSH2 0x4FA SWAP2 SWAP1 PUSH2 0x34F6 JUMP JUMPDEST PUSH2 0x1179 JUMP JUMPDEST STOP JUMPDEST CALLVALUE DUP1 ISZERO PUSH2 0x50D JUMPI PUSH1 0x0 DUP1 REVERT JUMPDEST POP PUSH2 0x528 PUSH1 0x4 DUP1 CALLDATASIZE SUB DUP2 ADD SWAP1 PUSH2 0x523 SWAP2 SWAP1 PUSH2 0x34B6 JUMP JUMPDEST PUSH2 0x11F7 JUMP JUMPDEST STOP JUMPDEST CALLVALUE DUP1 ISZERO PUSH2 0x536 JUMPI PUSH1 0x0 DUP1 REVERT JUMPDEST POP PUSH2 0x551 PUSH1 0x4 DUP1 CALLDATASIZE SUB DUP2 ADD SWAP1 PUSH2 0x54C SWAP2 SWAP1 PUSH2 0x3552 JUMP JUMPDEST PUSH2 0x127A JUMP JUMPDEST PUSH1 0x40 MLOAD PUSH2 0x55E SWAP2 SWAP1 PUSH2 0x349B JUMP JUMPDEST PUSH1 0x40 MLOAD DUP1 SWAP2 SUB SWAP1 RETURN JUMPDEST CALLVALUE DUP1 ISZERO PUSH2 0x573 JUMPI PUSH1 0x0 DUP1 REVERT JUMPDEST POP PUSH2 0x58E PUSH1 0x4 DUP1 CALLDATASIZE SUB DUP2 ADD SWAP1 PUSH2 0x589 SWAP2 SWAP1 PUSH2 0x312B JUMP JUMPDEST PUSH2 0x136F JUMP JUMPDEST STOP JUMPDEST PUSH2 0x5AA PUSH1 0x4 DUP1 CALLDATASIZE SUB DUP2 ADD SWAP1 PUSH2 0x5A5 SWAP2 SWAP1 PUSH2 0x3182 JUMP JUMPDEST PUSH2 0x1372 JUMP JUMPDEST STOP JUMPDEST CALLVALUE DUP1 ISZERO PUSH2 0x5B8 JUMPI PUSH1 0x0 DUP1 REVERT JUMPDEST POP PUSH2 0x5D3 PUSH1 0x4 DUP1 CALLDATASIZE SUB DUP2 ADD SWAP1 PUSH2 0x5CE SWAP2 SWAP1 PUSH2 0x2FC8 JUMP JUMPDEST PUSH2 0x1392 JUMP JUMPDEST STOP JUMPDEST CALLVALUE DUP1 ISZERO PUSH2 0x5E1 JUMPI PUSH1 0x0 DUP1 REVERT JUMPDEST POP PUSH2 0x5EA PUSH2 0x13A0 JUMP JUMPDEST STOP JUMPDEST PUSH2 0x606 PUSH1 0x4 DUP1 CALLDATASIZE SUB DUP2 ADD SWAP1 PUSH2 0x601 SWAP2 SWAP1 PUSH2 0x35CB JUMP JUMPDEST PUSH2 0x13A2 JUMP JUMPDEST STOP JUMPDEST PUSH2 0x622 PUSH1 0x4 DUP1 CALLDATASIZE SUB DUP2 ADD SWAP1 PUSH2 0x61D SWAP2 SWAP1 PUSH2 0x35F8 JUMP JUMPDEST PUSH2 0x13AD JUMP JUMPDEST STOP JUMPDEST CALLVALUE DUP1 ISZERO PUSH2 0x630 JUMPI PUSH1 0x0 DUP1 REVERT JUMPDEST POP PUSH2 0x64B PUSH1 0x4 DUP1 CALLDATASIZE SUB DUP2 ADD SWAP1 PUSH2 0x646 SWAP2 SWAP1 PUSH2 0x3638 JUMP JUMPDEST PUSH2 0x13B1 JUMP JUMPDEST STOP JUMPDEST CALLVALUE DUP1 ISZERO PUSH2 0x659 JUMPI PUSH1 0x0 DUP1 REVERT JUMPDEST POP PUSH2 0x674 PUSH1 0x4 DUP1 CALLDATASIZE SUB DUP2 ADD SWAP1 PUSH2 0x66F SWAP2 SWAP1 PUSH2 0x3707 JUMP JUMPDEST PUSH2 0x13F5 JUMP JUMPDEST PUSH1 0x40 MLOAD PUSH2 0x681 SWAP2 SWAP1 PUSH2 0x38B7 JUMP JUMPDEST PUSH1 0x40 MLOAD DUP1 SWAP2 SUB SWAP1 RETURN JUMPDEST CALLVALUE DUP1 ISZERO PUSH2 0x696 JUMPI PUSH1 0x0 DUP1 REVERT JUMPDEST POP PUSH2 0x6B1 PUSH1 0x4 DUP1 CALLDATASIZE SUB DUP2 ADD SWAP1 PUSH2 0x6AC SWAP2 SWAP1 PUSH2 0x2FC8 JUMP JUMPDEST PUSH2 0x1455 JUMP JUMPDEST PUSH1 0x40 MLOAD PUSH2 0x6BE SWAP2 SWAP1 PUSH2 0x3036 JUMP JUMPDEST PUSH1 0x40 MLOAD DUP1 SWAP2 SUB SWAP1 RETURN JUMPDEST CALLVALUE DUP1 ISZERO PUSH2 0x6D3 JUMPI PUSH1 0x0 DUP1 REVERT JUMPDEST POP PUSH2 0x6EE PUSH1 0x4 DUP1 CALLDATASIZE SUB DUP2 ADD SWAP1 PUSH2 0x6E9 SWAP2 SWAP1 PUSH2 0x38D9 JUMP JUMPDEST PUSH2 0x1467 JUMP JUMPDEST PUSH1 0x40 MLOAD PUSH2 0x6FB SWAP2 SWAP1 PUSH2 0x3167 JUMP JUMPDEST PUSH1 0x40 MLOAD DUP1 SWAP2 SUB SWAP1 RETURN JUMPDEST PUSH2 0x71E PUSH1 0x4 DUP1 CALLDATASIZE SUB DUP2 ADD SWAP1 PUSH2 0x719 SWAP2 SWAP1 PUSH2 0x2FC8 JUMP JUMPDEST PUSH2 0x14FE JUMP JUMPDEST STOP JUMPDEST CALLVALUE DUP1 ISZERO PUSH2 0x72C JUMPI PUSH1 0x0 DUP1 REVERT JUMPDEST POP PUSH2 0x747 PUSH1 0x4 DUP1 CALLDATASIZE SUB DUP2 ADD SWAP1 PUSH2 0x742 SWAP2 SWAP1 PUSH2 0x34F6 JUMP JUMPDEST PUSH2 0x1501 JUMP JUMPDEST STOP JUMPDEST CALLVALUE DUP1 ISZERO PUSH2 0x755 JUMPI PUSH1 0x0 DUP1 REVERT JUMPDEST POP PUSH2 0x75E PUSH2 0x1544 JUMP JUMPDEST PUSH1 0x40 MLOAD PUSH2 0x76B SWAP2 SWAP1 PUSH2 0x349B JUMP JUMPDEST PUSH1 0x40 MLOAD DUP1 SWAP2 SUB SWAP1 RETURN JUMPDEST CALLVALUE DUP1 ISZERO PUSH2 0x780 JUMPI PUSH1 0x0 DUP1 REVERT JUMPDEST POP PUSH2 0x79B PUSH1 0x4 DUP1 CALLDATASIZE SUB DUP2 ADD SWAP1 PUSH2 0x796 SWAP2 SWAP1 PUSH2 0x38D9 JUMP JUMPDEST PUSH2 0x15B0 JUMP JUMPDEST PUSH1 0x40 MLOAD PUSH2 0x7A8 SWAP2 SWAP1 PUSH2 0x39C4 JUMP JUMPDEST PUSH1 0x40 MLOAD DUP1 SWAP2 SUB SWAP1 RETURN JUMPDEST CALLVALUE DUP1 ISZERO PUSH2 0x7BD JUMPI PUSH1 0x0 DUP1 REVERT JUMPDEST POP PUSH2 0x7D8 PUSH1 0x4 DUP1 CALLDATASIZE SUB DUP2 ADD SWAP1 PUSH2 0x7D3 SWAP2 SWAP1 PUSH2 0x34B6 JUMP JUMPDEST PUSH2 0x1641 JUMP JUMPDEST PUSH1 0x40 MLOAD PUSH2 0x7E5 SWAP2 SWAP1 PUSH2 0x2EC5 JUMP JUMPDEST PUSH1 0x40 MLOAD DUP1 SWAP2 SUB SWAP1 RETURN JUMPDEST CALLVALUE DUP1 ISZERO PUSH2 0x7FA JUMPI PUSH1 0x0 DUP1 REVERT JUMPDEST POP PUSH2 0x803 PUSH2 0x16AC JUMP JUMPDEST STOP JUMPDEST CALLVALUE DUP1 ISZERO PUSH2 0x811 JUMPI PUSH1 0x0 DUP1 REVERT JUMPDEST POP PUSH2 0x81A PUSH2 0x16AE JUMP JUMPDEST PUSH1 0x40 MLOAD PUSH2 0x827 SWAP2 SWAP1 PUSH2 0x2F70 JUMP JUMPDEST PUSH1 0x40 MLOAD DUP1 SWAP2 SUB SWAP1 RETURN JUMPDEST CALLVALUE DUP1 ISZERO PUSH2 0x83C JUMPI PUSH1 0x0 DUP1 REVERT JUMPDEST POP PUSH2 0x857 PUSH1 0x4 DUP1 CALLDATASIZE SUB DUP2 ADD SWAP1 PUSH2 0x852 SWAP2 SWAP1 PUSH2 0x39E6 JUMP JUMPDEST PUSH2 0x1740 JUMP JUMPDEST PUSH1 0x40 MLOAD PUSH2 0x864 SWAP2 SWAP1 PUSH2 0x39C4 JUMP JUMPDEST PUSH1 0x40 MLOAD DUP1 SWAP2 SUB SWAP1 RETURN JUMPDEST CALLVALUE DUP1 ISZERO PUSH2 0x879 JUMPI PUSH1 0x0 DUP1 REVERT JUMPDEST POP PUSH2 0x882 PUSH2 0x1858 JUMP JUMPDEST PUSH1 0x40 MLOAD PUSH2 0x88F SWAP2 SWAP1 PUSH2 0x30D6 JUMP JUMPDEST PUSH1 0x40 MLOAD DUP1 SWAP2 SUB SWAP1 RETURN JUMPDEST CALLVALUE DUP1 ISZERO PUSH2 0x8A4 JUMPI PUSH1 0x0 DUP1 REVERT JUMPDEST POP PUSH2 0x8BF PUSH1 0x4 DUP1 CALLDATASIZE SUB DUP2 ADD SWAP1 PUSH2 0x8BA SWAP2 SWAP1 PUSH2 0x3A65 JUMP JUMPDEST PUSH2 0x185F JUMP JUMPDEST STOP JUMPDEST CALLVALUE DUP1 ISZERO PUSH2 0x8CD JUMPI PUSH1 0x0 DUP1 REVERT JUMPDEST POP PUSH2 0x8D6 PUSH2 0x196A JUMP JUMPDEST STOP JUMPDEST PUSH2 0x8F2 PUSH1 0x4 DUP1 CALLDATASIZE SUB DUP2 ADD SWAP1 PUSH2 0x8ED SWAP2 SWAP1 PUSH2 0x38D9 JUMP JUMPDEST PUSH2 0x1AE2 JUMP JUMPDEST STOP JUMPDEST PUSH2 0x90E PUSH1 0x4 DUP1 CALLDATASIZE SUB DUP2 ADD SWAP1 PUSH2 0x909 SWAP2 SWAP1 PUSH2 0x3AA5 JUMP JUMPDEST PUSH2 0x1AE5 JUMP JUMPDEST STOP JUMPDEST PUSH2 0x92A PUSH1 0x4 DUP1 CALLDATASIZE SUB DUP2 ADD SWAP1 PUSH2 0x925 SWAP2 SWAP1 PUSH2 0x3B86 JUMP JUMPDEST PUSH2 0x1AF1 JUMP JUMPDEST STOP JUMPDEST PUSH2 0x934 PUSH2 0x1B43 JUMP JUMPDEST STOP JUMPDEST CALLVALUE DUP1 ISZERO PUSH2 0x942 JUMPI PUSH1 0x0 DUP1 REVERT JUMPDEST POP PUSH2 0x95D PUSH1 0x4 DUP1 CALLDATASIZE SUB DUP2 ADD SWAP1 PUSH2 0x958 SWAP2 SWAP1 PUSH2 0x2FC8 JUMP JUMPDEST PUSH2 0x1B45 JUMP JUMPDEST PUSH1 0x40 MLOAD PUSH2 0x96A SWAP2 SWAP1 PUSH2 0x3C5E JUMP JUMPDEST PUSH1 0x40 MLOAD DUP1 SWAP2 SUB SWAP1 RETURN JUMPDEST CALLVALUE DUP1 ISZERO PUSH2 0x97F JUMPI PUSH1 0x0 DUP1 REVERT JUMPDEST POP PUSH2 0x99A PUSH1 0x4 DUP1 CALLDATASIZE SUB DUP2 ADD SWAP1 PUSH2 0x995 SWAP2 SWAP1 PUSH2 0x2FC8 JUMP JUMPDEST PUSH2 0x1B91 JUMP JUMPDEST PUSH1 0x40 MLOAD PUSH2 0x9A7 SWAP2 SWAP1 PUSH2 0x2F70 JUMP JUMPDEST PUSH1 0x40 MLOAD DUP1 SWAP2 SUB SWAP1 RETURN JUMPDEST CALLVALUE DUP1 ISZERO PUSH2 0x9BC JUMPI PUSH1 0x0 DUP1 REVERT JUMPDEST POP PUSH2 0x9C5 PUSH2 0x1C32 JUMP JUMPDEST PUSH1 0x40 MLOAD PUSH2 0x9D2 SWAP2 SWAP1 PUSH2 0x30D6 JUMP JUMPDEST PUSH1 0x40 MLOAD DUP1 SWAP2 SUB SWAP1 RETURN JUMPDEST CALLVALUE DUP1 ISZERO PUSH2 0x9E7 JUMPI PUSH1 0x0 DUP1 REVERT JUMPDEST POP PUSH2 0xA02 PUSH1 0x4 DUP1 CALLDATASIZE SUB DUP2 ADD SWAP1 PUSH2 0x9FD SWAP2 SWAP1 PUSH2 0x34B6 JUMP JUMPDEST PUSH2 0x1C56 JUMP JUMPDEST STOP JUMPDEST CALLVALUE DUP1 ISZERO PUSH2 0xA10 JUMPI PUSH1 0x0 DUP1 REVERT JUMPDEST POP PUSH2 0xA19 PUSH2 0x1C77 JUMP JUMPDEST PUSH1 0x40 MLOAD PUSH2 0xA26 SWAP2 SWAP1 PUSH2 0x30D6 JUMP JUMPDEST PUSH1 0x40 MLOAD DUP1 SWAP2 SUB SWAP1 RETURN JUMPDEST CALLVALUE DUP1 ISZERO PUSH2 0xA3B JUMPI PUSH1 0x0 DUP1 REVERT JUMPDEST POP PUSH2 0xA56 PUSH1 0x4 DUP1 CALLDATASIZE SUB DUP2 ADD SWAP1 PUSH2 0xA51 SWAP2 SWAP1 PUSH2 0x3C79 JUMP JUMPDEST PUSH2 0x1C9B JUMP JUMPDEST PUSH1 0x40 MLOAD PUSH2 0xA63 SWAP2 SWAP1 PUSH2 0x2EC5 JUMP JUMPDEST PUSH1 0x40 MLOAD DUP1 SWAP2 SUB SWAP1 RETURN JUMPDEST PUSH1 0x0 PUSH4 0x1FFC9A7 PUSH1 0xE0 SHL DUP3 PUSH28 0xFFFFFFFFFFFFFFFFFFFFFFFFFFFFFFFFFFFFFFFFFFFFFFFFFFFFFFFF NOT AND EQ DUP1 PUSH2 0xAC7 JUMPI POP PUSH4 0x80AC58CD PUSH1 0xE0 SHL DUP3 PUSH28 0xFFFFFFFFFFFFFFFFFFFFFFFFFFFFFFFFFFFFFFFFFFFFFFFFFFFFFFFF NOT AND EQ JUMPDEST DUP1 PUSH2 0xAF7 JUMPI POP PUSH4 0x5B5E139F PUSH1 0xE0 SHL DUP3 PUSH28 0xFFFFFFFFFFFFFFFFFFFFFFFFFFFFFFFFFFFFFFFFFFFFFFFFFFFFFFFF NOT AND EQ JUMPDEST SWAP1 POP SWAP2 SWAP1 POP JUMP JUMPDEST PUSH1 0x60 PUSH1 0x2 DUP1 SLOAD PUSH2 0xB0D SWAP1 PUSH2 0x3CE8 JUMP JUMPDEST DUP1 PUSH1 0x1F ADD PUSH1 0x20 DUP1 SWAP2 DIV MUL PUSH1 0x20 ADD PUSH1 0x40 MLOAD SWAP1 DUP2 ADD PUSH1 0x40 MSTORE DUP1 SWAP3 SWAP2 SWAP1 DUP2 DUP2 MSTORE PUSH1 0x20 ADD DUP3 DUP1 SLOAD PUSH2 0xB39 SWAP1 PUSH2 0x3CE8 JUMP JUMPDEST DUP1 ISZERO PUSH2 0xB86 JUMPI DUP1 PUSH1 0x1F LT PUSH2 0xB5B JUMPI PUSH2 0x100 DUP1 DUP4 SLOAD DIV MUL DUP4 MSTORE SWAP2 PUSH1 0x20 ADD SWAP2 PUSH2 0xB86 JUMP JUMPDEST DUP3 ADD SWAP2 SWAP1 PUSH1 0x0 MSTORE PUSH1 0x20 PUSH1 0x0 KECCAK256 SWAP1 JUMPDEST DUP2 SLOAD DUP2 MSTORE SWAP1 PUSH1 0x1 ADD SWAP1 PUSH1 0x20 ADD DUP1 DUP4 GT PUSH2 0xB69 JUMPI DUP3 SWAP1 SUB PUSH1 0x1F AND DUP3 ADD SWAP2 JUMPDEST POP POP POP POP POP SWAP1 POP SWAP1 JUMP JUMPDEST PUSH1 0x0 PUSH2 0xB9B DUP3 PUSH2 0x1F98 JUMP JUMPDEST PUSH2 0xBB0 JUMPI PUSH2 0xBAF PUSH4 0xCF4700E4 PUSH1 0xE0 SHL PUSH2 0x1FF7 JUMP JUMPDEST JUMPDEST PUSH1 0x6 PUSH1 0x0 DUP4 DUP2 MSTORE PUSH1 0x20 ADD SWAP1 DUP2 MSTORE PUSH1 0x20 ADD PUSH1 0x0 KECCAK256 PUSH1 0x0 ADD PUSH1 0x0 SWAP1 SLOAD SWAP1 PUSH2 0x100 EXP SWAP1 DIV PUSH20 0xFFFFFFFFFFFFFFFFFFFFFFFFFFFFFFFFFFFFFFFF AND SWAP1 POP SWAP2 SWAP1 POP JUMP JUMPDEST PUSH2 0xBFA DUP3 DUP3 PUSH1 0x1 PUSH2 0x2001 JUMP JUMPDEST POP POP JUMP JUMPDEST PUSH32 0x8E6595EF9AFB2A8F70320F393F567BB7A0E6C4ED483CAEE30F90CC5FCD6659B4 DUP2 JUMP JUMPDEST POP JUMP JUMPDEST PUSH1 0x0 PUSH2 0xC2F PUSH2 0x2130 JUMP JUMPDEST PUSH1 0x1 SLOAD PUSH1 0x0 SLOAD SUB SUB SWAP1 POP SWAP1 JUMP JUMPDEST PUSH1 0x0 PUSH2 0xC47 DUP3 PUSH2 0x2135 JUMP JUMPDEST SWAP1 POP PUSH20 0xFFFFFFFFFFFFFFFFFFFFFFFFFFFFFFFFFFFFFFFF DUP5 PUSH20 0xFFFFFFFFFFFFFFFFFFFFFFFFFFFFFFFFFFFFFFFF AND AND SWAP4 POP DUP4 PUSH20 0xFFFFFFFFFFFFFFFFFFFFFFFFFFFFFFFFFFFFFFFF AND DUP2 PUSH20 0xFFFFFFFFFFFFFFFFFFFFFFFFFFFFFFFFFFFFFFFF AND EQ PUSH2 0xCBC JUMPI PUSH2 0xCBB PUSH4 0xA1148100 PUSH1 0xE0 SHL PUSH2 0x1FF7 JUMP JUMPDEST JUMPDEST PUSH1 0x0 DUP1 PUSH2 0xCC8 DUP5 PUSH2 0x21EB JUMP JUMPDEST SWAP2 POP SWAP2 POP PUSH2 0xCDE DUP2 DUP8 PUSH2 0xCD9 PUSH2 0x2212 JUMP JUMPDEST PUSH2 0x221A JUMP JUMPDEST PUSH2 0xD09 JUMPI PUSH2 0xCF3 DUP7 PUSH2 0xCEE PUSH2 0x2212 JUMP JUMPDEST PUSH2 0x1C9B JUMP JUMPDEST PUSH2 0xD08 JUMPI PUSH2 0xD07 PUSH4 0x59C896BE PUSH1 0xE0 SHL PUSH2 0x1FF7 JUMP JUMPDEST JUMPDEST JUMPDEST PUSH2 0xD16 DUP7 DUP7 DUP7 PUSH1 0x1 PUSH2 0x225E JUMP JUMPDEST DUP1 ISZERO PUSH2 0xD21 JUMPI PUSH1 0x0 DUP3 SSTORE JUMPDEST PUSH1 0x5 PUSH1 0x0 DUP8 PUSH20 0xFFFFFFFFFFFFFFFFFFFFFFFFFFFFFFFFFFFFFFFF AND PUSH20 0xFFFFFFFFFFFFFFFFFFFFFFFFFFFFFFFFFFFFFFFF AND DUP2 MSTORE PUSH1 0x20 ADD SWAP1 DUP2 MSTORE PUSH1 0x20 ADD PUSH1 0x0 KECCAK256 PUSH1 0x0 DUP2 SLOAD PUSH1 0x1 SWAP1 SUB SWAP2 SWAP1 POP DUP2 SWAP1 SSTORE POP PUSH1 0x5 PUSH1 0x0 DUP7 PUSH20 0xFFFFFFFFFFFFFFFFFFFFFFFFFFFFFFFFFFFFFFFF AND PUSH20 0xFFFFFFFFFFFFFFFFFFFFFFFFFFFFFFFFFFFFFFFF AND DUP2 MSTORE PUSH1 0x20 ADD SWAP1 DUP2 MSTORE PUSH1 0x20 ADD PUSH1 0x0 KECCAK256 PUSH1 0x0 DUP2 SLOAD PUSH1 0x1 ADD SWAP2 SWAP1 POP DUP2 SWAP1 SSTORE POP PUSH2 0xDEF DUP6 PUSH2 0xDCB DUP9 DUP9 DUP8 PUSH2 0x2264 JUMP JUMPDEST PUSH29 0x200000000000000000000000000000000000000000000000000000000 OR PUSH2 0x228C JUMP JUMPDEST PUSH1 0x4 PUSH1 0x0 DUP7 DUP2 MSTORE PUSH1 0x20 ADD SWAP1 DUP2 MSTORE PUSH1 0x20 ADD PUSH1 0x0 KECCAK256 DUP2 SWAP1 SSTORE POP PUSH1 0x0 PUSH29 0x200000000000000000000000000000000000000000000000000000000 DUP5 AND SUB PUSH2 0xE75 JUMPI PUSH1 0x0 PUSH1 0x1 DUP6 ADD SWAP1 POP PUSH1 0x0 PUSH1 0x4 PUSH1 0x0 DUP4 DUP2 MSTORE PUSH1 0x20 ADD SWAP1 DUP2 MSTORE PUSH1 0x20 ADD PUSH1 0x0 KECCAK256 SLOAD SUB PUSH2 0xE73 JUMPI PUSH1 0x0 SLOAD DUP2 EQ PUSH2 0xE72 JUMPI DUP4 PUSH1 0x4 PUSH1 0x0 DUP4 DUP2 MSTORE PUSH1 0x20 ADD SWAP1 DUP2 MSTORE PUSH1 0x20 ADD PUSH1 0x0 KECCAK256 DUP2 SWAP1 SSTORE POP JUMPDEST JUMPDEST POP JUMPDEST PUSH1 0x0 PUSH20 0xFFFFFFFFFFFFFFFFFFFFFFFFFFFFFFFFFFFFFFFF DUP7 PUSH20 0xFFFFFFFFFFFFFFFFFFFFFFFFFFFFFFFFFFFFFFFF AND AND SWAP1 POP DUP5 DUP2 DUP9 PUSH32 0xDDF252AD1BE2C89B69C2B068FC378DAA952BA7F163C4A11628F55A4DF523B3EF PUSH1 0x0 DUP1 LOG4 PUSH1 0x0 DUP2 SUB PUSH2 0xEE7 JUMPI PUSH2 0xEE6 PUSH4 0xEA553B34 PUSH1 0xE0 SHL PUSH2 0x1FF7 JUMP JUMPDEST JUMPDEST PUSH2 0xEF4 DUP8 DUP8 DUP8 PUSH1 0x1 PUSH2 0x22B7 JUMP JUMPDEST POP POP POP POP POP POP POP JUMP JUMPDEST PUSH1 0x0 PUSH1 0x8 PUSH1 0x0 DUP4 DUP2 MSTORE PUSH1 0x20 ADD SWAP1 DUP2 MSTORE PUSH1 0x20 ADD PUSH1 0x0 KECCAK256 PUSH1 0x1 ADD SLOAD SWAP1 POP SWAP2 SWAP1 POP JUMP JUMPDEST PUSH2 0xF25 PUSH2 0x22BD JUMP JUMPDEST POP JUMP JUMPDEST PUSH1 0x0 PUSH32 0xB19546DFF01E856FB3F010C267A7B1C60363CF8A4664E21CC89C26224620214E PUSH2 0xF54 DUP2 PUSH2 0x22BF JUMP JUMPDEST PUSH2 0xF5C PUSH2 0x2D7A JUMP JUMPDEST PUSH1 0x0 DUP2 PUSH1 0xA0 ADD SWAP1 PUSH1 0x5 DUP2 GT ISZERO PUSH2 0xF75 JUMPI PUSH2 0xF74 PUSH2 0x3424 JUMP JUMPDEST JUMPDEST SWAP1 DUP2 PUSH1 0x5 DUP2 GT ISZERO PUSH2 0xF89 JUMPI PUSH2 0xF88 PUSH2 0x3424 JUMP JUMPDEST JUMPDEST DUP2 MSTORE POP POP DUP4 DUP2 PUSH1 0x20 ADD DUP2 SWAP1 MSTORE POP DUP5 DUP2 PUSH1 0x0 ADD DUP2 SWAP1 MSTORE POP DUP1 PUSH1 0xA PUSH1 0x0 PUSH1 0x9 PUSH1 0x0 SWAP1 SLOAD SWAP1 PUSH2 0x100 EXP SWAP1 DIV PUSH1 0xFF AND PUSH1 0xFF AND PUSH2 0xFFFF AND DUP2 MSTORE PUSH1 0x20 ADD SWAP1 DUP2 MSTORE PUSH1 0x20 ADD PUSH1 0x0 KECCAK256 PUSH1 0x0 DUP3 ADD MLOAD DUP2 PUSH1 0x0 ADD SWAP1 DUP2 PUSH2 0xFDE SWAP2 SWAP1 PUSH2 0x3EC5 JUMP JUMPDEST POP PUSH1 0x20 DUP3 ADD MLOAD DUP2 PUSH1 0x1 ADD SWAP1 DUP2 PUSH2 0xFF4 SWAP2 SWAP1 PUSH2 0x3EC5 JUMP JUMPDEST POP PUSH1 0x40 DUP3 ADD MLOAD DUP2 PUSH1 0x2 ADD SSTORE PUSH1 0x60 DUP3 ADD MLOAD DUP2 PUSH1 0x3 ADD SWAP1 DUP2 PUSH2 0x1014 SWAP2 SWAP1 PUSH2 0x3EC5 JUMP JUMPDEST POP PUSH1 0x80 DUP3 ADD MLOAD DUP2 PUSH1 0x4 ADD SSTORE PUSH1 0xA0 DUP3 ADD MLOAD DUP2 PUSH1 0x5 ADD PUSH1 0x0 PUSH2 0x100 EXP DUP2 SLOAD DUP2 PUSH1 0xFF MUL NOT AND SWAP1 DUP4 PUSH1 0x5 DUP2 GT ISZERO PUSH2 0x104A JUMPI PUSH2 0x1049 PUSH2 0x3424 JUMP JUMPDEST JUMPDEST MUL OR SWAP1 SSTORE POP SWAP1 POP POP PUSH2 0x105A PUSH2 0x1544 JUMP JUMPDEST SWAP3 POP POP POP SWAP3 SWAP2 POP POP JUMP JUMPDEST PUSH1 0x0 PUSH32 0x8E6595EF9AFB2A8F70320F393F567BB7A0E6C4ED483CAEE30F90CC5FCD6659B4 PUSH2 0x1090 DUP2 PUSH2 0x22BF JUMP JUMPDEST PUSH1 0x0 PUSH1 0xA PUSH1 0x0 PUSH1 0x9 PUSH1 0x0 SWAP1 SLOAD SWAP1 PUSH2 0x100 EXP SWAP1 DIV PUSH1 0xFF AND PUSH1 0xFF AND PUSH2 0xFFFF AND DUP2 MSTORE PUSH1 0x20 ADD SWAP1 DUP2 MSTORE PUSH1 0x20 ADD PUSH1 0x0 KECCAK256 SWAP1 POP DUP4 DUP2 PUSH1 0x3 ADD SWAP1 DUP2 PUSH2 0x10CE SWAP2 SWAP1 PUSH2 0x3EC5 JUMP JUMPDEST POP PUSH1 0x1 PUSH1 0x5 DUP2 GT ISZERO PUSH2 0x10E3 JUMPI PUSH2 0x10E2 PUSH2 0x3424 JUMP JUMPDEST JUMPDEST DUP2 PUSH1 0x5 ADD PUSH1 0x0 SWAP1 SLOAD SWAP1 PUSH2 0x100 EXP SWAP1 DIV PUSH1 0xFF AND PUSH1 0x5 DUP2 GT ISZERO PUSH2 0x1107 JUMPI PUSH2 0x1106 PUSH2 0x3424 JUMP JUMPDEST JUMPDEST SUB PUSH2 0x1147 JUMPI PUSH1 0x2 PUSH1 0x5 DUP2 GT ISZERO PUSH2 0x1120 JUMPI PUSH2 0x111F PUSH2 0x3424 JUMP JUMPDEST JUMPDEST DUP2 PUSH1 0x5 ADD PUSH1 0x0 SWAP1 SLOAD SWAP1 PUSH2 0x100 EXP SWAP1 DIV PUSH1 0xFF AND PUSH1 0x5 DUP2 GT ISZERO PUSH2 0x1144 JUMPI PUSH2 0x1143 PUSH2 0x3424 JUMP JUMPDEST JUMPDEST POP POP JUMPDEST PUSH2 0x114F PUSH2 0x1544 JUMP JUMPDEST SWAP3 POP POP POP SWAP2 SWAP1 POP JUMP JUMPDEST PUSH2 0x1161 DUP3 PUSH2 0xEFD JUMP JUMPDEST PUSH2 0x116A DUP2 PUSH2 0x22BF JUMP JUMPDEST PUSH2 0x1174 DUP4 DUP4 PUSH2 0x22D3 JUMP JUMPDEST POP POP POP JUMP JUMPDEST PUSH32 0x8E6595EF9AFB2A8F70320F393F567BB7A0E6C4ED483CAEE30F90CC5FCD6659B4 PUSH2 0x11A3 DUP2 PUSH2 0x22BF JUMP JUMPDEST PUSH1 0x0 PUSH1 0xB PUSH1 0x0 DUP6 DUP2 MSTORE PUSH1 0x20 ADD SWAP1 DUP2 MSTORE PUSH1 0x20 ADD PUSH1 0x0 KECCAK256 PUSH1 0x1 ADD DUP1 SLOAD PUSH2 0x11C6 SWAP1 PUSH2 0x3CE8 JUMP JUMPDEST SWAP1 POP EQ PUSH2 0x11F2 JUMPI DUP2 PUSH1 0xB PUSH1 0x0 DUP6 DUP2 MSTORE PUSH1 0x20 ADD SWAP1 DUP2 MSTORE PUSH1 0x20 ADD PUSH1 0x0 KECCAK256 PUSH1 0x1 ADD SWAP1 DUP2 PUSH2 0x11F0 SWAP2 SWAP1 PUSH2 0x3EC5 JUMP JUMPDEST POP JUMPDEST POP POP POP JUMP JUMPDEST PUSH2 0x11FF PUSH2 0x23B4 JUMP JUMPDEST PUSH20 0xFFFFFFFFFFFFFFFFFFFFFFFFFFFFFFFFFFFFFFFF AND DUP2 PUSH20 0xFFFFFFFFFFFFFFFFFFFFFFFFFFFFFFFFFFFFFFFF AND EQ PUSH2 0x126C JUMPI PUSH1 0x40 MLOAD PUSH32 0x8C379A000000000000000000000000000000000000000000000000000000000 DUP2 MSTORE PUSH1 0x4 ADD PUSH2 0x1263 SWAP1 PUSH2 0x4009 JUMP JUMPDEST PUSH1 0x40 MLOAD DUP1 SWAP2 SUB SWAP1 REVERT JUMPDEST PUSH2 0x1276 DUP3 DUP3 PUSH2 0x23BC JUMP JUMPDEST POP POP JUMP JUMPDEST PUSH1 0x0 PUSH32 0x9F2DF0FED2C77648DE5860A4CC508CD0818C85B8B8A1AB4CEEEF8D981C8956A6 PUSH2 0x12A6 DUP2 PUSH2 0x22BF JUMP JUMPDEST PUSH1 0x0 PUSH1 0xA PUSH1 0x0 PUSH1 0x9 PUSH1 0x0 SWAP1 SLOAD SWAP1 PUSH2 0x100 EXP SWAP1 DIV PUSH1 0xFF AND PUSH1 0xFF AND PUSH2 0xFFFF AND DUP2 MSTORE PUSH1 0x20 ADD SWAP1 DUP2 MSTORE PUSH1 0x20 ADD PUSH1 0x0 KECCAK256 SWAP1 POP DUP5 DUP2 PUSH1 0x2 ADD DUP2 SWAP1 SSTORE POP DUP4 DUP2 PUSH1 0x4 ADD DUP2 SWAP1 SSTORE POP PUSH1 0x0 PUSH1 0x5 DUP2 GT ISZERO PUSH2 0x12F9 JUMPI PUSH2 0x12F8 PUSH2 0x3424 JUMP JUMPDEST JUMPDEST DUP2 PUSH1 0x5 ADD PUSH1 0x0 SWAP1 SLOAD SWAP1 PUSH2 0x100 EXP SWAP1 DIV PUSH1 0xFF AND PUSH1 0x5 DUP2 GT ISZERO PUSH2 0x131D JUMPI PUSH2 0x131C PUSH2 0x3424 JUMP JUMPDEST JUMPDEST SUB PUSH2 0x135D JUMPI PUSH1 0x1 PUSH1 0x5 DUP2 GT ISZERO PUSH2 0x1336 JUMPI PUSH2 0x1335 PUSH2 0x3424 JUMP JUMPDEST JUMPDEST DUP2 PUSH1 0x5 ADD PUSH1 0x0 SWAP1 SLOAD SWAP1 PUSH2 0x100 EXP SWAP1 DIV PUSH1 0xFF AND PUSH1 0x5 DUP2 GT ISZERO PUSH2 0x135A JUMPI PUSH2 0x1359 PUSH2 0x3424 JUMP JUMPDEST JUMPDEST POP POP JUMPDEST PUSH2 0x1365 PUSH2 0x1544 JUMP JUMPDEST SWAP3 POP POP POP SWAP3 SWAP2 POP POP JUMP JUMPDEST POP JUMP JUMPDEST PUSH2 0x138D DUP4 DUP4 DUP4 PUSH1 0x40 MLOAD DUP1 PUSH1 0x20 ADD PUSH1 0x40 MSTORE DUP1 PUSH1 0x0 DUP2 MSTORE POP PUSH2 0x1AF1 JUMP JUMPDEST POP POP POP JUMP JUMPDEST PUSH2 0x139D DUP2 PUSH1 0x1 PUSH2 0x249E JUMP JUMPDEST POP JUMP JUMPDEST JUMP JUMPDEST PUSH2 0x13AA PUSH2 0x22BD JUMP JUMPDEST POP JUMP JUMPDEST POP POP JUMP JUMPDEST PUSH32 0x9F2DF0FED2C77648DE5860A4CC508CD0818C85B8B8A1AB4CEEEF8D981C8956A6 PUSH2 0x13DB DUP2 PUSH2 0x22BF JUMP JUMPDEST PUSH2 0x13E5 DUP5 DUP4 PUSH2 0x26CF JUMP JUMPDEST PUSH2 0x13EF DUP4 DUP6 PUSH2 0x2744 JUMP JUMPDEST POP POP POP POP JUMP JUMPDEST PUSH1 0x60 DUP1 PUSH1 0x0 DUP5 DUP5 SWAP1 POP SWAP1 POP PUSH1 0x40 MLOAD SWAP2 POP DUP1 DUP3 MSTORE DUP1 PUSH1 0x5 SHL SWAP1 POP DUP1 PUSH1 0x20 DUP4 ADD ADD PUSH1 0x40 MSTORE JUMPDEST PUSH1 0x0 DUP2 EQ PUSH2 0x144A JUMPI PUSH1 0x0 PUSH1 0x20 DUP3 SUB SWAP2 POP DUP2 DUP7 ADD CALLDATALOAD SWAP1 POP PUSH1 0x0 PUSH2 0x1439 DUP3 PUSH2 0x1B45 JUMP JUMPDEST SWAP1 POP DUP1 DUP4 PUSH1 0x20 DUP7 ADD ADD MSTORE POP POP PUSH2 0x1418 JUMP JUMPDEST DUP2 SWAP3 POP POP POP SWAP3 SWAP2 POP POP JUMP JUMPDEST PUSH1 0x0 PUSH2 0x1460 DUP3 PUSH2 0x2135 JUMP JUMPDEST SWAP1 POP SWAP2 SWAP1 POP JUMP JUMPDEST PUSH1 0x0 DUP1 PUSH20 0xFFFFFFFFFFFFFFFFFFFFFFFFFFFFFFFFFFFFFFFF AND DUP3 PUSH20 0xFFFFFFFFFFFFFFFFFFFFFFFFFFFFFFFFFFFFFFFF AND SUB PUSH2 0x14AD JUMPI PUSH2 0x14AC PUSH4 0x8F4EB604 PUSH1 0xE0 SHL PUSH2 0x1FF7 JUMP JUMPDEST JUMPDEST PUSH8 0xFFFFFFFFFFFFFFFF PUSH1 0x5 PUSH1 0x0 DUP5 PUSH20 0xFFFFFFFFFFFFFFFFFFFFFFFFFFFFFFFFFFFFFFFF AND PUSH20 0xFFFFFFFFFFFFFFFFFFFFFFFFFFFFFFFFFFFFFFFF AND DUP2 MSTORE PUSH1 0x20 ADD SWAP1 DUP2 MSTORE PUSH1 0x20 ADD PUSH1 0x0 KECCAK256 SLOAD AND SWAP1 POP SWAP2 SWAP1 POP JUMP JUMPDEST POP JUMP JUMPDEST PUSH32 0x9F2DF0FED2C77648DE5860A4CC508CD0818C85B8B8A1AB4CEEEF8D981C8956A6 PUSH2 0x152B DUP2 PUSH2 0x22BF JUMP JUMPDEST PUSH2 0x1535 DUP4 DUP4 PUSH2 0x26CF JUMP JUMPDEST PUSH2 0x153F CALLER DUP5 PUSH2 0x2744 JUMP JUMPDEST POP POP POP JUMP JUMPDEST PUSH1 0x0 PUSH32 0xB19546DFF01E856FB3F010C267A7B1C60363CF8A4664E21CC89C26224620214E PUSH2 0x1570 DUP2 PUSH2 0x22BF JUMP JUMPDEST PUSH1 0xA PUSH1 0x0 PUSH1 0x9 PUSH1 0x0 SWAP1 SLOAD SWAP1 PUSH2 0x100 EXP SWAP1 DIV PUSH1 0xFF AND PUSH1 0xFF AND PUSH2 0xFFFF AND DUP2 MSTORE PUSH1 0x20 ADD SWAP1 DUP2 MSTORE PUSH1 0x20 ADD PUSH1 0x0 KECCAK256 PUSH1 0x5 ADD PUSH1 0x0 SWAP1 SLOAD SWAP1 PUSH2 0x100 EXP SWAP1 DIV PUSH1 0xFF AND SWAP2 POP POP SWAP1 JUMP JUMPDEST PUSH1 0x60 PUSH1 0x0 PUSH2 0x15BD DUP4 PUSH2 0x1467 JUMP JUMPDEST SWAP1 POP PUSH1 0x60 PUSH1 0x40 MLOAD SWAP1 POP PUSH1 0x1 DUP3 ADD PUSH1 0x5 SHL DUP2 ADD PUSH1 0x40 MSTORE DUP2 DUP2 MSTORE PUSH1 0x0 DUP1 PUSH1 0x0 PUSH2 0x15E2 PUSH2 0x2130 JUMP JUMPDEST SWAP1 POP JUMPDEST DUP5 DUP3 EQ PUSH2 0x1634 JUMPI PUSH1 0x0 PUSH2 0x15F7 DUP3 PUSH2 0x2762 JUMP JUMPDEST SWAP1 POP PUSH1 0x40 DUP2 ADD MLOAD PUSH2 0x1628 JUMPI DUP1 MLOAD ISZERO PUSH2 0x160E JUMPI DUP1 MLOAD SWAP4 POP JUMPDEST DUP8 DUP5 XOR PUSH1 0x60 SHL PUSH2 0x1627 JUMPI PUSH1 0x1 DUP4 ADD SWAP3 POP DUP2 DUP4 PUSH1 0x5 SHL DUP7 ADD MSTORE JUMPDEST JUMPDEST PUSH1 0x1 DUP3 ADD SWAP2 POP POP PUSH2 0x15E5 JUMP JUMPDEST POP DUP3 SWAP5 POP POP POP POP POP SWAP2 SWAP1 POP JUMP JUMPDEST PUSH1 0x0 PUSH1 0x8 PUSH1 0x0 DUP5 DUP2 MSTORE PUSH1 0x20 ADD SWAP1 DUP2 MSTORE PUSH1 0x20 ADD PUSH1 0x0 KECCAK256 PUSH1 0x0 ADD PUSH1 0x0 DUP4 PUSH20 0xFFFFFFFFFFFFFFFFFFFFFFFFFFFFFFFFFFFFFFFF AND PUSH20 0xFFFFFFFFFFFFFFFFFFFFFFFFFFFFFFFFFFFFFFFF AND DUP2 MSTORE PUSH1 0x20 ADD SWAP1 DUP2 MSTORE PUSH1 0x20 ADD PUSH1 0x0 KECCAK256 PUSH1 0x0 SWAP1 SLOAD SWAP1 PUSH2 0x100 EXP SWAP1 DIV PUSH1 0xFF AND SWAP1 POP SWAP3 SWAP2 POP POP JUMP JUMPDEST JUMP JUMPDEST PUSH1 0x60 PUSH1 0x3 DUP1 SLOAD PUSH2 0x16BD SWAP1 PUSH2 0x3CE8 JUMP JUMPDEST DUP1 PUSH1 0x1F ADD PUSH1 0x20 DUP1 SWAP2 DIV MUL PUSH1 0x20 ADD PUSH1 0x40 MLOAD SWAP1 DUP2 ADD PUSH1 0x40 MSTORE DUP1 SWAP3 SWAP2 SWAP1 DUP2 DUP2 MSTORE PUSH1 0x20 ADD DUP3 DUP1 SLOAD PUSH2 0x16E9 SWAP1 PUSH2 0x3CE8 JUMP JUMPDEST DUP1 ISZERO PUSH2 0x1736 JUMPI DUP1 PUSH1 0x1F LT PUSH2 0x170B JUMPI PUSH2 0x100 DUP1 DUP4 SLOAD DIV MUL DUP4 MSTORE SWAP2 PUSH1 0x20 ADD SWAP2 PUSH2 0x1736 JUMP JUMPDEST DUP3 ADD SWAP2 SWAP1 PUSH1 0x0 MSTORE PUSH1 0x20 PUSH1 0x0 KECCAK256 SWAP1 JUMPDEST DUP2 SLOAD DUP2 MSTORE SWAP1 PUSH1 0x1 ADD SWAP1 PUSH1 0x20 ADD DUP1 DUP4 GT PUSH2 0x1719 JUMPI DUP3 SWAP1 SUB PUSH1 0x1F AND DUP3 ADD SWAP2 JUMPDEST POP POP POP POP POP SWAP1 POP SWAP1 JUMP JUMPDEST PUSH1 0x60 DUP2 DUP4 LT PUSH2 0x175A JUMPI PUSH2 0x1759 PUSH4 0x32C1995A PUSH1 0xE0 SHL PUSH2 0x1FF7 JUMP JUMPDEST JUMPDEST PUSH2 0x1762 PUSH2 0x2130 JUMP JUMPDEST DUP4 LT ISZERO PUSH2 0x1774 JUMPI PUSH2 0x1771 PUSH2 0x2130 JUMP JUMPDEST SWAP3 POP JUMPDEST PUSH1 0x0 PUSH2 0x177E PUSH2 0x278D JUMP JUMPDEST SWAP1 POP DUP1 DUP4 LT PUSH2 0x178B JUMPI DUP1 SWAP3 POP JUMPDEST PUSH1 0x60 PUSH1 0x0 PUSH2 0x1798 DUP8 PUSH2 0x1467 JUMP JUMPDEST SWAP1 POP PUSH1 0x0 DUP6 DUP8 LT SWAP1 POP DUP1 DUP3 MUL SWAP2 POP PUSH1 0x0 DUP3 EQ PUSH2 0x184A JUMPI DUP2 DUP8 DUP8 SUB GT PUSH2 0x17BD JUMPI DUP7 DUP7 SUB SWAP2 POP JUMPDEST PUSH1 0x40 MLOAD SWAP3 POP PUSH1 0x1 DUP3 ADD PUSH1 0x5 SHL DUP4 ADD PUSH1 0x40 MSTORE PUSH1 0x0 PUSH2 0x17D9 DUP9 PUSH2 0x1B45 JUMP JUMPDEST SWAP1 POP PUSH1 0x0 DUP2 PUSH1 0x40 ADD MLOAD PUSH2 0x17EE JUMPI DUP2 PUSH1 0x0 ADD MLOAD SWAP1 POP JUMPDEST PUSH1 0x0 JUMPDEST PUSH2 0x17FA DUP11 PUSH2 0x2762 JUMP JUMPDEST SWAP3 POP PUSH1 0x40 DUP4 ADD MLOAD PUSH2 0x182B JUMPI DUP3 MLOAD ISZERO PUSH2 0x1811 JUMPI DUP3 MLOAD SWAP2 POP JUMPDEST DUP11 DUP3 XOR PUSH1 0x60 SHL PUSH2 0x182A JUMPI PUSH1 0x1 DUP2 ADD SWAP1 POP DUP10 DUP2 PUSH1 0x5 SHL DUP8 ADD MSTORE JUMPDEST JUMPDEST PUSH1 0x1 DUP11 ADD SWAP10 POP DUP9 DUP11 EQ DUP1 PUSH2 0x183E JUMPI POP DUP5 DUP2 EQ JUMPDEST ISZERO PUSH2 0x17F1 JUMPI DUP1 DUP7 MSTORE POP POP POP JUMPDEST DUP3 SWAP5 POP POP POP POP POP SWAP4 SWAP3 POP POP POP JUMP JUMPDEST PUSH1 0x0 DUP1 SHL DUP2 JUMP JUMPDEST DUP1 PUSH1 0x7 PUSH1 0x0 PUSH2 0x186C PUSH2 0x2212 JUMP JUMPDEST PUSH20 0xFFFFFFFFFFFFFFFFFFFFFFFFFFFFFFFFFFFFFFFF AND PUSH20 0xFFFFFFFFFFFFFFFFFFFFFFFFFFFFFFFFFFFFFFFF AND DUP2 MSTORE PUSH1 0x20 ADD SWAP1 DUP2 MSTORE PUSH1 0x20 ADD PUSH1 0x0 KECCAK256 PUSH1 0x0 DUP5 PUSH20 0xFFFFFFFFFFFFFFFFFFFFFFFFFFFFFFFFFFFFFFFF AND PUSH20 0xFFFFFFFFFFFFFFFFFFFFFFFFFFFFFFFFFFFFFFFF AND DUP2 MSTORE PUSH1 0x20 ADD SWAP1 DUP2 MSTORE PUSH1 0x20 ADD PUSH1 0x0 KECCAK256 PUSH1 0x0 PUSH2 0x100 EXP DUP2 SLOAD DUP2 PUSH1 0xFF MUL NOT AND SWAP1 DUP4 ISZERO ISZERO MUL OR SWAP1 SSTORE POP DUP2 PUSH20 0xFFFFFFFFFFFFFFFFFFFFFFFFFFFFFFFFFFFFFFFF AND PUSH2 0x1919 PUSH2 0x2212 JUMP JUMPDEST PUSH20 0xFFFFFFFFFFFFFFFFFFFFFFFFFFFFFFFFFFFFFFFF AND PUSH32 0x17307EAB39AB6107E8899845AD3D59BD9653F200F220920489CA2B5937696C31 DUP4 PUSH1 0x40 MLOAD PUSH2 0x195E SWAP2 SWAP1 PUSH2 0x2EC5 JUMP JUMPDEST PUSH1 0x40 MLOAD DUP1 SWAP2 SUB SWAP1 LOG3 POP POP JUMP JUMPDEST PUSH32 0x9F2DF0FED2C77648DE5860A4CC508CD0818C85B8B8A1AB4CEEEF8D981C8956A6 PUSH2 0x1994 DUP2 PUSH2 0x22BF JUMP JUMPDEST PUSH1 0x0 PUSH1 0xA PUSH1 0x0 PUSH1 0x9 PUSH1 0x0 SWAP1 SLOAD SWAP1 PUSH2 0x100 EXP SWAP1 DIV PUSH1 0xFF AND PUSH1 0xFF AND PUSH2 0xFFFF AND DUP2 MSTORE PUSH1 0x20 ADD SWAP1 DUP2 MSTORE PUSH1 0x20 ADD PUSH1 0x0 KECCAK256 SWAP1 POP PUSH1 0x1 PUSH1 0x5 DUP2 GT ISZERO PUSH2 0x19D5 JUMPI PUSH2 0x19D4 PUSH2 0x3424 JUMP JUMPDEST JUMPDEST DUP2 PUSH1 0x5 ADD PUSH1 0x0 SWAP1 SLOAD SWAP1 PUSH2 0x100 EXP SWAP1 DIV PUSH1 0xFF AND PUSH1 0x5 DUP2 GT ISZERO PUSH2 0x19F9 JUMPI PUSH2 0x19F8 PUSH2 0x3424 JUMP JUMPDEST JUMPDEST EQ PUSH2 0x1A39 JUMPI PUSH1 0x40 MLOAD PUSH32 0x8C379A000000000000000000000000000000000000000000000000000000000 DUP2 MSTORE PUSH1 0x4 ADD PUSH2 0x1A30 SWAP1 PUSH2 0x409B JUMP JUMPDEST PUSH1 0x40 MLOAD DUP1 SWAP2 SUB SWAP1 REVERT JUMPDEST PUSH1 0x2 PUSH1 0x5 DUP2 GT ISZERO PUSH2 0x1A4D JUMPI PUSH2 0x1A4C PUSH2 0x3424 JUMP JUMPDEST JUMPDEST DUP2 PUSH1 0x5 ADD PUSH1 0x0 SWAP1 SLOAD SWAP1 PUSH2 0x100 EXP SWAP1 DIV PUSH1 0xFF AND PUSH1 0x5 DUP2 GT ISZERO PUSH2 0x1A71 JUMPI PUSH2 0x1A70 PUSH2 0x3424 JUMP JUMPDEST JUMPDEST EQ PUSH2 0x1AB1 JUMPI PUSH1 0x40 MLOAD PUSH32 0x8C379A000000000000000000000000000000000000000000000000000000000 DUP2 MSTORE PUSH1 0x4 ADD PUSH2 0x1AA8 SWAP1 PUSH2 0x412D JUMP JUMPDEST PUSH1 0x40 MLOAD DUP1 SWAP2 SUB SWAP1 REVERT JUMPDEST PUSH1 0x3 DUP2 PUSH1 0x5 ADD PUSH1 0x0 PUSH2 0x100 EXP DUP2 SLOAD DUP2 PUSH1 0xFF MUL NOT AND SWAP1 DUP4 PUSH1 0x5 DUP2 GT ISZERO PUSH2 0x1AD9 JUMPI PUSH2 0x1AD8 PUSH2 0x3424 JUMP JUMPDEST JUMPDEST MUL OR SWAP1 SSTORE POP POP POP JUMP JUMPDEST POP JUMP JUMPDEST PUSH2 0x1AED PUSH2 0x22BD JUMP JUMPDEST POP POP JUMP JUMPDEST PUSH2 0x1AFC DUP5 DUP5 DUP5 PUSH2 0xC3C JUMP JUMPDEST PUSH1 0x0 DUP4 PUSH20 0xFFFFFFFFFFFFFFFFFFFFFFFFFFFFFFFFFFFFFFFF AND EXTCODESIZE EQ PUSH2 0x1B3D JUMPI PUSH2 0x1B27 DUP5 DUP5 DUP5 DUP5 PUSH2 0x2796 JUMP JUMPDEST PUSH2 0x1B3C JUMPI PUSH2 0x1B3B PUSH4 0xD1A57ED6 PUSH1 0xE0 SHL PUSH2 0x1FF7 JUMP JUMPDEST JUMPDEST JUMPDEST POP POP POP POP JUMP JUMPDEST JUMP JUMPDEST PUSH2 0x1B4D PUSH2 0x2DC2 JUMP JUMPDEST PUSH2 0x1B55 PUSH2 0x2130 JUMP JUMPDEST DUP3 LT PUSH2 0x1B8C JUMPI PUSH2 0x1B63 PUSH2 0x278D JUMP JUMPDEST DUP3 LT ISZERO PUSH2 0x1B8B JUMPI PUSH2 0x1B73 DUP3 PUSH2 0x2762 JUMP JUMPDEST SWAP1 POP DUP1 PUSH1 0x40 ADD MLOAD PUSH2 0x1B8A JUMPI PUSH2 0x1B87 DUP3 PUSH2 0x28C5 JUMP JUMPDEST SWAP1 POP JUMPDEST JUMPDEST JUMPDEST SWAP2 SWAP1 POP JUMP JUMPDEST PUSH1 0x60 PUSH2 0x1B9C DUP3 PUSH2 0x1F98 JUMP JUMPDEST PUSH2 0x1BD2 JUMPI PUSH1 0x40 MLOAD PUSH32 0xA14C4B5000000000000000000000000000000000000000000000000000000000 DUP2 MSTORE PUSH1 0x4 ADD PUSH1 0x40 MLOAD DUP1 SWAP2 SUB SWAP1 REVERT JUMPDEST PUSH1 0x0 PUSH2 0x1BDD DUP4 PUSH2 0x28E5 JUMP JUMPDEST MLOAD SUB PUSH2 0x1BF8 JUMPI PUSH1 0x40 MLOAD DUP1 PUSH1 0x20 ADD PUSH1 0x40 MSTORE DUP1 PUSH1 0x0 DUP2 MSTORE POP PUSH2 0x1C2B JUMP JUMPDEST PUSH2 0x1C01 DUP3 PUSH2 0x28E5 JUMP JUMPDEST PUSH2 0x1C0A DUP4 PUSH2 0x29EE JUMP JUMPDEST PUSH1 0x40 MLOAD PUSH1 0x20 ADD PUSH2 0x1C1B SWAP3 SWAP2 SWAP1 PUSH2 0x4221 JUMP JUMPDEST PUSH1 0x40 MLOAD PUSH1 0x20 DUP2 DUP4 SUB SUB DUP2 MSTORE SWAP1 PUSH1 0x40 MSTORE JUMPDEST SWAP1 POP SWAP2 SWAP1 POP JUMP JUMPDEST PUSH32 0x9F2DF0FED2C77648DE5860A4CC508CD0818C85B8B8A1AB4CEEEF8D981C8956A6 DUP2 JUMP JUMPDEST PUSH2 0x1C5F DUP3 PUSH2 0xEFD JUMP JUMPDEST PUSH2 0x1C68 DUP2 PUSH2 0x22BF JUMP JUMPDEST PUSH2 0x1C72 DUP4 DUP4 PUSH2 0x23BC JUMP JUMPDEST POP POP POP JUMP JUMPDEST PUSH32 0xB19546DFF01E856FB3F010C267A7B1C60363CF8A4664E21CC89C26224620214E DUP2 JUMP JUMPDEST PUSH1 0x0 PUSH1 0x7 PUSH1 0x0 DUP5 PUSH20 0xFFFFFFFFFFFFFFFFFFFFFFFFFFFFFFFFFFFFFFFF AND PUSH20 0xFFFFFFFFFFFFFFFFFFFFFFFFFFFFFFFFFFFFFFFF AND DUP2 MSTORE PUSH1 0x20 ADD SWAP1 DUP2 MSTORE PUSH1 0x20 ADD PUSH1 0x0 KECCAK256 PUSH1 0x0 DUP4 PUSH20 0xFFFFFFFFFFFFFFFFFFFFFFFFFFFFFFFFFFFFFFFF AND PUSH20 0xFFFFFFFFFFFFFFFFFFFFFFFFFFFFFFFFFFFFFFFF AND DUP2 MSTORE PUSH1 0x20 ADD SWAP1 DUP2 MSTORE PUSH1 0x20 ADD PUSH1 0x0 KECCAK256 PUSH1 0x0 SWAP1 SLOAD SWAP1 PUSH2 0x100 EXP SWAP1 DIV PUSH1 0xFF AND SWAP1 POP SWAP3 SWAP2 POP POP JUMP JUMPDEST PUSH1 0x60 PUSH2 0x1D55 DUP3 PUSH20 0xFFFFFFFFFFFFFFFFFFFFFFFFFFFFFFFFFFFFFFFF AND PUSH1 0x14 PUSH1 0xFF AND PUSH2 0x1D5C JUMP JUMPDEST SWAP1 POP SWAP2 SWAP1 POP JUMP JUMPDEST PUSH1 0x60 PUSH1 0x0 PUSH1 0x2 DUP4 PUSH1 0x2 PUSH2 0x1D6F SWAP2 SWAP1 PUSH2 0x428A JUMP JUMPDEST PUSH2 0x1D79 SWAP2 SWAP1 PUSH2 0x42CC JUMP JUMPDEST PUSH8 0xFFFFFFFFFFFFFFFF DUP2 GT ISZERO PUSH2 0x1D92 JUMPI PUSH2 0x1D91 PUSH2 0x3238 JUMP JUMPDEST JUMPDEST PUSH1 0x40 MLOAD SWAP1 DUP1 DUP3 MSTORE DUP1 PUSH1 0x1F ADD PUSH1 0x1F NOT AND PUSH1 0x20 ADD DUP3 ADD PUSH1 0x40 MSTORE DUP1 ISZERO PUSH2 0x1DC4 JUMPI DUP2 PUSH1 0x20 ADD PUSH1 0x1 DUP3 MUL DUP1 CALLDATASIZE DUP4 CALLDATACOPY DUP1 DUP3 ADD SWAP2 POP POP SWAP1 POP JUMPDEST POP SWAP1 POP PUSH32 0x3000000000000000000000000000000000000000000000000000000000000000 DUP2 PUSH1 0x0 DUP2 MLOAD DUP2 LT PUSH2 0x1DFC JUMPI PUSH2 0x1DFB PUSH2 0x4300 JUMP JUMPDEST JUMPDEST PUSH1 0x20 ADD ADD SWAP1 PUSH31 0xFFFFFFFFFFFFFFFFFFFFFFFFFFFFFFFFFFFFFFFFFFFFFFFFFFFFFFFFFFFFFF NOT AND SWAP1 DUP2 PUSH1 0x0 BYTE SWAP1 MSTORE8 POP PUSH32 0x7800000000000000000000000000000000000000000000000000000000000000 DUP2 PUSH1 0x1 DUP2 MLOAD DUP2 LT PUSH2 0x1E60 JUMPI PUSH2 0x1E5F PUSH2 0x4300 JUMP JUMPDEST JUMPDEST PUSH1 0x20 ADD ADD SWAP1 PUSH31 0xFFFFFFFFFFFFFFFFFFFFFFFFFFFFFFFFFFFFFFFFFFFFFFFFFFFFFFFFFFFFFF NOT AND SWAP1 DUP2 PUSH1 0x0 BYTE SWAP1 MSTORE8 POP PUSH1 0x0 PUSH1 0x1 DUP5 PUSH1 0x2 PUSH2 0x1EA0 SWAP2 SWAP1 PUSH2 0x428A JUMP JUMPDEST PUSH2 0x1EAA SWAP2 SWAP1 PUSH2 0x42CC JUMP JUMPDEST SWAP1 POP JUMPDEST PUSH1 0x1 DUP2 GT ISZERO PUSH2 0x1F4A JUMPI PUSH32 0x3031323334353637383961626364656600000000000000000000000000000000 PUSH1 0xF DUP7 AND PUSH1 0x10 DUP2 LT PUSH2 0x1EEC JUMPI PUSH2 0x1EEB PUSH2 0x4300 JUMP JUMPDEST JUMPDEST BYTE PUSH1 0xF8 SHL DUP3 DUP3 DUP2 MLOAD DUP2 LT PUSH2 0x1F03 JUMPI PUSH2 0x1F02 PUSH2 0x4300 JUMP JUMPDEST JUMPDEST PUSH1 0x20 ADD ADD SWAP1 PUSH31 0xFFFFFFFFFFFFFFFFFFFFFFFFFFFFFFFFFFFFFFFFFFFFFFFFFFFFFFFFFFFFFF NOT AND SWAP1 DUP2 PUSH1 0x0 BYTE SWAP1 MSTORE8 POP PUSH1 0x4 DUP6 SWAP1 SHR SWAP5 POP DUP1 PUSH2 0x1F43 SWAP1 PUSH2 0x432F JUMP JUMPDEST SWAP1 POP PUSH2 0x1EAD JUMP JUMPDEST POP PUSH1 0x0 DUP5 EQ PUSH2 0x1F8E JUMPI PUSH1 0x40 MLOAD PUSH32 0x8C379A000000000000000000000000000000000000000000000000000000000 DUP2 MSTORE PUSH1 0x4 ADD PUSH2 0x1F85 SWAP1 PUSH2 0x43A4 JUMP JUMPDEST PUSH1 0x40 MLOAD DUP1 SWAP2 SUB SWAP1 REVERT JUMPDEST DUP1 SWAP2 POP POP SWAP3 SWAP2 POP POP JUMP JUMPDEST PUSH1 0x0 DUP2 PUSH2 0x1FA3 PUSH2 0x2130 JUMP JUMPDEST GT ISZERO DUP1 ISZERO PUSH2 0x1FB2 JUMPI POP PUSH1 0x0 SLOAD DUP3 LT JUMPDEST DUP1 ISZERO PUSH2 0x1FF0 JUMPI POP PUSH1 0x0 PUSH29 0x100000000000000000000000000000000000000000000000000000000 PUSH1 0x4 PUSH1 0x0 DUP6 DUP2 MSTORE PUSH1 0x20 ADD SWAP1 DUP2 MSTORE PUSH1 0x20 ADD PUSH1 0x0 KECCAK256 SLOAD AND EQ JUMPDEST SWAP1 POP SWAP2 SWAP1 POP JUMP JUMPDEST DUP1 PUSH1 0x0 MSTORE PUSH1 0x4 PUSH1 0x0 REVERT JUMPDEST PUSH1 0x0 PUSH2 0x200C DUP4 PUSH2 0x1455 JUMP JUMPDEST SWAP1 POP DUP2 DUP1 ISZERO PUSH2 0x204E JUMPI POP DUP1 PUSH20 0xFFFFFFFFFFFFFFFFFFFFFFFFFFFFFFFFFFFFFFFF AND PUSH2 0x2035 PUSH2 0x2212 JUMP JUMPDEST PUSH20 0xFFFFFFFFFFFFFFFFFFFFFFFFFFFFFFFFFFFFFFFF AND EQ ISZERO JUMPDEST ISZERO PUSH2 0x207A JUMPI PUSH2 0x2064 DUP2 PUSH2 0x205F PUSH2 0x2212 JUMP JUMPDEST PUSH2 0x1C9B JUMP JUMPDEST PUSH2 0x2079 JUMPI PUSH2 0x2078 PUSH4 0xCFB3B942 PUSH1 0xE0 SHL PUSH2 0x1FF7 JUMP JUMPDEST JUMPDEST JUMPDEST DUP4 PUSH1 0x6 PUSH1 0x0 DUP6 DUP2 MSTORE PUSH1 0x20 ADD SWAP1 DUP2 MSTORE PUSH1 0x20 ADD PUSH1 0x0 KECCAK256 PUSH1 0x0 ADD PUSH1 0x0 PUSH2 0x100 EXP DUP2 SLOAD DUP2 PUSH20 0xFFFFFFFFFFFFFFFFFFFFFFFFFFFFFFFFFFFFFFFF MUL NOT AND SWAP1 DUP4 PUSH20 0xFFFFFFFFFFFFFFFFFFFFFFFFFFFFFFFFFFFFFFFF AND MUL OR SWAP1 SSTORE POP DUP3 DUP5 PUSH20 0xFFFFFFFFFFFFFFFFFFFFFFFFFFFFFFFFFFFFFFFF AND DUP3 PUSH20 0xFFFFFFFFFFFFFFFFFFFFFFFFFFFFFFFFFFFFFFFF AND PUSH32 0x8C5BE1E5EBEC7D5BD14F71427D1E84F3DD0314C0F7B2291E5B200AC8C7C3B925 PUSH1 0x40 MLOAD PUSH1 0x40 MLOAD DUP1 SWAP2 SUB SWAP1 LOG4 POP POP POP POP JUMP JUMPDEST PUSH1 0x0 SWAP1 JUMP JUMPDEST PUSH1 0x0 DUP2 PUSH2 0x2140 PUSH2 0x2130 JUMP JUMPDEST GT PUSH2 0x21D5 JUMPI PUSH1 0x4 PUSH1 0x0 DUP4 DUP2 MSTORE PUSH1 0x20 ADD SWAP1 DUP2 MSTORE PUSH1 0x20 ADD PUSH1 0x0 KECCAK256 SLOAD SWAP1 POP PUSH1 0x0 PUSH29 0x100000000000000000000000000000000000000000000000000000000 DUP3 AND SUB PUSH2 0x21D4 JUMPI PUSH1 0x0 DUP2 SUB PUSH2 0x21CF JUMPI PUSH1 0x0 SLOAD DUP3 LT PUSH2 0x21A4 JUMPI PUSH2 0x21A3 PUSH4 0xDF2D9B42 PUSH1 0xE0 SHL PUSH2 0x1FF7 JUMP JUMPDEST JUMPDEST JUMPDEST PUSH1 0x4 PUSH1 0x0 DUP4 PUSH1 0x1 SWAP1 SUB SWAP4 POP DUP4 DUP2 MSTORE PUSH1 0x20 ADD SWAP1 DUP2 MSTORE PUSH1 0x20 ADD PUSH1 0x0 KECCAK256 SLOAD SWAP1 POP PUSH1 0x0 DUP2 SUB PUSH2 0x21E6 JUMPI PUSH2 0x21A5 JUMP JUMPDEST PUSH2 0x21E6 JUMP JUMPDEST JUMPDEST PUSH2 0x21E5 PUSH4 0xDF2D9B42 PUSH1 0xE0 SHL PUSH2 0x1FF7 JUMP JUMPDEST JUMPDEST SWAP2 SWAP1 POP JUMP JUMPDEST PUSH1 0x0 DUP1 PUSH1 0x0 PUSH1 0x6 PUSH1 0x0 DUP6 DUP2 MSTORE PUSH1 0x20 ADD SWAP1 DUP2 MSTORE PUSH1 0x20 ADD PUSH1 0x0 KECCAK256 SWAP1 POP DUP1 SWAP3 POP DUP3 SLOAD SWAP2 POP POP SWAP2 POP SWAP2 JUMP JUMPDEST PUSH1 0x0 CALLER SWAP1 POP SWAP1 JUMP JUMPDEST PUSH1 0x0 PUSH20 0xFFFFFFFFFFFFFFFFFFFFFFFFFFFFFFFFFFFFFFFF DUP4 AND SWAP3 POP PUSH20 0xFFFFFFFFFFFFFFFFFFFFFFFFFFFFFFFFFFFFFFFF DUP3 AND SWAP2 POP DUP4 DUP3 EQ DUP4 DUP4 EQ OR SWAP1 POP SWAP4 SWAP3 POP POP POP JUMP JUMPDEST POP POP POP POP JUMP JUMPDEST PUSH1 0x0 DUP1 PUSH1 0xE8 DUP4 SWAP1 SHR SWAP1 POP PUSH1 0xE8 PUSH2 0x227B DUP7 DUP7 DUP5 PUSH2 0x2A3E JUMP JUMPDEST PUSH3 0xFFFFFF AND SWAP1 SHL SWAP2 POP POP SWAP4 SWAP3 POP POP POP JUMP JUMPDEST PUSH1 0x0 PUSH20 0xFFFFFFFFFFFFFFFFFFFFFFFFFFFFFFFFFFFFFFFF DUP4 AND SWAP3 POP DUP2 TIMESTAMP PUSH1 0xA0 SHL OR DUP4 OR SWAP1 POP SWAP3 SWAP2 POP POP JUMP JUMPDEST POP POP POP POP JUMP JUMPDEST JUMP JUMPDEST PUSH2 0x22D0 DUP2 PUSH2 0x22CB PUSH2 0x23B4 JUMP JUMPDEST PUSH2 0x2A47 JUMP JUMPDEST POP JUMP JUMPDEST PUSH2 0x22DD DUP3 DUP3 PUSH2 0x1641 JUMP JUMPDEST PUSH2 0x23B0 JUMPI PUSH1 0x1 PUSH1 0x8 PUSH1 0x0 DUP5 DUP2 MSTORE PUSH1 0x20 ADD SWAP1 DUP2 MSTORE PUSH1 0x20 ADD PUSH1 0x0 KECCAK256 PUSH1 0x0 ADD PUSH1 0x0 DUP4 PUSH20 0xFFFFFFFFFFFFFFFFFFFFFFFFFFFFFFFFFFFFFFFF AND PUSH20 0xFFFFFFFFFFFFFFFFFFFFFFFFFFFFFFFFFFFFFFFF AND DUP2 MSTORE PUSH1 0x20 ADD SWAP1 DUP2 MSTORE PUSH1 0x20 ADD PUSH1 0x0 KECCAK256 PUSH1 0x0 PUSH2 0x100 EXP DUP2 SLOAD DUP2 PUSH1 0xFF MUL NOT AND SWAP1 DUP4 ISZERO ISZERO MUL OR SWAP1 SSTORE POP PUSH2 0x2355 PUSH2 0x23B4 JUMP JUMPDEST PUSH20 0xFFFFFFFFFFFFFFFFFFFFFFFFFFFFFFFFFFFFFFFF AND DUP2 PUSH20 0xFFFFFFFFFFFFFFFFFFFFFFFFFFFFFFFFFFFFFFFF AND DUP4 PUSH32 0x2F8788117E7EFF1D82E926EC794901D17C78024A50270940304540A733656F0D PUSH1 0x40 MLOAD PUSH1 0x40 MLOAD DUP1 SWAP2 SUB SWAP1 LOG4 JUMPDEST POP POP JUMP JUMPDEST PUSH1 0x0 CALLER SWAP1 POP SWAP1 JUMP JUMPDEST PUSH2 0x23C6 DUP3 DUP3 PUSH2 0x1641 JUMP JUMPDEST ISZERO PUSH2 0x249A JUMPI PUSH1 0x0 PUSH1 0x8 PUSH1 0x0 DUP5 DUP2 MSTORE PUSH1 0x20 ADD SWAP1 DUP2 MSTORE PUSH1 0x20 ADD PUSH1 0x0 KECCAK256 PUSH1 0x0 ADD PUSH1 0x0 DUP4 PUSH20 0xFFFFFFFFFFFFFFFFFFFFFFFFFFFFFFFFFFFFFFFF AND PUSH20 0xFFFFFFFFFFFFFFFFFFFFFFFFFFFFFFFFFFFFFFFF AND DUP2 MSTORE PUSH1 0x20 ADD SWAP1 DUP2 MSTORE PUSH1 0x20 ADD PUSH1 0x0 KECCAK256 PUSH1 0x0 PUSH2 0x100 EXP DUP2 SLOAD DUP2 PUSH1 0xFF MUL NOT AND SWAP1 DUP4 ISZERO ISZERO MUL OR SWAP1 SSTORE POP PUSH2 0x243F PUSH2 0x23B4 JUMP JUMPDEST PUSH20 0xFFFFFFFFFFFFFFFFFFFFFFFFFFFFFFFFFFFFFFFF AND DUP2 PUSH20 0xFFFFFFFFFFFFFFFFFFFFFFFFFFFFFFFFFFFFFFFF AND DUP4 PUSH32 0xF6391F5C32D9C69D2A47EA670B442974B53935D1EDC7FD64EB21E047A839171B PUSH1 0x40 MLOAD PUSH1 0x40 MLOAD DUP1 SWAP2 SUB SWAP1 LOG4 JUMPDEST POP POP JUMP JUMPDEST PUSH1 0x0 PUSH2 0x24A9 DUP4 PUSH2 0x2135 JUMP JUMPDEST SWAP1 POP PUSH1 0x0 DUP2 SWAP1 POP PUSH1 0x0 DUP1 PUSH2 0x24BC DUP7 PUSH2 0x21EB JUMP JUMPDEST SWAP2 POP SWAP2 POP DUP5 ISZERO PUSH2 0x2504 JUMPI PUSH2 0x24D8 DUP2 DUP5 PUSH2 0x24D3 PUSH2 0x2212 JUMP JUMPDEST PUSH2 0x221A JUMP JUMPDEST PUSH2 0x2503 JUMPI PUSH2 0x24ED DUP4 PUSH2 0x24E8 PUSH2 0x2212 JUMP JUMPDEST PUSH2 0x1C9B JUMP JUMPDEST PUSH2 0x2502 JUMPI PUSH2 0x2501 PUSH4 0x59C896BE PUSH1 0xE0 SHL PUSH2 0x1FF7 JUMP JUMPDEST JUMPDEST JUMPDEST JUMPDEST PUSH2 0x2512 DUP4 PUSH1 0x0 DUP9 PUSH1 0x1 PUSH2 0x225E JUMP JUMPDEST DUP1 ISZERO PUSH2 0x251D JUMPI PUSH1 0x0 DUP3 SSTORE JUMPDEST PUSH1 0x1 PUSH1 0x80 PUSH1 0x1 SWAP1 SHL SUB PUSH1 0x5 PUSH1 0x0 DUP6 PUSH20 0xFFFFFFFFFFFFFFFFFFFFFFFFFFFFFFFFFFFFFFFF AND PUSH20 0xFFFFFFFFFFFFFFFFFFFFFFFFFFFFFFFFFFFFFFFF AND DUP2 MSTORE PUSH1 0x20 ADD SWAP1 DUP2 MSTORE PUSH1 0x20 ADD PUSH1 0x0 KECCAK256 PUSH1 0x0 DUP3 DUP3 SLOAD ADD SWAP3 POP POP DUP2 SWAP1 SSTORE POP PUSH2 0x25C5 DUP4 PUSH2 0x2582 DUP6 PUSH1 0x0 DUP9 PUSH2 0x2264 JUMP JUMPDEST PUSH29 0x200000000000000000000000000000000000000000000000000000000 PUSH29 0x100000000000000000000000000000000000000000000000000000000 OR OR PUSH2 0x228C JUMP JUMPDEST PUSH1 0x4 PUSH1 0x0 DUP9 DUP2 MSTORE PUSH1 0x20 ADD SWAP1 DUP2 MSTORE PUSH1 0x20 ADD PUSH1 0x0 KECCAK256 DUP2 SWAP1 SSTORE POP PUSH1 0x0 PUSH29 0x200000000000000000000000000000000000000000000000000000000 DUP6 AND SUB PUSH2 0x264B JUMPI PUSH1 0x0 PUSH1 0x1 DUP8 ADD SWAP1 POP PUSH1 0x0 PUSH1 0x4 PUSH1 0x0 DUP4 DUP2 MSTORE PUSH1 0x20 ADD SWAP1 DUP2 MSTORE PUSH1 0x20 ADD PUSH1 0x0 KECCAK256 SLOAD SUB PUSH2 0x2649 JUMPI PUSH1 0x0 SLOAD DUP2 EQ PUSH2 0x2648 JUMPI DUP5 PUSH1 0x4 PUSH1 0x0 DUP4 DUP2 MSTORE PUSH1 0x20 ADD SWAP1 DUP2 MSTORE PUSH1 0x20 ADD PUSH1 0x0 KECCAK256 DUP2 SWAP1 SSTORE POP JUMPDEST JUMPDEST POP JUMPDEST DUP6 PUSH1 0x0 PUSH20 0xFFFFFFFFFFFFFFFFFFFFFFFFFFFFFFFFFFFFFFFF AND DUP5 PUSH20 0xFFFFFFFFFFFFFFFFFFFFFFFFFFFFFFFFFFFFFFFF AND PUSH32 0xDDF252AD1BE2C89B69C2B068FC378DAA952BA7F163C4A11628F55A4DF523B3EF PUSH1 0x40 MLOAD PUSH1 0x40 MLOAD DUP1 SWAP2 SUB SWAP1 LOG4 PUSH2 0x26B5 DUP4 PUSH1 0x0 DUP9 PUSH1 0x1 PUSH2 0x22B7 JUMP JUMPDEST PUSH1 0x1 PUSH1 0x0 DUP2 SLOAD DUP1 SWAP3 SWAP2 SWAP1 PUSH1 0x1 ADD SWAP2 SWAP1 POP SSTORE POP POP POP POP POP POP POP JUMP JUMPDEST PUSH1 0x0 DUP3 GT PUSH2 0x26DC JUMPI PUSH1 0x0 DUP1 REVERT JUMPDEST PUSH1 0x40 MLOAD DUP1 PUSH1 0x40 ADD PUSH1 0x40 MSTORE DUP1 DUP4 PUSH2 0x26F0 PUSH2 0x278D JUMP JUMPDEST PUSH2 0x26FA SWAP2 SWAP1 PUSH2 0x42CC JUMP JUMPDEST DUP2 MSTORE PUSH1 0x20 ADD DUP3 DUP2 MSTORE POP PUSH1 0xB PUSH1 0x0 PUSH2 0x270F PUSH2 0x278D JUMP JUMPDEST DUP2 MSTORE PUSH1 0x20 ADD SWAP1 DUP2 MSTORE PUSH1 0x20 ADD PUSH1 0x0 KECCAK256 PUSH1 0x0 DUP3 ADD MLOAD DUP2 PUSH1 0x0 ADD SSTORE PUSH1 0x20 DUP3 ADD MLOAD DUP2 PUSH1 0x1 ADD SWAP1 DUP2 PUSH2 0x273C SWAP2 SWAP1 PUSH2 0x3EC5 JUMP JUMPDEST POP SWAP1 POP POP POP POP JUMP JUMPDEST PUSH2 0x275E DUP3 DUP3 PUSH1 0x40 MLOAD DUP1 PUSH1 0x20 ADD PUSH1 0x40 MSTORE DUP1 PUSH1 0x0 DUP2 MSTORE POP PUSH2 0x2ACC JUMP JUMPDEST POP POP JUMP JUMPDEST PUSH2 0x276A PUSH2 0x2DC2 JUMP JUMPDEST PUSH2 0x2786 PUSH1 0x4 PUSH1 0x0 DUP5 DUP2 MSTORE PUSH1 0x20 ADD SWAP1 DUP2 MSTORE PUSH1 0x20 ADD PUSH1 0x0 KECCAK256 SLOAD PUSH2 0x2B51 JUMP JUMPDEST SWAP1 POP SWAP2 SWAP1 POP JUMP JUMPDEST PUSH1 0x0 DUP1 SLOAD SWAP1 POP SWAP1 JUMP JUMPDEST PUSH1 0x0 DUP4 PUSH20 0xFFFFFFFFFFFFFFFFFFFFFFFFFFFFFFFFFFFFFFFF AND PUSH4 0x150B7A02 PUSH2 0x27BC PUSH2 0x2212 JUMP JUMPDEST DUP8 DUP7 DUP7 PUSH1 0x40 MLOAD DUP6 PUSH4 0xFFFFFFFF AND PUSH1 0xE0 SHL DUP2 MSTORE PUSH1 0x4 ADD PUSH2 0x27DE SWAP5 SWAP4 SWAP3 SWAP2 SWAP1 PUSH2 0x4419 JUMP JUMPDEST PUSH1 0x20 PUSH1 0x40 MLOAD DUP1 DUP4 SUB DUP2 PUSH1 0x0 DUP8 GAS CALL SWAP3 POP POP POP DUP1 ISZERO PUSH2 0x281A JUMPI POP PUSH1 0x40 MLOAD RETURNDATASIZE PUSH1 0x1F NOT PUSH1 0x1F DUP3 ADD AND DUP3 ADD DUP1 PUSH1 0x40 MSTORE POP DUP2 ADD SWAP1 PUSH2 0x2817 SWAP2 SWAP1 PUSH2 0x447A JUMP JUMPDEST PUSH1 0x1 JUMPDEST PUSH2 0x2872 JUMPI RETURNDATASIZE DUP1 PUSH1 0x0 DUP2 EQ PUSH2 0x284A JUMPI PUSH1 0x40 MLOAD SWAP2 POP PUSH1 0x1F NOT PUSH1 0x3F RETURNDATASIZE ADD AND DUP3 ADD PUSH1 0x40 MSTORE RETURNDATASIZE DUP3 MSTORE RETURNDATASIZE PUSH1 0x0 PUSH1 0x20 DUP5 ADD RETURNDATACOPY PUSH2 0x284F JUMP JUMPDEST PUSH1 0x60 SWAP2 POP JUMPDEST POP PUSH1 0x0 DUP2 MLOAD SUB PUSH2 0x286A JUMPI PUSH2 0x2869 PUSH4 0xD1A57ED6 PUSH1 0xE0 SHL PUSH2 0x1FF7 JUMP JUMPDEST JUMPDEST DUP1 MLOAD DUP2 PUSH1 0x20 ADD REVERT JUMPDEST PUSH4 0x150B7A02 PUSH1 0xE0 SHL PUSH28 0xFFFFFFFFFFFFFFFFFFFFFFFFFFFFFFFFFFFFFFFFFFFFFFFFFFFFFFFF NOT AND DUP2 PUSH28 0xFFFFFFFFFFFFFFFFFFFFFFFFFFFFFFFFFFFFFFFFFFFFFFFFFFFFFFFF NOT AND EQ SWAP2 POP POP SWAP5 SWAP4 POP POP POP POP JUMP JUMPDEST PUSH2 0x28CD PUSH2 0x2DC2 JUMP JUMPDEST PUSH2 0x28DE PUSH2 0x28D9 DUP4 PUSH2 0x2135 JUMP JUMPDEST PUSH2 0x2B51 JUMP JUMPDEST SWAP1 POP SWAP2 SWAP1 POP JUMP JUMPDEST PUSH1 0x60 PUSH1 0x0 JUMPDEST PUSH2 0x28F2 PUSH2 0x278D JUMP JUMPDEST DUP2 LT ISZERO PUSH2 0x29E7 JUMPI DUP3 DUP2 LT DUP1 ISZERO PUSH2 0x291D JUMPI POP PUSH1 0xB PUSH1 0x0 DUP3 DUP2 MSTORE PUSH1 0x20 ADD SWAP1 DUP2 MSTORE PUSH1 0x20 ADD PUSH1 0x0 KECCAK256 PUSH1 0x0 ADD SLOAD DUP4 LT JUMPDEST ISZERO PUSH2 0x29C9 JUMPI PUSH1 0xB PUSH1 0x0 DUP3 DUP2 MSTORE PUSH1 0x20 ADD SWAP1 DUP2 MSTORE PUSH1 0x20 ADD PUSH1 0x0 KECCAK256 PUSH1 0x1 ADD DUP1 SLOAD PUSH2 0x2943 SWAP1 PUSH2 0x3CE8 JUMP JUMPDEST DUP1 PUSH1 0x1F ADD PUSH1 0x20 DUP1 SWAP2 DIV MUL PUSH1 0x20 ADD PUSH1 0x40 MLOAD SWAP1 DUP2 ADD PUSH1 0x40 MSTORE DUP1 SWAP3 SWAP2 SWAP1 DUP2 DUP2 MSTORE PUSH1 0x20 ADD DUP3 DUP1 SLOAD PUSH2 0x296F SWAP1 PUSH2 0x3CE8 JUMP JUMPDEST DUP1 ISZERO PUSH2 0x29BC JUMPI DUP1 PUSH1 0x1F LT PUSH2 0x2991 JUMPI PUSH2 0x100 DUP1 DUP4 SLOAD DIV MUL DUP4 MSTORE SWAP2 PUSH1 0x20 ADD SWAP2 PUSH2 0x29BC JUMP JUMPDEST DUP3 ADD SWAP2 SWAP1 PUSH1 0x0 MSTORE PUSH1 0x20 PUSH1 0x0 KECCAK256 SWAP1 JUMPDEST DUP2 SLOAD DUP2 MSTORE SWAP1 PUSH1 0x1 ADD SWAP1 PUSH1 0x20 ADD DUP1 DUP4 GT PUSH2 0x299F JUMPI DUP3 SWAP1 SUB PUSH1 0x1F AND DUP3 ADD SWAP2 JUMPDEST POP POP POP POP POP SWAP2 POP POP PUSH2 0x29E9 JUMP JUMPDEST PUSH1 0xB PUSH1 0x0 DUP3 DUP2 MSTORE PUSH1 0x20 ADD SWAP1 DUP2 MSTORE PUSH1 0x20 ADD PUSH1 0x0 KECCAK256 PUSH1 0x0 ADD SLOAD SWAP1 POP PUSH2 0x28EA JUMP JUMPDEST POP JUMPDEST SWAP2 SWAP1 POP JUMP JUMPDEST PUSH1 0x60 PUSH1 0xA0 PUSH1 0x40 MLOAD ADD DUP1 PUSH1 0x40 MSTORE PUSH1 0x20 DUP2 SUB SWAP2 POP PUSH1 0x0 DUP3 MSTORE DUP2 DUP4 JUMPDEST PUSH1 0x1 ISZERO PUSH2 0x2A29 JUMPI PUSH1 0x1 DUP5 SUB SWAP4 POP PUSH1 0xA DUP2 MOD PUSH1 0x30 ADD DUP5 MSTORE8 PUSH1 0xA DUP2 DIV SWAP1 POP DUP1 PUSH2 0x2A07 JUMPI JUMPDEST POP DUP3 DUP2 SUB PUSH1 0x20 DUP5 SUB SWAP4 POP DUP1 DUP5 MSTORE POP POP POP SWAP2 SWAP1 POP JUMP JUMPDEST PUSH1 0x0 SWAP4 SWAP3 POP POP POP JUMP JUMPDEST PUSH2 0x2A51 DUP3 DUP3 PUSH2 0x1641 JUMP JUMPDEST PUSH2 0x2AC8 JUMPI PUSH2 0x2A5E DUP2 PUSH2 0x1D2F JUMP JUMPDEST PUSH2 0x2A6C DUP4 PUSH1 0x0 SHR PUSH1 0x20 PUSH2 0x1D5C JUMP JUMPDEST PUSH1 0x40 MLOAD PUSH1 0x20 ADD PUSH2 0x2A7D SWAP3 SWAP2 SWAP1 PUSH2 0x453F JUMP JUMPDEST PUSH1 0x40 MLOAD PUSH1 0x20 DUP2 DUP4 SUB SUB DUP2 MSTORE SWAP1 PUSH1 0x40 MSTORE PUSH1 0x40 MLOAD PUSH32 0x8C379A000000000000000000000000000000000000000000000000000000000 DUP2 MSTORE PUSH1 0x4 ADD PUSH2 0x2ABF SWAP2 SWAP1 PUSH2 0x2F70 JUMP JUMPDEST PUSH1 0x40 MLOAD DUP1 SWAP2 SUB SWAP1 REVERT JUMPDEST POP POP JUMP JUMPDEST PUSH2 0x2AD6 DUP4 DUP4 PUSH2 0x2C07 JUMP JUMPDEST PUSH1 0x0 DUP4 PUSH20 0xFFFFFFFFFFFFFFFFFFFFFFFFFFFFFFFFFFFFFFFF AND EXTCODESIZE EQ PUSH2 0x2B4C JUMPI PUSH1 0x0 DUP1 SLOAD SWAP1 POP PUSH1 0x0 DUP4 DUP3 SUB SWAP1 POP JUMPDEST PUSH2 0x2B16 PUSH1 0x0 DUP7 DUP4 DUP1 PUSH1 0x1 ADD SWAP5 POP DUP7 PUSH2 0x2796 JUMP JUMPDEST PUSH2 0x2B2B JUMPI PUSH2 0x2B2A PUSH4 0xD1A57ED6 PUSH1 0xE0 SHL PUSH2 0x1FF7 JUMP JUMPDEST JUMPDEST DUP2 DUP2 LT PUSH2 0x2B03 JUMPI DUP2 PUSH1 0x0 SLOAD EQ PUSH2 0x2B49 JUMPI PUSH2 0x2B48 PUSH1 0x0 PUSH1 0xE0 SHL PUSH2 0x1FF7 JUMP JUMPDEST JUMPDEST POP POP JUMPDEST POP POP POP JUMP JUMPDEST PUSH2 0x2B59 PUSH2 0x2DC2 JUMP JUMPDEST DUP2 DUP2 PUSH1 0x0 ADD SWAP1 PUSH20 0xFFFFFFFFFFFFFFFFFFFFFFFFFFFFFFFFFFFFFFFF AND SWAP1 DUP2 PUSH20 0xFFFFFFFFFFFFFFFFFFFFFFFFFFFFFFFFFFFFFFFF AND DUP2 MSTORE POP POP PUSH1 0xA0 DUP3 SWAP1 SHR DUP2 PUSH1 0x20 ADD SWAP1 PUSH8 0xFFFFFFFFFFFFFFFF AND SWAP1 DUP2 PUSH8 0xFFFFFFFFFFFFFFFF AND DUP2 MSTORE POP POP PUSH1 0x0 PUSH29 0x100000000000000000000000000000000000000000000000000000000 DUP4 AND EQ ISZERO DUP2 PUSH1 0x40 ADD SWAP1 ISZERO ISZERO SWAP1 DUP2 ISZERO ISZERO DUP2 MSTORE POP POP PUSH1 0xE8 DUP3 SWAP1 SHR DUP2 PUSH1 0x60 ADD SWAP1 PUSH3 0xFFFFFF AND SWAP1 DUP2 PUSH3 0xFFFFFF AND DUP2 MSTORE POP POP SWAP2 SWAP1 POP JUMP JUMPDEST PUSH1 0x0 DUP1 SLOAD SWAP1 POP PUSH1 0x0 DUP3 SUB PUSH2 0x2C26 JUMPI PUSH2 0x2C25 PUSH4 0xB562E8DD PUSH1 0xE0 SHL PUSH2 0x1FF7 JUMP JUMPDEST JUMPDEST PUSH2 0x2C33 PUSH1 0x0 DUP5 DUP4 DUP6 PUSH2 0x225E JUMP JUMPDEST PUSH2 0x2C53 DUP4 PUSH2 0x2C44 PUSH1 0x0 DUP7 PUSH1 0x0 PUSH2 0x2264 JUMP JUMPDEST PUSH2 0x2C4D DUP6 PUSH2 0x2D6A JUMP JUMPDEST OR PUSH2 0x228C JUMP JUMPDEST PUSH1 0x4 PUSH1 0x0 DUP4 DUP2 MSTORE PUSH1 0x20 ADD SWAP1 DUP2 MSTORE PUSH1 0x20 ADD PUSH1 0x0 KECCAK256 DUP2 SWAP1 SSTORE POP PUSH1 0x1 PUSH1 0x40 PUSH1 0x1 SWAP1 SHL OR DUP3 MUL PUSH1 0x5 PUSH1 0x0 DUP6 PUSH20 0xFFFFFFFFFFFFFFFFFFFFFFFFFFFFFFFFFFFFFFFF AND PUSH20 0xFFFFFFFFFFFFFFFFFFFFFFFFFFFFFFFFFFFFFFFF AND DUP2 MSTORE PUSH1 0x20 ADD SWAP1 DUP2 MSTORE PUSH1 0x20 ADD PUSH1 0x0 KECCAK256 PUSH1 0x0 DUP3 DUP3 SLOAD ADD SWAP3 POP POP DUP2 SWAP1 SSTORE POP PUSH1 0x0 PUSH20 0xFFFFFFFFFFFFFFFFFFFFFFFFFFFFFFFFFFFFFFFF DUP5 PUSH20 0xFFFFFFFFFFFFFFFFFFFFFFFFFFFFFFFFFFFFFFFF AND AND SWAP1 POP PUSH1 0x0 DUP2 SUB PUSH2 0x2D0B JUMPI PUSH2 0x2D0A PUSH4 0x2E076300 PUSH1 0xE0 SHL PUSH2 0x1FF7 JUMP JUMPDEST JUMPDEST PUSH1 0x0 DUP4 DUP4 ADD SWAP1 POP PUSH1 0x0 DUP4 SWAP1 POP JUMPDEST DUP1 DUP4 PUSH1 0x0 PUSH32 0xDDF252AD1BE2C89B69C2B068FC378DAA952BA7F163C4A11628F55A4DF523B3EF PUSH1 0x0 DUP1 LOG4 DUP2 DUP2 PUSH1 0x1 ADD SWAP2 POP DUP2 SUB PUSH2 0x2D18 JUMPI DUP2 PUSH1 0x0 DUP2 SWAP1 SSTORE POP POP POP POP PUSH2 0x2D65 PUSH1 0x0 DUP5 DUP4 DUP6 PUSH2 0x22B7 JUMP JUMPDEST POP POP POP JUMP JUMPDEST PUSH1 0x0 PUSH1 0x1 DUP3 EQ PUSH1 0xE1 SHL SWAP1 POP SWAP2 SWAP1 POP JUMP JUMPDEST PUSH1 0x40 MLOAD DUP1 PUSH1 0xC0 ADD PUSH1 0x40 MSTORE DUP1 PUSH1 0x60 DUP2 MSTORE PUSH1 0x20 ADD PUSH1 0x60 DUP2 MSTORE PUSH1 0x20 ADD PUSH1 0x0 DUP2 MSTORE PUSH1 0x20 ADD PUSH1 0x60 DUP2 MSTORE PUSH1 0x20 ADD PUSH1 0x0 DUP2 MSTORE PUSH1 0x20 ADD PUSH1 0x0 PUSH1 0x5 DUP2 GT ISZERO PUSH2 0x2DBC JUMPI PUSH2 0x2DBB PUSH2 0x3424 JUMP JUMPDEST JUMPDEST DUP2 MSTORE POP SWAP1 JUMP JUMPDEST PUSH1 0x40 MLOAD DUP1 PUSH1 0x80 ADD PUSH1 0x40 MSTORE DUP1 PUSH1 0x0 PUSH20 0xFFFFFFFFFFFFFFFFFFFFFFFFFFFFFFFFFFFFFFFF AND DUP2 MSTORE PUSH1 0x20 ADD PUSH1 0x0 PUSH8 0xFFFFFFFFFFFFFFFF AND DUP2 MSTORE PUSH1 0x20 ADD PUSH1 0x0 ISZERO ISZERO DUP2 MSTORE PUSH1 0x20 ADD PUSH1 0x0 PUSH3 0xFFFFFF AND DUP2 MSTORE POP SWAP1 JUMP JUMPDEST PUSH1 0x0 PUSH1 0x40 MLOAD SWAP1 POP SWAP1 JUMP JUMPDEST PUSH1 0x0 DUP1 REVERT JUMPDEST PUSH1 0x0 DUP1 REVERT JUMPDEST PUSH1 0x0 PUSH32 0xFFFFFFFF00000000000000000000000000000000000000000000000000000000 DUP3 AND SWAP1 POP SWAP2 SWAP1 POP JUMP JUMPDEST PUSH2 0x2E5A DUP2 PUSH2 0x2E25 JUMP JUMPDEST DUP2 EQ PUSH2 0x2E65 JUMPI PUSH1 0x0 DUP1 REVERT JUMPDEST POP JUMP JUMPDEST PUSH1 0x0 DUP2 CALLDATALOAD SWAP1 POP PUSH2 0x2E77 DUP2 PUSH2 0x2E51 JUMP JUMPDEST SWAP3 SWAP2 POP POP JUMP JUMPDEST PUSH1 0x0 PUSH1 0x20 DUP3 DUP5 SUB SLT ISZERO PUSH2 0x2E93 JUMPI PUSH2 0x2E92 PUSH2 0x2E1B JUMP JUMPDEST JUMPDEST PUSH1 0x0 PUSH2 0x2EA1 DUP5 DUP3 DUP6 ADD PUSH2 0x2E68 JUMP JUMPDEST SWAP2 POP POP SWAP3 SWAP2 POP POP JUMP JUMPDEST PUSH1 0x0 DUP2 ISZERO ISZERO SWAP1 POP SWAP2 SWAP1 POP JUMP JUMPDEST PUSH2 0x2EBF DUP2 PUSH2 0x2EAA JUMP JUMPDEST DUP3 MSTORE POP POP JUMP JUMPDEST PUSH1 0x0 PUSH1 0x20 DUP3 ADD SWAP1 POP PUSH2 0x2EDA PUSH1 0x0 DUP4 ADD DUP5 PUSH2 0x2EB6 JUMP JUMPDEST SWAP3 SWAP2 POP POP JUMP JUMPDEST PUSH1 0x0 DUP2 MLOAD SWAP1 POP SWAP2 SWAP1 POP JUMP JUMPDEST PUSH1 0x0 DUP3 DUP3 MSTORE PUSH1 0x20 DUP3 ADD SWAP1 POP SWAP3 SWAP2 POP POP JUMP JUMPDEST PUSH1 0x0 JUMPDEST DUP4 DUP2 LT ISZERO PUSH2 0x2F1A JUMPI DUP1 DUP3 ADD MLOAD DUP2 DUP5 ADD MSTORE PUSH1 0x20 DUP2 ADD SWAP1 POP PUSH2 0x2EFF JUMP JUMPDEST PUSH1 0x0 DUP5 DUP5 ADD MSTORE POP POP POP POP JUMP JUMPDEST PUSH1 0x0 PUSH1 0x1F NOT PUSH1 0x1F DUP4 ADD AND SWAP1 POP SWAP2 SWAP1 POP JUMP JUMPDEST PUSH1 0x0 PUSH2 0x2F42 DUP3 PUSH2 0x2EE0 JUMP JUMPDEST PUSH2 0x2F4C DUP2 DUP6 PUSH2 0x2EEB JUMP JUMPDEST SWAP4 POP PUSH2 0x2F5C DUP2 DUP6 PUSH1 0x20 DUP7 ADD PUSH2 0x2EFC JUMP JUMPDEST PUSH2 0x2F65 DUP2 PUSH2 0x2F26 JUMP JUMPDEST DUP5 ADD SWAP2 POP POP SWAP3 SWAP2 POP POP JUMP JUMPDEST PUSH1 0x0 PUSH1 0x20 DUP3 ADD SWAP1 POP DUP2 DUP2 SUB PUSH1 0x0 DUP4 ADD MSTORE PUSH2 0x2F8A DUP2 DUP5 PUSH2 0x2F37 JUMP JUMPDEST SWAP1 POP SWAP3 SWAP2 POP POP JUMP JUMPDEST PUSH1 0x0 DUP2 SWAP1 POP SWAP2 SWAP1 POP JUMP JUMPDEST PUSH2 0x2FA5 DUP2 PUSH2 0x2F92 JUMP JUMPDEST DUP2 EQ PUSH2 0x2FB0 JUMPI PUSH1 0x0 DUP1 REVERT JUMPDEST POP JUMP JUMPDEST PUSH1 0x0 DUP2 CALLDATALOAD SWAP1 POP PUSH2 0x2FC2 DUP2 PUSH2 0x2F9C JUMP JUMPDEST SWAP3 SWAP2 POP POP JUMP JUMPDEST PUSH1 0x0 PUSH1 0x20 DUP3 DUP5 SUB SLT ISZERO PUSH2 0x2FDE JUMPI PUSH2 0x2FDD PUSH2 0x2E1B JUMP JUMPDEST JUMPDEST PUSH1 0x0 PUSH2 0x2FEC DUP5 DUP3 DUP6 ADD PUSH2 0x2FB3 JUMP JUMPDEST SWAP2 POP POP SWAP3 SWAP2 POP POP JUMP JUMPDEST PUSH1 0x0 PUSH20 0xFFFFFFFFFFFFFFFFFFFFFFFFFFFFFFFFFFFFFFFF DUP3 AND SWAP1 POP SWAP2 SWAP1 POP JUMP JUMPDEST PUSH1 0x0 PUSH2 0x3020 DUP3 PUSH2 0x2FF5 JUMP JUMPDEST SWAP1 POP SWAP2 SWAP1 POP JUMP JUMPDEST PUSH2 0x3030 DUP2 PUSH2 0x3015 JUMP JUMPDEST DUP3 MSTORE POP POP JUMP JUMPDEST PUSH1 0x0 PUSH1 0x20 DUP3 ADD SWAP1 POP PUSH2 0x304B PUSH1 0x0 DUP4 ADD DUP5 PUSH2 0x3027 JUMP JUMPDEST SWAP3 SWAP2 POP POP JUMP JUMPDEST PUSH2 0x305A DUP2 PUSH2 0x3015 JUMP JUMPDEST DUP2 EQ PUSH2 0x3065 JUMPI PUSH1 0x0 DUP1 REVERT JUMPDEST POP JUMP JUMPDEST PUSH1 0x0 DUP2 CALLDATALOAD SWAP1 POP PUSH2 0x3077 DUP2 PUSH2 0x3051 JUMP JUMPDEST SWAP3 SWAP2 POP POP JUMP JUMPDEST PUSH1 0x0 DUP1 PUSH1 0x40 DUP4 DUP6 SUB SLT ISZERO PUSH2 0x3094 JUMPI PUSH2 0x3093 PUSH2 0x2E1B JUMP JUMPDEST JUMPDEST PUSH1 0x0 PUSH2 0x30A2 DUP6 DUP3 DUP7 ADD PUSH2 0x3068 JUMP JUMPDEST SWAP3 POP POP PUSH1 0x20 PUSH2 0x30B3 DUP6 DUP3 DUP7 ADD PUSH2 0x2FB3 JUMP JUMPDEST SWAP2 POP POP SWAP3 POP SWAP3 SWAP1 POP JUMP JUMPDEST PUSH1 0x0 DUP2 SWAP1 POP SWAP2 SWAP1 POP JUMP JUMPDEST PUSH2 0x30D0 DUP2 PUSH2 0x30BD JUMP JUMPDEST DUP3 MSTORE POP POP JUMP JUMPDEST PUSH1 0x0 PUSH1 0x20 DUP3 ADD SWAP1 POP PUSH2 0x30EB PUSH1 0x0 DUP4 ADD DUP5 PUSH2 0x30C7 JUMP JUMPDEST SWAP3 SWAP2 POP POP JUMP JUMPDEST PUSH1 0x0 PUSH2 0xFFFF DUP3 AND SWAP1 POP SWAP2 SWAP1 POP JUMP JUMPDEST PUSH2 0x3108 DUP2 PUSH2 0x30F1 JUMP JUMPDEST DUP2 EQ PUSH2 0x3113 JUMPI PUSH1 0x0 DUP1 REVERT JUMPDEST POP JUMP JUMPDEST PUSH1 0x0 DUP2 CALLDATALOAD SWAP1 POP PUSH2 0x3125 DUP2 PUSH2 0x30FF JUMP JUMPDEST SWAP3 SWAP2 POP POP JUMP JUMPDEST PUSH1 0x0 PUSH1 0x20 DUP3 DUP5 SUB SLT ISZERO PUSH2 0x3141 JUMPI PUSH2 0x3140 PUSH2 0x2E1B JUMP JUMPDEST JUMPDEST PUSH1 0x0 PUSH2 0x314F DUP5 DUP3 DUP6 ADD PUSH2 0x3116 JUMP JUMPDEST SWAP2 POP POP SWAP3 SWAP2 POP POP JUMP JUMPDEST PUSH2 0x3161 DUP2 PUSH2 0x2F92 JUMP JUMPDEST DUP3 MSTORE POP POP JUMP JUMPDEST PUSH1 0x0 PUSH1 0x20 DUP3 ADD SWAP1 POP PUSH2 0x317C PUSH1 0x0 DUP4 ADD DUP5 PUSH2 0x3158 JUMP JUMPDEST SWAP3 SWAP2 POP POP JUMP JUMPDEST PUSH1 0x0 DUP1 PUSH1 0x0 PUSH1 0x60 DUP5 DUP7 SUB SLT ISZERO PUSH2 0x319B JUMPI PUSH2 0x319A PUSH2 0x2E1B JUMP JUMPDEST JUMPDEST PUSH1 0x0 PUSH2 0x31A9 DUP7 DUP3 DUP8 ADD PUSH2 0x3068 JUMP JUMPDEST SWAP4 POP POP PUSH1 0x20 PUSH2 0x31BA DUP7 DUP3 DUP8 ADD PUSH2 0x3068 JUMP JUMPDEST SWAP3 POP POP PUSH1 0x40 PUSH2 0x31CB DUP7 DUP3 DUP8 ADD PUSH2 0x2FB3 JUMP JUMPDEST SWAP2 POP POP SWAP3 POP SWAP3 POP SWAP3 JUMP JUMPDEST PUSH2 0x31DE DUP2 PUSH2 0x30BD JUMP JUMPDEST DUP2 EQ PUSH2 0x31E9 JUMPI PUSH1 0x0 DUP1 REVERT JUMPDEST POP JUMP JUMPDEST PUSH1 0x0 DUP2 CALLDATALOAD SWAP1 POP PUSH2 0x31FB DUP2 PUSH2 0x31D5 JUMP JUMPDEST SWAP3 SWAP2 POP POP JUMP JUMPDEST PUSH1 0x0 PUSH1 0x20 DUP3 DUP5 SUB SLT ISZERO PUSH2 0x3217 JUMPI PUSH2 0x3216 PUSH2 0x2E1B JUMP JUMPDEST JUMPDEST PUSH1 0x0 PUSH2 0x3225 DUP5 DUP3 DUP6 ADD PUSH2 0x31EC JUMP JUMPDEST SWAP2 POP POP SWAP3 SWAP2 POP POP JUMP JUMPDEST PUSH1 0x0 DUP1 REVERT JUMPDEST PUSH1 0x0 DUP1 REVERT JUMPDEST PUSH32 0x4E487B7100000000000000000000000000000000000000000000000000000000 PUSH1 0x0 MSTORE PUSH1 0x41 PUSH1 0x4 MSTORE PUSH1 0x24 PUSH1 0x0 REVERT JUMPDEST PUSH2 0x3270 DUP3 PUSH2 0x2F26 JUMP JUMPDEST DUP2 ADD DUP2 DUP2 LT PUSH8 0xFFFFFFFFFFFFFFFF DUP3 GT OR ISZERO PUSH2 0x328F JUMPI PUSH2 0x328E PUSH2 0x3238 JUMP JUMPDEST JUMPDEST DUP1 PUSH1 0x40 MSTORE POP POP POP JUMP JUMPDEST PUSH1 0x0 PUSH2 0x32A2 PUSH2 0x2E11 JUMP JUMPDEST SWAP1 POP PUSH2 0x32AE DUP3 DUP3 PUSH2 0x3267 JUMP JUMPDEST SWAP2 SWAP1 POP JUMP JUMPDEST PUSH1 0x0 PUSH8 0xFFFFFFFFFFFFFFFF DUP3 GT ISZERO PUSH2 0x32CE JUMPI PUSH2 0x32CD PUSH2 0x3238 JUMP JUMPDEST JUMPDEST PUSH2 0x32D7 DUP3 PUSH2 0x2F26 JUMP JUMPDEST SWAP1 POP PUSH1 0x20 DUP2 ADD SWAP1 POP SWAP2 SWAP1 POP JUMP JUMPDEST DUP3 DUP2 DUP4 CALLDATACOPY PUSH1 0x0 DUP4 DUP4 ADD MSTORE POP POP POP JUMP JUMPDEST PUSH1 0x0 PUSH2 0x3306 PUSH2 0x3301 DUP5 PUSH2 0x32B3 JUMP JUMPDEST PUSH2 0x3298 JUMP JUMPDEST SWAP1 POP DUP3 DUP2 MSTORE PUSH1 0x20 DUP2 ADD DUP5 DUP5 DUP5 ADD GT ISZERO PUSH2 0x3322 JUMPI PUSH2 0x3321 PUSH2 0x3233 JUMP JUMPDEST JUMPDEST PUSH2 0x332D DUP5 DUP3 DUP6 PUSH2 0x32E4 JUMP JUMPDEST POP SWAP4 SWAP3 POP POP POP JUMP JUMPDEST PUSH1 0x0 DUP3 PUSH1 0x1F DUP4 ADD SLT PUSH2 0x334A JUMPI PUSH2 0x3349 PUSH2 0x322E JUMP JUMPDEST JUMPDEST DUP2 CALLDATALOAD PUSH2 0x335A DUP5 DUP3 PUSH1 0x20 DUP7 ADD PUSH2 0x32F3 JUMP JUMPDEST SWAP2 POP POP SWAP3 SWAP2 POP POP JUMP JUMPDEST PUSH1 0x0 PUSH1 0x20 DUP3 DUP5 SUB SLT ISZERO PUSH2 0x3379 JUMPI PUSH2 0x3378 PUSH2 0x2E1B JUMP JUMPDEST JUMPDEST PUSH1 0x0 DUP3 ADD CALLDATALOAD PUSH8 0xFFFFFFFFFFFFFFFF DUP2 GT ISZERO PUSH2 0x3397 JUMPI PUSH2 0x3396 PUSH2 0x2E20 JUMP JUMPDEST JUMPDEST PUSH2 0x33A3 DUP5 DUP3 DUP6 ADD PUSH2 0x3335 JUMP JUMPDEST SWAP2 POP POP SWAP3 SWAP2 POP POP JUMP JUMPDEST PUSH1 0x0 DUP1 PUSH1 0x40 DUP4 DUP6 SUB SLT ISZERO PUSH2 0x33C3 JUMPI PUSH2 0x33C2 PUSH2 0x2E1B JUMP JUMPDEST JUMPDEST PUSH1 0x0 DUP4 ADD CALLDATALOAD PUSH8 0xFFFFFFFFFFFFFFFF DUP2 GT ISZERO PUSH2 0x33E1 JUMPI PUSH2 0x33E0 PUSH2 0x2E20 JUMP JUMPDEST JUMPDEST PUSH2 0x33ED DUP6 DUP3 DUP7 ADD PUSH2 0x3335 JUMP JUMPDEST SWAP3 POP POP PUSH1 0x20 DUP4 ADD CALLDATALOAD PUSH8 0xFFFFFFFFFFFFFFFF DUP2 GT ISZERO PUSH2 0x340E JUMPI PUSH2 0x340D PUSH2 0x2E20 JUMP JUMPDEST JUMPDEST PUSH2 0x341A DUP6 DUP3 DUP7 ADD PUSH2 0x3335 JUMP JUMPDEST SWAP2 POP POP SWAP3 POP SWAP3 SWAP1 POP JUMP JUMPDEST PUSH32 0x4E487B7100000000000000000000000000000000000000000000000000000000 PUSH1 0x0 MSTORE PUSH1 0x21 PUSH1 0x4 MSTORE PUSH1 0x24 PUSH1 0x0 REVERT JUMPDEST PUSH1 0x6 DUP2 LT PUSH2 0x3464 JUMPI PUSH2 0x3463 PUSH2 0x3424 JUMP JUMPDEST JUMPDEST POP JUMP JUMPDEST PUSH1 0x0 DUP2 SWAP1 POP PUSH2 0x3475 DUP3 PUSH2 0x3453 JUMP JUMPDEST SWAP2 SWAP1 POP JUMP JUMPDEST PUSH1 0x0 PUSH2 0x3485 DUP3 PUSH2 0x3467 JUMP JUMPDEST SWAP1 POP SWAP2 SWAP1 POP JUMP JUMPDEST PUSH2 0x3495 DUP2 PUSH2 0x347A JUMP JUMPDEST DUP3 MSTORE POP POP JUMP JUMPDEST PUSH1 0x0 PUSH1 0x20 DUP3 ADD SWAP1 POP PUSH2 0x34B0 PUSH1 0x0 DUP4 ADD DUP5 PUSH2 0x348C JUMP JUMPDEST SWAP3 SWAP2 POP POP JUMP JUMPDEST PUSH1 0x0 DUP1 PUSH1 0x40 DUP4 DUP6 SUB SLT ISZERO PUSH2 0x34CD JUMPI PUSH2 0x34CC PUSH2 0x2E1B JUMP JUMPDEST JUMPDEST PUSH1 0x0 PUSH2 0x34DB DUP6 DUP3 DUP7 ADD PUSH2 0x31EC JUMP JUMPDEST SWAP3 POP POP PUSH1 0x20 PUSH2 0x34EC DUP6 DUP3 DUP7 ADD PUSH2 0x3068 JUMP JUMPDEST SWAP2 POP POP SWAP3 POP SWAP3 SWAP1 POP JUMP JUMPDEST PUSH1 0x0 DUP1 PUSH1 0x40 DUP4 DUP6 SUB SLT ISZERO PUSH2 0x350D JUMPI PUSH2 0x350C PUSH2 0x2E1B JUMP JUMPDEST JUMPDEST PUSH1 0x0 PUSH2 0x351B DUP6 DUP3 DUP7 ADD PUSH2 0x2FB3 JUMP JUMPDEST SWAP3 POP POP PUSH1 0x20 DUP4 ADD CALLDATALOAD PUSH8 0xFFFFFFFFFFFFFFFF DUP2 GT ISZERO PUSH2 0x353C JUMPI PUSH2 0x353B PUSH2 0x2E20 JUMP JUMPDEST JUMPDEST PUSH2 0x3548 DUP6 DUP3 DUP7 ADD PUSH2 0x3335 JUMP JUMPDEST SWAP2 POP POP SWAP3 POP SWAP3 SWAP1 POP JUMP JUMPDEST PUSH1 0x0 DUP1 PUSH1 0x40 DUP4 DUP6 SUB SLT ISZERO PUSH2 0x3569 JUMPI PUSH2 0x3568 PUSH2 0x2E1B JUMP JUMPDEST JUMPDEST PUSH1 0x0 PUSH2 0x3577 DUP6 DUP3 DUP7 ADD PUSH2 0x2FB3 JUMP JUMPDEST SWAP3 POP POP PUSH1 0x20 PUSH2 0x3588 DUP6 DUP3 DUP7 ADD PUSH2 0x2FB3 JUMP JUMPDEST SWAP2 POP POP SWAP3 POP SWAP3 SWAP1 POP JUMP JUMPDEST PUSH1 0x0 PUSH1 0xFF DUP3 AND SWAP1 POP SWAP2 SWAP1 POP JUMP JUMPDEST PUSH2 0x35A8 DUP2 PUSH2 0x3592 JUMP JUMPDEST DUP2 EQ PUSH2 0x35B3 JUMPI PUSH1 0x0 DUP1 REVERT JUMPDEST POP JUMP JUMPDEST PUSH1 0x0 DUP2 CALLDATALOAD SWAP1 POP PUSH2 0x35C5 DUP2 PUSH2 0x359F JUMP JUMPDEST SWAP3 SWAP2 POP POP JUMP JUMPDEST PUSH1 0x0 PUSH1 0x20 DUP3 DUP5 SUB SLT ISZERO PUSH2 0x35E1 JUMPI PUSH2 0x35E0 PUSH2 0x2E1B JUMP JUMPDEST JUMPDEST PUSH1 0x0 PUSH2 0x35EF DUP5 DUP3 DUP6 ADD PUSH2 0x35B6 JUMP JUMPDEST SWAP2 POP POP SWAP3 SWAP2 POP POP JUMP JUMPDEST PUSH1 0x0 DUP1 PUSH1 0x40 DUP4 DUP6 SUB SLT ISZERO PUSH2 0x360F JUMPI PUSH2 0x360E PUSH2 0x2E1B JUMP JUMPDEST JUMPDEST PUSH1 0x0 PUSH2 0x361D DUP6 DUP3 DUP7 ADD PUSH2 0x3068 JUMP JUMPDEST SWAP3 POP POP PUSH1 0x20 PUSH2 0x362E DUP6 DUP3 DUP7 ADD PUSH2 0x3116 JUMP JUMPDEST SWAP2 POP POP SWAP3 POP SWAP3 SWAP1 POP JUMP JUMPDEST PUSH1 0x0 DUP1 PUSH1 0x0 PUSH1 0x60 DUP5 DUP7 SUB SLT ISZERO PUSH2 0x3651 JUMPI PUSH2 0x3650 PUSH2 0x2E1B JUMP JUMPDEST JUMPDEST PUSH1 0x0 PUSH2 0x365F DUP7 DUP3 DUP8 ADD PUSH2 0x2FB3 JUMP JUMPDEST SWAP4 POP POP PUSH1 0x20 PUSH2 0x3670 DUP7 DUP3 DUP8 ADD PUSH2 0x3068 JUMP JUMPDEST SWAP3 POP POP PUSH1 0x40 DUP5 ADD CALLDATALOAD PUSH8 0xFFFFFFFFFFFFFFFF DUP2 GT ISZERO PUSH2 0x3691 JUMPI PUSH2 0x3690 PUSH2 0x2E20 JUMP JUMPDEST JUMPDEST PUSH2 0x369D DUP7 DUP3 DUP8 ADD PUSH2 0x3335 JUMP JUMPDEST SWAP2 POP POP SWAP3 POP SWAP3 POP SWAP3 JUMP JUMPDEST PUSH1 0x0 DUP1 REVERT JUMPDEST PUSH1 0x0 DUP1 REVERT JUMPDEST PUSH1 0x0 DUP1 DUP4 PUSH1 0x1F DUP5 ADD SLT PUSH2 0x36C7 JUMPI PUSH2 0x36C6 PUSH2 0x322E JUMP JUMPDEST JUMPDEST DUP3 CALLDATALOAD SWAP1 POP PUSH8 0xFFFFFFFFFFFFFFFF DUP2 GT ISZERO PUSH2 0x36E4 JUMPI PUSH2 0x36E3 PUSH2 0x36A7 JUMP JUMPDEST JUMPDEST PUSH1 0x20 DUP4 ADD SWAP2 POP DUP4 PUSH1 0x20 DUP3 MUL DUP4 ADD GT ISZERO PUSH2 0x3700 JUMPI PUSH2 0x36FF PUSH2 0x36AC JUMP JUMPDEST JUMPDEST SWAP3 POP SWAP3 SWAP1 POP JUMP JUMPDEST PUSH1 0x0 DUP1 PUSH1 0x20 DUP4 DUP6 SUB SLT ISZERO PUSH2 0x371E JUMPI PUSH2 0x371D PUSH2 0x2E1B JUMP JUMPDEST JUMPDEST PUSH1 0x0 DUP4 ADD CALLDATALOAD PUSH8 0xFFFFFFFFFFFFFFFF DUP2 GT ISZERO PUSH2 0x373C JUMPI PUSH2 0x373B PUSH2 0x2E20 JUMP JUMPDEST JUMPDEST PUSH2 0x3748 DUP6 DUP3 DUP7 ADD PUSH2 0x36B1 JUMP JUMPDEST SWAP3 POP SWAP3 POP POP SWAP3 POP SWAP3 SWAP1 POP JUMP JUMPDEST PUSH1 0x0 DUP2 MLOAD SWAP1 POP SWAP2 SWAP1 POP JUMP JUMPDEST PUSH1 0x0 DUP3 DUP3 MSTORE PUSH1 0x20 DUP3 ADD SWAP1 POP SWAP3 SWAP2 POP POP JUMP JUMPDEST PUSH1 0x0 DUP2 SWAP1 POP PUSH1 0x20 DUP3 ADD SWAP1 POP SWAP2 SWAP1 POP JUMP JUMPDEST PUSH2 0x3789 DUP2 PUSH2 0x3015 JUMP JUMPDEST DUP3 MSTORE POP POP JUMP JUMPDEST PUSH1 0x0 PUSH8 0xFFFFFFFFFFFFFFFF DUP3 AND SWAP1 POP SWAP2 SWAP1 POP JUMP JUMPDEST PUSH2 0x37AC DUP2 PUSH2 0x378F JUMP JUMPDEST DUP3 MSTORE POP POP JUMP JUMPDEST PUSH2 0x37BB DUP2 PUSH2 0x2EAA JUMP JUMPDEST DUP3 MSTORE POP POP JUMP JUMPDEST PUSH1 0x0 PUSH3 0xFFFFFF DUP3 AND SWAP1 POP SWAP2 SWAP1 POP JUMP JUMPDEST PUSH2 0x37D9 DUP2 PUSH2 0x37C1 JUMP JUMPDEST DUP3 MSTORE POP POP JUMP JUMPDEST PUSH1 0x80 DUP3 ADD PUSH1 0x0 DUP3 ADD MLOAD PUSH2 0x37F5 PUSH1 0x0 DUP6 ADD DUP3 PUSH2 0x3780 JUMP JUMPDEST POP PUSH1 0x20 DUP3 ADD MLOAD PUSH2 0x3808 PUSH1 0x20 DUP6 ADD DUP3 PUSH2 0x37A3 JUMP JUMPDEST POP PUSH1 0x40 DUP3 ADD MLOAD PUSH2 0x381B PUSH1 0x40 DUP6 ADD DUP3 PUSH2 0x37B2 JUMP JUMPDEST POP PUSH1 0x60 DUP3 ADD MLOAD PUSH2 0x382E PUSH1 0x60 DUP6 ADD DUP3 PUSH2 0x37D0 JUMP JUMPDEST POP POP POP POP JUMP JUMPDEST PUSH1 0x0 PUSH2 0x3840 DUP4 DUP4 PUSH2 0x37DF JUMP JUMPDEST PUSH1 0x80 DUP4 ADD SWAP1 POP SWAP3 SWAP2 POP POP JUMP JUMPDEST PUSH1 0x0 PUSH1 0x20 DUP3 ADD SWAP1 POP SWAP2 SWAP1 POP JUMP JUMPDEST PUSH1 0x0 PUSH2 0x3864 DUP3 PUSH2 0x3754 JUMP JUMPDEST PUSH2 0x386E DUP2 DUP6 PUSH2 0x375F JUMP JUMPDEST SWAP4 POP PUSH2 0x3879 DUP4 PUSH2 0x3770 JUMP JUMPDEST DUP1 PUSH1 0x0 JUMPDEST DUP4 DUP2 LT ISZERO PUSH2 0x38AA JUMPI DUP2 MLOAD PUSH2 0x3891 DUP9 DUP3 PUSH2 0x3834 JUMP JUMPDEST SWAP8 POP PUSH2 0x389C DUP4 PUSH2 0x384C JUMP JUMPDEST SWAP3 POP POP PUSH1 0x1 DUP2 ADD SWAP1 POP PUSH2 0x387D JUMP JUMPDEST POP DUP6 SWAP4 POP POP POP POP SWAP3 SWAP2 POP POP JUMP JUMPDEST PUSH1 0x0 PUSH1 0x20 DUP3 ADD SWAP1 POP DUP2 DUP2 SUB PUSH1 0x0 DUP4 ADD MSTORE PUSH2 0x38D1 DUP2 DUP5 PUSH2 0x3859 JUMP JUMPDEST SWAP1 POP SWAP3 SWAP2 POP POP JUMP JUMPDEST PUSH1 0x0 PUSH1 0x20 DUP3 DUP5 SUB SLT ISZERO PUSH2 0x38EF JUMPI PUSH2 0x38EE PUSH2 0x2E1B JUMP JUMPDEST JUMPDEST PUSH1 0x0 PUSH2 0x38FD DUP5 DUP3 DUP6 ADD PUSH2 0x3068 JUMP JUMPDEST SWAP2 POP POP SWAP3 SWAP2 POP POP JUMP JUMPDEST PUSH1 0x0 DUP2 MLOAD SWAP1 POP SWAP2 SWAP1 POP JUMP JUMPDEST PUSH1 0x0 DUP3 DUP3 MSTORE PUSH1 0x20 DUP3 ADD SWAP1 POP SWAP3 SWAP2 POP POP JUMP JUMPDEST PUSH1 0x0 DUP2 SWAP1 POP PUSH1 0x20 DUP3 ADD SWAP1 POP SWAP2 SWAP1 POP JUMP JUMPDEST PUSH2 0x393B DUP2 PUSH2 0x2F92 JUMP JUMPDEST DUP3 MSTORE POP POP JUMP JUMPDEST PUSH1 0x0 PUSH2 0x394D DUP4 DUP4 PUSH2 0x3932 JUMP JUMPDEST PUSH1 0x20 DUP4 ADD SWAP1 POP SWAP3 SWAP2 POP POP JUMP JUMPDEST PUSH1 0x0 PUSH1 0x20 DUP3 ADD SWAP1 POP SWAP2 SWAP1 POP JUMP JUMPDEST PUSH1 0x0 PUSH2 0x3971 DUP3 PUSH2 0x3906 JUMP JUMPDEST PUSH2 0x397B DUP2 DUP6 PUSH2 0x3911 JUMP JUMPDEST SWAP4 POP PUSH2 0x3986 DUP4 PUSH2 0x3922 JUMP JUMPDEST DUP1 PUSH1 0x0 JUMPDEST DUP4 DUP2 LT ISZERO PUSH2 0x39B7 JUMPI DUP2 MLOAD PUSH2 0x399E DUP9 DUP3 PUSH2 0x3941 JUMP JUMPDEST SWAP8 POP PUSH2 0x39A9 DUP4 PUSH2 0x3959 JUMP JUMPDEST SWAP3 POP POP PUSH1 0x1 DUP2 ADD SWAP1 POP PUSH2 0x398A JUMP JUMPDEST POP DUP6 SWAP4 POP POP POP POP SWAP3 SWAP2 POP POP JUMP JUMPDEST PUSH1 0x0 PUSH1 0x20 DUP3 ADD SWAP1 POP DUP2 DUP2 SUB PUSH1 0x0 DUP4 ADD MSTORE PUSH2 0x39DE DUP2 DUP5 PUSH2 0x3966 JUMP JUMPDEST SWAP1 POP SWAP3 SWAP2 POP POP JUMP JUMPDEST PUSH1 0x0 DUP1 PUSH1 0x0 PUSH1 0x60 DUP5 DUP7 SUB SLT ISZERO PUSH2 0x39FF JUMPI PUSH2 0x39FE PUSH2 0x2E1B JUMP JUMPDEST JUMPDEST PUSH1 0x0 PUSH2 0x3A0D DUP7 DUP3 DUP8 ADD PUSH2 0x3068 JUMP JUMPDEST SWAP4 POP POP PUSH1 0x20 PUSH2 0x3A1E DUP7 DUP3 DUP8 ADD PUSH2 0x2FB3 JUMP JUMPDEST SWAP3 POP POP PUSH1 0x40 PUSH2 0x3A2F DUP7 DUP3 DUP8 ADD PUSH2 0x2FB3 JUMP JUMPDEST SWAP2 POP POP SWAP3 POP SWAP3 POP SWAP3 JUMP JUMPDEST PUSH2 0x3A42 DUP2 PUSH2 0x2EAA JUMP JUMPDEST DUP2 EQ PUSH2 0x3A4D JUMPI PUSH1 0x0 DUP1 REVERT JUMPDEST POP JUMP JUMPDEST PUSH1 0x0 DUP2 CALLDATALOAD SWAP1 POP PUSH2 0x3A5F DUP2 PUSH2 0x3A39 JUMP JUMPDEST SWAP3 SWAP2 POP POP JUMP JUMPDEST PUSH1 0x0 DUP1 PUSH1 0x40 DUP4 DUP6 SUB SLT ISZERO PUSH2 0x3A7C JUMPI PUSH2 0x3A7B PUSH2 0x2E1B JUMP JUMPDEST JUMPDEST PUSH1 0x0 PUSH2 0x3A8A DUP6 DUP3 DUP7 ADD PUSH2 0x3068 JUMP JUMPDEST SWAP3 POP POP PUSH1 0x20 PUSH2 0x3A9B DUP6 DUP3 DUP7 ADD PUSH2 0x3A50 JUMP JUMPDEST SWAP2 POP POP SWAP3 POP SWAP3 SWAP1 POP JUMP JUMPDEST PUSH1 0x0 DUP1 PUSH1 0x40 DUP4 DUP6 SUB SLT ISZERO PUSH2 0x3ABC JUMPI PUSH2 0x3ABB PUSH2 0x2E1B JUMP JUMPDEST JUMPDEST PUSH1 0x0 PUSH2 0x3ACA DUP6 DUP3 DUP7 ADD PUSH2 0x35B6 JUMP JUMPDEST SWAP3 POP POP PUSH1 0x20 PUSH2 0x3ADB DUP6 DUP3 DUP7 ADD PUSH2 0x3116 JUMP JUMPDEST SWAP2 POP POP SWAP3 POP SWAP3 SWAP1 POP JUMP JUMPDEST PUSH1 0x0 PUSH8 0xFFFFFFFFFFFFFFFF DUP3 GT ISZERO PUSH2 0x3B00 JUMPI PUSH2 0x3AFF PUSH2 0x3238 JUMP JUMPDEST JUMPDEST PUSH2 0x3B09 DUP3 PUSH2 0x2F26 JUMP JUMPDEST SWAP1 POP PUSH1 0x20 DUP2 ADD SWAP1 POP SWAP2 SWAP1 POP JUMP JUMPDEST PUSH1 0x0 PUSH2 0x3B29 PUSH2 0x3B24 DUP5 PUSH2 0x3AE5 JUMP JUMPDEST PUSH2 0x3298 JUMP JUMPDEST SWAP1 POP DUP3 DUP2 MSTORE PUSH1 0x20 DUP2 ADD DUP5 DUP5 DUP5 ADD GT ISZERO PUSH2 0x3B45 JUMPI PUSH2 0x3B44 PUSH2 0x3233 JUMP JUMPDEST JUMPDEST PUSH2 0x3B50 DUP5 DUP3 DUP6 PUSH2 0x32E4 JUMP JUMPDEST POP SWAP4 SWAP3 POP POP POP JUMP JUMPDEST PUSH1 0x0 DUP3 PUSH1 0x1F DUP4 ADD SLT PUSH2 0x3B6D JUMPI PUSH2 0x3B6C PUSH2 0x322E JUMP JUMPDEST JUMPDEST DUP2 CALLDATALOAD PUSH2 0x3B7D DUP5 DUP3 PUSH1 0x20 DUP7 ADD PUSH2 0x3B16 JUMP JUMPDEST SWAP2 POP POP SWAP3 SWAP2 POP POP JUMP JUMPDEST PUSH1 0x0 DUP1 PUSH1 0x0 DUP1 PUSH1 0x80 DUP6 DUP8 SUB SLT ISZERO PUSH2 0x3BA0 JUMPI PUSH2 0x3B9F PUSH2 0x2E1B JUMP JUMPDEST JUMPDEST PUSH1 0x0 PUSH2 0x3BAE DUP8 DUP3 DUP9 ADD PUSH2 0x3068 JUMP JUMPDEST SWAP5 POP POP PUSH1 0x20 PUSH2 0x3BBF DUP8 DUP3 DUP9 ADD PUSH2 0x3068 JUMP JUMPDEST SWAP4 POP POP PUSH1 0x40 PUSH2 0x3BD0 DUP8 DUP3 DUP9 ADD PUSH2 0x2FB3 JUMP JUMPDEST SWAP3 POP POP PUSH1 0x60 DUP6 ADD CALLDATALOAD PUSH8 0xFFFFFFFFFFFFFFFF DUP2 GT ISZERO PUSH2 0x3BF1 JUMPI PUSH2 0x3BF0 PUSH2 0x2E20 JUMP JUMPDEST JUMPDEST PUSH2 0x3BFD DUP8 DUP3 DUP9 ADD PUSH2 0x3B58 JUMP JUMPDEST SWAP2 POP POP SWAP3 SWAP6 SWAP2 SWAP5 POP SWAP3 POP JUMP JUMPDEST PUSH1 0x80 DUP3 ADD PUSH1 0x0 DUP3 ADD MLOAD PUSH2 0x3C1F PUSH1 0x0 DUP6 ADD DUP3 PUSH2 0x3780 JUMP JUMPDEST POP PUSH1 0x20 DUP3 ADD MLOAD PUSH2 0x3C32 PUSH1 0x20 DUP6 ADD DUP3 PUSH2 0x37A3 JUMP JUMPDEST POP PUSH1 0x40 DUP3 ADD MLOAD PUSH2 0x3C45 PUSH1 0x40 DUP6 ADD DUP3 PUSH2 0x37B2 JUMP JUMPDEST POP PUSH1 0x60 DUP3 ADD MLOAD PUSH2 0x3C58 PUSH1 0x60 DUP6 ADD DUP3 PUSH2 0x37D0 JUMP JUMPDEST POP POP POP POP JUMP JUMPDEST PUSH1 0x0 PUSH1 0x80 DUP3 ADD SWAP1 POP PUSH2 0x3C73 PUSH1 0x0 DUP4 ADD DUP5 PUSH2 0x3C09 JUMP JUMPDEST SWAP3 SWAP2 POP POP JUMP JUMPDEST PUSH1 0x0 DUP1 PUSH1 0x40 DUP4 DUP6 SUB SLT ISZERO PUSH2 0x3C90 JUMPI PUSH2 0x3C8F PUSH2 0x2E1B JUMP JUMPDEST JUMPDEST PUSH1 0x0 PUSH2 0x3C9E DUP6 DUP3 DUP7 ADD PUSH2 0x3068 JUMP JUMPDEST SWAP3 POP POP PUSH1 0x20 PUSH2 0x3CAF DUP6 DUP3 DUP7 ADD PUSH2 0x3068 JUMP JUMPDEST SWAP2 POP POP SWAP3 POP SWAP3 SWAP1 POP JUMP JUMPDEST PUSH32 0x4E487B7100000000000000000000000000000000000000000000000000000000 PUSH1 0x0 MSTORE PUSH1 0x22 PUSH1 0x4 MSTORE PUSH1 0x24 PUSH1 0x0 REVERT JUMPDEST PUSH1 0x0 PUSH1 0x2 DUP3 DIV SWAP1 POP PUSH1 0x1 DUP3 AND DUP1 PUSH2 0x3D00 JUMPI PUSH1 0x7F DUP3 AND SWAP2 POP JUMPDEST PUSH1 0x20 DUP3 LT DUP2 SUB PUSH2 0x3D13 JUMPI PUSH2 0x3D12 PUSH2 0x3CB9 JUMP JUMPDEST JUMPDEST POP SWAP2 SWAP1 POP JUMP JUMPDEST PUSH1 0x0 DUP2 SWAP1 POP DUP2 PUSH1 0x0 MSTORE PUSH1 0x20 PUSH1 0x0 KECCAK256 SWAP1 POP SWAP2 SWAP1 POP JUMP JUMPDEST PUSH1 0x0 PUSH1 0x20 PUSH1 0x1F DUP4 ADD DIV SWAP1 POP SWAP2 SWAP1 POP JUMP JUMPDEST PUSH1 0x0 DUP3 DUP3 SHL SWAP1 POP SWAP3 SWAP2 POP POP JUMP JUMPDEST PUSH1 0x0 PUSH1 0x8 DUP4 MUL PUSH2 0x3D7B PUSH32 0xFFFFFFFFFFFFFFFFFFFFFFFFFFFFFFFFFFFFFFFFFFFFFFFFFFFFFFFFFFFFFFFF DUP3 PUSH2 0x3D3E JUMP JUMPDEST PUSH2 0x3D85 DUP7 DUP4 PUSH2 0x3D3E JUMP JUMPDEST SWAP6 POP DUP1 NOT DUP5 AND SWAP4 POP DUP1 DUP7 AND DUP5 OR SWAP3 POP POP POP SWAP4 SWAP3 POP POP POP JUMP JUMPDEST PUSH1 0x0 DUP2 SWAP1 POP SWAP2 SWAP1 POP JUMP JUMPDEST PUSH1 0x0 PUSH2 0x3DC2 PUSH2 0x3DBD PUSH2 0x3DB8 DUP5 PUSH2 0x2F92 JUMP JUMPDEST PUSH2 0x3D9D JUMP JUMPDEST PUSH2 0x2F92 JUMP JUMPDEST SWAP1 POP SWAP2 SWAP1 POP JUMP JUMPDEST PUSH1 0x0 DUP2 SWAP1 POP SWAP2 SWAP1 POP JUMP JUMPDEST PUSH2 0x3DDC DUP4 PUSH2 0x3DA7 JUMP JUMPDEST PUSH2 0x3DF0 PUSH2 0x3DE8 DUP3 PUSH2 0x3DC9 JUMP JUMPDEST DUP5 DUP5 SLOAD PUSH2 0x3D4B JUMP JUMPDEST DUP3 SSTORE POP POP POP POP JUMP JUMPDEST PUSH1 0x0 SWAP1 JUMP JUMPDEST PUSH2 0x3E05 PUSH2 0x3DF8 JUMP JUMPDEST PUSH2 0x3E10 DUP2 DUP5 DUP5 PUSH2 0x3DD3 JUMP JUMPDEST POP POP POP JUMP JUMPDEST JUMPDEST DUP2 DUP2 LT ISZERO PUSH2 0x3E34 JUMPI PUSH2 0x3E29 PUSH1 0x0 DUP3 PUSH2 0x3DFD JUMP JUMPDEST PUSH1 0x1 DUP2 ADD SWAP1 POP PUSH2 0x3E16 JUMP JUMPDEST POP POP JUMP JUMPDEST PUSH1 0x1F DUP3 GT ISZERO PUSH2 0x3E79 JUMPI PUSH2 0x3E4A DUP2 PUSH2 0x3D19 JUMP JUMPDEST PUSH2 0x3E53 DUP5 PUSH2 0x3D2E JUMP JUMPDEST DUP2 ADD PUSH1 0x20 DUP6 LT ISZERO PUSH2 0x3E62 JUMPI DUP2 SWAP1 POP JUMPDEST PUSH2 0x3E76 PUSH2 0x3E6E DUP6 PUSH2 0x3D2E JUMP JUMPDEST DUP4 ADD DUP3 PUSH2 0x3E15 JUMP JUMPDEST POP POP JUMPDEST POP POP POP JUMP JUMPDEST PUSH1 0x0 DUP3 DUP3 SHR SWAP1 POP SWAP3 SWAP2 POP POP JUMP JUMPDEST PUSH1 0x0 PUSH2 0x3E9C PUSH1 0x0 NOT DUP5 PUSH1 0x8 MUL PUSH2 0x3E7E JUMP JUMPDEST NOT DUP1 DUP4 AND SWAP2 POP POP SWAP3 SWAP2 POP POP JUMP JUMPDEST PUSH1 0x0 PUSH2 0x3EB5 DUP4 DUP4 PUSH2 0x3E8B JUMP JUMPDEST SWAP2 POP DUP3 PUSH1 0x2 MUL DUP3 OR SWAP1 POP SWAP3 SWAP2 POP POP JUMP JUMPDEST PUSH2 0x3ECE DUP3 PUSH2 0x2EE0 JUMP JUMPDEST PUSH8 0xFFFFFFFFFFFFFFFF DUP2 GT ISZERO PUSH2 0x3EE7 JUMPI PUSH2 0x3EE6 PUSH2 0x3238 JUMP JUMPDEST JUMPDEST PUSH2 0x3EF1 DUP3 SLOAD PUSH2 0x3CE8 JUMP JUMPDEST PUSH2 0x3EFC DUP3 DUP3 DUP6 PUSH2 0x3E38 JUMP JUMPDEST PUSH1 0x0 PUSH1 0x20 SWAP1 POP PUSH1 0x1F DUP4 GT PUSH1 0x1 DUP2 EQ PUSH2 0x3F2F JUMPI PUSH1 0x0 DUP5 ISZERO PUSH2 0x3F1D JUMPI DUP3 DUP8 ADD MLOAD SWAP1 POP JUMPDEST PUSH2 0x3F27 DUP6 DUP3 PUSH2 0x3EA9 JUMP JUMPDEST DUP7 SSTORE POP PUSH2 0x3F8F JUMP JUMPDEST PUSH1 0x1F NOT DUP5 AND PUSH2 0x3F3D DUP7 PUSH2 0x3D19 JUMP JUMPDEST PUSH1 0x0 JUMPDEST DUP3 DUP2 LT ISZERO PUSH2 0x3F65 JUMPI DUP5 DUP10 ADD MLOAD DUP3 SSTORE PUSH1 0x1 DUP3 ADD SWAP2 POP PUSH1 0x20 DUP6 ADD SWAP5 POP PUSH1 0x20 DUP2 ADD SWAP1 POP PUSH2 0x3F40 JUMP JUMPDEST DUP7 DUP4 LT ISZERO PUSH2 0x3F82 JUMPI DUP5 DUP10 ADD MLOAD PUSH2 0x3F7E PUSH1 0x1F DUP10 AND DUP3 PUSH2 0x3E8B JUMP JUMPDEST DUP4 SSTORE POP JUMPDEST PUSH1 0x1 PUSH1 0x2 DUP9 MUL ADD DUP9 SSTORE POP POP POP JUMPDEST POP POP POP POP POP POP JUMP JUMPDEST PUSH32 0x416363657373436F6E74726F6C3A2063616E206F6E6C792072656E6F756E6365 PUSH1 0x0 DUP3 ADD MSTORE PUSH32 0x20726F6C657320666F722073656C660000000000000000000000000000000000 PUSH1 0x20 DUP3 ADD MSTORE POP JUMP JUMPDEST PUSH1 0x0 PUSH2 0x3FF3 PUSH1 0x2F DUP4 PUSH2 0x2EEB JUMP JUMPDEST SWAP2 POP PUSH2 0x3FFE DUP3 PUSH2 0x3F97 JUMP JUMPDEST PUSH1 0x40 DUP3 ADD SWAP1 POP SWAP2 SWAP1 POP JUMP JUMPDEST PUSH1 0x0 PUSH1 0x20 DUP3 ADD SWAP1 POP DUP2 DUP2 SUB PUSH1 0x0 DUP4 ADD MSTORE PUSH2 0x4022 DUP2 PUSH2 0x3FE6 JUMP JUMPDEST SWAP1 POP SWAP2 SWAP1 POP JUMP JUMPDEST PUSH32 0x5A6F646961636853616C653A204E6578742053616C6520436F6E646974696F6E PUSH1 0x0 DUP3 ADD MSTORE PUSH32 0x73206E6F74207365740000000000000000000000000000000000000000000000 PUSH1 0x20 DUP3 ADD MSTORE POP JUMP JUMPDEST PUSH1 0x0 PUSH2 0x4085 PUSH1 0x29 DUP4 PUSH2 0x2EEB JUMP JUMPDEST SWAP2 POP PUSH2 0x4090 DUP3 PUSH2 0x4029 JUMP JUMPDEST PUSH1 0x40 DUP3 ADD SWAP1 POP SWAP2 SWAP1 POP JUMP JUMPDEST PUSH1 0x0 PUSH1 0x20 DUP3 ADD SWAP1 POP DUP2 DUP2 SUB PUSH1 0x0 DUP4 ADD MSTORE PUSH2 0x40B4 DUP2 PUSH2 0x4078 JUMP JUMPDEST SWAP1 POP SWAP2 SWAP1 POP JUMP JUMPDEST PUSH32 0x5A6F646961636853616C653A204E6578742053616C6520555249206E6F742073 PUSH1 0x0 DUP3 ADD MSTORE PUSH32 0x6574000000000000000000000000000000000000000000000000000000000000 PUSH1 0x20 DUP3 ADD MSTORE POP JUMP JUMPDEST PUSH1 0x0 PUSH2 0x4117 PUSH1 0x22 DUP4 PUSH2 0x2EEB JUMP JUMPDEST SWAP2 POP PUSH2 0x4122 DUP3 PUSH2 0x40BB JUMP JUMPDEST PUSH1 0x40 DUP3 ADD SWAP1 POP SWAP2 SWAP1 POP JUMP JUMPDEST PUSH1 0x0 PUSH1 0x20 DUP3 ADD SWAP1 POP DUP2 DUP2 SUB PUSH1 0x0 DUP4 ADD MSTORE PUSH2 0x4146 DUP2 PUSH2 0x410A JUMP JUMPDEST SWAP1 POP SWAP2 SWAP1 POP JUMP JUMPDEST PUSH1 0x0 DUP2 SWAP1 POP SWAP3 SWAP2 POP POP JUMP JUMPDEST PUSH1 0x0 PUSH2 0x4163 DUP3 PUSH2 0x2EE0 JUMP JUMPDEST PUSH2 0x416D DUP2 DUP6 PUSH2 0x414D JUMP JUMPDEST SWAP4 POP PUSH2 0x417D DUP2 DUP6 PUSH1 0x20 DUP7 ADD PUSH2 0x2EFC JUMP JUMPDEST DUP1 DUP5 ADD SWAP2 POP POP SWAP3 SWAP2 POP POP JUMP JUMPDEST PUSH32 0x2F00000000000000000000000000000000000000000000000000000000000000 PUSH1 0x0 DUP3 ADD MSTORE POP JUMP JUMPDEST PUSH1 0x0 PUSH2 0x41BF PUSH1 0x1 DUP4 PUSH2 0x414D JUMP JUMPDEST SWAP2 POP PUSH2 0x41CA DUP3 PUSH2 0x4189 JUMP JUMPDEST PUSH1 0x1 DUP3 ADD SWAP1 POP SWAP2 SWAP1 POP JUMP JUMPDEST PUSH32 0x2E6A736F6E000000000000000000000000000000000000000000000000000000 PUSH1 0x0 DUP3 ADD MSTORE POP JUMP JUMPDEST PUSH1 0x0 PUSH2 0x420B PUSH1 0x5 DUP4 PUSH2 0x414D JUMP JUMPDEST SWAP2 POP PUSH2 0x4216 DUP3 PUSH2 0x41D5 JUMP JUMPDEST PUSH1 0x5 DUP3 ADD SWAP1 POP SWAP2 SWAP1 POP JUMP JUMPDEST PUSH1 0x0 PUSH2 0x422D DUP3 DUP6 PUSH2 0x4158 JUMP JUMPDEST SWAP2 POP PUSH2 0x4238 DUP3 PUSH2 0x41B2 JUMP JUMPDEST SWAP2 POP PUSH2 0x4244 DUP3 DUP5 PUSH2 0x4158 JUMP JUMPDEST SWAP2 POP PUSH2 0x424F DUP3 PUSH2 0x41FE JUMP JUMPDEST SWAP2 POP DUP2 SWAP1 POP SWAP4 SWAP3 POP POP POP JUMP JUMPDEST PUSH32 0x4E487B7100000000000000000000000000000000000000000000000000000000 PUSH1 0x0 MSTORE PUSH1 0x11 PUSH1 0x4 MSTORE PUSH1 0x24 PUSH1 0x0 REVERT JUMPDEST PUSH1 0x0 PUSH2 0x4295 DUP3 PUSH2 0x2F92 JUMP JUMPDEST SWAP2 POP PUSH2 0x42A0 DUP4 PUSH2 0x2F92 JUMP JUMPDEST SWAP3 POP DUP3 DUP3 MUL PUSH2 0x42AE DUP2 PUSH2 0x2F92 JUMP JUMPDEST SWAP2 POP DUP3 DUP3 DIV DUP5 EQ DUP4 ISZERO OR PUSH2 0x42C5 JUMPI PUSH2 0x42C4 PUSH2 0x425B JUMP JUMPDEST JUMPDEST POP SWAP3 SWAP2 POP POP JUMP JUMPDEST PUSH1 0x0 PUSH2 0x42D7 DUP3 PUSH2 0x2F92 JUMP JUMPDEST SWAP2 POP PUSH2 0x42E2 DUP4 PUSH2 0x2F92 JUMP JUMPDEST SWAP3 POP DUP3 DUP3 ADD SWAP1 POP DUP1 DUP3 GT ISZERO PUSH2 0x42FA JUMPI PUSH2 0x42F9 PUSH2 0x425B JUMP JUMPDEST JUMPDEST SWAP3 SWAP2 POP POP JUMP JUMPDEST PUSH32 0x4E487B7100000000000000000000000000000000000000000000000000000000 PUSH1 0x0 MSTORE PUSH1 0x32 PUSH1 0x4 MSTORE PUSH1 0x24 PUSH1 0x0 REVERT JUMPDEST PUSH1 0x0 PUSH2 0x433A DUP3 PUSH2 0x2F92 JUMP JUMPDEST SWAP2 POP PUSH1 0x0 DUP3 SUB PUSH2 0x434D JUMPI PUSH2 0x434C PUSH2 0x425B JUMP JUMPDEST JUMPDEST PUSH1 0x1 DUP3 SUB SWAP1 POP SWAP2 SWAP1 POP JUMP JUMPDEST PUSH32 0x537472696E67733A20686578206C656E67746820696E73756666696369656E74 PUSH1 0x0 DUP3 ADD MSTORE POP JUMP JUMPDEST PUSH1 0x0 PUSH2 0x438E PUSH1 0x20 DUP4 PUSH2 0x2EEB JUMP JUMPDEST SWAP2 POP PUSH2 0x4399 DUP3 PUSH2 0x4358 JUMP JUMPDEST PUSH1 0x20 DUP3 ADD SWAP1 POP SWAP2 SWAP1 POP JUMP JUMPDEST PUSH1 0x0 PUSH1 0x20 DUP3 ADD SWAP1 POP DUP2 DUP2 SUB PUSH1 0x0 DUP4 ADD MSTORE PUSH2 0x43BD DUP2 PUSH2 0x4381 JUMP JUMPDEST SWAP1 POP SWAP2 SWAP1 POP JUMP JUMPDEST PUSH1 0x0 DUP2 MLOAD SWAP1 POP SWAP2 SWAP1 POP JUMP JUMPDEST PUSH1 0x0 DUP3 DUP3 MSTORE PUSH1 0x20 DUP3 ADD SWAP1 POP SWAP3 SWAP2 POP POP JUMP JUMPDEST PUSH1 0x0 PUSH2 0x43EB DUP3 PUSH2 0x43C4 JUMP JUMPDEST PUSH2 0x43F5 DUP2 DUP6 PUSH2 0x43CF JUMP JUMPDEST SWAP4 POP PUSH2 0x4405 DUP2 DUP6 PUSH1 0x20 DUP7 ADD PUSH2 0x2EFC JUMP JUMPDEST PUSH2 0x440E DUP2 PUSH2 0x2F26 JUMP JUMPDEST DUP5 ADD SWAP2 POP POP SWAP3 SWAP2 POP POP JUMP JUMPDEST PUSH1 0x0 PUSH1 0x80 DUP3 ADD SWAP1 POP PUSH2 0x442E PUSH1 0x0 DUP4 ADD DUP8 PUSH2 0x3027 JUMP JUMPDEST PUSH2 0x443B PUSH1 0x20 DUP4 ADD DUP7 PUSH2 0x3027 JUMP JUMPDEST PUSH2 0x4448 PUSH1 0x40 DUP4 ADD DUP6 PUSH2 0x3158 JUMP JUMPDEST DUP2 DUP2 SUB PUSH1 0x60 DUP4 ADD MSTORE PUSH2 0x445A DUP2 DUP5 PUSH2 0x43E0 JUMP JUMPDEST SWAP1 POP SWAP6 SWAP5 POP POP POP POP POP JUMP JUMPDEST PUSH1 0x0 DUP2 MLOAD SWAP1 POP PUSH2 0x4474 DUP2 PUSH2 0x2E51 JUMP JUMPDEST SWAP3 SWAP2 POP POP JUMP JUMPDEST PUSH1 0x0 PUSH1 0x20 DUP3 DUP5 SUB SLT ISZERO PUSH2 0x4490 JUMPI PUSH2 0x448F PUSH2 0x2E1B JUMP JUMPDEST JUMPDEST PUSH1 0x0 PUSH2 0x449E DUP5 DUP3 DUP6 ADD PUSH2 0x4465 JUMP JUMPDEST SWAP2 POP POP SWAP3 SWAP2 POP POP JUMP JUMPDEST PUSH32 0x416363657373436F6E74726F6C3A206163636F756E7420000000000000000000 PUSH1 0x0 DUP3 ADD MSTORE POP JUMP JUMPDEST PUSH1 0x0 PUSH2 0x44DD PUSH1 0x17 DUP4 PUSH2 0x414D JUMP JUMPDEST SWAP2 POP PUSH2 0x44E8 DUP3 PUSH2 0x44A7 JUMP JUMPDEST PUSH1 0x17 DUP3 ADD SWAP1 POP SWAP2 SWAP1 POP JUMP JUMPDEST PUSH32 0x206973206D697373696E6720726F6C6520000000000000000000000000000000 PUSH1 0x0 DUP3 ADD MSTORE POP JUMP JUMPDEST PUSH1 0x0 PUSH2 0x4529 PUSH1 0x11 DUP4 PUSH2 0x414D JUMP JUMPDEST SWAP2 POP PUSH2 0x4534 DUP3 PUSH2 0x44F3 JUMP JUMPDEST PUSH1 0x11 DUP3 ADD SWAP1 POP SWAP2 SWAP1 POP JUMP JUMPDEST PUSH1 0x0 PUSH2 0x454A DUP3 PUSH2 0x44D0 JUMP JUMPDEST SWAP2 POP PUSH2 0x4556 DUP3 DUP6 PUSH2 0x4158 JUMP JUMPDEST SWAP2 POP PUSH2 0x4561 DUP3 PUSH2 0x451C JUMP JUMPDEST SWAP2 POP PUSH2 0x456D DUP3 DUP5 PUSH2 0x4158 JUMP JUMPDEST SWAP2 POP DUP2 SWAP1 POP SWAP4 SWAP3 POP POP POP JUMP INVALID LOG2 PUSH5 0x6970667358 0x22 SLT KECCAK256 0xDF SWAP1 ADDMOD DUP14 SUB SWAP5 0xCD 0xCB NUMBER 0xD5 PUSH2 0xED35 0xE7 BASEFEE CALLER 0x26 AND 0xF6 MOD GAS MLOAD DUP15 PUSH26 0x9E19706AEAEDE6F164736F6C6343000811003368747470733A2F 0x2F PUSH8 0x69746875622E636F PUSH14 0x2F5A6F64696163682D5072657373 0x2F PUSH15 0x66742D67616C6C6572790000000000 "
		},
		"gasEstimates": {
			"creation": {
				"codeDepositCost": "3567800",
				"executionCost": "infinite",
				"totalCost": "infinite"
			},
			"external": {
				"DEFAULT_ADMIN_ROLE()": "490",
				"MINTER_ROLE()": "417",
				"OWNER_ROLE()": "461",
				"URI_ROLE()": "464",
				"approve(address,uint256)": "infinite",
				"balanceOf(address)": "2972",
				"burn(uint256)": "infinite",
				"cancelBid()": "233",
				"checkNextSaleCurrentState()": "infinite",
				"combineMonthly()": "233",
				"combineMonthly(uint16)": "568",
				"createNextSale(string,string)": "infinite",
				"explicitOwnershipOf(uint256)": "infinite",
				"explicitOwnershipsOf(uint256[])": "infinite",
				"getApproved(uint256)": "7404",
				"getRoleAdmin(bytes32)": "infinite",
				"giftConstellation(address)": "520",
				"giftConstellation(address,uint16)": "743",
				"grantRole(bytes32,address)": "infinite",
				"hasRole(bytes32,address)": "3207",
				"isApprovedForAll(address,address)": "infinite",
				"lockInNextSaleState()": "infinite",
				"mint(uint256,string)": "infinite",
				"mintConstellation()": "275",
				"mintConstellation(uint16)": "434",
				"mintTo(uint256,address,string)": "infinite",
				"name()": "infinite",
				"ownerOf(uint256)": "infinite",
				"purchaseMonthly(string)": "infinite",
				"purchaseMonthly(uint8)": "523",
				"purchaseMonthly(uint8,uint16)": "702",
				"renounceRole(bytes32,address)": "infinite",
				"revokeRole(bytes32,address)": "infinite",
				"safeTransferFrom(address,address,uint256)": "infinite",
				"safeTransferFrom(address,address,uint256,bytes)": "infinite",
				"setApprovalForAll(address,bool)": "infinite",
				"setNextSaleConditions(uint256,uint256)": "infinite",
				"setNextSaleURI(string)": "infinite",
				"submitBid(uint256)": "494",
				"supportsInterface(bytes4)": "768",
				"symbol()": "infinite",
				"tokenURI(uint256)": "infinite",
				"tokensOfOwner(address)": "infinite",
				"tokensOfOwnerIn(address,uint256,uint256)": "infinite",
				"totalSupply()": "4644",
				"transferFrom(address,address,uint256)": "infinite",
				"updateURI(uint256,string)": "infinite"
			},
			"internal": {
				"_baseURI(uint256)": "infinite",
				"allocateAndSetURIs(uint256,string memory)": "infinite"
			}
		},
		"methodIdentifiers": {
			"DEFAULT_ADMIN_ROLE()": "a217fddf",
			"MINTER_ROLE()": "d5391393",
			"OWNER_ROLE()": "e58378bb",
			"URI_ROLE()": "0ab5f32a",
			"approve(address,uint256)": "095ea7b3",
			"balanceOf(address)": "70a08231",
			"burn(uint256)": "42966c68",
			"cancelBid()": "9435c887",
			"checkNextSaleCurrentState()": "7f2c2be3",
			"combineMonthly()": "4aba5112",
			"combineMonthly(uint16)": "4082857c",
			"createNextSale(string,string)": "2bf1fbe8",
			"explicitOwnershipOf(uint256)": "c23dc68f",
			"explicitOwnershipsOf(uint256[])": "5bbb2177",
			"getApproved(uint256)": "081812fc",
			"getRoleAdmin(bytes32)": "248a9ca3",
			"giftConstellation(address)": "a7a7dd73",
			"giftConstellation(address,uint16)": "561e8eff",
			"grantRole(bytes32,address)": "2f2ff15d",
			"hasRole(bytes32,address)": "91d14854",
			"isApprovedForAll(address,address)": "e985e9c5",
			"lockInNextSaleState()": "a515a100",
			"mint(uint256,string)": "77097fc8",
			"mintConstellation()": "b9fdbb4a",
			"mintConstellation(uint16)": "13338a50",
			"mintTo(uint256,address,string)": "59927bbe",
			"name()": "06fdde03",
			"ownerOf(uint256)": "6352211e",
			"purchaseMonthly(string)": "29ca2372",
			"purchaseMonthly(uint8)": "4e51ea25",
			"purchaseMonthly(uint8,uint16)": "a93cd768",
			"renounceRole(bytes32,address)": "36568abe",
			"revokeRole(bytes32,address)": "d547741f",
			"safeTransferFrom(address,address,uint256)": "42842e0e",
			"safeTransferFrom(address,address,uint256,bytes)": "b88d4fde",
			"setApprovalForAll(address,bool)": "a22cb465",
			"setNextSaleConditions(uint256,uint256)": "3a8f3a57",
			"setNextSaleURI(string)": "2e8d04f7",
			"submitBid(uint256)": "74bdda15",
			"supportsInterface(bytes4)": "01ffc9a7",
			"symbol()": "95d89b41",
			"tokenURI(uint256)": "c87b56dd",
			"tokensOfOwner(address)": "8462151c",
			"tokensOfOwnerIn(address,uint256,uint256)": "99a2557a",
			"totalSupply()": "18160ddd",
			"transferFrom(address,address,uint256)": "23b872dd",
			"updateURI(uint256,string)": "31d41c69"
		}
	},
	"abi": [
		{
			"inputs": [],
			"stateMutability": "nonpayable",
			"type": "constructor"
		},
		{
			"inputs": [],
			"name": "ApprovalCallerNotOwnerNorApproved",
			"type": "error"
		},
		{
			"inputs": [],
			"name": "ApprovalQueryForNonexistentToken",
			"type": "error"
		},
		{
			"inputs": [],
			"name": "BalanceQueryForZeroAddress",
			"type": "error"
		},
		{
			"inputs": [],
			"name": "InvalidQueryRange",
			"type": "error"
		},
		{
			"inputs": [],
			"name": "MintERC2309QuantityExceedsLimit",
			"type": "error"
		},
		{
			"inputs": [],
			"name": "MintToZeroAddress",
			"type": "error"
		},
		{
			"inputs": [],
			"name": "MintZeroQuantity",
			"type": "error"
		},
		{
			"inputs": [],
			"name": "OwnerQueryForNonexistentToken",
			"type": "error"
		},
		{
			"inputs": [],
			"name": "OwnershipNotInitializedForExtraData",
			"type": "error"
		},
		{
			"inputs": [],
			"name": "TransferCallerNotOwnerNorApproved",
			"type": "error"
		},
		{
			"inputs": [],
			"name": "TransferFromIncorrectOwner",
			"type": "error"
		},
		{
			"inputs": [],
			"name": "TransferToNonERC721ReceiverImplementer",
			"type": "error"
		},
		{
			"inputs": [],
			"name": "TransferToZeroAddress",
			"type": "error"
		},
		{
			"inputs": [],
			"name": "URIQueryForNonexistentToken",
			"type": "error"
		},
		{
			"anonymous": false,
			"inputs": [
				{
					"indexed": true,
					"internalType": "address",
					"name": "owner",
					"type": "address"
				},
				{
					"indexed": true,
					"internalType": "address",
					"name": "approved",
					"type": "address"
				},
				{
					"indexed": true,
					"internalType": "uint256",
					"name": "tokenId",
					"type": "uint256"
				}
			],
			"name": "Approval",
			"type": "event"
		},
		{
			"anonymous": false,
			"inputs": [
				{
					"indexed": true,
					"internalType": "address",
					"name": "owner",
					"type": "address"
				},
				{
					"indexed": true,
					"internalType": "address",
					"name": "operator",
					"type": "address"
				},
				{
					"indexed": false,
					"internalType": "bool",
					"name": "approved",
					"type": "bool"
				}
			],
			"name": "ApprovalForAll",
			"type": "event"
		},
		{
			"anonymous": false,
			"inputs": [
				{
					"indexed": true,
					"internalType": "uint256",
					"name": "fromTokenId",
					"type": "uint256"
				},
				{
					"indexed": false,
					"internalType": "uint256",
					"name": "toTokenId",
					"type": "uint256"
				},
				{
					"indexed": true,
					"internalType": "address",
					"name": "from",
					"type": "address"
				},
				{
					"indexed": true,
					"internalType": "address",
					"name": "to",
					"type": "address"
				}
			],
			"name": "ConsecutiveTransfer",
			"type": "event"
		},
		{
			"anonymous": false,
			"inputs": [
				{
					"indexed": true,
					"internalType": "bytes32",
					"name": "role",
					"type": "bytes32"
				},
				{
					"indexed": true,
					"internalType": "bytes32",
					"name": "previousAdminRole",
					"type": "bytes32"
				},
				{
					"indexed": true,
					"internalType": "bytes32",
					"name": "newAdminRole",
					"type": "bytes32"
				}
			],
			"name": "RoleAdminChanged",
			"type": "event"
		},
		{
			"anonymous": false,
			"inputs": [
				{
					"indexed": true,
					"internalType": "bytes32",
					"name": "role",
					"type": "bytes32"
				},
				{
					"indexed": true,
					"internalType": "address",
					"name": "account",
					"type": "address"
				},
				{
					"indexed": true,
					"internalType": "address",
					"name": "sender",
					"type": "address"
				}
			],
			"name": "RoleGranted",
			"type": "event"
		},
		{
			"anonymous": false,
			"inputs": [
				{
					"indexed": true,
					"internalType": "bytes32",
					"name": "role",
					"type": "bytes32"
				},
				{
					"indexed": true,
					"internalType": "address",
					"name": "account",
					"type": "address"
				},
				{
					"indexed": true,
					"internalType": "address",
					"name": "sender",
					"type": "address"
				}
			],
			"name": "RoleRevoked",
			"type": "event"
		},
		{
			"anonymous": false,
			"inputs": [
				{
					"indexed": true,
					"internalType": "address",
					"name": "from",
					"type": "address"
				},
				{
					"indexed": true,
					"internalType": "address",
					"name": "to",
					"type": "address"
				},
				{
					"indexed": true,
					"internalType": "uint256",
					"name": "tokenId",
					"type": "uint256"
				}
			],
			"name": "Transfer",
			"type": "event"
		},
		{
			"inputs": [],
			"name": "DEFAULT_ADMIN_ROLE",
			"outputs": [
				{
					"internalType": "bytes32",
					"name": "",
					"type": "bytes32"
				}
			],
			"stateMutability": "view",
			"type": "function"
		},
		{
			"inputs": [],
			"name": "MINTER_ROLE",
			"outputs": [
				{
					"internalType": "bytes32",
					"name": "",
					"type": "bytes32"
				}
			],
			"stateMutability": "view",
			"type": "function"
		},
		{
			"inputs": [],
			"name": "OWNER_ROLE",
			"outputs": [
				{
					"internalType": "bytes32",
					"name": "",
					"type": "bytes32"
				}
			],
			"stateMutability": "view",
			"type": "function"
		},
		{
			"inputs": [],
			"name": "URI_ROLE",
			"outputs": [
				{
					"internalType": "bytes32",
					"name": "",
					"type": "bytes32"
				}
			],
			"stateMutability": "view",
			"type": "function"
		},
		{
			"inputs": [
				{
					"internalType": "address",
					"name": "to",
					"type": "address"
				},
				{
					"internalType": "uint256",
					"name": "tokenId",
					"type": "uint256"
				}
			],
			"name": "approve",
			"outputs": [],
			"stateMutability": "payable",
			"type": "function"
		},
		{
			"inputs": [
				{
					"internalType": "address",
					"name": "owner",
					"type": "address"
				}
			],
			"name": "balanceOf",
			"outputs": [
				{
					"internalType": "uint256",
					"name": "",
					"type": "uint256"
				}
			],
			"stateMutability": "view",
			"type": "function"
		},
		{
			"inputs": [
				{
					"internalType": "uint256",
					"name": "tokenId",
					"type": "uint256"
				}
			],
			"name": "burn",
			"outputs": [],
			"stateMutability": "nonpayable",
			"type": "function"
		},
		{
			"inputs": [],
			"name": "cancelBid",
			"outputs": [],
			"stateMutability": "nonpayable",
			"type": "function"
		},
		{
			"inputs": [],
			"name": "checkNextSaleCurrentState",
			"outputs": [
				{
					"internalType": "enum NextSaleCurrentState",
					"name": "",
					"type": "uint8"
				}
			],
			"stateMutability": "view",
			"type": "function"
		},
		{
			"inputs": [
				{
					"internalType": "uint16",
					"name": "_monthNumber",
					"type": "uint16"
				}
			],
			"name": "combineMonthly",
			"outputs": [],
			"stateMutability": "nonpayable",
			"type": "function"
		},
		{
			"inputs": [],
			"name": "combineMonthly",
			"outputs": [],
			"stateMutability": "nonpayable",
			"type": "function"
		},
		{
			"inputs": [
				{
					"internalType": "string",
					"name": "_sign",
					"type": "string"
				},
				{
					"internalType": "string",
					"name": "_calendar",
					"type": "string"
				}
			],
			"name": "createNextSale",
			"outputs": [
				{
					"internalType": "enum NextSaleCurrentState",
					"name": "",
					"type": "uint8"
				}
			],
			"stateMutability": "nonpayable",
			"type": "function"
		},
		{
			"inputs": [
				{
					"internalType": "uint256",
					"name": "tokenId",
					"type": "uint256"
				}
			],
			"name": "explicitOwnershipOf",
			"outputs": [
				{
					"components": [
						{
							"internalType": "address",
							"name": "addr",
							"type": "address"
						},
						{
							"internalType": "uint64",
							"name": "startTimestamp",
							"type": "uint64"
						},
						{
							"internalType": "bool",
							"name": "burned",
							"type": "bool"
						},
						{
							"internalType": "uint24",
							"name": "extraData",
							"type": "uint24"
						}
					],
					"internalType": "struct IERC721A.TokenOwnership",
					"name": "ownership",
					"type": "tuple"
				}
			],
			"stateMutability": "view",
			"type": "function"
		},
		{
			"inputs": [
				{
					"internalType": "uint256[]",
					"name": "tokenIds",
					"type": "uint256[]"
				}
			],
			"name": "explicitOwnershipsOf",
			"outputs": [
				{
					"components": [
						{
							"internalType": "address",
							"name": "addr",
							"type": "address"
						},
						{
							"internalType": "uint64",
							"name": "startTimestamp",
							"type": "uint64"
						},
						{
							"internalType": "bool",
							"name": "burned",
							"type": "bool"
						},
						{
							"internalType": "uint24",
							"name": "extraData",
							"type": "uint24"
						}
					],
					"internalType": "struct IERC721A.TokenOwnership[]",
					"name": "",
					"type": "tuple[]"
				}
			],
			"stateMutability": "view",
			"type": "function"
		},
		{
			"inputs": [
				{
					"internalType": "uint256",
					"name": "tokenId",
					"type": "uint256"
				}
			],
			"name": "getApproved",
			"outputs": [
				{
					"internalType": "address",
					"name": "",
					"type": "address"
				}
			],
			"stateMutability": "view",
			"type": "function"
		},
		{
			"inputs": [
				{
					"internalType": "bytes32",
					"name": "role",
					"type": "bytes32"
				}
			],
			"name": "getRoleAdmin",
			"outputs": [
				{
					"internalType": "bytes32",
					"name": "",
					"type": "bytes32"
				}
			],
			"stateMutability": "view",
			"type": "function"
		},
		{
			"inputs": [
				{
					"internalType": "address",
					"name": "_to",
					"type": "address"
				},
				{
					"internalType": "uint16",
					"name": "_quantity",
					"type": "uint16"
				}
			],
			"name": "giftConstellation",
			"outputs": [],
			"stateMutability": "payable",
			"type": "function"
		},
		{
			"inputs": [
				{
					"internalType": "address",
					"name": "_to",
					"type": "address"
				}
			],
			"name": "giftConstellation",
			"outputs": [],
			"stateMutability": "payable",
			"type": "function"
		},
		{
			"inputs": [
				{
					"internalType": "bytes32",
					"name": "role",
					"type": "bytes32"
				},
				{
					"internalType": "address",
					"name": "account",
					"type": "address"
				}
			],
			"name": "grantRole",
			"outputs": [],
			"stateMutability": "nonpayable",
			"type": "function"
		},
		{
			"inputs": [
				{
					"internalType": "bytes32",
					"name": "role",
					"type": "bytes32"
				},
				{
					"internalType": "address",
					"name": "account",
					"type": "address"
				}
			],
			"name": "hasRole",
			"outputs": [
				{
					"internalType": "bool",
					"name": "",
					"type": "bool"
				}
			],
			"stateMutability": "view",
			"type": "function"
		},
		{
			"inputs": [
				{
					"internalType": "address",
					"name": "owner",
					"type": "address"
				},
				{
					"internalType": "address",
					"name": "operator",
					"type": "address"
				}
			],
			"name": "isApprovedForAll",
			"outputs": [
				{
					"internalType": "bool",
					"name": "",
					"type": "bool"
				}
			],
			"stateMutability": "view",
			"type": "function"
		},
		{
			"inputs": [],
			"name": "lockInNextSaleState",
			"outputs": [],
			"stateMutability": "nonpayable",
			"type": "function"
		},
		{
			"inputs": [
				{
					"internalType": "uint256",
					"name": "_quantity",
					"type": "uint256"
				},
				{
					"internalType": "string",
					"name": "_uri",
					"type": "string"
				}
			],
			"name": "mint",
			"outputs": [],
			"stateMutability": "nonpayable",
			"type": "function"
		},
		{
			"inputs": [
				{
					"internalType": "uint16",
					"name": "_quantity",
					"type": "uint16"
				}
			],
			"name": "mintConstellation",
			"outputs": [],
			"stateMutability": "payable",
			"type": "function"
		},
		{
			"inputs": [],
			"name": "mintConstellation",
			"outputs": [],
			"stateMutability": "payable",
			"type": "function"
		},
		{
			"inputs": [
				{
					"internalType": "uint256",
					"name": "_quantity",
					"type": "uint256"
				},
				{
					"internalType": "address",
					"name": "_mintee",
					"type": "address"
				},
				{
					"internalType": "string",
					"name": "_uri",
					"type": "string"
				}
			],
			"name": "mintTo",
			"outputs": [],
			"stateMutability": "nonpayable",
			"type": "function"
		},
		{
			"inputs": [],
			"name": "name",
			"outputs": [
				{
					"internalType": "string",
					"name": "",
					"type": "string"
				}
			],
			"stateMutability": "view",
			"type": "function"
		},
		{
			"inputs": [
				{
					"internalType": "uint256",
					"name": "tokenId",
					"type": "uint256"
				}
			],
			"name": "ownerOf",
			"outputs": [
				{
					"internalType": "address",
					"name": "",
					"type": "address"
				}
			],
			"stateMutability": "view",
			"type": "function"
		},
		{
			"inputs": [
				{
					"internalType": "string",
					"name": "_flag",
					"type": "string"
				}
			],
			"name": "purchaseMonthly",
			"outputs": [],
			"stateMutability": "payable",
			"type": "function"
		},
		{
			"inputs": [
				{
					"internalType": "uint8",
					"name": "_option",
					"type": "uint8"
				}
			],
			"name": "purchaseMonthly",
			"outputs": [],
			"stateMutability": "payable",
			"type": "function"
		},
		{
			"inputs": [
				{
					"internalType": "uint8",
					"name": "_option",
					"type": "uint8"
				},
				{
					"internalType": "uint16",
					"name": "_quantity",
					"type": "uint16"
				}
			],
			"name": "purchaseMonthly",
			"outputs": [],
			"stateMutability": "payable",
			"type": "function"
		},
		{
			"inputs": [
				{
					"internalType": "bytes32",
					"name": "role",
					"type": "bytes32"
				},
				{
					"internalType": "address",
					"name": "account",
					"type": "address"
				}
			],
			"name": "renounceRole",
			"outputs": [],
			"stateMutability": "nonpayable",
			"type": "function"
		},
		{
			"inputs": [
				{
					"internalType": "bytes32",
					"name": "role",
					"type": "bytes32"
				},
				{
					"internalType": "address",
					"name": "account",
					"type": "address"
				}
			],
			"name": "revokeRole",
			"outputs": [],
			"stateMutability": "nonpayable",
			"type": "function"
		},
		{
			"inputs": [
				{
					"internalType": "address",
					"name": "from",
					"type": "address"
				},
				{
					"internalType": "address",
					"name": "to",
					"type": "address"
				},
				{
					"internalType": "uint256",
					"name": "tokenId",
					"type": "uint256"
				}
			],
			"name": "safeTransferFrom",
			"outputs": [],
			"stateMutability": "payable",
			"type": "function"
		},
		{
			"inputs": [
				{
					"internalType": "address",
					"name": "from",
					"type": "address"
				},
				{
					"internalType": "address",
					"name": "to",
					"type": "address"
				},
				{
					"internalType": "uint256",
					"name": "tokenId",
					"type": "uint256"
				},
				{
					"internalType": "bytes",
					"name": "_data",
					"type": "bytes"
				}
			],
			"name": "safeTransferFrom",
			"outputs": [],
			"stateMutability": "payable",
			"type": "function"
		},
		{
			"inputs": [
				{
					"internalType": "address",
					"name": "operator",
					"type": "address"
				},
				{
					"internalType": "bool",
					"name": "approved",
					"type": "bool"
				}
			],
			"name": "setApprovalForAll",
			"outputs": [],
			"stateMutability": "nonpayable",
			"type": "function"
		},
		{
			"inputs": [
				{
					"internalType": "uint256",
					"name": "_timestamp",
					"type": "uint256"
				},
				{
					"internalType": "uint256",
					"name": "_price",
					"type": "uint256"
				}
			],
			"name": "setNextSaleConditions",
			"outputs": [
				{
					"internalType": "enum NextSaleCurrentState",
					"name": "",
					"type": "uint8"
				}
			],
			"stateMutability": "nonpayable",
			"type": "function"
		},
		{
			"inputs": [
				{
					"internalType": "string",
					"name": "_uri",
					"type": "string"
				}
			],
			"name": "setNextSaleURI",
			"outputs": [
				{
					"internalType": "enum NextSaleCurrentState",
					"name": "",
					"type": "uint8"
				}
			],
			"stateMutability": "nonpayable",
			"type": "function"
		},
		{
			"inputs": [
				{
					"internalType": "uint256",
					"name": "_bid",
					"type": "uint256"
				}
			],
			"name": "submitBid",
			"outputs": [],
			"stateMutability": "payable",
			"type": "function"
		},
		{
			"inputs": [
				{
					"internalType": "bytes4",
					"name": "interfaceId",
					"type": "bytes4"
				}
			],
			"name": "supportsInterface",
			"outputs": [
				{
					"internalType": "bool",
					"name": "",
					"type": "bool"
				}
			],
			"stateMutability": "view",
			"type": "function"
		},
		{
			"inputs": [],
			"name": "symbol",
			"outputs": [
				{
					"internalType": "string",
					"name": "",
					"type": "string"
				}
			],
			"stateMutability": "view",
			"type": "function"
		},
		{
			"inputs": [
				{
					"internalType": "uint256",
					"name": "_tokenId",
					"type": "uint256"
				}
			],
			"name": "tokenURI",
			"outputs": [
				{
					"internalType": "string",
					"name": "",
					"type": "string"
				}
			],
			"stateMutability": "view",
			"type": "function"
		},
		{
			"inputs": [
				{
					"internalType": "address",
					"name": "owner",
					"type": "address"
				}
			],
			"name": "tokensOfOwner",
			"outputs": [
				{
					"internalType": "uint256[]",
					"name": "",
					"type": "uint256[]"
				}
			],
			"stateMutability": "view",
			"type": "function"
		},
		{
			"inputs": [
				{
					"internalType": "address",
					"name": "owner",
					"type": "address"
				},
				{
					"internalType": "uint256",
					"name": "start",
					"type": "uint256"
				},
				{
					"internalType": "uint256",
					"name": "stop",
					"type": "uint256"
				}
			],
			"name": "tokensOfOwnerIn",
			"outputs": [
				{
					"internalType": "uint256[]",
					"name": "",
					"type": "uint256[]"
				}
			],
			"stateMutability": "view",
			"type": "function"
		},
		{
			"inputs": [],
			"name": "totalSupply",
			"outputs": [
				{
					"internalType": "uint256",
					"name": "",
					"type": "uint256"
				}
			],
			"stateMutability": "view",
			"type": "function"
		},
		{
			"inputs": [
				{
					"internalType": "address",
					"name": "from",
					"type": "address"
				},
				{
					"internalType": "address",
					"name": "to",
					"type": "address"
				},
				{
					"internalType": "uint256",
					"name": "tokenId",
					"type": "uint256"
				}
			],
			"name": "transferFrom",
			"outputs": [],
			"stateMutability": "payable",
			"type": "function"
		},
		{
			"inputs": [
				{
					"internalType": "uint256",
					"name": "_lowerLimit",
					"type": "uint256"
				},
				{
					"internalType": "string",
					"name": "_newURI",
					"type": "string"
				}
			],
			"name": "updateURI",
			"outputs": [],
			"stateMutability": "nonpayable",
			"type": "function"
		}
	]
}