{
  "contractName": "Zodiach",
  "abi": [
    {
      "inputs": [],
      "stateMutability": "nonpayable",
      "type": "constructor"
    },
    {
      "inputs": [],
      "name": "ApprovalCallerNotOwnerNorApproved",
      "type": "error"
    },
    {
      "inputs": [],
      "name": "ApprovalQueryForNonexistentToken",
      "type": "error"
    },
    {
      "inputs": [],
      "name": "BalanceQueryForZeroAddress",
      "type": "error"
    },
    {
      "inputs": [],
      "name": "InvalidQueryRange",
      "type": "error"
    },
    {
      "inputs": [],
      "name": "MintERC2309QuantityExceedsLimit",
      "type": "error"
    },
    {
      "inputs": [],
      "name": "MintToZeroAddress",
      "type": "error"
    },
    {
      "inputs": [],
      "name": "MintZeroQuantity",
      "type": "error"
    },
    {
      "inputs": [],
      "name": "OwnerQueryForNonexistentToken",
      "type": "error"
    },
    {
      "inputs": [],
      "name": "OwnershipNotInitializedForExtraData",
      "type": "error"
    },
    {
      "inputs": [],
      "name": "TransferCallerNotOwnerNorApproved",
      "type": "error"
    },
    {
      "inputs": [],
      "name": "TransferFromIncorrectOwner",
      "type": "error"
    },
    {
      "inputs": [],
      "name": "TransferToNonERC721ReceiverImplementer",
      "type": "error"
    },
    {
      "inputs": [],
      "name": "TransferToZeroAddress",
      "type": "error"
    },
    {
      "inputs": [],
      "name": "URIQueryForNonexistentToken",
      "type": "error"
    },
    {
      "anonymous": false,
      "inputs": [
        {
          "indexed": true,
          "internalType": "address",
          "name": "owner",
          "type": "address"
        },
        {
          "indexed": true,
          "internalType": "address",
          "name": "approved",
          "type": "address"
        },
        {
          "indexed": true,
          "internalType": "uint256",
          "name": "tokenId",
          "type": "uint256"
        }
      ],
      "name": "Approval",
      "type": "event"
    },
    {
      "anonymous": false,
      "inputs": [
        {
          "indexed": true,
          "internalType": "address",
          "name": "owner",
          "type": "address"
        },
        {
          "indexed": true,
          "internalType": "address",
          "name": "operator",
          "type": "address"
        },
        {
          "indexed": false,
          "internalType": "bool",
          "name": "approved",
          "type": "bool"
        }
      ],
      "name": "ApprovalForAll",
      "type": "event"
    },
    {
      "anonymous": false,
      "inputs": [
        {
          "indexed": true,
          "internalType": "uint256",
          "name": "fromTokenId",
          "type": "uint256"
        },
        {
          "indexed": false,
          "internalType": "uint256",
          "name": "toTokenId",
          "type": "uint256"
        },
        {
          "indexed": true,
          "internalType": "address",
          "name": "from",
          "type": "address"
        },
        {
          "indexed": true,
          "internalType": "address",
          "name": "to",
          "type": "address"
        }
      ],
      "name": "ConsecutiveTransfer",
      "type": "event"
    },
    {
      "anonymous": false,
      "inputs": [
        {
          "indexed": true,
          "internalType": "bytes32",
          "name": "role",
          "type": "bytes32"
        },
        {
          "indexed": true,
          "internalType": "bytes32",
          "name": "previousAdminRole",
          "type": "bytes32"
        },
        {
          "indexed": true,
          "internalType": "bytes32",
          "name": "newAdminRole",
          "type": "bytes32"
        }
      ],
      "name": "RoleAdminChanged",
      "type": "event"
    },
    {
      "anonymous": false,
      "inputs": [
        {
          "indexed": true,
          "internalType": "bytes32",
          "name": "role",
          "type": "bytes32"
        },
        {
          "indexed": true,
          "internalType": "address",
          "name": "account",
          "type": "address"
        },
        {
          "indexed": true,
          "internalType": "address",
          "name": "sender",
          "type": "address"
        }
      ],
      "name": "RoleGranted",
      "type": "event"
    },
    {
      "anonymous": false,
      "inputs": [
        {
          "indexed": true,
          "internalType": "bytes32",
          "name": "role",
          "type": "bytes32"
        },
        {
          "indexed": true,
          "internalType": "address",
          "name": "account",
          "type": "address"
        },
        {
          "indexed": true,
          "internalType": "address",
          "name": "sender",
          "type": "address"
        }
      ],
      "name": "RoleRevoked",
      "type": "event"
    },
    {
      "anonymous": false,
      "inputs": [
        {
          "indexed": true,
          "internalType": "address",
          "name": "from",
          "type": "address"
        },
        {
          "indexed": true,
          "internalType": "address",
          "name": "to",
          "type": "address"
        },
        {
          "indexed": true,
          "internalType": "uint256",
          "name": "tokenId",
          "type": "uint256"
        }
      ],
      "name": "Transfer",
      "type": "event"
    },
    {
      "inputs": [],
      "name": "DEFAULT_ADMIN_ROLE",
      "outputs": [
        {
          "internalType": "bytes32",
          "name": "",
          "type": "bytes32"
        }
      ],
      "stateMutability": "view",
      "type": "function"
    },
    {
      "inputs": [],
      "name": "MINTER_ROLE",
      "outputs": [
        {
          "internalType": "bytes32",
          "name": "",
          "type": "bytes32"
        }
      ],
      "stateMutability": "view",
      "type": "function"
    },
    {
      "inputs": [],
      "name": "OWNER_ROLE",
      "outputs": [
        {
          "internalType": "bytes32",
          "name": "",
          "type": "bytes32"
        }
      ],
      "stateMutability": "view",
      "type": "function"
    },
    {
      "inputs": [],
      "name": "URI_ROLE",
      "outputs": [
        {
          "internalType": "bytes32",
          "name": "",
          "type": "bytes32"
        }
      ],
      "stateMutability": "view",
      "type": "function"
    },
    {
      "inputs": [
        {
          "internalType": "address",
          "name": "to",
          "type": "address"
        },
        {
          "internalType": "uint256",
          "name": "tokenId",
          "type": "uint256"
        }
      ],
      "name": "approve",
      "outputs": [],
      "stateMutability": "payable",
      "type": "function"
    },
    {
      "inputs": [
        {
          "internalType": "address",
          "name": "owner",
          "type": "address"
        }
      ],
      "name": "balanceOf",
      "outputs": [
        {
          "internalType": "uint256",
          "name": "",
          "type": "uint256"
        }
      ],
      "stateMutability": "view",
      "type": "function"
    },
    {
      "inputs": [
        {
          "internalType": "uint256",
          "name": "tokenId",
          "type": "uint256"
        }
      ],
      "name": "burn",
      "outputs": [],
      "stateMutability": "nonpayable",
      "type": "function"
    },
    {
      "inputs": [
        {
          "internalType": "uint256",
          "name": "tokenId",
          "type": "uint256"
        }
      ],
      "name": "explicitOwnershipOf",
      "outputs": [
        {
          "components": [
            {
              "internalType": "address",
              "name": "addr",
              "type": "address"
            },
            {
              "internalType": "uint64",
              "name": "startTimestamp",
              "type": "uint64"
            },
            {
              "internalType": "bool",
              "name": "burned",
              "type": "bool"
            },
            {
              "internalType": "uint24",
              "name": "extraData",
              "type": "uint24"
            }
          ],
          "internalType": "struct IERC721A.TokenOwnership",
          "name": "",
          "type": "tuple"
        }
      ],
      "stateMutability": "view",
      "type": "function"
    },
    {
      "inputs": [
        {
          "internalType": "uint256[]",
          "name": "tokenIds",
          "type": "uint256[]"
        }
      ],
      "name": "explicitOwnershipsOf",
      "outputs": [
        {
          "components": [
            {
              "internalType": "address",
              "name": "addr",
              "type": "address"
            },
            {
              "internalType": "uint64",
              "name": "startTimestamp",
              "type": "uint64"
            },
            {
              "internalType": "bool",
              "name": "burned",
              "type": "bool"
            },
            {
              "internalType": "uint24",
              "name": "extraData",
              "type": "uint24"
            }
          ],
          "internalType": "struct IERC721A.TokenOwnership[]",
          "name": "",
          "type": "tuple[]"
        }
      ],
      "stateMutability": "view",
      "type": "function"
    },
    {
      "inputs": [
        {
          "internalType": "uint256",
          "name": "tokenId",
          "type": "uint256"
        }
      ],
      "name": "getApproved",
      "outputs": [
        {
          "internalType": "address",
          "name": "",
          "type": "address"
        }
      ],
      "stateMutability": "view",
      "type": "function"
    },
    {
      "inputs": [
        {
          "internalType": "bytes32",
          "name": "role",
          "type": "bytes32"
        }
      ],
      "name": "getRoleAdmin",
      "outputs": [
        {
          "internalType": "bytes32",
          "name": "",
          "type": "bytes32"
        }
      ],
      "stateMutability": "view",
      "type": "function"
    },
    {
      "inputs": [
        {
          "internalType": "bytes32",
          "name": "role",
          "type": "bytes32"
        },
        {
          "internalType": "address",
          "name": "account",
          "type": "address"
        }
      ],
      "name": "grantRole",
      "outputs": [],
      "stateMutability": "nonpayable",
      "type": "function"
    },
    {
      "inputs": [
        {
          "internalType": "bytes32",
          "name": "role",
          "type": "bytes32"
        },
        {
          "internalType": "address",
          "name": "account",
          "type": "address"
        }
      ],
      "name": "hasRole",
      "outputs": [
        {
          "internalType": "bool",
          "name": "",
          "type": "bool"
        }
      ],
      "stateMutability": "view",
      "type": "function"
    },
    {
      "inputs": [
        {
          "internalType": "address",
          "name": "owner",
          "type": "address"
        },
        {
          "internalType": "address",
          "name": "operator",
          "type": "address"
        }
      ],
      "name": "isApprovedForAll",
      "outputs": [
        {
          "internalType": "bool",
          "name": "",
          "type": "bool"
        }
      ],
      "stateMutability": "view",
      "type": "function"
    },
    {
      "inputs": [],
      "name": "name",
      "outputs": [
        {
          "internalType": "string",
          "name": "",
          "type": "string"
        }
      ],
      "stateMutability": "view",
      "type": "function"
    },
    {
      "inputs": [
        {
          "internalType": "uint256",
          "name": "tokenId",
          "type": "uint256"
        }
      ],
      "name": "ownerOf",
      "outputs": [
        {
          "internalType": "address",
          "name": "",
          "type": "address"
        }
      ],
      "stateMutability": "view",
      "type": "function"
    },
    {
      "inputs": [
        {
          "internalType": "bytes32",
          "name": "role",
          "type": "bytes32"
        },
        {
          "internalType": "address",
          "name": "account",
          "type": "address"
        }
      ],
      "name": "renounceRole",
      "outputs": [],
      "stateMutability": "nonpayable",
      "type": "function"
    },
    {
      "inputs": [
        {
          "internalType": "bytes32",
          "name": "role",
          "type": "bytes32"
        },
        {
          "internalType": "address",
          "name": "account",
          "type": "address"
        }
      ],
      "name": "revokeRole",
      "outputs": [],
      "stateMutability": "nonpayable",
      "type": "function"
    },
    {
      "inputs": [
        {
          "internalType": "address",
          "name": "from",
          "type": "address"
        },
        {
          "internalType": "address",
          "name": "to",
          "type": "address"
        },
        {
          "internalType": "uint256",
          "name": "tokenId",
          "type": "uint256"
        }
      ],
      "name": "safeTransferFrom",
      "outputs": [],
      "stateMutability": "payable",
      "type": "function"
    },
    {
      "inputs": [
        {
          "internalType": "address",
          "name": "from",
          "type": "address"
        },
        {
          "internalType": "address",
          "name": "to",
          "type": "address"
        },
        {
          "internalType": "uint256",
          "name": "tokenId",
          "type": "uint256"
        },
        {
          "internalType": "bytes",
          "name": "_data",
          "type": "bytes"
        }
      ],
      "name": "safeTransferFrom",
      "outputs": [],
      "stateMutability": "payable",
      "type": "function"
    },
    {
      "inputs": [
        {
          "internalType": "address",
          "name": "operator",
          "type": "address"
        },
        {
          "internalType": "bool",
          "name": "approved",
          "type": "bool"
        }
      ],
      "name": "setApprovalForAll",
      "outputs": [],
      "stateMutability": "nonpayable",
      "type": "function"
    },
    {
      "inputs": [],
      "name": "symbol",
      "outputs": [
        {
          "internalType": "string",
          "name": "",
          "type": "string"
        }
      ],
      "stateMutability": "view",
      "type": "function"
    },
    {
      "inputs": [
        {
          "internalType": "address",
          "name": "owner",
          "type": "address"
        }
      ],
      "name": "tokensOfOwner",
      "outputs": [
        {
          "internalType": "uint256[]",
          "name": "",
          "type": "uint256[]"
        }
      ],
      "stateMutability": "view",
      "type": "function"
    },
    {
      "inputs": [
        {
          "internalType": "address",
          "name": "owner",
          "type": "address"
        },
        {
          "internalType": "uint256",
          "name": "start",
          "type": "uint256"
        },
        {
          "internalType": "uint256",
          "name": "stop",
          "type": "uint256"
        }
      ],
      "name": "tokensOfOwnerIn",
      "outputs": [
        {
          "internalType": "uint256[]",
          "name": "",
          "type": "uint256[]"
        }
      ],
      "stateMutability": "view",
      "type": "function"
    },
    {
      "inputs": [],
      "name": "totalSupply",
      "outputs": [
        {
          "internalType": "uint256",
          "name": "",
          "type": "uint256"
        }
      ],
      "stateMutability": "view",
      "type": "function"
    },
    {
      "inputs": [
        {
          "internalType": "address",
          "name": "from",
          "type": "address"
        },
        {
          "internalType": "address",
          "name": "to",
          "type": "address"
        },
        {
          "internalType": "uint256",
          "name": "tokenId",
          "type": "uint256"
        }
      ],
      "name": "transferFrom",
      "outputs": [],
      "stateMutability": "payable",
      "type": "function"
    },
    {
      "inputs": [
        {
          "internalType": "bytes4",
          "name": "interfaceId",
          "type": "bytes4"
        }
      ],
      "name": "supportsInterface",
      "outputs": [
        {
          "internalType": "bool",
          "name": "",
          "type": "bool"
        }
      ],
      "stateMutability": "view",
      "type": "function"
    },
    {
      "inputs": [
        {
          "internalType": "string",
          "name": "_newURI",
          "type": "string"
        }
      ],
      "name": "updateURI",
      "outputs": [
        {
          "internalType": "bool",
          "name": "",
          "type": "bool"
        }
      ],
      "stateMutability": "nonpayable",
      "type": "function"
    },
    {
      "inputs": [
        {
          "internalType": "uint256",
          "name": "_tokenId",
          "type": "uint256"
        }
      ],
      "name": "tokenURI",
      "outputs": [
        {
          "internalType": "string",
          "name": "",
          "type": "string"
        }
      ],
      "stateMutability": "view",
      "type": "function"
    },
    {
      "inputs": [
        {
          "internalType": "uint256",
          "name": "_quantity",
          "type": "uint256"
        }
      ],
      "name": "mint",
      "outputs": [
        {
          "internalType": "bool",
          "name": "",
          "type": "bool"
        }
      ],
      "stateMutability": "nonpayable",
      "type": "function"
    },
    {
      "inputs": [
        {
          "internalType": "uint256",
          "name": "_quantity",
          "type": "uint256"
        },
        {
          "internalType": "address",
          "name": "_mintee",
          "type": "address"
        }
      ],
      "name": "mintTo",
      "outputs": [
        {
          "internalType": "bool",
          "name": "",
          "type": "bool"
        }
      ],
      "stateMutability": "nonpayable",
      "type": "function"
    }
  ],
  "bytecode": "0x60806040523480156200001157600080fd5b506040518060400160405280600d81526020017f5a6f6469616368205072657373000000000000000000000000000000000000008152506040518060400160405280600381526020017f5a4f44000000000000000000000000000000000000000000000000000000000081525081600290816200008f919062000829565b508060039081620000a1919062000829565b50620000b26200019460201b60201c565b6000819055505050620000cf6000801b336200019960201b60201c565b620001017f9f2df0fed2c77648de5860a4cc508cd0818c85b8b8a1ab4ceeef8d981c8956a6336200019960201b60201c565b620001337f8e6595ef9afb2a8f70320f393f567bb7a0e6c4ed483caee30f90cc5fcd6659b4336200019960201b60201c565b62000147336102fc6200028b60201b60201c565b6040518060400160405280601c81526020017f687474703a2f2f3139322e3136382e312e332f6e66742f6a736f6e2f00000000815250600990816200018d919062000829565b506200093e565b600090565b620001ab8282620004bc60201b60201c565b620002875760016008600084815260200190815260200160002060000160008373ffffffffffffffffffffffffffffffffffffffff1673ffffffffffffffffffffffffffffffffffffffff16815260200190815260200160002060006101000a81548160ff0219169083151502179055506200022c6200052760201b60201c565b73ffffffffffffffffffffffffffffffffffffffff168173ffffffffffffffffffffffffffffffffffffffff16837f2f8788117e7eff1d82e926ec794901d17c78024a50270940304540a733656f0d60405160405180910390a45b5050565b600080549050600073ffffffffffffffffffffffffffffffffffffffff168373ffffffffffffffffffffffffffffffffffffffff1603620002f8576040517f2e07630000000000000000000000000000000000000000000000000000000000815260040160405180910390fd5b6000820362000333576040517fb562e8dd00000000000000000000000000000000000000000000000000000000815260040160405180910390fd5b61138882111562000370576040517f3db1f9af00000000000000000000000000000000000000000000000000000000815260040160405180910390fd5b6200038560008483856200052f60201b60201c565b600160406001901b178202600560008573ffffffffffffffffffffffffffffffffffffffff1673ffffffffffffffffffffffffffffffffffffffff168152602001908152602001600020600082825401925050819055506200041483620003f660008660006200053560201b60201c565b62000407856200056560201b60201c565b176200057560201b60201c565b60046000838152602001908152602001600020819055508273ffffffffffffffffffffffffffffffffffffffff16600073ffffffffffffffffffffffffffffffffffffffff16827fdeaa91b6123d068f5821d0fb0678463d1a8a6079fe8af5de3ce5e896dcf9133d60018686010360405162000491919062000921565b60405180910390a4818101600081905550620004b76000848385620005a060201b60201c565b505050565b60006008600084815260200190815260200160002060000160008373ffffffffffffffffffffffffffffffffffffffff1673ffffffffffffffffffffffffffffffffffffffff16815260200190815260200160002060009054906101000a900460ff16905092915050565b600033905090565b50505050565b60008060e883901c905060e862000554868684620005a660201b60201c565b62ffffff16901b9150509392505050565b60006001821460e11b9050919050565b600073ffffffffffffffffffffffffffffffffffffffff83169250814260a01b178317905092915050565b50505050565b60009392505050565b600081519050919050565b7f4e487b7100000000000000000000000000000000000000000000000000000000600052604160045260246000fd5b7f4e487b7100000000000000000000000000000000000000000000000000000000600052602260045260246000fd5b600060028204905060018216806200063157607f821691505b602082108103620006475762000646620005e9565b5b50919050565b60008190508160005260206000209050919050565b60006020601f8301049050919050565b600082821b905092915050565b600060088302620006b17fffffffffffffffffffffffffffffffffffffffffffffffffffffffffffffffff8262000672565b620006bd868362000672565b95508019841693508086168417925050509392505050565b6000819050919050565b6000819050919050565b60006200070a62000704620006fe84620006d5565b620006df565b620006d5565b9050919050565b6000819050919050565b6200072683620006e9565b6200073e620007358262000711565b8484546200067f565b825550505050565b600090565b6200075562000746565b620007628184846200071b565b505050565b5b818110156200078a576200077e6000826200074b565b60018101905062000768565b5050565b601f821115620007d957620007a3816200064d565b620007ae8462000662565b81016020851015620007be578190505b620007d6620007cd8562000662565b83018262000767565b50505b505050565b600082821c905092915050565b6000620007fe60001984600802620007de565b1980831691505092915050565b6000620008198383620007eb565b9150826002028217905092915050565b6200083482620005af565b67ffffffffffffffff81111562000850576200084f620005ba565b5b6200085c825462000618565b620008698282856200078e565b600060209050601f831160018114620008a157600084156200088c578287015190505b6200089885826200080b565b86555062000908565b601f198416620008b1866200064d565b60005b82811015620008db57848901518255600182019150602085019450602081019050620008b4565b86831015620008fb5784890151620008f7601f891682620007eb565b8355505b6001600288020188555050505b505050505050565b6200091b81620006d5565b82525050565b600060208201905062000938600083018462000910565b92915050565b613b68806200094e6000396000f3fe6080604052600436106101d85760003560e01c80638462151c11610102578063b88d4fde11610095578063d539139311610064578063d53913931461071e578063d547741f14610749578063e58378bb14610772578063e985e9c51461079d576101d8565b8063b88d4fde1461064b578063c23dc68f14610667578063c30f4a5a146106a4578063c87b56dd146106e1576101d8565b8063a0712d68116100d1578063a0712d681461057d578063a217fddf146105ba578063a22cb465146105e5578063b723b34e1461060e576101d8565b80638462151c1461049b57806391d14854146104d857806395d89b411461051557806399a2557a14610540576101d8565b8063248a9ca31161017a57806342966c681161014957806342966c68146103bb5780635bbb2177146103e45780636352211e1461042157806370a082311461045e576101d8565b8063248a9ca3146103105780632f2ff15d1461034d57806336568abe1461037657806342842e0e1461039f576101d8565b8063095ea7b3116101b6578063095ea7b3146102825780630ab5f32a1461029e57806318160ddd146102c957806323b872dd146102f4576101d8565b806301ffc9a7146101dd57806306fdde031461021a578063081812fc14610245575b600080fd5b3480156101e957600080fd5b5061020460048036038101906101ff9190612850565b6107da565b6040516102119190612898565b60405180910390f35b34801561022657600080fd5b5061022f61086c565b60405161023c9190612943565b60405180910390f35b34801561025157600080fd5b5061026c6004803603810190610267919061299b565b6108fe565b6040516102799190612a09565b60405180910390f35b61029c60048036038101906102979190612a50565b61097d565b005b3480156102aa57600080fd5b506102b3610ac1565b6040516102c09190612aa9565b60405180910390f35b3480156102d557600080fd5b506102de610ae5565b6040516102eb9190612ad3565b60405180910390f35b61030e60048036038101906103099190612aee565b610afc565b005b34801561031c57600080fd5b5061033760048036038101906103329190612b6d565b610e1e565b6040516103449190612aa9565b60405180910390f35b34801561035957600080fd5b50610374600480360381019061036f9190612b9a565b610e3e565b005b34801561038257600080fd5b5061039d60048036038101906103989190612b9a565b610e5f565b005b6103b960048036038101906103b49190612aee565b610ee2565b005b3480156103c757600080fd5b506103e260048036038101906103dd919061299b565b610f02565b005b3480156103f057600080fd5b5061040b60048036038101906104069190612c3f565b610f10565b6040516104189190612def565b60405180910390f35b34801561042d57600080fd5b506104486004803603810190610443919061299b565b610fd3565b6040516104559190612a09565b60405180910390f35b34801561046a57600080fd5b5061048560048036038101906104809190612e11565b610fe5565b6040516104929190612ad3565b60405180910390f35b3480156104a757600080fd5b506104c260048036038101906104bd9190612e11565b61109d565b6040516104cf9190612efc565b60405180910390f35b3480156104e457600080fd5b506104ff60048036038101906104fa9190612b9a565b6111e0565b60405161050c9190612898565b60405180910390f35b34801561052157600080fd5b5061052a61124b565b6040516105379190612943565b60405180910390f35b34801561054c57600080fd5b5061056760048036038101906105629190612f1e565b6112dd565b6040516105749190612efc565b60405180910390f35b34801561058957600080fd5b506105a4600480360381019061059f919061299b565b6114e9565b6040516105b19190612898565b60405180910390f35b3480156105c657600080fd5b506105cf611529565b6040516105dc9190612aa9565b60405180910390f35b3480156105f157600080fd5b5061060c60048036038101906106079190612f9d565b611530565b005b34801561061a57600080fd5b5061063560048036038101906106309190612fdd565b61163b565b6040516106429190612898565b60405180910390f35b6106656004803603810190610660919061314d565b61167c565b005b34801561067357600080fd5b5061068e6004803603810190610689919061299b565b6116ef565b60405161069b9190613225565b60405180910390f35b3480156106b057600080fd5b506106cb60048036038101906106c691906132e1565b611759565b6040516106d89190612898565b60405180910390f35b3480156106ed57600080fd5b506107086004803603810190610703919061299b565b61179f565b6040516107159190612943565b60405180910390f35b34801561072a57600080fd5b5061073361183e565b6040516107409190612aa9565b60405180910390f35b34801561075557600080fd5b50610770600480360381019061076b9190612b9a565b611862565b005b34801561077e57600080fd5b50610787611883565b6040516107949190612aa9565b60405180910390f35b3480156107a957600080fd5b506107c460048036038101906107bf919061332a565b6118a7565b6040516107d19190612898565b60405180910390f35b60006301ffc9a760e01b827bffffffffffffffffffffffffffffffffffffffffffffffffffffffff1916148061083557506380ac58cd60e01b827bffffffffffffffffffffffffffffffffffffffffffffffffffffffff1916145b806108655750635b5e139f60e01b827bffffffffffffffffffffffffffffffffffffffffffffffffffffffff1916145b9050919050565b60606002805461087b90613399565b80601f01602080910402602001604051908101604052809291908181526020018280546108a790613399565b80156108f45780601f106108c9576101008083540402835291602001916108f4565b820191906000526020600020905b8154815290600101906020018083116108d757829003601f168201915b5050505050905090565b60006109098261193b565b61093f576040517fcf4700e400000000000000000000000000000000000000000000000000000000815260040160405180910390fd5b6006600083815260200190815260200160002060000160009054906101000a900473ffffffffffffffffffffffffffffffffffffffff169050919050565b600061098882610fd3565b90508073ffffffffffffffffffffffffffffffffffffffff166109a961199a565b73ffffffffffffffffffffffffffffffffffffffff1614610a0c576109d5816109d061199a565b6118a7565b610a0b576040517fcfb3b94200000000000000000000000000000000000000000000000000000000815260040160405180910390fd5b5b826006600084815260200190815260200160002060000160006101000a81548173ffffffffffffffffffffffffffffffffffffffff021916908373ffffffffffffffffffffffffffffffffffffffff160217905550818373ffffffffffffffffffffffffffffffffffffffff168273ffffffffffffffffffffffffffffffffffffffff167f8c5be1e5ebec7d5bd14f71427d1e84f3dd0314c0f7b2291e5b200ac8c7c3b92560405160405180910390a4505050565b7f8e6595ef9afb2a8f70320f393f567bb7a0e6c4ed483caee30f90cc5fcd6659b481565b6000610aef6119a2565b6001546000540303905090565b6000610b07826119a7565b90508373ffffffffffffffffffffffffffffffffffffffff168173ffffffffffffffffffffffffffffffffffffffff1614610b6e576040517fa114810000000000000000000000000000000000000000000000000000000000815260040160405180910390fd5b600080610b7a84611a73565b91509150610b908187610b8b61199a565b611a9a565b610bdc57610ba586610ba061199a565b6118a7565b610bdb576040517f59c896be00000000000000000000000000000000000000000000000000000000815260040160405180910390fd5b5b600073ffffffffffffffffffffffffffffffffffffffff168573ffffffffffffffffffffffffffffffffffffffff1603610c42576040517fea553b3400000000000000000000000000000000000000000000000000000000815260040160405180910390fd5b610c4f8686866001611ade565b8015610c5a57600082555b600560008773ffffffffffffffffffffffffffffffffffffffff1673ffffffffffffffffffffffffffffffffffffffff168152602001908152602001600020600081546001900391905081905550600560008673ffffffffffffffffffffffffffffffffffffffff1673ffffffffffffffffffffffffffffffffffffffff1681526020019081526020016000206000815460010191905081905550610d2885610d04888887611ae4565b7c020000000000000000000000000000000000000000000000000000000017611b0c565b600460008681526020019081526020016000208190555060007c0200000000000000000000000000000000000000000000000000000000841603610dae5760006001850190506000600460008381526020019081526020016000205403610dac576000548114610dab578360046000838152602001908152602001600020819055505b5b505b838573ffffffffffffffffffffffffffffffffffffffff168773ffffffffffffffffffffffffffffffffffffffff167fddf252ad1be2c89b69c2b068fc378daa952ba7f163c4a11628f55a4df523b3ef60405160405180910390a4610e168686866001611b37565b505050505050565b600060086000838152602001908152602001600020600101549050919050565b610e4782610e1e565b610e5081611b3d565b610e5a8383611b51565b505050565b610e67611c32565b73ffffffffffffffffffffffffffffffffffffffff168173ffffffffffffffffffffffffffffffffffffffff1614610ed4576040517f08c379a0000000000000000000000000000000000000000000000000000000008152600401610ecb9061343c565b60405180910390fd5b610ede8282611c3a565b5050565b610efd8383836040518060200160405280600081525061167c565b505050565b610f0d816001611d1c565b50565b6060600083839050905060008167ffffffffffffffff811115610f3657610f35613022565b5b604051908082528060200260200182016040528015610f6f57816020015b610f5c612795565b815260200190600190039081610f545790505b50905060005b828114610fc757610f9e868683818110610f9257610f9161345c565b5b905060200201356116ef565b828281518110610fb157610fb061345c565b5b6020026020010181905250806001019050610f75565b50809250505092915050565b6000610fde826119a7565b9050919050565b60008073ffffffffffffffffffffffffffffffffffffffff168273ffffffffffffffffffffffffffffffffffffffff160361104c576040517f8f4eb60400000000000000000000000000000000000000000000000000000000815260040160405180910390fd5b67ffffffffffffffff600560008473ffffffffffffffffffffffffffffffffffffffff1673ffffffffffffffffffffffffffffffffffffffff16815260200190815260200160002054169050919050565b606060008060006110ad85610fe5565b905060008167ffffffffffffffff8111156110cb576110ca613022565b5b6040519080825280602002602001820160405280156110f95781602001602082028036833780820191505090505b509050611104612795565b600061110e6119a2565b90505b8386146111d25761112181611f6e565b915081604001516111c757600073ffffffffffffffffffffffffffffffffffffffff16826000015173ffffffffffffffffffffffffffffffffffffffff161461116c57816000015194505b8773ffffffffffffffffffffffffffffffffffffffff168573ffffffffffffffffffffffffffffffffffffffff16036111c657808387806001019850815181106111b9576111b861345c565b5b6020026020010181815250505b5b806001019050611111565b508195505050505050919050565b60006008600084815260200190815260200160002060000160008373ffffffffffffffffffffffffffffffffffffffff1673ffffffffffffffffffffffffffffffffffffffff16815260200190815260200160002060009054906101000a900460ff16905092915050565b60606003805461125a90613399565b80601f016020809104026020016040519081016040528092919081815260200182805461128690613399565b80156112d35780601f106112a8576101008083540402835291602001916112d3565b820191906000526020600020905b8154815290600101906020018083116112b657829003601f168201915b5050505050905090565b6060818310611318576040517f32c1995a00000000000000000000000000000000000000000000000000000000815260040160405180910390fd5b600080611323611f99565b905061132d6119a2565b85101561133f5761133c6119a2565b94505b8084111561134b578093505b600061135687610fe5565b905084861015611379576000868603905081811015611373578091505b5061137e565b600090505b60008167ffffffffffffffff81111561139a57611399613022565b5b6040519080825280602002602001820160405280156113c85781602001602082028036833780820191505090505b509050600082036113df57809450505050506114e2565b60006113ea886116ef565b9050600081604001516113ff57816000015190505b60008990505b8881141580156114155750848714155b156114d45761142381611f6e565b925082604001516114c957600073ffffffffffffffffffffffffffffffffffffffff16836000015173ffffffffffffffffffffffffffffffffffffffff161461146e57826000015191505b8a73ffffffffffffffffffffffffffffffffffffffff168273ffffffffffffffffffffffffffffffffffffffff16036114c857808488806001019950815181106114bb576114ba61345c565b5b6020026020010181815250505b5b806001019050611405565b508583528296505050505050505b9392505050565b60007f9f2df0fed2c77648de5860a4cc508cd0818c85b8b8a1ab4ceeef8d981c8956a661151581611b3d565b61151f3384611fa2565b6001915050919050565b6000801b81565b806007600061153d61199a565b73ffffffffffffffffffffffffffffffffffffffff1673ffffffffffffffffffffffffffffffffffffffff16815260200190815260200160002060008473ffffffffffffffffffffffffffffffffffffffff1673ffffffffffffffffffffffffffffffffffffffff16815260200190815260200160002060006101000a81548160ff0219169083151502179055508173ffffffffffffffffffffffffffffffffffffffff166115ea61199a565b73ffffffffffffffffffffffffffffffffffffffff167f17307eab39ab6107e8899845ad3d59bd9653f200f220920489ca2b5937696c318360405161162f9190612898565b60405180910390a35050565b60007f9f2df0fed2c77648de5860a4cc508cd0818c85b8b8a1ab4ceeef8d981c8956a661166781611b3d565b6116718385611fa2565b600191505092915050565b611687848484610afc565b60008373ffffffffffffffffffffffffffffffffffffffff163b146116e9576116b284848484611fc0565b6116e8576040517fd1a57ed600000000000000000000000000000000000000000000000000000000815260040160405180910390fd5b5b50505050565b6116f7612795565b6116ff612795565b6117076119a2565b83108061171b5750611717611f99565b8310155b156117295780915050611754565b61173283611f6e565b90508060400151156117475780915050611754565b61175083612110565b9150505b919050565b60007f8e6595ef9afb2a8f70320f393f567bb7a0e6c4ed483caee30f90cc5fcd6659b461178581611b3d565b82600990816117949190613637565b506001915050919050565b60606117aa8261193b565b6117e0576040517fa14c4b5000000000000000000000000000000000000000000000000000000000815260040160405180910390fd5b6000600980546117ef90613399565b90500361180b5760405180602001604052806000815250611837565b600961181683612130565b604051602001611827929190613814565b6040516020818303038152906040525b9050919050565b7f9f2df0fed2c77648de5860a4cc508cd0818c85b8b8a1ab4ceeef8d981c8956a681565b61186b82610e1e565b61187481611b3d565b61187e8383611c3a565b505050565b7fb19546dff01e856fb3f010c267a7b1c60363cf8a4664e21cc89c26224620214e81565b6000600760008473ffffffffffffffffffffffffffffffffffffffff1673ffffffffffffffffffffffffffffffffffffffff16815260200190815260200160002060008373ffffffffffffffffffffffffffffffffffffffff1673ffffffffffffffffffffffffffffffffffffffff16815260200190815260200160002060009054906101000a900460ff16905092915050565b6000816119466119a2565b11158015611955575060005482105b8015611993575060007c0100000000000000000000000000000000000000000000000000000000600460008581526020019081526020016000205416145b9050919050565b600033905090565b600090565b600080829050806119b66119a2565b11611a3c57600054811015611a3b5760006004600083815260200190815260200160002054905060007c0100000000000000000000000000000000000000000000000000000000821603611a39575b60008103611a2f576004600083600190039350838152602001908152602001600020549050611a05565b8092505050611a6e565b505b5b6040517fdf2d9b4200000000000000000000000000000000000000000000000000000000815260040160405180910390fd5b919050565b60008060006006600085815260200190815260200160002090508092508254915050915091565b600073ffffffffffffffffffffffffffffffffffffffff8316925073ffffffffffffffffffffffffffffffffffffffff821691508382148383141790509392505050565b50505050565b60008060e883901c905060e8611afb868684612180565b62ffffff16901b9150509392505050565b600073ffffffffffffffffffffffffffffffffffffffff83169250814260a01b178317905092915050565b50505050565b611b4e81611b49611c32565b612189565b50565b611b5b82826111e0565b611c2e5760016008600084815260200190815260200160002060000160008373ffffffffffffffffffffffffffffffffffffffff1673ffffffffffffffffffffffffffffffffffffffff16815260200190815260200160002060006101000a81548160ff021916908315150217905550611bd3611c32565b73ffffffffffffffffffffffffffffffffffffffff168173ffffffffffffffffffffffffffffffffffffffff16837f2f8788117e7eff1d82e926ec794901d17c78024a50270940304540a733656f0d60405160405180910390a45b5050565b600033905090565b611c4482826111e0565b15611d185760006008600084815260200190815260200160002060000160008373ffffffffffffffffffffffffffffffffffffffff1673ffffffffffffffffffffffffffffffffffffffff16815260200190815260200160002060006101000a81548160ff021916908315150217905550611cbd611c32565b73ffffffffffffffffffffffffffffffffffffffff168173ffffffffffffffffffffffffffffffffffffffff16837ff6391f5c32d9c69d2a47ea670b442974b53935d1edc7fd64eb21e047a839171b60405160405180910390a45b5050565b6000611d27836119a7565b90506000819050600080611d3a86611a73565b915091508415611da357611d568184611d5161199a565b611a9a565b611da257611d6b83611d6661199a565b6118a7565b611da1576040517f59c896be00000000000000000000000000000000000000000000000000000000815260040160405180910390fd5b5b5b611db1836000886001611ade565b8015611dbc57600082555b600160806001901b03600560008573ffffffffffffffffffffffffffffffffffffffff1673ffffffffffffffffffffffffffffffffffffffff16815260200190815260200160002060008282540192505081905550611e6483611e2185600088611ae4565b7c02000000000000000000000000000000000000000000000000000000007c01000000000000000000000000000000000000000000000000000000001717611b0c565b600460008881526020019081526020016000208190555060007c0200000000000000000000000000000000000000000000000000000000851603611eea5760006001870190506000600460008381526020019081526020016000205403611ee8576000548114611ee7578460046000838152602001908152602001600020819055505b5b505b85600073ffffffffffffffffffffffffffffffffffffffff168473ffffffffffffffffffffffffffffffffffffffff167fddf252ad1be2c89b69c2b068fc378daa952ba7f163c4a11628f55a4df523b3ef60405160405180910390a4611f54836000886001611b37565b600160008154809291906001019190505550505050505050565b611f76612795565b611f92600460008481526020019081526020016000205461220e565b9050919050565b60008054905090565b611fbc8282604051806020016040528060008152506122c4565b5050565b60008373ffffffffffffffffffffffffffffffffffffffff1663150b7a02611fe661199a565b8786866040518563ffffffff1660e01b81526004016120089493929190613898565b6020604051808303816000875af192505050801561204457506040513d601f19601f8201168201806040525081019061204191906138f9565b60015b6120bd573d8060008114612074576040519150601f19603f3d011682016040523d82523d6000602084013e612079565b606091505b5060008151036120b5576040517fd1a57ed600000000000000000000000000000000000000000000000000000000815260040160405180910390fd5b805181602001fd5b63150b7a0260e01b7bffffffffffffffffffffffffffffffffffffffffffffffffffffffff1916817bffffffffffffffffffffffffffffffffffffffffffffffffffffffff191614915050949350505050565b612118612795565b612129612124836119a7565b61220e565b9050919050565b606060a060405101806040526020810391506000825281835b60011561216b57600184039350600a81066030018453600a8104905080612149575b50828103602084039350808452505050919050565b60009392505050565b61219382826111e0565b61220a576121a081612361565b6121ae8360001c602061238e565b6040516020016121bf9291906139be565b6040516020818303038152906040526040517f08c379a00000000000000000000000000000000000000000000000000000000081526004016122019190612943565b60405180910390fd5b5050565b612216612795565b81816000019073ffffffffffffffffffffffffffffffffffffffff16908173ffffffffffffffffffffffffffffffffffffffff168152505060a082901c816020019067ffffffffffffffff16908167ffffffffffffffff168152505060007c01000000000000000000000000000000000000000000000000000000008316141581604001901515908115158152505060e882901c816060019062ffffff16908162ffffff1681525050919050565b6122ce83836125ca565b60008373ffffffffffffffffffffffffffffffffffffffff163b1461235c57600080549050600083820390505b61230e6000868380600101945086611fc0565b612344576040517fd1a57ed600000000000000000000000000000000000000000000000000000000815260040160405180910390fd5b8181106122fb57816000541461235957600080fd5b50505b505050565b60606123878273ffffffffffffffffffffffffffffffffffffffff16601460ff1661238e565b9050919050565b6060600060028360026123a19190613a27565b6123ab9190613a69565b67ffffffffffffffff8111156123c4576123c3613022565b5b6040519080825280601f01601f1916602001820160405280156123f65781602001600182028036833780820191505090505b5090507f30000000000000000000000000000000000000000000000000000000000000008160008151811061242e5761242d61345c565b5b60200101907effffffffffffffffffffffffffffffffffffffffffffffffffffffffffffff1916908160001a9053507f7800000000000000000000000000000000000000000000000000000000000000816001815181106124925761249161345c565b5b60200101907effffffffffffffffffffffffffffffffffffffffffffffffffffffffffffff1916908160001a905350600060018460026124d29190613a27565b6124dc9190613a69565b90505b600181111561257c577f3031323334353637383961626364656600000000000000000000000000000000600f86166010811061251e5761251d61345c565b5b1a60f81b8282815181106125355761253461345c565b5b60200101907effffffffffffffffffffffffffffffffffffffffffffffffffffffffffffff1916908160001a905350600485901c94508061257590613a9d565b90506124df565b50600084146125c0576040517f08c379a00000000000000000000000000000000000000000000000000000000081526004016125b790613b12565b60405180910390fd5b8091505092915050565b6000805490506000820361260a576040517fb562e8dd00000000000000000000000000000000000000000000000000000000815260040160405180910390fd5b6126176000848385611ade565b600160406001901b178202600560008573ffffffffffffffffffffffffffffffffffffffff1673ffffffffffffffffffffffffffffffffffffffff1681526020019081526020016000206000828254019250508190555061268e8361267f6000866000611ae4565b61268885612785565b17611b0c565b6004600083815260200190815260200160002081905550600080838301905073ffffffffffffffffffffffffffffffffffffffff85169150828260007fddf252ad1be2c89b69c2b068fc378daa952ba7f163c4a11628f55a4df523b3ef600080a4600183015b81811461272f57808360007fddf252ad1be2c89b69c2b068fc378daa952ba7f163c4a11628f55a4df523b3ef600080a46001810190506126f4565b506000820361276a576040517f2e07630000000000000000000000000000000000000000000000000000000000815260040160405180910390fd5b8060008190555050506127806000848385611b37565b505050565b60006001821460e11b9050919050565b6040518060800160405280600073ffffffffffffffffffffffffffffffffffffffff168152602001600067ffffffffffffffff168152602001600015158152602001600062ffffff1681525090565b6000604051905090565b600080fd5b600080fd5b60007fffffffff0000000000000000000000000000000000000000000000000000000082169050919050565b61282d816127f8565b811461283857600080fd5b50565b60008135905061284a81612824565b92915050565b600060208284031215612866576128656127ee565b5b60006128748482850161283b565b91505092915050565b60008115159050919050565b6128928161287d565b82525050565b60006020820190506128ad6000830184612889565b92915050565b600081519050919050565b600082825260208201905092915050565b60005b838110156128ed5780820151818401526020810190506128d2565b60008484015250505050565b6000601f19601f8301169050919050565b6000612915826128b3565b61291f81856128be565b935061292f8185602086016128cf565b612938816128f9565b840191505092915050565b6000602082019050818103600083015261295d818461290a565b905092915050565b6000819050919050565b61297881612965565b811461298357600080fd5b50565b6000813590506129958161296f565b92915050565b6000602082840312156129b1576129b06127ee565b5b60006129bf84828501612986565b91505092915050565b600073ffffffffffffffffffffffffffffffffffffffff82169050919050565b60006129f3826129c8565b9050919050565b612a03816129e8565b82525050565b6000602082019050612a1e60008301846129fa565b92915050565b612a2d816129e8565b8114612a3857600080fd5b50565b600081359050612a4a81612a24565b92915050565b60008060408385031215612a6757612a666127ee565b5b6000612a7585828601612a3b565b9250506020612a8685828601612986565b9150509250929050565b6000819050919050565b612aa381612a90565b82525050565b6000602082019050612abe6000830184612a9a565b92915050565b612acd81612965565b82525050565b6000602082019050612ae86000830184612ac4565b92915050565b600080600060608486031215612b0757612b066127ee565b5b6000612b1586828701612a3b565b9350506020612b2686828701612a3b565b9250506040612b3786828701612986565b9150509250925092565b612b4a81612a90565b8114612b5557600080fd5b50565b600081359050612b6781612b41565b92915050565b600060208284031215612b8357612b826127ee565b5b6000612b9184828501612b58565b91505092915050565b60008060408385031215612bb157612bb06127ee565b5b6000612bbf85828601612b58565b9250506020612bd085828601612a3b565b9150509250929050565b600080fd5b600080fd5b600080fd5b60008083601f840112612bff57612bfe612bda565b5b8235905067ffffffffffffffff811115612c1c57612c1b612bdf565b5b602083019150836020820283011115612c3857612c37612be4565b5b9250929050565b60008060208385031215612c5657612c556127ee565b5b600083013567ffffffffffffffff811115612c7457612c736127f3565b5b612c8085828601612be9565b92509250509250929050565b600081519050919050565b600082825260208201905092915050565b6000819050602082019050919050565b612cc1816129e8565b82525050565b600067ffffffffffffffff82169050919050565b612ce481612cc7565b82525050565b612cf38161287d565b82525050565b600062ffffff82169050919050565b612d1181612cf9565b82525050565b608082016000820151612d2d6000850182612cb8565b506020820151612d406020850182612cdb565b506040820151612d536040850182612cea565b506060820151612d666060850182612d08565b50505050565b6000612d788383612d17565b60808301905092915050565b6000602082019050919050565b6000612d9c82612c8c565b612da68185612c97565b9350612db183612ca8565b8060005b83811015612de2578151612dc98882612d6c565b9750612dd483612d84565b925050600181019050612db5565b5085935050505092915050565b60006020820190508181036000830152612e098184612d91565b905092915050565b600060208284031215612e2757612e266127ee565b5b6000612e3584828501612a3b565b91505092915050565b600081519050919050565b600082825260208201905092915050565b6000819050602082019050919050565b612e7381612965565b82525050565b6000612e858383612e6a565b60208301905092915050565b6000602082019050919050565b6000612ea982612e3e565b612eb38185612e49565b9350612ebe83612e5a565b8060005b83811015612eef578151612ed68882612e79565b9750612ee183612e91565b925050600181019050612ec2565b5085935050505092915050565b60006020820190508181036000830152612f168184612e9e565b905092915050565b600080600060608486031215612f3757612f366127ee565b5b6000612f4586828701612a3b565b9350506020612f5686828701612986565b9250506040612f6786828701612986565b9150509250925092565b612f7a8161287d565b8114612f8557600080fd5b50565b600081359050612f9781612f71565b92915050565b60008060408385031215612fb457612fb36127ee565b5b6000612fc285828601612a3b565b9250506020612fd385828601612f88565b9150509250929050565b60008060408385031215612ff457612ff36127ee565b5b600061300285828601612986565b925050602061301385828601612a3b565b9150509250929050565b600080fd5b7f4e487b7100000000000000000000000000000000000000000000000000000000600052604160045260246000fd5b61305a826128f9565b810181811067ffffffffffffffff8211171561307957613078613022565b5b80604052505050565b600061308c6127e4565b90506130988282613051565b919050565b600067ffffffffffffffff8211156130b8576130b7613022565b5b6130c1826128f9565b9050602081019050919050565b82818337600083830152505050565b60006130f06130eb8461309d565b613082565b90508281526020810184848401111561310c5761310b61301d565b5b6131178482856130ce565b509392505050565b600082601f83011261313457613133612bda565b5b81356131448482602086016130dd565b91505092915050565b60008060008060808587031215613167576131666127ee565b5b600061317587828801612a3b565b945050602061318687828801612a3b565b935050604061319787828801612986565b925050606085013567ffffffffffffffff8111156131b8576131b76127f3565b5b6131c48782880161311f565b91505092959194509250565b6080820160008201516131e66000850182612cb8565b5060208201516131f96020850182612cdb565b50604082015161320c6040850182612cea565b50606082015161321f6060850182612d08565b50505050565b600060808201905061323a60008301846131d0565b92915050565b600067ffffffffffffffff82111561325b5761325a613022565b5b613264826128f9565b9050602081019050919050565b600061328461327f84613240565b613082565b9050828152602081018484840111156132a05761329f61301d565b5b6132ab8482856130ce565b509392505050565b600082601f8301126132c8576132c7612bda565b5b81356132d8848260208601613271565b91505092915050565b6000602082840312156132f7576132f66127ee565b5b600082013567ffffffffffffffff811115613315576133146127f3565b5b613321848285016132b3565b91505092915050565b60008060408385031215613341576133406127ee565b5b600061334f85828601612a3b565b925050602061336085828601612a3b565b9150509250929050565b7f4e487b7100000000000000000000000000000000000000000000000000000000600052602260045260246000fd5b600060028204905060018216806133b157607f821691505b6020821081036133c4576133c361336a565b5b50919050565b7f416363657373436f6e74726f6c3a2063616e206f6e6c792072656e6f756e636560008201527f20726f6c657320666f722073656c660000000000000000000000000000000000602082015250565b6000613426602f836128be565b9150613431826133ca565b604082019050919050565b6000602082019050818103600083015261345581613419565b9050919050565b7f4e487b7100000000000000000000000000000000000000000000000000000000600052603260045260246000fd5b60008190508160005260206000209050919050565b60006020601f8301049050919050565b600082821b905092915050565b6000600883026134ed7fffffffffffffffffffffffffffffffffffffffffffffffffffffffffffffffff826134b0565b6134f786836134b0565b95508019841693508086168417925050509392505050565b6000819050919050565b600061353461352f61352a84612965565b61350f565b612965565b9050919050565b6000819050919050565b61354e83613519565b61356261355a8261353b565b8484546134bd565b825550505050565b600090565b61357761356a565b613582818484613545565b505050565b5b818110156135a65761359b60008261356f565b600181019050613588565b5050565b601f8211156135eb576135bc8161348b565b6135c5846134a0565b810160208510156135d4578190505b6135e86135e0856134a0565b830182613587565b50505b505050565b600082821c905092915050565b600061360e600019846008026135f0565b1980831691505092915050565b600061362783836135fd565b9150826002028217905092915050565b613640826128b3565b67ffffffffffffffff81111561365957613658613022565b5b6136638254613399565b61366e8282856135aa565b600060209050601f8311600181146136a1576000841561368f578287015190505b613699858261361b565b865550613701565b601f1984166136af8661348b565b60005b828110156136d7578489015182556001820191506020850194506020810190506136b2565b868310156136f457848901516136f0601f8916826135fd565b8355505b6001600288020188555050505b505050505050565b600081905092915050565b6000815461372181613399565b61372b8186613709565b94506001821660008114613746576001811461375b5761378e565b60ff198316865281151582028601935061378e565b6137648561348b565b60005b8381101561378657815481890152600182019150602081019050613767565b838801955050505b50505092915050565b60006137a2826128b3565b6137ac8185613709565b93506137bc8185602086016128cf565b80840191505092915050565b7f2e6a736f6e000000000000000000000000000000000000000000000000000000600082015250565b60006137fe600583613709565b9150613809826137c8565b600582019050919050565b60006138208285613714565b915061382c8284613797565b9150613837826137f1565b91508190509392505050565b600081519050919050565b600082825260208201905092915050565b600061386a82613843565b613874818561384e565b93506138848185602086016128cf565b61388d816128f9565b840191505092915050565b60006080820190506138ad60008301876129fa565b6138ba60208301866129fa565b6138c76040830185612ac4565b81810360608301526138d9818461385f565b905095945050505050565b6000815190506138f381612824565b92915050565b60006020828403121561390f5761390e6127ee565b5b600061391d848285016138e4565b91505092915050565b7f416363657373436f6e74726f6c3a206163636f756e7420000000000000000000600082015250565b600061395c601783613709565b915061396782613926565b601782019050919050565b7f206973206d697373696e6720726f6c6520000000000000000000000000000000600082015250565b60006139a8601183613709565b91506139b382613972565b601182019050919050565b60006139c98261394f565b91506139d58285613797565b91506139e08261399b565b91506139ec8284613797565b91508190509392505050565b7f4e487b7100000000000000000000000000000000000000000000000000000000600052601160045260246000fd5b6000613a3282612965565b9150613a3d83612965565b9250828202613a4b81612965565b91508282048414831517613a6257613a616139f8565b5b5092915050565b6000613a7482612965565b9150613a7f83612965565b9250828201905080821115613a9757613a966139f8565b5b92915050565b6000613aa882612965565b915060008203613abb57613aba6139f8565b5b600182039050919050565b7f537472696e67733a20686578206c656e67746820696e73756666696369656e74600082015250565b6000613afc6020836128be565b9150613b0782613ac6565b602082019050919050565b60006020820190508181036000830152613b2b81613aef565b905091905056fea2646970667358221220095d3ed08045115127ac16abf45d64c14943360e7e3e6d468dc6c607644b094064736f6c63430008110033",
  "immutableReferences": {},
  "source": "// SPDX-License-Identifier: MIT\r\n// Modified ERC721A Contracts v4.2.3\r\n// Creator: Jeffrey Anthony @ Tech Enterprises \r\n// line 86 has been edited begrudgingly to uint256 private constant _MAX_MINT_ERC2309_QUANTITY_LIMIT = 504000; the previous amount was 5000\r\n\r\npragma solidity ^0.8.17;\r\n\r\nimport '../node_modules/erc721a/contracts/extensions/ERC721ABurnable.sol';\r\nimport '../node_modules/erc721a/contracts/extensions/ERC721AQueryable.sol';\r\nimport \"../node_modules/@openzeppelin/contracts/access/AccessControl.sol\";\r\n\r\ncontract Zodiach is ERC721A('Zodiach Press', 'ZOD'), ERC721ABurnable, ERC721AQueryable, AccessControl {\r\n    /**\r\n     * @dev Base URI for computing {tokenURI} in 721A. If set, the resulting URI for each\r\n     * token will be the concatenation of the `baseURI` and the `tokenId`. Empty\r\n     * by default, it can be overridden in child contracts.\r\n     */\r\n\r\n    string private _URI;\r\n    bytes32 public constant OWNER_ROLE = keccak256(\"OWNER_ROLE\");\r\n    bytes32 public constant MINTER_ROLE = keccak256(\"MINTER_ROLE\");\r\n    bytes32 public constant URI_ROLE = keccak256(\"URI_ROLE\");\r\n    \r\n    function supportsInterface(bytes4 interfaceId) public view virtual override(AccessControl, ERC721A, IERC721A) returns (bool) {\r\n        // The interface IDs are constants representing the first 4 bytes\r\n        // of the XOR of all function selectors in the interface.\r\n        // See: [ERC165](https://eips.ethereum.org/EIPS/eip-165)\r\n        // (e.g. `bytes4(i.functionA.selector ^ i.functionB.selector ^ ...)`)\r\n        return\r\n            interfaceId == 0x01ffc9a7 || // ERC165 interface ID for ERC165.\r\n            interfaceId == 0x80ac58cd || // ERC165 interface ID for ERC721.\r\n            interfaceId == 0x5b5e139f; // ERC165 interface ID for ERC721Metadata.\r\n            // Below is the interfaceid from AccessControl here https://github.com/OpenZeppelin/openzeppelin-contracts/blob/master/contracts/access/AccessControl.sol\r\n            //interfaceId == type(IAccessControl).interfaceId || super.supportsInterface(interfaceId); \r\n    }\r\n\r\n    constructor() {\r\n        _grantRole(DEFAULT_ADMIN_ROLE, msg.sender);\r\n        _grantRole(MINTER_ROLE, msg.sender);\r\n        _grantRole(URI_ROLE, msg.sender);\r\n        _mintERC2309(msg.sender, 764);\r\n        _URI = 'http://192.168.1.3/nft/json/';\r\n\r\n    }\r\n\r\n    // =============================================================\r\n    //                     URI OPERATIONS\r\n    // =============================================================\r\n\r\n    function updateURI(string memory _newURI) public onlyRole(URI_ROLE) returns (bool) {\r\n        _URI = _newURI;\r\n        return true;\r\n    }\r\n\r\n    /**\r\n     * @dev Returns the Uniform Resource Identifier (URI) for `tokenId` token.\r\n     */\r\n    function tokenURI(uint256 _tokenId) public view virtual override(ERC721A, IERC721A) returns (string memory) {\r\n        if (!_exists(_tokenId)) revert URIQueryForNonexistentToken();\r\n        return bytes(_URI).length != 0 ? string(abi.encodePacked(_URI, _toString(_tokenId), '.json')) : '';\r\n    }\r\n\r\n    // =============================================================\r\n    //                     MINT OPERATIONS\r\n    // =============================================================\r\n\r\n    function mint(uint256 _quantity) public onlyRole(MINTER_ROLE) returns (bool) {\r\n        _safeMint(msg.sender, _quantity);\r\n        return true;\r\n    }\r\n\r\n    function mintTo(uint256 _quantity, address _mintee) public onlyRole(MINTER_ROLE) returns (bool) {\r\n        _safeMint(_mintee, _quantity);\r\n        return true;\r\n    }\r\n}",
  "sourcePath": "c:\\Users\\jeffa\\OneDrive\\Documents\\code\\solidity\\zodiach\\contracts\\Zodiach.sol",
  "compiler": {
    "name": "solc",
    "version": "0.8.17+commit.8df45f5f.Emscripten.clang"
  },
  "schemaVersion": "3.4.11",
  "updatedAt": "2022-12-16T23:12:09.650Z",
  "devdoc": {
    "kind": "dev",
    "methods": {
      "approve(address,uint256)": {
        "details": "Gives permission to `to` to transfer `tokenId` token to another account. The approval is cleared when the token is transferred. Only a single account can be approved at a time, so approving the zero address clears previous approvals. Requirements: - The caller must own the token or be an approved operator. - `tokenId` must exist. Emits an {Approval} event."
      },
      "balanceOf(address)": {
        "details": "Returns the number of tokens in `owner`'s account."
      },
      "burn(uint256)": {
        "details": "Burns `tokenId`. See {ERC721A-_burn}. Requirements: - The caller must own `tokenId` or be an approved operator."
      },
      "explicitOwnershipOf(uint256)": {
        "details": "Returns the `TokenOwnership` struct at `tokenId` without reverting. If the `tokenId` is out of bounds: - `addr = address(0)` - `startTimestamp = 0` - `burned = false` - `extraData = 0` If the `tokenId` is burned: - `addr = <Address of owner before token was burned>` - `startTimestamp = <Timestamp when token was burned>` - `burned = true` - `extraData = <Extra data when token was burned>` Otherwise: - `addr = <Address of owner>` - `startTimestamp = <Timestamp of start of ownership>` - `burned = false` - `extraData = <Extra data at start of ownership>`"
      },
      "explicitOwnershipsOf(uint256[])": {
        "details": "Returns an array of `TokenOwnership` structs at `tokenIds` in order. See {ERC721AQueryable-explicitOwnershipOf}"
      },
      "getApproved(uint256)": {
        "details": "Returns the account approved for `tokenId` token. Requirements: - `tokenId` must exist."
      },
      "getRoleAdmin(bytes32)": {
        "details": "Returns the admin role that controls `role`. See {grantRole} and {revokeRole}. To change a role's admin, use {_setRoleAdmin}."
      },
      "grantRole(bytes32,address)": {
        "details": "Grants `role` to `account`. If `account` had not been already granted `role`, emits a {RoleGranted} event. Requirements: - the caller must have ``role``'s admin role. May emit a {RoleGranted} event."
      },
      "hasRole(bytes32,address)": {
        "details": "Returns `true` if `account` has been granted `role`."
      },
      "isApprovedForAll(address,address)": {
        "details": "Returns if the `operator` is allowed to manage all of the assets of `owner`. See {setApprovalForAll}."
      },
      "name()": {
        "details": "Returns the token collection name."
      },
      "ownerOf(uint256)": {
        "details": "Returns the owner of the `tokenId` token. Requirements: - `tokenId` must exist."
      },
      "renounceRole(bytes32,address)": {
        "details": "Revokes `role` from the calling account. Roles are often managed via {grantRole} and {revokeRole}: this function's purpose is to provide a mechanism for accounts to lose their privileges if they are compromised (such as when a trusted device is misplaced). If the calling account had been revoked `role`, emits a {RoleRevoked} event. Requirements: - the caller must be `account`. May emit a {RoleRevoked} event."
      },
      "revokeRole(bytes32,address)": {
        "details": "Revokes `role` from `account`. If `account` had been granted `role`, emits a {RoleRevoked} event. Requirements: - the caller must have ``role``'s admin role. May emit a {RoleRevoked} event."
      },
      "safeTransferFrom(address,address,uint256)": {
        "details": "Equivalent to `safeTransferFrom(from, to, tokenId, '')`."
      },
      "safeTransferFrom(address,address,uint256,bytes)": {
        "details": "Safely transfers `tokenId` token from `from` to `to`. Requirements: - `from` cannot be the zero address. - `to` cannot be the zero address. - `tokenId` token must exist and be owned by `from`. - If the caller is not `from`, it must be approved to move this token by either {approve} or {setApprovalForAll}. - If `to` refers to a smart contract, it must implement {IERC721Receiver-onERC721Received}, which is called upon a safe transfer. Emits a {Transfer} event."
      },
      "setApprovalForAll(address,bool)": {
        "details": "Approve or remove `operator` as an operator for the caller. Operators can call {transferFrom} or {safeTransferFrom} for any token owned by the caller. Requirements: - The `operator` cannot be the caller. Emits an {ApprovalForAll} event."
      },
      "symbol()": {
        "details": "Returns the token collection symbol."
      },
      "tokenURI(uint256)": {
        "details": "Returns the Uniform Resource Identifier (URI) for `tokenId` token."
      },
      "tokensOfOwner(address)": {
        "details": "Returns an array of token IDs owned by `owner`. This function scans the ownership mapping and is O(`totalSupply`) in complexity. It is meant to be called off-chain. See {ERC721AQueryable-tokensOfOwnerIn} for splitting the scan into multiple smaller scans if the collection is large enough to cause an out-of-gas error (10K collections should be fine)."
      },
      "tokensOfOwnerIn(address,uint256,uint256)": {
        "details": "Returns an array of token IDs owned by `owner`, in the range [`start`, `stop`) (i.e. `start <= tokenId < stop`). This function allows for tokens to be queried if the collection grows too big for a single call of {ERC721AQueryable-tokensOfOwner}. Requirements: - `start < stop`"
      },
      "totalSupply()": {
        "details": "Returns the total number of tokens in existence. Burned tokens will reduce the count. To get the total number of tokens minted, please see {_totalMinted}."
      },
      "transferFrom(address,address,uint256)": {
        "details": "Transfers `tokenId` from `from` to `to`. Requirements: - `from` cannot be the zero address. - `to` cannot be the zero address. - `tokenId` token must be owned by `from`. - If the caller is not `from`, it must be approved to move this token by either {approve} or {setApprovalForAll}. Emits a {Transfer} event."
      }
    },
    "stateVariables": {
      "_URI": {
        "details": "Base URI for computing {tokenURI} in 721A. If set, the resulting URI for each token will be the concatenation of the `baseURI` and the `tokenId`. Empty by default, it can be overridden in child contracts."
      }
    },
    "version": 1
  },
  "userdoc": {
    "errors": {
      "ApprovalCallerNotOwnerNorApproved()": [
        {
          "notice": "The caller must own the token or be an approved operator."
        }
      ],
      "ApprovalQueryForNonexistentToken()": [
        {
          "notice": "The token does not exist."
        }
      ],
      "BalanceQueryForZeroAddress()": [
        {
          "notice": "Cannot query the balance for the zero address."
        }
      ],
      "InvalidQueryRange()": [
        {
          "notice": "Invalid query range (`start` >= `stop`)."
        }
      ],
      "MintERC2309QuantityExceedsLimit()": [
        {
          "notice": "The `quantity` minted with ERC2309 exceeds the safety limit."
        }
      ],
      "MintToZeroAddress()": [
        {
          "notice": "Cannot mint to the zero address."
        }
      ],
      "MintZeroQuantity()": [
        {
          "notice": "The quantity of tokens minted must be more than zero."
        }
      ],
      "OwnerQueryForNonexistentToken()": [
        {
          "notice": "The token does not exist."
        }
      ],
      "OwnershipNotInitializedForExtraData()": [
        {
          "notice": "The `extraData` cannot be set on an unintialized ownership slot."
        }
      ],
      "TransferCallerNotOwnerNorApproved()": [
        {
          "notice": "The caller must own the token or be an approved operator."
        }
      ],
      "TransferFromIncorrectOwner()": [
        {
          "notice": "The token must be owned by `from`."
        }
      ],
      "TransferToNonERC721ReceiverImplementer()": [
        {
          "notice": "Cannot safely transfer to a contract that does not implement the ERC721Receiver interface."
        }
      ],
      "TransferToZeroAddress()": [
        {
          "notice": "Cannot transfer to the zero address."
        }
      ],
      "URIQueryForNonexistentToken()": [
        {
          "notice": "The token does not exist."
        }
      ]
    },
    "kind": "user",
    "methods": {},
    "version": 1
  }
}